:10000000E010002015040000BD030000E303000021
:10001000EF0300002F040000310400000000000086
:100020000000000000000000000000003304000099
:10003000350400000000000037040000390400000F
:100040003B0400003D0400003F04000041040000A8
:100050004304000045040000470400004904000078
:100060004B0400004D0400004F0400005104000048
:100070005304000055040000570400005904000018
:100080005B0400005D0400005F04000061040000E8
:1000900063040000650400006704000069040000B8
:1000A0006B0400006D0400006F0400007104000088
:1000B0007304000075040000770400007904000058
:1000C0007B0400007D040000DFF800F07D000020CC
:1000D000DFF800F02F000020F8B5040025005FF0E5
:1000E000FF30002604E00100FF2000F0A1F8761C9C
:1000F000802EF8D38034002605E00100207800F03F
:1001000097F8641C761CB6F5F06FF6D3B5F8481076
:100110004F1C09E00100207800F08AF8641C761C6E
:10012000B6F5006FF6D37F1CB5F8481089B2090AFE
:1001300089B2FFB2B94201DB0026F1E7002604E0F4
:100140000100FF2000F074F8761CB6F5205FF7D3AD
:10015000696CC043814201D1012000E00020F2BD62
:10016000F8B504000D00160010E02800FFF7ACFF02
:100170003700B7F5006F01DD4FF40067220039004A
:100180002800FFF7A5FF3D443C44F61B012EECDAA6
:10019000F1BD0000F8B54FF480442148006850F0EC
:1001A00020001F4908604FF4904502E04FF40060C2
:1001B0000544B5F5802F2AD22800018A40F6A722EF
:1001C0009142F3D190F8481001F0FF014FF4006222
:1001D00002FB01F6B0F8480080B2000A80B24FF48A
:1001E000006101FB00F7B6F5804FDFD12800FFF773
:1001F00073FF002808D04FF400603844821B4FF48E
:1002000080412800FFF7ACFF2800FFF75DFF606921
:10021000044908602068854660688047F1BD000099
:10022000B0400E4008ED00E080B5FFF7B3FF01BD20
:100230000A0AC0B2484000F0FF01002001E049086E
:10024000401CC0B2082805DACB07F8D5034B93EA67
:100250005101F5E791EA0200704700002083B8EDF4
:100260002E4A106001202E4A10602E48016008209E
:100270002B4908602C480068C007FBD4704770B554
:1002800004000D0016002948006850F001002749BD
:10029000086006E031682000FFF7E2FF241D361DEC
:1002A0002D1F042DF6D2002D09D031685FF0FF30EC
:1002B000EDB2EA00904001432000FFF7D1FF1B4858
:1002C0000068400840001949086070BD5FF0FF31C8
:1002D000164A126852F00102144B1A60020002E042
:1002E00013681940121D10F500639A42F8D311F1FA
:1002F000010F0BD00949086001200949086002205C
:100300000749086008480068C007FBD40748006830
:1003100040084000054908607047000010000E408A
:100320000C000E4018000E401C000E4008000E404D
:1003300010B450F8041B79B10268436802440830D5
:10034000DC0744BFA9F10104E31852F8044B43F859
:10035000044B091FF9D1ECE710BC704710B50749F1
:1003600079441831064C7C44163404E00A68081DB0
:10037000114488470146A142F8D110BD2C0000006D
:100380003C0000004EF68851CEF20001086840F4AF
:1003900070000860BFF34F8FBFF36F8F4FF0007096
:1003A000E1EE100A7047000089FFFFFFD000000057
:1003B000B0FEFFFF1000002000000000FEE700007C
:1003C00000F00BF8002801D0FFF7C8FF0020AFF3C2
:1003D0000080FFF729FF00F002F80120704700F0CD
:1003E00001B8FEE70746384600F002F8FBE7FEE7F3
:1003F00080B5AFF30080024A11001820ABBEFBE7C6
:10040000260002000248016841F470010160704753
:1004100088ED00E080B5FFF7F5FFBDE8014000F092
:1004200000B8AFF30080FFF7ADFFFFF7C9FFFEE7AD
:10043000FEE7FEE7FEE7FEE7FEE7FEE7FEE7FEE794
:10044000FEE7FEE7FEE7FEE7FEE7FEE7FEE7FEE784
:10045000FEE7FEE7FEE7FEE7FEE7FEE7FEE7FEE774
:10046000FEE7FEE7FEE7FEE7FEE7FEE7FEE7FEE764
:10047000FEE7FEE7FEE7FEE7FEE7FEE7FEE7000039
:10048000000000000000000000000000000000006C
:10049000000000000000000000000000000000005C
:1004A000000000000000000000000000000000004C
:1004B000000000000000000000000000000000003C
:10400000F87B00204B0A020087CE000093F30000EB
:10401000A70A00010041000000000080000000002D
:10402000C335E1AC0000000000000000000000000B
:104030000000000000000000000000000000000080
:1040400000000000206D73B10000000000000000BF
:1040500000000000FFFFFFFF000000000000000064
:104060000000000000000000000000000000000050
:104070000000000000000000000000000000000040
:104080000000000000000000000000000000000030
:104090000000000000000000000000000000000020
:1040A0000000000000000000000000000000000010
:1040B0000000000000000000000000000000000000
:1040C00000000000000000000000000000000000F0
:1040D00000000000000000000000000000000000E0
:1040E00000000000000000000000000000000000D0
:1040F00000000000000000000000000000000000C0
:10410000F87B00204B0A020087CE000093F30000EA
:10411000E70701009F1401003315010000000000B3
:10412000000000000000000000000000FF16010079
:10413000E3220100000000005F4001007741010020
:1041400089950000ED7701003B500100F5770100F3
:1041500021780100FF770100FD7701001978010047
:1041600033530100235F0100B75F01008760010046
:10417000E7610100676E0100CF800100FBAC010028
:10418000CBAE01001FCB01007BCB01000FCC0100A7
:104190002FF10100AF010200E3060200E70902006F
:1041A000070A0200650A0200670A02000978010096
:1041B000117801002B080100690A02006B0A020055
:1041C000AD0902006D0A02000000000000000000BE
:1041D00000000000000000000000000000000000DF
:1041E00000000000000000000000000000000000CF
:1041F00000000000000000000000000000000000BF
:104200000298380002983E000298A002029800032B
:1042100002985C0002986A0002985C000298F20022
:104220000298A0010298C0010298F40102980202CB
:1042300002986E0202988A020698660700F80698AD
:10424000660700C59C0F00210698EC080698F60A40
:104250000698600B00C5A00F002100F806986607BD
:104260000698840B0698AA0A00F80698660710B903
:1042700002BA06982C0600C5A00F002100F8911282
:10428000033288B903DE52727179811002D8FC7250
:10429000A11020D812710698EC080698F60A069824
:1042A000600B00B95E7000C3000F0021341380DB87
:1042B0001C7100C3A8100840A1141034024C48130C
:1042C00000BC481391140764FF3448138CBB627B15
:1042D00040D80E71517900BA7079811001D8FC7202
:1042E000076A00C0A00008400698480E0420029803
:1042F000480E0698660700BD0698F20710B903DC61
:10430000047100B902BA06982C0604D9067101D8C6
:10431000207106988001FFD8087288B847783670F7
:10432000911008D8067100B8617820B802A800F88A
:1043300000C0000F0021041320DB1A71911008D86F
:1043400008718CB84378BC7008DBB872A11308DB25
:10435000B27203BD069874010698840B00C5A40FC1
:1043600000210698F20703DC0472042506987609FA
:104370000298CE0C9110015503355150011900A03F
:1043800001B8811180D9187100C10C500840141077
:1043900004300C7200C1A45008401410013000A079
:1043A000069866070698840B00BD0698740188B8C5
:1043B000477800C5AC0F0021069876090298CE0C0C
:1043C0000698660706988001FFD8067208B86078DC
:1043D00000C20000020206982A0600F80698540E51
:1043E00088B850785178911104D9047248788CB803
:1043F000427800A0069866070698DC010698AA0A8B
:1044000000F8069866070698F20707DC0A7200C5EE
:10441000A00F002100F80698AA0A03B9911004D849
:10442000047100B900C20000020006982C0601D8F1
:10443000207200C0000F0021041120D914710761FF
:1044400001D9E0728110076001D8D8728CB8637806
:104450000698DC0100C5B00F00210698EC0806980C
:10446000F60A0698600B00C5B40F002100F8069804
:1044700066070698DC0100BD0698740188B8477885
:1044800000C5B80F00210298CE0C06986607069862
:10449000F60D0698840B0698AA0A0698DC0100F827
:1044A000B110076001D80A7108B87F78020C7E78D5
:1044B0000698660701F8911008D8347100C0080FFB
:1044C00000210410015800C2905008402414415C9F
:1044D000A0222413E8222411412931390129F87539
:1044E00018B874788CB8437801B802A800F802981C
:1044F000AA0B0698B20800C024000840207800F8F3
:104500000698660700B8011A91100F30011900C211
:104510000202000006982A0604D9067101B802A812
:1045200000C0000F0021041380DB06720298B20461
:104530000763076301DB0A7190B963790298A405E8
:10454000076300B902EC00CD114502EC00CC41112B
:1045500003B804D91E720731911208DA087102DD1E
:104560001272147002B807600698660E303808722E
:1045700008B80298F20202EC00CA05B801DB127119
:1045800020DA0E7110DAEC7201DA0A71ADB80A7035
:1045900023DAE07202EC00C8076891110F31114074
:1045A0002111C0311140011990B820DA04716178ED
:1045B000411108D90471627820D9047263782731D7
:1045C00023DD0872C0DA0471607803B84111073145
:1045D0000872A11508359C7102DD2872A11108D955
:1045E000927102D91E72CCDA8A7206B802DB0C71A3
:1045F000026D5111FFD952720765054D4C72029838
:10460000A40521114049C0D93E71A0314115403562
:1046100001655141036108DA207204DA2A721049F7
:10462000A1150235067108DB107201340C71076B9D
:1046300080DB147190B8677800C00D0F0C0D0698E0
:10464000680E01D8087207B80298F202CC32204AEC
:1046500000C0051708500698680E113001422088E6
:104660000DDA06720298760500C1C618000020BB5C
:1046700004DA0E7208DA087242B90369F823E823F3
:104680003114056B01DA06710649024B076B076BA3
:1046900000C0540F00213810BC2002DA107100B99C
:1046A000FF21A11380DB06717CB9076918100298FD
:1046B000F20401DB34710698E20502DB1871FC227A
:1046C0002410112811280698A00E00C218000840D6
:1046D000FF20081200C05A0F002104100760076075
:1046E0000698760E01D8087120BC10DB067202987D
:1046F000A40500BB00C1540F00211415511207621C
:104700000762C021112CFF320E71408851140698A7
:10471000AE054143009441115112076AFF320E71F8
:10472000511407640698AE05076C414300C1580F49
:1047300000211410013BB82114113110FF300C710D
:1047400004610112006001DAF87131100760FF3076
:104750000C7100610112006001DAF87101D90C726C
:1047600088B8787804B80298F20200C0000F0021DF
:10477000041380DB307100920362DDDA0671029867
:104780005E04A11101D91E7100C238100840241224
:104790000420281002EC00C804D90A7204DC067256
:1047A00018B873780698B00C00B8477800F83088CD
:1047B0005088FF34087102ECFF24F87002EC00CD41
:1047C000141001BB5150FFD8047131440760006BD5
:1047D00010DBF2710421FF22E4720F4C009500936C
:1047E00000A000C25C0F002124111114FF3402EC60
:1047F00000C8FF24FA760761113807610698760E23
:10480000011108222410112806988A0E00DC087273
:1048100003B80298F20200A088BA727A811204DA10
:10482000FC7200A088BA527A00A0187006988A0814
:1048300010D906710CDB087200B8103C067201B882
:10484000076A00BB00C10C0F002100C4B45008402F
:10485000141120391272417B007CB82400C2000080
:104860000101281400A00698180600C2000F0021BC
:10487000241240DA0672617B007C02982406B11093
:1048800001D8047200A000C02870084004111088EC
:1048900000C1001800401810442004111088A820FE
:1048A000041110884CBA757A18103DB11088F4B80C
:1048B000427844207278D8207378E82073784FB219
:1048C00000C4FFFF8080413A4FAA01BC016441133C
:1048D000076300C06C70084003B918100110011084
:1048E00001B91810011001100110011098200411D5
:1048F000076101B80160003A0471044904D90472E7
:1049000041520760003A0471084908D904723152D3
:104910000460003B0E7200630064314241424FAAC2
:10492000B2704FAA44B801685378F8B85378402061
:10493000527800913DA9009100C0147008401810F1
:104940000091582018100091BC20181000A000C041
:10495000FFFF0000013C1DB00220015840280675F1
:104960001EAC01EC00A0009000C6C00F0021008822
:1049700001B0076800C3680F00213414036C415074
:104980000F30415008130F3003640F340111C04839
:10499000069800080698240603DD1C7204BA00C0BD
:1049A0006C000840041110D9047106BA10232813B2
:1049B000047802989E0801DD0C7200C04400084093
:1049C0002578267809DD067202989E08411303DFD8
:1049D00006720298160C00DD06720698960C53B00B
:1049E00080BB006B30380A7109DD06710298BE0C7D
:1049F00000A000C0680F0021041003600F3000A069
:104A00001088B111076980D90A7100C1800008407F
:104A10000811009100A0B111076940D906720298EF
:104A2000860800C1700F0021141200BC01DC207147
:104A300006988A084034087101B80698BA08F0DA76
:104A40000C720CDB087102B80698BA0848BC00C3A7
:104A500080000840FFB80120042114155145087159
:104A600001455813082400C138300840141100C50E
:104A70000060084054153035016D51410141181353
:104A800001422813481300B82A7000C4600008408F
:104A900000C06C0F002144140410014400A000C0A9
:104AA0006C0F002100B90698180618100698240605
:104AB00000A000C1700F0021141203682150F030D3
:104AC0000152281100A000C020300E400411041033
:104AD0001050F47200A000C028400E400412215172
:104AE00007610C3107691152281000A00698BE0A10
:104AF00000C0F80F002104112EA900C004300840A6
:104B00002178227800C0980F00211DB11810069856
:104B1000A6090111FF300769FF3151B300C4F3FF4B
:104B2000FFFF413B115900290675084B027051AB3C
:104B3000A4BB00C07C300E40041100C20080010004
:104B400020391E71B11204DA18716E7B6F7BE4207C
:104B500004114CBA7C7A181014200411607A1810D1
:104B6000B11002D81071707B30B8627860780DB0E7
:104B700001D8FC7100A00698BE0A00C0FC0F0021FD
:104B800004112EA9F82004110698D60800C004309C
:104B90000840217823780698A60900C0880F0021D4
:104BA0001DB1181000A0541400C0BC0F0021041047
:104BB000012C0A7500B826A806984E0700C0840F7D
:104BC00000211DB1181028B000C1F0FFFFFF1138FF
:104BD0000EB9114028A880B800C14430084008111F
:104BE00000C0006F000026A800C0043008402178F3
:104BF000050C2020267800C063EF000026A8050CD5
:104C000020EC00C004300840247820EC217800C05B
:104C10007BEF000026A828B000C1F0FFFFFF11388D
:104C200000C10A000000114028A8050C00C0043093
:104C30000840207820EC0F0C00C0984008404678CF
:104C40004178B11020D84A7100C04C30084000C1F2
:104C50007D00000018100D0E0D0E00C070300840D1
:104C6000041130311A7100C078300840257824785A
:104C7000960C00C07030084004113031EA7200C058
:104C80004C30084000C106000000181000B9181090
:104C90000698C60800C27C0F0021241000C300FF44
:104CA000FFFF31381140081200A00698BE0A00B874
:104CB00026A800C08C0F00211DB1181000A030B82C
:104CC00040780DB101D9FC72427800C074300E40BA
:104CD000041100C2FEFFFFFF21391810EC2004115F
:104CE00000C2FFFFFFEF213918101C78A4BB707BB6
:104CF0004E7B4F7B00A008B86E784EB010D818726B
:104D000000C00E0000003EA8140C00C00F00000000
:104D10003EA802982E0B00C00E00000044A8140C00
:104D200000C00100000000C1B0300E40081100C0FA
:104D300077801F003DB201423DAA00C1EC0F002167
:104D4000141054A8140C00C077E01F0001423DAAC3
:104D500051B801687D7800C00000004002A800A0A2
:104D60000698180606987E06069824065414069897
:104D70004E07F4B84578090C00C0940F00211DB10E
:104D8000181000A051B801685D7800B844A83EA88A
:104D900000C1B0300E40081100C0001000003DB14D
:104DA00001393DA908B86F7800A001F8541000DC63
:104DB0001271011406984E0718B8707800B841783F
:104DC00000F80298C60B00C57C0F00215415511441
:104DD000FF3507644113FF3407633112FF33076265
:104DE000FF323110212B0158012A0698C6080158BC
:104DF0005128047501584128187551B00CD8067116
:104E0000215806703110115901290675FF0FB8702D
:104E100018B8727800F800C3780F0021341300C46A
:104E2000E0100840441200C000010400013A26715D
:104E300008242814084B00C458100840237C00C4E0
:104E4000700F00214414F034447200C46400084020
:104E5000257C3A7004DBE0720DDDDA7100C1401090
:104E600008401410F821141101581128207100C1B4
:104E7000781008400811076008119110081100C04F
:104E8000006008400410076007600811308800B80F
:104E900006981608009300C0780F0021041102D96B
:104EA0000A7100C16C000840247900B9181000A0F4
:104EB00000C0780F002104110449181000A00698C2
:104EC000F60D11510698D60801B802981608541428
:104ED00041150764076406984E07508806987E00BF
:104EE0000095B110076820D80C7108B8657818B81B
:104EF000717800F808B86C7820B85A7859785B78DF
:104F000000C1F00F0021141054A84EB010D8067143
:104F10000298660D4DB100C09FFFFFFF113840B1F0
:104F200002D91472604800C1040000401112104AF6
:104F300004BB41540C70204802B903BA02BB02BC46
:104F40004DA840A9F8B87078190C3EB141413EA96E
:104F5000F4B973797378717800C1E80F002100C447
:104F600000410840287000C20000010044AA230C40
:104F700000C200000B0044AA00C1E80F002100C2DB
:104F80002000004000C41841084004BB00C0C83FD6
:104F900000001411113821400814050C11400814A8
:104FA00004240F0C2FAB050CB11008D814711CB8D9
:104FB00079787B787A7820B879787B787A78607C91
:104FC000F4244113511406984E07727B53B80168BC
:104FD000050C687840EC00C0900F00211DB118103E
:104FE00000F800C06860084004110761076180D9BB
:104FF000047240EC00A0015053A80698E20D4EB098
:1050000010D80A7200C4F8400840087000C410416B
:10501000084041130C23527C407B01502FA8050C03
:10502000FC23341200C1FF3FC0E0113A28130A0CE0
:1050300000C000000100081406322813050C0150BE
:10504000081408B86D7800A0087809780411214187
:10505000181000A000B900C09C10084018101C20B7
:105060000AB9181000A0115910D90671076007601D
:1050700008D90471076004D90471036002D904716E
:10508000016001D90471006000A010880411033090
:1050900008710761FF20FC721110FF30009100A021
:1050A000108804110230067107610761111000C1F8
:1050B000FFFF00001138009100A00000AF030000C6
:1050C0000028012803280118052A0018002A012AAF
:1050D0000A18292A02290000F01921B4478FA4BF19
:1050E000A14F63FDEED6141D636032E0375EA488E5
:1050F000534E6DFB6435BFF753A1811F582CD0A5CB
:105100004540FC34F32742980C027B0074050020D4
:10511000130C110053A1811F582CD0A54540FC341D
:10512000F3274298080100000000000013080F0058
:10513000636032E0375EA488534E6DFB6435BFF781
:1051400010F01921B4478FA4BFA14F63FDEED61410
:105150001D0000000C53696C69636F6E204C616226
:105160007300000005020C00292A0000020A180042
:105170000240030005020900012A000000000000AF
:1051800005020700002A00000200180020000400A9
:10519000F005002005200300052A00000201180088
:1051A00000000108000000009C51000002000108FE
:1051B00000000000945100000400000800010000FD
:1051C0008C5100000A0007080003000002000000E4
:1051D00000000108000000008851000002000108E2
:1051E00000000000805100000600010800000000DF
:1051F0007C51000002000108000000007451000012
:1052000007000108000000007051000000000108C4
:10521000000000006C5100000200010800000000C6
:105220006451000009000108000000005451000012
:1052300000000108000000004051000002000108C9
:10524000000000002C51000001800208000700004F
:10525000245100000200010800000000105100006D
:1052600002800608000100000851000003000F0042
:1052700011000000A0510000110000000B00000010
:10528000C050000003000000D850000003000000E0
:105290006C520000080B020000000000090B020025
:1052A0000000000000000000A00042010A600706A4
:1052B000020A060700000000636032E0375EA4883F
:1052C000534E6DFB6435BFF753A1811F582CD0A5F9
:1052D0004540FC34F3274298200100009902020067
:1052E00020040001D302020020010002E5020200B6
:1052F000200000030D03020020000100A5060200AB
:1053000020010101DD06020020000103E505020085
:105310002002010A770602002001010B1906020093
:105320002001010C5F06020020070300D9040200DF
:105330002002030185040200200103023D05020052
:105340002000030351050200200503046305020049
:1053500020080305950502002005030677050200D5
:10536000200203079B04020020010308C504020079
:10537000200908004304010020010801770401000E
:10538000200208029D04010020020803E504010038
:105390002002090007660100200109011F660100C3
:1053A00020020902536601002005090395660100E9
:1053B00020060904B166010020040905D567010033
:1053C00020030906ED67010020030907E1660100DB
:1053D0002006090815670100200409096D6701000E
:1053E0002004090A836701002006090B9967010060
:1053F0002002090CBF6701002001090D6969010045
:105400002003090E036801002004090F1968010038
:105410002005091077660100200209114567010087
:1054200020070912FB66010020040A003968010008
:1054300020020A017168010020050A02F7680100D4
:1054400020050A031169010020040A043B690100D8
:1054500020040A055369010020030A06C7680100F9
:1054600020040A077D69010020020B0007050100E6
:1054700020020B019705010020010B02EB05010042
:1054800020050B034306010020050B04450601001F
:1054900020010B054706010020060C008770010063
:1054A00020000C0BE3700100200A0C0CAB70010013
:1054B00020010C0D0F71010020000D0035030200CA
:1054C00020000D01B903020020030D02DD030200DC
:1054D00020020D03F703020020020D043104020034
:1054E00020030E00E506020020010E01FD06020069
:1054F00020000E022307020020040E0C35070200D4
:1055000020010F005D72010020020F01BD72010039
:1055100020020F029573010020010F044572010063
:1055200020010F067572010020000F07A57201000F
:1055300020050F08E772010020020F09197301000E
:1055400020010F0A2F73010020000F0B27720100AA
:1055500020020F0EB573010020000F0FE173010050
:1055600020040F100573010020010F115B7301006F
:1055700020010F124573010020011100B507020040
:105580002004110131080200200200014104010041
:105590002002000241040100200200034104010036
:1055A0002002010041040100200601034104010022
:1055B0002002010A410401002003010B4104010003
:1055C0002002010C410401002003030041040100FA
:1055D00020020301410401002002030241040100F2
:1055E00020020303410401002002030441040100DE
:1055F00020020305410401002002030641040100CA
:1056000020020307410401002002030841040100B5
:1056100020020800410401002002080141040100A9
:105620002002080241040100200208034104010095
:105630002002090041040100200209014104010087
:105640002002090241040100200209034104010073
:10565000200209044104010020020905410401005F
:10566000200209064104010020020907410401004B
:105670002002090841040100200209094104010037
:105680002002090A410401002002090B4104010023
:105690002002090C410401002002090D410401000F
:1056A0002002090E410401002002090F41040100FB
:1056B00020020910410401002002091141040100E7
:1056C000200209124104010020030A0041040100E4
:1056D00020030A014104010020020A0241040100E2
:1056E00020020A034104010020020A0441040100CF
:1056F00020020A054104010020040A0641040100B9
:1057000020020A074104010020030B0041040100AC
:1057100020030B014104010020030B02410401009E
:1057200020030B034104010020030B04410401008A
:10573000200B0B054104010020020C004104010074
:1057400020060C0B4104010020020C0C4104010056
:1057500020020C0D4104010020020D004104010053
:1057600020020D014104010020020D02410401004C
:1057700020030D034104010020020D044104010037
:1057800020020E004104010020020E01410401002C
:1057900020020E024104010020060E0C410401000B
:1057A00020020F004104010020020F01410401000A
:1057B00020020F024104010020020F0441040100F5
:1057C00020020F064104010020020F0741040100DE
:1057D00020020F084104010020020F0941040100CA
:1057E00020020F0A4104010020020F0B41040100B6
:1057F00020020F0E4104010020020F0F410401009E
:1058000020020F104104010020030F114104010088
:1058100020020F1241040100200411004104010084
:105820002001110141040100A00400004104010015
:10583000A002000141040100A00C0100410401008C
:10584000A004010341040100A0000104410401007F
:10585000A002010541040100A00B03004104010066
:10586000A000030141040100A00A08004104010056
:10587000A003080141040100A0080802410401003E
:10588000A003080341040100A00208044104010030
:10589000A003090041040100A00609014104010020
:1058A000A005090241040100A0040903410401000C
:1058B000A007090441040100A006090541040100F4
:1058C000A003090641040100A0070A0041040100E9
:1058D000A0060A0141040100A0070A0241040100D8
:1058E000A0060A0341040100A0030A0441040100C8
:1058F000A0030B0041040100A0020B0141040100C0
:10590000A0070B0241040100A0010C0041040100AA
:10591000A0080C0141040100A0030D004104010096
:10592000A0040E0041040100A0080E024104010081
:10593000A0050F0041040100A0010F014104010076
:10594000A0050F0241040100A0020F034104010061
:10595000A0030F0441040100A0080F054104010049
:10596000A0000F0641040100A0020F09410401003C
:105970000000000000000000000000000100020024
:1059800015005400A9005301A7024F059F0A00000B
:10599000020000000100000008070F000A00C80014
:1059A00020000000A0000000000000000000000037
:1059B000A00042010A200706020A040700000000B6
:1059C000000207000000000000000000A0004201EB
:1059D0000A200706020A0407000000000002070070
:1059E00000000000000000000100000009000000AD
:1059F0000000000001000000100000000100000095
:105A00000000000004000000010000000800000089
:105A10000100000010000000010000000001000073
:105A200001000000000800001D000000000200004E
:105A30001D000000000400001D0000000000010027
:105A40001D00000001000000000000000000000038
:105A50000000000000000000000000000200000044
:105A60000000000000000000030000000000000033
:105A70000000000000000000030000000100000022
:105A80000000000002000000010000000200000011
:105A9000030000000C0804010800000000010602D9
:105AA00001000000000103FF04FF02003B000000B2
:105AB00000F04902000000003C008A003C008C001D
:105AC000F4010000FA0000009600000064000000ED
:105AD0004B000000320000001E0000001400000017
:105AE00000000000070000000200000004000000A9
:105AF000000000000400000000000000050000009D
:105B000000000000611C0100BF1C0100CB1C010053
:105B10006C888391AAF5A53860370BDB5A6083BE89
:105B20003F49F6D4A3C55F3874C9B3E3D2103F50E0
:105B30004AFF607BEB40B7995899B8A6CD3C1ABD97
:105B4000E69D350E480103CCDBFDF4AC1191F4EF7A
:105B5000B9A5F9E9A7832C5E2CBE97F2D203B02039
:105B60008BD28915D08E1C742430ED8FC24563769C
:105B70005C15525ABF9A32636DEB2A65499C80DCF2
:105B80000000000000000000010000000000000014
:105B90000100000000000000000000000100000003
:105BA00000000000010000000200000002000000F0
:105BB00003000000000000000200000000000000E0
:105BC00000000000000000000000000000000000D5
:105BD00002000000020000000100000000000000C0
:105BE00002000000000000000000000001000000B2
:105BF000000000000100000000000000050000009F
:105C0000010000000000000005000000020000008C
:105C1000020000000300000000000000020000007D
:105C20000000000000000000000000000000000074
:105C3000000000000200000005000000010000005C
:105C40000000000005000000FFC1FBE84C90728BD3
:105C5000E7B3518963AB232302841872AA612F3BF7
:105C600051A8E53749FBC9CA0C18532CFD45E39AE6
:105C7000E6F15DB0B61BB4BE2A50EAE90E9C4B5E5D
:105C80005724CCA1B759B8874648050359450000A9
:105C900078464805035964000545000000000000EF
:105CA00078056400000000000645000000000000C8
:105CB0007806640000000000000200000000000000
:105CC00000010000000000000002000000000000D1
:105CD00000010000000000000002000000000000C1
:105CE00000010000000000000002000000000000B1
:105CF000000100000000000000000F40190000003B
:105D000002000000081400200C140020F851054582
:105D1000F946510545034805590000000000000000
:105D20007846510545F90348055964FB0448055177
:105D300000000000F8510545F9984603480545580C
:105D40005283465105455800F903480546785A6480
:105D5000F878FE510545FB0448055100F946034813
:105D600005590000000000000000000000000000D5
:105D700078F946034805596400000000000000005F
:105D80000000000000000000000000000000000013
:105D9000000000E10000270080841E00809C2B8F03
:105DA000FFFFFFFFFFFFFFFFFFFFFFFF00000000FF
:105DB000000000000000000001000000FFFFFFFFE6
:105DC0004B60D2273E3CCE3BF6B053CCB0061D65AF
:105DD000BC86987655BDEBB3E7933AAAD835C65A38
:105DE00096C298D84539A1F4A033EB2D817D037775
:105DF000F240A463E5E6BCF847422CE1F2D1176B10
:105E0000F551BF376840B6CBCE5E316B5733CE2BE2
:105E1000169E0F7C4AEBE78E9B7F1AFEE242E34F11
:105E2000512563FCC2CAB9F3849E17A7ADFAE6BC3C
:105E3000FFFFFFFFFFFFFFFF00000000FFFFFFFF6E
:105E4000F40F010100000000F80F010100C0030081
:105E5000FC0F01010BC003000400010001610100FF
:105E600008000100300000001800010000000000E0
:105E70001C000100010000002800010000000000DB
:105E80002C000100000000003000010000000000B4
:105E900034000100000000003C0001000000000090
:105EA00040000100A00700004800010000000000C1
:105EB0005400010000000000580001000000000034
:105EC000A000010001480000A4000100FF4C0000F8
:105ED000A800010001490000AC000100FF4D0000D6
:105EE000002001000807000010200100FFFFFF0054
:105EF000182001000060DA00083001003FAC00000B
:105F000030300100AA2A10003430010001000000E6
:105F10004030010000000000A04001007A27000F7F
:105F2000F44001002010000034410100800800000E
:105F300038410100E6870000404101004800880028
:105F400044410100C0E6531114600100100000003C
:105F500018600100000000841C6001001FC00100E7
:105F600020600100C8200000246001000000000043
:105F700028600100000000032C6001000000000008
:105F800030600100C804FF0034600100A208000076
:105F9000386001000A0000013C600100920004002A
:105FA00040600100D6BE898E446001000000000000
:105FB000486001008C00D40A4C6001000000000021
:105FC00050600100D1032A0054600100000000006D
:105FD00058600100000000005C600100040A132208
:105FE0006060010032414A4F64600100000000001F
:105FF00014700100F8700200187001000003000026
:106000001C7001006000D081287001000000800138
:10601000487001003C3D00004C700100BC190000BC
:106020007070010005810000747001001301000010
:106030007870010000235500FFFFFFFFF40F0101FE
:1060400000000000FC0F01010BC00300083001003C
:106050003FAC0000F440010020100000FFFFFFFFF4
:10606000F40F010100080000FC0F010108C003004B
:106070000830010037AC0000FFFFFFFFFC0F0101FB
:1060800009C003000830010037AC0000F4400100F3
:1060900020000000FFFFFFFFF4400100200000008F
:1060A000FFFFFFFFFC0F010109C0030008300100E2
:1060B00037AC0000FFFFFFFF80B5C0490A685060A1
:1060C0000868BF4A02602AE038B5BC4D044628681B
:1060D000047122462868401D00F0B0F92868B949CB
:1060E0000DE038B50C46B54D11462A689080947184
:1060F00022462868C01D00F0A1F92868B24901EBCA
:1061000004210160296800F013F8B0480068001D00
:1061100032BD80B5A9490A689080AD481060096811
:1061200000F006F8A9480068001D02BD0160316852
:1061300051F8040B00F00EBAA6488008800000F267
:10614000FF70C00AC00200F1100140F6A7230A88C0
:106150009A4209D1098F0A0008D0C9029E4A01F467
:10616000FF218142116001D000207047012070475B
:106170002DE9F04FADF5606DA9B082A8E42100F0E3
:1061800049FAC4208290ACAC00208DF8A90201210C
:1061900001208DF8AC024FF0010B40F6B830A08022
:1061A0004FF00057BBA8AC908C48A061894880088C
:1061B000800000F2FF70C60A894800F08DFB894814
:1061C0000168F602490505D53968012904BF4FF079
:1061D000000B4160FFF7B0FF834D10B9012038601C
:1061E0000AE0BBF1000F07D000203860706928601A
:1061F0003068854670688047022038604FF48271AD
:106200007A486E4E7A4FDFF8EC81DFF8EC91286027
:1062100040F2811B02A800F0FDF93022774976A8F0
:1062200000F01CF9CC22764943A800F017F943A8E6
:1062300076900DF5867A02A8579000208DF8080018
:1062400076A8206182A801F093F80DF5DB7001902B
:106250006C4C09E0002008716B49306801603168BE
:1062600051F8040B00F0ABF901F0B8F9674B026884
:1062700031681A40A02A09D0654B9A4252D0654B2A
:106280009A42E7D0644B9A4254D0EDE73620FFF7AC
:1062900040FF018841B981788DF80810C11C8278CF
:1062A0000DF1090000F0CAF83520FFF732FF018830
:1062B00081B9C11C0422684600F0C0F8BAF8AA00EF
:1062C00000990843AAF8AA0001980099008B084396
:1062D000019908837E21306881805049FFF726FFAD
:1062E0004F4A10210020FFF7FCFE018809B94088C1
:1062F000386010214B4A0020FFF7F3FE018809B9EE
:1063000040882060386800281CBF20680028ABD077
:106310003168022008713168487130684249FFF7DE
:1063200005FFA1E7B0F80510226891429CD100F06A
:1063300081F899E70279C9F800200025B0F8052016
:10634000C8F800203B689A421DD1C07A20B10228CB
:1063500003D0032808D024E000E00020FFF7ACFEC3
:10636000008858451DD11BE030480860FFF7DFFE6C
:10637000164800688088584512D040F6033188429C
:106380000FD180250DE021688A420AD100F052F831
:106390000088B0EB0B0003D00D3808BF822500E069
:1063A00081253268D8F80000D9F8001011713168E1
:1063B000A1F80500CD7130681D49B0E72400002028
:1063C000200400012001000220030A06280000200A
:1063D00020020D03020D0200D8040020A452000088
:1063E0000055080004500E4008ED00E00041000098
:1063F000D0040020CC040020C80400207452000007
:10640000A0510000D404002020010101F800FFFF8A
:10641000A0000A00A0000801A0000A022002090052
:10642000B8520000C85200002002030120000003FF
:1064300020040A0400F10B01807A45E662B38B0761
:1064400008D0521E11F8013B00F8013B00F02480F7
:106450008B07F6D1830740F0208000BF103A07D3A6
:1064600030B4B1E83810103AA0E83810F9D230BC96
:10647000530724BFB1E80810A0E8081044BF51F842
:10648000043B40F8043BD20724BF31F8022B20F82C
:10649000022B44BF0B7803707047083A07D3B1E86A
:1064A0000810083A40F8043B40F804CBF7D25307F1
:1064B000E4E7002A4B490860704700F11C0251696B
:1064C000802900D1704710B582B011684FF0FF33BA
:1064D00009B191F93E303C30434984780C715269DE
:1064E000C1F805204B72002300783E4C88720022D0
:1064F0003E480860012000900B2087E010B53A4C20
:1065000082B0A180214690F83E00A0710023384857
:1065100020600120334C2468009000220720A0470F
:1065200013BD10B5034682B008462F4993F83E309C
:106530002C4C48710B71801C030243EA10202D4B38
:10654000184308601346012000904A792468062009
:10655000A04713BD31B584B00C46012001F0B3F85B
:10656000052817DA9DF813109DF812001D4C2468B9
:10657000090641EA004040F40870019000234FF4FE
:10658000C170ADF8080000220120009001A906208A
:10659000A04712E0049801F0B7F8010003D0496861
:1065A0002046884709E01448056804E004982A68F2
:1065B000214690476D68002DF8D105B030BDC9E780
:1065C00010B50446082001F0CFF810B94FF4C1709F
:1065D00010BD094904600A6842600860002010BDCF
:1065E0000000000050050020FC070020A0070B025F
:1065F000A0030B00A0000B014805002010B582B0DD
:10660000049C0094004C01E0500500202468A04741
:1066100013BD0028002201F0BBB80028890001EB5F
:10662000401000F1844002607047890001EB401087
:1066300000F184400068704700F1806300F1C060A1
:10664000196002607047401CB0FA80F0C0F11F0072
:10665000704710B58142A441E20F1021DFF8400AD3
:10666000FFF7DCFFE20FBDE810401821DFF8640BF4
:10667000D4E7DFF8301ACA6B02B1012241F6713358
:10668000CB63D2B20B68DFF8203A1818DFF8483B2A
:1066900098420B6834BF4FF08070002023F04073A5
:1066A000184308600AB10020C8637047C01C0F2857
:1066B00001D2000770474FF07040704738B504466C
:1066C000002500F073FADFF8F02ADFF8741A94421C
:1066D00008D0DFF8E82A944206D0DFF8E42A944292
:1066E00004D006E0086802E0486800E0886800F02E
:1066F0000700401E032819D8DFE800F002050C0847
:1067000001F09EF804E001F0A1F801E001F09BF82F
:1067100005460BE0DFF8BC0A0068C00103D501F0B4
:1067200051F8850802E001F04DF84508284632BDD1
:10673000DFF8A81A4A68D20702D40A680242FCD1DC
:106740007047DFF89C0A0068704738B5DFF8942A74
:10675000044694421FBFDFF8902A9442DFF88C2A47
:106760009442DFF88C0A2AD0DFF8882A944224D099
:10677000DFF8842A94421ED0DFF8802A944218D091
:10678000DFF87C2A944212D0DFF8782A94420CD0A9
:10679000DFF8742A944206D0DFF8702A94420CBFC6
:1067A000056B00250CE0C56A0AE0856A08E0056A09
:1067B00006E0C56904E0856902E0C56800E0056897
:1067C000DFF81C0A04601921DFF8100AFFF72DFF1B
:1067D0000028F8D1DFF80C0A84420AD0DFF8080A52
:1067E000844208D0DFF8040A844208BF25F0C0655F
:1067F00004E0022000E0012060F35A65DFF8100A8F
:10680000056031BD10B50429DFF8084A17D8DFE864
:1068100001F0030E101214000121216060600120BC
:10682000606100F04DF80028FBD0606810BD0321C6
:10683000F3E70021F1E70221EFE70421EDE7002073
:1068400010BD000010B5DFF8CC391C68042924F015
:10685000770412D8DFE801F00306090C0F0044F0BA
:1068600020040AE044F0400407E044F0100404E08F
:1068700044F0300401E044F05004042A58600FD87A
:10688000DFE802F003060E090C0044F0010407E003
:1068900044F0030404E044F0020401E044F0040482
:1068A0001C6010BD10B5DFF86C4908212046FFF7C9
:1068B000BCFE18B900F004F80028FBD0606810BDD9
:1068C0001021DFF85409B0E680B500F0B1F8401CA3
:1068D00002BD491EE0E00000F8B50446201200F0B9
:1068E0000F000026401E09280D46DFF8307914D825
:1068F000DFE800F0051E141307202313262ADFF813
:10690000A077C4F3043416B13046FFF711FF2A46CE
:1069100021463846BDE8F84080E6F1BDDFF80009C1
:1069200000F015F8DFF8E018FFF793FE0837E8E706
:106930001037E6E730370126E3E738371026E0E77F
:1069400040374FF48036DCE7DFF8D878D9E770B508
:10695000DFF88C18DFF8D0480E68DFF85C28DFF825
:106960005C18012510F478105AD0B0F5003F27D0FC
:10697000B0F5802F1ED0B0F5002F51D0B0F5202FEC
:1069800024D0B0F5402F43D0B0F5602F4DD0B0F5F6
:10699000901F38D0B0F5A01F21D0B0F5B01F27D080
:1069A000B0F5D01F19D0B0F5E01F1FD0B0F5001F13
:1069B00029D039E000F015FF6168C1F308210AE031
:1069C00000F00FFF2168C1F3082104E000F009FF87
:1069D000E168C1F30421491C12E0104615E010469D
:1069E000FFF76CFEA16901F00F0107E008460CE01B
:1069F0000846FFF763FE216A01F0030105FA01F181
:106A0000B0FBF1F611E0DFF8B807FFF757FE09E039
:106A1000DFF8180800F0CAF8072806D0082803D1C4
:106A200000F0DFFE064600E00026304670BD0000A4
:106A3000031103F00F0301225B1E072BDFF89417ED
:106A400028D8DFE803F004060A0E10141C27086893
:106A500000E04869C0F3042070470868C0F3006094
:106A60007047C86800E08868C0F308207047DFF806
:106A7000C03798420ED1086A00F00F0006E0DFF838
:106A8000B437984206D1886A00F0030002FA00F099
:106A9000401E7047002070472DE9F8458A460111D5
:106AA00001F00F01491E0729DFF82877DFF870573A
:106AB000DFF88467DFF88487DFF84C4773D8DFE8B6
:106AC00001F004131A21273F546500F088FEFFF7F8
:106AD000D0FD21464046FFF7BCFD386820F4F85051
:106AE00040EA0A20386020E0786920F4F85040EA53
:106AF0000A20786157E0386820F0807040EA0A6028
:106B0000386050E0F868304040EA0A20F8604AE017
:106B100000F065FEFFF7ADFD21464046FFF799FD09
:106B2000B868304040EA0A20B86000F04BFEFFF73A
:106B3000A0FD2846FFF70BFF2146BDE8F44588E598
:106B4000DFF8FC16884225D0DFF8E41688422AD107
:106B50005046FFF778FD04460420FFF7E9FD386A48
:106B6000000944EA001038621DE0DFF8C8168842C8
:106B700019D15046FFF767FD04464020FFF7D8FDC6
:106B8000B86A800844EA8000B8620CE0DFF8B0160A
:106B9000884208D14FF48020FFF7CAFD386B000906
:106BA0004AEA00103863BDE8F185000000F00F00EC
:106BB0000121401E0528DFF88C263BD8DFE800F0D5
:106BC0000311153A2230506A00F00700022804D061
:106BD00005D3042807D01FD301E004212BE00521B1
:106BE00029E010690FE0022125E0506900F007005C
:106BF000401E03281FD8DFE800F00F020311F2E760
:106C0000062118E0906900F00700012804D002284E
:106C1000E9D0042802D00EE003210CE009210AE0AB
:106C2000106810F0010003D0012804D1082102E00F
:106C3000072100E00021084670472DE9F0410326B6
:106C4000032700F00F000128DFF85444DFF8B8856F
:106C5000DFF8EC5406D0022836D0032833D00528BC
:106C60002FD03EE00229DFF8D40506D003291ED03C
:106C700004291ED0052922D03DE004260027012248
:106C80000121384600F070F900F0A9FDFFF7F1FC92
:106C90006667DFF88C05FFF75AFE4146FFF7D9FC1F
:106CA00000F00FFF00F08EFDFFF7E3FC19E0012775
:106CB000E5E7022602274146FFF7CBFCDFE7012686
:106CC000F9E7083500E02D1D012908D0022914D06C
:106CD000032919D006291ED0092929D00BE000204C
:106CE000286010212046FFF7A0FCBDE8F0411821E4
:106CF000DFF8E00499E4BDE8F081012201210020E1
:106D000000F032F90220EBE701220121012000F01E
:106D10002BF90120E4E700F055FD4146FFF799FC0F
:106D200001220021DFF8F404FFF778FC0320D7E705
:106D30000420D5E7DFF8A41418B108680028FCD1B6
:106D4000012048607047DFF800050068704770B5A3
:106D5000DFF89024044694421FBFDFF88C2494424D
:106D6000DFF888249442DFF8E4042AD0DFF8842492
:106D7000944224D0DFF8802494421ED0DFF87C2493
:106D8000944218D0DFF87824944212D0DFF87424AB
:106D900094420CD0DFF87024944206D0DFF86C24C3
:106DA00094420CBF056B00250CE0C56A0AE0856AB9
:106DB00008E0056A06E0C56904E0856902E0C56887
:106DC00000E00568DFF88004046000F0B0F80528F2
:106DD00003D100F004FDFFF74CFC1821DFF8FC03A1
:106DE000FFF723FC0028F8D1DFF8F8138C420AD013
:106DF000DFF8F4138C4208D0DFF8F0138C4208BFA0
:106E000025F0C06504E0022000E0012060F35A652F
:106E100000F08DF80528DFF8F06303D131462046F5
:106E2000FFF717FCDFF82804056000F080F805285C
:106E300003D100F0C7FCFFF71CFCDFF8E403FFF709
:106E400086FD3146BDE87040FFF703BC38B5DFF87A
:106E500004341C6800F0804040F04055AC4309B158
:106E60004FF08051150014BF4FF00055002504432A
:106E700021432943002808BF002A19600BD000F0E5
:106E8000CBFC0446FFF7F5FB2046BDE83440DFF8B5
:106E90007813FFF7DEBB31BD10B500F047F80122D3
:106EA0000021022000F060F82069002202282078EA
:106EB00008BF012208B142F4807240F20111DFF8EC
:106EC0009403FFF7B9FBE27ADFF88C030721FFF7A1
:106ED000B3FBA088617A41EAC022DFF88013DFF8B3
:106EE0008003FFF7A9FB207AFFF7E0FB227AE18815
:106EF000D20142EAC121A27A114340EA01026FF0B5
:106F00007F61DFF86003FFF797FB617B207B09035C
:106F100041EA0040A17B40EA0110E17BBDE810405E
:106F200041EA0002D049D148FFF786BB0446112050
:106F30003CE600207047704710B5FFF7F7FF0022CE
:106F40000021002000F010F82078617840EAC1208C
:106F5000A17840EA01606168BDE8104040EA012282
:106F6000C349C448FFF768BB2DE9F84F04288046A1
:106F7000924674D8DFE800F04B463C0341000126FE
:106F80000220012700240029DFF88C92B14D5DD04A
:106F9000B8F1020F04BF286810F0300F4FF0000B5B
:106FA0000AD12868C0074FF0010B05D5286820F0EA
:106FB000300040F010002860EE6300F052F8002826
:106FC000FBD0BAF1000F46D0394600F04BF800284C
:106FD000FAD0B8F1020F3ED1BBF1000F3BD02868C8
:106FE000C0071BD501222021022000F0CBF819E0B8
:106FF0000426082003270224C5E7102620200527A1
:107000000424C0E74026802007270624BBE74FF46E
:1070100080764FF4007009270824B4E7002102208D
:1070200000F090F8022000F021F80446012200212F
:107030000220FFF799FF2146022000F037F8EE63A7
:10704000394600F00FF80028FAD004E0E86300F0B9
:1070500008F80028FBD1BDE8F14F00F032BDBDE8D3
:10706000F18F21464846FFF7E0BA0000401E032892
:10707000774912D8DFE800F0020C06080869C0F36F
:1070800008007047086800E0886800F07F007047DB
:1070900079480068C0F30A0070470020704700007C
:1070A00000400E4004000E407F4573FE70B5401E48
:1070B0000C46032804F07F01654D484E3FD8DFE8B9
:1070C00000F0022A101DC4F308041A213046FFF70D
:1070D000ACFA0028F9D12869400A44EA4020286126
:1070E00070BD0C4618213046FFF79FFA0028F9D1F1
:1070F0002868C00944EAC010286070BD0C461921F8
:107100003046FFF792FA0028F9D1A868C00944EA8E
:10711000C010A86070BD534E306E686920F030001A
:1071200040F010006861C4F3C310FFF7BFFA40EAF3
:1071300004023046BDE870405049FFF77DBA70BD8B
:1071400080400E404348026812F0300F18BF0029FB
:1071500007D0202902D0302903D005E04FF40001E8
:1071600003E04FF4400100E04549C26E0A408A4204
:10717000FBD1490204D5C06F800A00F001007047BE
:107180000120704710B5022809D121B13D4B4FF4C1
:1071900080645C64196012B1BDE81040D2E7012040
:1071A00010BD30B91F48006810F0020002D0012065
:1071B000704700207047000002001A0003001C0006
:1071C00005002000002201B101224000411C1548A9
:1071D000FFF724BA00410E40809FD50040410E4089
:1071E0002000002040420F0080841E0000093D0066
:1071F0009082E00FC0CF6A00405DC6000024F4001A
:10720000C0EA210180BA8C010048E80180D5430220
:1072100018400E4050400E4090400E40B0400E408E
:107220000005080050410E4008410E4006000C00C9
:107230006006140070071600FF00FEFF0148E80119
:107240008009120070400E40180000203082E00FCC
:1072500010400E4024400E4028400E407FF80F00A2
:107260002C400E4030400E40FFF00F0034400E40E6
:107270007F1B000738400E409C400E40FF0700F087
:10728000FF03F10764400E400146DFF8880390F9E0
:10729000000000F0C4BF10B582B01868DFF87813A2
:1072A000DFF8784348600023DFF8740308600120AA
:1072B0000090002224680820A047002016BD10B5C9
:1072C0000446002200210020FFF7C0FD0521112007
:1072D000FFF7B3FC002200210220FFF745FED14852
:1072E000D14A01686FF3D321016002EAC422016828
:1072F00011430160012201210220FFF735FE042124
:107300001120FFF79AFCBDE8104001220021002067
:10731000FFF79CBD80B56A460021322001F0ABF931
:1073200018B9BDF80000FFF7CAFF01BD70B50446EB
:10733000BE480078A8B1BE4DBE492E680968301914
:10734000884201D3002070BD22460021304601F062
:1073500009FA28682018C01C800880002860304680
:1073600070BD2046BDE8704000F0EFB901F006BAEC
:107370002DE9FE4F044601F0AEFB04F1A80504F12F
:10738000A106002C2868DFF8AC92DFF8A4A21ABF8F
:10739000F778002F04274FF01E0830B1CAF800001C
:1073A000A9880844C9F800000120DFF880B2A2498A
:1073B0008BF80000062000F074F900230022002161
:1073C000002000F043F900233A466821022000F033
:1073D0003DF9384601F006FC9BF8000040B1D9F8B1
:1073E0000000DAF80010001F401A5C21B0FBF1F831
:1073F00000235FFA88F25521012000F027F900F000
:10740000E4FE01F0C6FC34B9002001900090012395
:10741000002200210DE0206800F0080101918008A1
:10742000296A009100F0010080F00103EA69A9696E
:10743000686901F048FF00F06BFF207800060ED469
:1074400004F1D80304220021352000F0D3FF04F119
:10745000DC00436802780021362000F0CBFF02F008
:1074600058F9FFF757FF2068800900F001076D48C1
:1074700000680003C00DADF802006A460021342008
:1074800001F0F9F848B9BDF80000BDF802108842D3
:107490000AD017B1FFF713FF06E00DF10203022235
:1074A0000021342000F0A6FF00275CB130784007AF
:1074B000207848BF01274007286948BF002708B146
:1074C00001F05CF902F0FDF90020029002AB01AA84
:1074D00000212C2001F08EF800281FBF9DF8040029
:1074E000062800200290686A02F02DFA1CB90020DC
:1074F0000023012108E021682B6A490801F00101FD
:1075000004F1D00081F0010100902046029A01F0C0
:1075100076FE02F037FA49484949006808601CB114
:1075200004F1B30001F04EFF0021464800F068FE70
:1075300038490870002F0CBF0220032002F0EFFB37
:10754000BDE8F78F80B500F04DF808B1002002BD0E
:107550003A48006802F055FC10F1010F02D14FF0DB
:10756000FF3002BD4FF47A71A1FB0001C00B40EA6D
:10757000414002BD80B510F1010F0FBF4FF0FF3049
:10758000C0034FF47A71B0FBF1F002F063FD4FF4E9
:107590007A714843C00B02BDF8B5044602F04AF9BF
:1075A000274D08E002F0A2FD0646384602F052FDE3
:1075B000304602F09FFD214800682860286802F0EC
:1075C000C9FD074602F03FF938B901F019FC00F097
:1075D0003EFE0028F2D1002CE4D1F2BD0120DBE711
:1075E0000020D9E780B500F060FE20B9134800689C
:1075F00002F0FAFB00B1012002BD80B512490B7800
:10760000984202D140F2811002BD087002F0CCFD18
:10761000002002BD3C140020FC0700205005002083
:10762000A004010330400E4000F80F003D1400207C
:1076300040050020440500202D7300000820044070
:10764000DC040020977200003E14002070B5144640
:10765000C91C4FF6FC721140C91C02EA01052849F9
:1076600001EB00160020274935807480F06004FB90
:1076700005F009688847706015FB04F1318189B213
:10768000706802F099FD002007E0716800FB05F2C8
:107690001144F2680A60F160401CA042F5DB74807E
:1076A00070BD184A1160506001011548FEF7B2BF65
:1076B000134901EB0011C86820B10268CA604A880A
:1076C000521E4A8070470E4901EB00104088C0B23C
:1076D00070470B4A02EB0010C2680A60C160418823
:1076E000491C41807047000105490A5A2AB10A180D
:1076F000085A128992FBF0F0704700207047000092
:10770000E0040020F407002001B40E4800E0083037
:10771000416899B101789DF8002001F0F80102F06C
:10772000F802914202BF81789DF80220914202BF87
:10773000C1789DF803209142E9D100E0002001B01A
:1077400070470000D8520000704738B5C01C84084C
:10775000A00002F035FD050001D1002032BDA100DE
:1077600002F02AFD284632BD38B50446FFF7EDFF8A
:1077700005001CBF214602F01FFD284632BD4843CC
:10778000F2E702F075BD022862F30F2262F31F4296
:1077900000B500BF130096469446103928BFA0E8F4
:1077A0000C50FAD85FEA417C28BF0CC048BF40F8B3
:1077B000042BC90728BF20F8022B48BF00F8012B73
:1077C00000BD022880B500F00CF82749274A096857
:1077D000C1F30821491CB0FBF1F0106002BD244840
:1077E00070472448016801F00701022909D00AD333
:1077F000042901D002D306E01F4905E04FF40041FF
:1078000003E01E4900E01E490968C06EC0F3042071
:10781000401CB1FBF0F070471848006870471749EA
:1078200008601448006800F00700022808BFFFF74E
:10783000C9BF70471348016841F470010160704787
:107840004FF4004070474FF47A7070470A48006860
:107850007047094908600748006800F007000428DD
:1078600008BFFFF7AFBF704708410E404C0500202E
:1078700000F0490294400E40140000201000002047
:107880001800002088ED00E0890001EB401000F1B5
:10789000844002607047890001EB401000F1844091
:1078A0000068704710B5DFF87C08016845F60E02E5
:1078B00002600023DFF870281268D40748BF012354
:1078C000D40648BF43F01003540648BF43F04003BA
:1078D000540748BF43F00403D205DFF8502848BFDF
:1078E00043F48073D363DFF848381B7803F0070351
:1078F000022B10D01ED3042B08D01BD213689B0080
:1079000018D4D36E1B06FCD5032312E0D36E9B055F
:10791000FCD504230DE0D36E1B07FCD5136813F0D0
:10792000300F05D1D36E03F44003B3F5400FF9D106
:1079300002231365C90744BF0021016010BDDFF8B1
:10794000F417DFF8F42738B110680860106820F4E5
:107950007F4040F4EE4000E008681060E2E0DFF8AD
:10796000DC070168012918BF02290BD1DFF8D01705
:107970000A6802F00302012A02D1CA6BD203FCD5C5
:1079800003210160704738B50446DFF8B807DFF817
:1079900098270168DFF8985711604068288000F048
:1079A00039F8FFF7DCFF30BF0020FFF7C8FF04B154
:1079B00038E0287800F00700012800D035E031BD1C
:1079C00038B50446DFF88007DFF85C27016BDFF885
:1079D0006057116045F60E03416B2980DFF84417AC
:1079E0000A680B604FF420730360D00744BF002087
:1079F000086000F00FF8FFF7B2FF30BF0020FFF77C
:107A00009EFF04B10EE0287800F00700012800D0A6
:107A10000BE031BDDFF83407016841F0040101607B
:107A200001208CE7BDE831403CE7BDE83140FFF77D
:107A3000C9BEF8B5DFF81847206920F4403040F49B
:107A4000003520694AF6E85740F44036276020693F
:107A5000C00708D4A06B00F00300012812BF022861
:107A6000002000F09DF82069C0070DD572B6DFF840
:107A7000E4060760816841F080018160DFF8D80684
:107A8000016841F4807101600120FFF758FFFFF7A2
:107A900066FF04202561401E2661FBD12561F1BDF2
:107AA00080B5012201E080B500220021DFF8AC069C
:107AB000FFF7EAFEBDE80140BBE7DFF8A416086067
:107AC0007047DFF88006DFF86026016811604068C3
:107AD000DFF85C16088070470078DFF88816002809
:107AE000086812BF40F0010040084000086070477D
:107AF00070B5DFF868160A680378920903B10423A9
:107B0000447804B10224857805B10825466806B199
:107B1000012643EA821222432A43806832431043FB
:107B2000086070BDDFF84026DFF80C060168128897
:107B300002F12803C1F3032103EBD373491C02EBC9
:107B40006302283201EB8103B2FBF3F2521E036899
:107B5000072A34BF12064FF0E06223F0EE631A43A7
:107B600042F480120260DFF80426B2F90020002AF5
:107B700015D492B202F1280303EBD37302EB630234
:107B80004B08283203EB4101B2FBF1F142680729AF
:107B900034BF0901702122F0700211434160704727
:107BA00070B5DFF89C550446286800F00306A6422D
:107BB00017D0DFF8BC05416AC907FAD4220018BF04
:107BC00001220D21FFF760FE002E08BF012C03D11A
:107BD000DFF86815022008602868800844EA800001
:107BE000286070BDF8B50446DFF888152068086085
:107BF000096801F00F01814240F09880DFF87805B4
:107C0000006810F1010F13D0DFF8700541680268B9
:107C10001160C16882681160416902691160C169BF
:107C200082691160416A026A1160C16A806A0160FA
:107C3000A0894B28B8BF00200DDBB0F5FA7FB8BF94
:107C40004FF0805007DB40F6C4118842B4BF4FF0BC
:107C500000504FF04050DFF82855DFF828352969EB
:107C6000B4F91420DFF8D0641940D243084340EA45
:107C7000D270286100213046FFF70DFE316A41F0D5
:107C80008071316200B1042000F05DF9706920F06C
:107C9000C0407061306840F006003060DFF8E804F2
:107CA0000068C0F30747684602F022FBA7F1100006
:107CB0000C2803D3512F18BF532F19D19DF8010061
:107CC000012815D19DF80000032811DADFF86C04B3
:107CD000016869B9A968DFF8B42441F00101A9601D
:107CE00071691140DFF8A82411437161012101601D
:107CF000E089DFF874140880A08ADFF87014088027
:107D00006089DFF89014088000F0EAF8A06920B1DB
:107D1000012805D1DFF8800401E0DFF88004F0607D
:107D200020890122012100F00FF808B90020F2BDDE
:107D3000226902B1012205212846FFF7A5FD6068EE
:107D4000FFF72EFF0120F2BD2DE9F74FDFF82404E5
:107D5000016801F00F0100260229B44640F0B2800C
:107D60000099A1F5E161B1F5966FF7D80021DFF830
:107D7000302400E041B99DF80430002B09D051B9FE
:107D800000F12C03012409E0012904BF9DF808300B
:107D9000002B00F09E8000F124030824009DB5F51F
:107DA000E16F0ED94FF0010E4FF4E16840F6B8399B
:107DB00059B315684FF0020A4FEA156CC5F3074630
:107DC00071E04FF0000E4FF496684FF4E169F2460F
:107DD000E9B9456905F0405555EA0A0723D07F1EE9
:107DE00011D06FF0704BB7EB0B071ED07F1E14D075
:107DF000B7EB0B071BD07F1E11D0B7EB0B071CD0C6
:107E00007F1E0ED01EE0D66812E0F246E1E715684C
:107E1000C5F3072C05F0FF0645E0D6680EE01669AD
:107E200006E016690AE0566802E0566806E09668C1
:107E3000C6F3072C06F0FF0604E096684FEA166CBE
:107E4000C6F30746DFF85C733F68FFB2042F08DA19
:107E50005569BEF1000F0CBF05F0FF0EC5F3072EEC
:107E600015E097698DB1B5F1805F0BD0B5F1005F7A
:107E700005D0B5F1405F25D14FEA176E07E0C7F393
:107E8000074E04E0C7F3072E01E007F0FF0E4FEAAC
:107E90000E3737F4704515D1456B25F470453D43D9
:107EA000C84545630ED2009DA5EB0807ACEB06055F
:107EB0007D43A9EB0808B5FBF8F8B044C44528BFDA
:107EC000B04501D2002009E008FA04F44AEA0404AB
:107ED0001C60491C0229FFF64DAF0120BDE8FE8F52
:107EE00010B595494B6A0C68E4074FF0FF3203F078
:107EF000070312D5022B10D3142815D314381428D5
:107F00001FD30F22086820F47F4040EA022040EA95
:107F100002300860BDE8104004E60C68E40709D4AC
:107F2000022B07D20A2801D20322EBE70A380A28DB
:107F300007D3E6E70C68E407E4D5022BE2D2282851
:107F4000DFD20722DEE738B504467B4D0021284604
:107F5000FFF7A1FC686AC00844EAC0006862BDE897
:107F600032408C480088BBE7824802210160016CE6
:107F7000C907FCD4032181608068032801D1012056
:107F8000704700207047A0F59660C82202FB1100E0
:107F90001421B0FBF1F07047B0B500F066F8276827
:107FA00081490302032F43EA053214D8DFE807F0C2
:107FB00002141B22227A02B10422677A07B1082731
:107FC000000440EA055040EA053018431043A27A05
:107FD000384310430860B0BD207A00B1042000F09F
:107FE00019F84860B0BD207A00B1042000F012F802
:107FF0008860B0BDE07A00B11020237A03B1042379
:10800000657A05B1082510431843A27A2843104326
:10801000C860B0BD637A03B108231043A27A184345
:1080200010437047F8B500F020F80646A068A0F5A8
:108030009661C82291FBF2F73946FFF7A4FF216849
:1080400091B9217B01B10421627B02B10822330482
:1080500043EA055343EA073343EA00200843A17B80
:108060001043084350490860F1BD0446C8226068C7
:10807000A0F5966191FBF2F5294684E703284A4B67
:1080800008D8DFE800F002080A0C0A46002118466A
:10809000FFF7FABB70471B1DF7E70833F5E70C3312
:1080A000F3E7000080B503280BD8DFE800F00204F6
:1080B0000608012106E0022104E0032102E0042178
:1080C00000E000213948FFF7E6FB00B10120C0B213
:1080D00002BD10B50221002300B90021344AD46A40
:1080E000012C03D14AF6E8540123D4620228106817
:1080F0000CBF20F0740040F074001060906B40F0F2
:10810000080090632B48046824F4406444EA812109
:108110000160906B20F0080090630BB10020D062EA
:1081200010BD000080410E406405002024400E4038
:1081300028140020680500204C300E406005002007
:1081400040300E4090400E4060400E4010ED00E088
:1081500008300E4090310E4088300E4018300E40EE
:108160000C300E4000300E402A1400202E14002047
:1081700054300E4038300E401C83E00F3880E00F42
:108180003C300E40FEFFFFCFFC81E00F000F0EF0F1
:10819000B4C0400B2C140020372110B77740205773
:1081A0001883E00F0082E00F90300E4004300E4044
:1081B00064310E403C400E40890001EB401000F15C
:1081C0000850026070470122F6E73A480021C0E9F2
:1081D000001139482821FEF71DBA36494A68D043B4
:1081E00090FAA0F0B0FA80F0C0B2052802DB4FF0A0
:1081F000FF307047012383401A434A6040B2704702
:1082000070B504460D46FFF7E8FF06462A482A46A1
:10821000214600EBC60001F08BFE304670BD10B564
:10822000052809D200F009F852E8003F0B4342E864
:108230000034002CF8D105E010BD1F4B03EBC00249
:10824000121D7047BDE81040C1B21A48BBE770B5B7
:1082500082B01A4C174D00E02070286820B32678B1
:108260000121B140084219D0002231462846FFF7CB
:10827000A3FF114800EBC600011D002351E8002FA9
:1082800041E8003CBCF1000FF8D11100009205D08C
:108290006A460B4901F093FE012076BD686886426C
:1082A00034BF701C0020D7E776BD0248006800B1DB
:1082B00001207047B4070020BC07002040140020B4
:1082C0007856341210B5044602F031F80021201D12
:1082D00002F032F8012104F1080002F02DF8221D0D
:1082E000082100F083F90146204602F025F800201D
:1082F00010BDC0F30A010831B1F5006F04D28088C7
:108300004FF6FF71884201D101207047002070476D
:1083100010B502F007F802F015F8DFF84044A0F5B8
:108320008050206002F00EF8A0F500606060082127
:108330002068021D00F05AF92168096888421CBFB4
:108340002068FFF7BFFF6068021D082100F04EF9AA
:108350006168096888421CBF6068FFF7B3FF206846
:1083600040686168496888428041DFF8F413C00FB3
:10837000087010BD2DE9FC4104464FF6FF75AC4274
:1083800014BF002840F212200E462AD000F0D7F881
:1083900050F8218008F10C073846FFF7AAFFF8B91A
:1083A000B888304006EA040188420ED1D7E90001BE
:1083B000CDE90001ADF80650BDF804006840ADF805
:1083C0000400381D019901F0B7FFB87900F005F9F4
:1083D00007EB800000F10807F80A00F004F8DBD092
:1083E0000020BDE8F68108F10C01C002C90AB0EB1B
:1083F000C12F70472DE9F84D80460EB44FF6FF703F
:10840000804514BF5FEA080040F212200D469346F3
:108410001F461FD000F093F850F8210000F10C0423
:10842000002600F10C0A2046FFF763FF00282DD13B
:1084300000F0D9F82168884204BFA08840451CD1CB
:10844000A079834507D102985A4604F1080101F04A
:1084500083FF00286AD0D4E90001CDE90001BDF80E
:1084600004004FF6FF714840ADF80610ADF8040067
:10847000201D019901F060FF064600F0F0F800F0C1
:1084800058F808BF002ECED0002E4AD15FEA0B006C
:1084900048D004EB0B000830C00A00F04AF80ED0B8
:1084A00000F004F90446C4F30A00002804D058443C
:1084B0000830B0F5006F02D940F2015036E04BEAC7
:1084C0000520ADF80480ADF80600251D019926466B
:1084D000284601F031FF2C1D00250FE0387879780F
:1084E00040EA0120B97840EA0140F97840EA0161A8
:1084F000204601F021FF3F1D241D6D1C38B90BF1F2
:108500000300411000EB9170B5EBA00FE6DB321DCC
:108510000BF1040100F06AF80146304601F00CFF4F
:1085200006460EB9002001E04FF4C67004B0BDE865
:10853000F08DC0024FEADA21B0EBC12F70478849B5
:10854000864891F9001070472DE9F0470C468449A0
:1085500091F900100746814850F821A01546994628
:108560000AF10C0846463046FFF7C3FEE0B9B07981
:10857000011D321D00F03AF83168814218BF7F1C9E
:10858000F088FF2190FBF1F1C1EB0121401A00F0CE
:1085900024F808EB800000F108084FEAD8200AF11F
:1085A0000C01FFF722FF02D040F2025012E03846E1
:1085B000471EC0B20028D5D1B088208015B1F08800
:1085C000000A2870F08889F8000006F10800089970
:1085D00008600020BDE8F087A879C01C411000EBBE
:1085E000917080107047A079011D221D4FF0FF305F
:1085F00001F0E4BE2DE9F8430D46594991F9001008
:108600008146564850F8218016461F4608F10C0452
:108610002046FFF76EFEC8B9FFF7E5FF21688842E4
:1086200004BFA08848450CD184B115B1E088000A88
:108630002870E088307004F1080038600020BDE840
:10864000F28300F00CF8FFF7CEFEE1D00DB1002070
:10865000287000203070386040F20250EFE7A079B7
:10866000C01C411000EB9170801004EB800000F101
:108670000804E00A70471CB514466B4601AAFFF7D0
:10868000B9FF10B99DF8040010B940F2025016BDB0
:108690000098007820809DF80410022904DB0099DE
:1086A000497840EA01202080002016BD2DE9F047DE
:1086B0002B4C2A4994F9000051F8209080F00100D9
:1086C00051F82070384601F032FE09F10C0A07F12A
:1086D0000C0805E0FFF780FF0AEB800000F1080AB4
:1086E0004FEADA2009F10C01FFF77FFE1BD1554656
:1086F0002846FFF7FEFDB0B9A879011D2A1DFFF736
:1087000075FF29688842E5D10026FFF765FF801CC8
:108710008642E5DA5AF8041B404601F00DFE08F1E6
:108720000408761CF1E7D9F80400411C381D01F05B
:1087300003FE012107F1080001F0FEFD3A1D0821AA
:10874000FFF754FF0146384601F0F6FD207880F02F
:10875000010020704046BDE8F0870000900800202E
:108760005B02002010B5044610460A46014620462A
:1087700001F03CFE204610BD01F076BE01F08EBE39
:1087800080B501F081FF00B9C6E0BDE8024002F00B
:1087900003B938B500F047F8050000D17AE020466B
:1087A00002F04EFE10B94FF4C07032BD214628468B
:1087B0002269BDE83840D2B202F07AB910B500F0B3
:1087C00032F800B90EE02146BDE8104002F096B93B
:1087D00010B500F028F800B904E02146BDE81040CB
:1087E00002F01FBA40F2011010BD70B500F04EF853
:1087F000060000D125E0284602F022FE00B937E04D
:108800002A46214630462B69BDE87040DBB202F0B3
:1088100097BA10B500F007F800B9E3E72146BDE8C4
:10882000104002F0ABBA0C4601F02EBF70B500F05C
:108830005BF800B905E000F046F8BDE8704002F0D2
:1088400026BB40F2011070BD70B500F01FF80600A5
:1088500000D1F6E7284602F0F3FD00B908E02A4609
:10886000214630462B69BDE87040DBB202F034BBD4
:108870004FF4C07070BD38B500F008F800B909E0D9
:108880002A462146BDE8384002F044BB0C46154656
:1088900001F0FABE40F2011032BD70B500F024F8CC
:1088A00000B9CEE700F00FF8BDE8704002F048BB19
:1088B00070B500F019F800B9C3E700F004F8BDE89E
:1088C000704002F053BB33462A462146704770B5CC
:1088D00082B000F009F800B9AEE006990091FFF708
:1088E000F2FF02F051FB76BD0C4615461E4601F024
:1088F000CBBE10B5FFF797FF00B973E72146BDE87F
:10890000104002F058BB80B501F0BEFE00B903E094
:10891000BDE8024002F082BD40F2011002BD10B578
:10892000FFF781FF00B95DE72146BDE8104002F086
:10893000CBBB70B5FFF7D8FF00B982E7FFF7C3FFE5
:10894000BDE8704002F0D2BB38B5FFF79FFF00B919
:10895000A0E72A462146BDE8384002F03CBB7CB582
:108960000E4615461C46014601AB6A46002003F040
:1089700007F80146019828B100202080019800F5F1
:10898000806076BDBDF80000B04204D20020208097
:1089900040F2074076BD801BADF8000031442088CE
:1089A000BDF80030984238BFADF80000BDF80000B7
:1089B00018B102462846FDF741FDBDF800002080B1
:1089C000002076BD38B50C46154603F0FDF84FF68D
:1089D000FF71884204D10020288040F2014032BD5E
:1089E00001044CBF102102212980214602F060FDC4
:1089F000002032BD38B504460D46D9B2104603F00A
:108A000031F9030002D14FF4C17032BD2A4621462C
:108A1000002002F0F0FF08B100F5806032BD70B5B3
:108A200082B0FFF761FF00B906E0069B0095324671
:108A3000214604F061F976BD40F2011076BD38B5EB
:108A4000FFF724FF00B925E72A462146BDE8384054
:108A500004F06FB9F8B50024FF280D4616461F46EE
:108A600006D001F011FE040002D140F20110F2BD67
:108A70003B4632462946204601B0BDE8F04004F0AE
:108A800000B970B50C4615461E4688B10146204611
:108A900002F0DFFC02464FF6FF70824208D0290048
:108AA00008BF01250146284603F04BF8010002D11A
:108AB00040F20A4070BD16B940F2014070BD3080EE
:108AC000002070BD41F0010104F075BA204A02EBAC
:108AD00080000164704700B583B01E490020FFF795
:108AE000F5FF1D490120FFF7F1FF1C490320FFF7A7
:108AF000EDFF1B490420FFF7E9FF1A490520FFF7A6
:108B0000E5FF19490620FFF7E1FF18490720FFF7A5
:108B1000DDFF17491920FFF7D9FF16491B20FFF782
:108B2000D5FF15491C20FFF7D1FF14491D20FFF781
:108B3000CDFF13491E20FFF7C9FF1248044A006801
:108B40000021019100913223322104F03AFA07BD4D
:108B50000003002089950000ED770100F577010002
:108B600021780100FF770100FD77010019780100ED
:108B7000650A020009780100117801002B08010044
:108B8000690A020008ED00E070B5040048BF04F077
:108B900080FA600048BF05F072F9A00048BF06F0F7
:108BA00022FAE00048BF06F074FD200419D0A4B2F8
:108BB000002594FAA4F0B0FA80F0012101FA00F641
:108BC000C0B205F0D0FCB44318B105F0E8FC00B920
:108BD0003543002CEDD125B12846BDE8704000F0AA
:108BE000A7BE70BD05F049BF80B506F0FCFE04F0DD
:108BF0004CFA06F0DCFC05F03AF805F064FFBDE83D
:108C0000014007F04DB80228002105E0827A511892
:108C1000427A0068891AC9B20028F7D1084670471D
:108C200080B500F0EDF8012002BDDFF8C40490F932
:108C300000000121FFF7F3BA2DE9F04786B0804626
:108C40000E4692461D468DF804800296ADF80CA0A3
:108C500004950E9CDFF89C04DFF89C948DF814407A
:108C6000076806E001AADFF89414384607F026F9F1
:108C70003F68A7B197F83C0000F00A000A28F7D136
:108C8000D7F804C0BCF1000FECD000942B4652463C
:108C900031464046E047D9F800000028E8D006B049
:108CA000BDE8F087416A00291CBF243003F040B9B9
:108CB000704738B50446E069002837D000F014F951
:108CC000A0B3002003F046F8009078B3807A0099B2
:108CD000DFF82C543C308872002004E0009B1944DB
:108CE00001440A74401C0099009A497A927A521AF7
:108CF00090420AD218B9009B5E221944F1E7521E35
:108D000090420CBF21222A78E8E76946204600F00D
:108D10000AF9009810B1684603F00AF92878401C57
:108D20002870C0B23A28A4BF3020287031BDDFF8C7
:108D3000D40300784FF48071401CC0B2FF2804BFF8
:108D4000401CC0B2DFF8AC2303E092F83E3083420F
:108D500003D01268002AF8D17047491EECD1FF20D9
:108D6000704738B5FFF7E3FFFF2801D1002032BD7F
:108D70004420FEF7EAFC040009D0442101F01CFA6B
:108D800004F13E05FFF7D3FF2870012068702046EC
:108D900032BD80B50021DFF87003FFF731FADFF84C
:108DA0005013087000F01CF9FFF7DBFFC0B1011D84
:108DB00000220A604A600623DFF850238A60DFF849
:108DC0005023CA6000F13C0213701023CB621F23B2
:108DD000937000230B620121D170BDE8024000E0D6
:108DE00001BDDFF810130A680260086010F83C1F2C
:108DF00041F0010101708078DFF8081308707047B6
:108E000010B5DFF8F00204682DE0204600F084F988
:108E100094F83C00C00744BF2046FDF74EFB94F891
:108E20003C0000F0FE00810784F83C001AD54007A2
:108E30000BD5216908001CBF20468847606A20B115
:108E4000E16808001CBF2046884794F83C000007F2
:108E500008D5A068010005D0804718B1014620461A
:108E6000FDF74CFB2468002CCFD1002010BD38B595
:108E70000446251D0020E861A86184F83C00686074
:108E80002860A860686A28B104F1280003F050F84F
:108E900000206862286A28B104F1240003F048F831
:108EA00000202862934809E08169A14204BF0021A3
:108EB0008161C169A14204BF0021C161006800282D
:108EC000F2D131BD10B50446FFF7D1FF894800E06B
:108ED0000846016819B1A142FAD121680160204613
:108EE000BDE81040FEF74DBC08B90120704700F105
:108EF0003C010A7802F00603062B11D150F80C3F12
:108F000073B1C97801B901218069002201E00068CC
:108F1000521C0028FBD1D2B28A428041C00F704758
:108F200002F0020070472DE9F04704460D46E6695D
:108F3000FEB196F83C10301D01F0060106290FD154
:108F4000816869B12868FFF75FFEA16B0818A0630C
:108F500006F12400296803F0BFF800F095F80FE04F
:108F60000068010005D0FDF7A5FA02E0304602F0E6
:108F700044FF284603F09DF8060003D100F030F8C6
:108F800000202BE0707AB17ADFF86C9100F076F86F
:108F900009E0A06B5044A063A7EB0A07707A504425
:108FA0007072D044BFB2002FE0D0FD2FACBF4FF0A5
:108FB000FC0ABA4642465FFA8AF12046FDF7B1FA4A
:108FC000D9F800000028E4D03146284603F0D5F84F
:108FD0000020C9F8000000F003F80120BDE8F08788
:108FE0004C48FDF767BA2DE9F8435FEA00090D46E2
:108FF00006D1284602F09CFF00202860BDE8F283DD
:1090000009F1040699F83C0000F00600062810D18A
:10901000B06870B12868FFF7F7FD316B081830634E
:1090200009F12400296803F057F800F02DF800201A
:10903000E4E73068010005D0FDF73CFA02E0304675
:1090400002F0DBFE284603F034F8060002D1FFF7F9
:10905000C7FFECE7707AB17A00F010F807E04246FB
:10906000E1B24846FDF75DFA3F1BA044BFB2002FB6
:10907000E5D0FD2FACBFFC243C46F0E70F1A30448E
:10908000BFB200F110087047002028600121184885
:1090900090F90000FFF7C3B8164A12683AB1136B93
:1090A000834204BF136A8B42F7D1104670470020F9
:1090B00070471049096800291CBF91F83E20824280
:1090C000F8D10846704710B5044694F83C00626930
:1090D00020EA0101100002D02046904701E084F808
:1090E0003C1094F83C0040F0010084F83C0010BDB6
:1090F00041140020800800208408002002000100A4
:109100005A02002042140020218C0000A58C00008F
:10911000B38C0000398C000038B5044604F13C05DE
:109120006878C00713D52878400610D52046FFF789
:10913000DBFE60B1287800F0BF002870402168781D
:1091400000F0FE0068702046BDE83440BBE731BD4A
:1091500070B588B006460C46154602A8DFF8B8136D
:109160001422FDF77BF9DFF8B403D0E90023CDE941
:10917000002316B31422314602A806F0CDFE0420C7
:109180008DF8160002A8FDF787FE04211120FDF7D7
:1091900054FD002200210320FDF7E6FE0121DFF847
:1091A0008003FDF799FB0121DFF87803FDF794FBBD
:1091B000012200210020FDF749FEE4B108222146EA
:1091C000684606F0A9FE6846FDF7B6FE002D14BFFE
:1091D000022403242146DFF85003FDF72EFD21462B
:1091E000D248FDF72AFD2146D148FDF726FD012191
:1091F000D048FDF771FB08B070BD70477047F0B5FF
:109200008FB0054614980C4600281CBF0178002931
:1092100016461F4601D0407800B10120C6490860BB
:109220005020ADF80C0003AA00213120FFF723FAEB
:10923000BDF90C0000F02EF93FB12422394604A8F4
:1092400006F06AFE04A806F074FE0021705C10B9F6
:10925000491C0629FADB0629B8480AD00021725CAD
:10926000FF2A02D1491C0629F9DB062918BF002E66
:1092700017D1B349D1E90023CDE900239DF80010AF
:1092800001709DF8011041709DF8021081709DF8E9
:109290000510C1709DF8061001719DF8071041710D
:1092A00003E00622314606F037FEB5F8AE00ADF811
:1092B000080002A8FFF798FC204606F0C2FE07F05F
:1092C000B6F80FB0F0BD2DE9F04107460C4690B05E
:1092D000154698469B499C4800F0EDFC9B48006869
:1092E000060E684601F004F88F2E13DA9848994E5E
:1092F000016841F0040202604FF0501300224FF069
:10930000300E0EFB02FE521C46F80E30062AF6D333
:10931000016001E0902E06DA8F480168C909C90191
:1093200041F0200101609DF80100012804D18B4823
:10933000016841F00401016008A889491C22FDF779
:109340008DF857B117F1100F02D10020099004E0F9
:109350001C22394608A806F0DFFD08A8FEF742FCEB
:109360001798D8B103A87F491422FDF777F87E48F3
:10937000D0E90023CDE9012324B11422214603A81A
:1093800006F0CAFD25B10822294601A806F0C4FD51
:10939000424601A903A8FFF7DBFE04E04246294646
:1093A0002046FFF7D5FE01217048FDF795FAFEF73C
:1093B000CBF900F048FD07F0ABF907F015FA10B053
:1093C000BDE8F08138B50446207800285CD094F9D7
:1093D0000110674D11F1010F28D000F056F842F24C
:1093E0000200286694F90100801F05281AD8DFE8DA
:1093F00000F00305090D1115286912E0286940F4F1
:1094000080300EE0286940F400300AE0286940F41A
:10941000403006E0286940F4802002E0286940F4EA
:10942000A0202861286840F48060286094F9021028
:1094300011F1010F28D000F028F842F2010068660F
:1094400094F90200801F05281AD8DFE800F003070E
:10945000090D1115286940F0A06010E028690EE0A0
:10946000286940F080700AE0286940F0007006E04A
:10947000286940F0407002E0286940F0806028616F
:10948000286840F40060286031BD002304220220D7
:1094900007F012BA30B585B00446ADF80C0004F1FF
:1094A0007D007E288041C00F019023480068029013
:1094B0000020ADF80E000420ADF8100001A807F060
:1094C00038FA204607F0E6FD04B242F60720ADF870
:1094D00002000DF10201022001F0BBFF02464FF62F
:1094E000FF71012002F02DFB050012D0012CACBF52
:1094F000601D601F0A2190FBF1F08DF80000012132
:10950000684602F0AFFB034600222946002002F025
:1095100072FA204605B030BDAC590000C0590000B9
:10952000002508000055080002001A0003001C0076
:1095300005002000000508002C000020E4070020A2
:10954000F081E00FFD910000FB910000FC81E00F35
:10955000B0400E4000A000402C400E4064310E4050
:1095600090590000C8590000DC590000003508007F
:1095700008600E40012100F01F029140DFF86822D0
:10958000400942F82010704700BF38B5DFF85C4250
:10959000E068216808400CD5DFF8540200680568CF
:1095A000290003D000F017F80021A8474FF0004031
:1095B0000DE040000CD5DFF83C020068056829008A
:1095C00003D000F008F80121A8474FF08040A060C8
:1095D000BDE831404CE00021C0E90011F6E000BFD9
:1095E00038B5DFF81442216801290CBF0125002598
:1095F0004128B8BF002003DB5028B4BF012002205F
:10960000DFF8F81101EBC001D1E90023DFF8F01118
:10961000C1E90023DFF8EC1101EBC001D1E900231F
