:020000040800F2
:10000000804A00206D640008696300086B63000883
:100010006D6300086F630008716300080000000052
:1000200000000000000000000000000073630008F2
:10003000756300080000000077630008796300081A
:100040009164000895640008996400089D640008A4
:10005000A1640008A56400087D63000883630008AC
:10006000A9640008AD640008B1640008B564000824
:10007000B9640008BD640008C1640008C5640008D4
:10008000C964000889630008CD640008D1640008D1
:10009000D5640008D9640008DD640008E164000844
:1000A000E5640008E9640008ED640008F1640008F4
:1000B000F56400080000000000000000F96400087A
:1000C000FD64000800000000000000000165000859
:1000D000000000008F6300080565000800000000B4
:1000E000096500080D650008000000000000000020
:1000F0000000000000000000000000000000000000
:100100000000000000000000000000001165000871
:1001100000000000000000001565000819650008D7
:100120001D6500082165000825650008296500088F
:100130002D65000800000000000000000000000025
:100140003165000835650008396500083D6500081F
:100150009563000841650008456500084965000889
:100160004D65000851650008556500080000000055
:10017000596500085D6500080000000000000000EF
:1001800061650008656500086965000800000000F9
:1001900070B516462DED048BD6E9002304460D46B6
:1001A000B0EE408AF0EE608AB0EE419AF0EE619ACD
:1001B0000020DFF8381B01F001FBC6E90001D4E99B
:1001C000002351EC180B01F0F9FAC4E9000153ECDB
:1001D000182B51EC190B01F0EBFBD5E9002301F0D2
:1001E000EDFAC5E90001BDEC048B70BD2DE970434B
:1001F00006462DED048B70880C46154601F0C6FCB2
:1002000080468946204601F0C1FC02460B46404626
:10021000494601F0C9FC0022DFF8BC3A01F0CEFAF1
:1002200041EC180B284601F0B1FC044630880D461D
:1002300001F0ACFC02460B462046294601F0B4FC16
:1002400041EC190B53EC182B51EC180B01F0B0FBDF
:1002500004460D4653EC192B51EC190B01F0A8FB89
:1002600022462B4601F0AAFA0022DFF8843A01F078
:100270009FFBC6E90401BDEC048BBDE87083000060
:100280002DE9F04E2DED048B86B0144600279FED2E
:10029000218B0A008DED028B8DED008B8DED048B93
:1002A00025D08B46994682463AF8170081451BDADD
:1002B00001F06CFC41EC190BB8B201F067FC04AE24
:1002C00002AD41EC110B324669462846B0EE490AB0
:1002D000F0EE690AFFF75CFF51EC190B53EC182B99
:1002E00001F06CFA41EC180B7F1C5F45DCDBDDE9AB
:1002F0000001DDE9022301F057FC01F079FD2080C7
:1003000051EC180B01F092FD06B0BDEC048BBDE87A
:10031000F08E7047000000000000000070B50E462F
:1003200005461446782101F095FD328A2A80308AEC
:1003300068800020718AA980E88004F56475202116
:10034000284601F087FD2021284601F083FD04F5B1
:1003500042750020C5E90200A8632871202104F538
:10036000227001F077FD00202870202104F52A700A
:1003700001F070FD01206870202104F5327001F059
:1003800069FD0220A870202104F53A7001F062FD99
:100390000320E870002104F520700122017002237F
:1003A000032142708370C17070BDF8B504460D46DC
:1003B00001201646208102214AE0084633E0002051
:1003C000A062A11C208931F810106389A182A01CB1
:1003D000324630F81370E7822946204600F03EF896
:1003E000204600F095F8D0B132462946204600F06C
:1003F0009DF83146204600F093F9324629462046C2
:1004000000F0A8F994F8410028B1608C401C608489
:1004100080B20228E8DD3146204600F0F6F9A16AF4
:1004200020888842C9D2218906EB4102A2F8300314
:10043000208906EB8001606BC1F838032189A06A2E
:1004400005EB41029081218960894A1E2281411E6B
:10045000618160890028B2D1F1BD0000F8B5044681
:100460002DED028B20890D4600EB80014E01A9196C
:1004700005F1180791ED1A1B02EB4001B0EE418A1D
:10048000B1F83003F0EE618A01F080FB41EC100B13
:10049000B0EE481AF0EE681AB81901F063FE51EC9C
:1004A000100B01F0A5FC20839FED9B8B208B40005F
:1004B0006083208900EB800105EB411551EC180B9E
:1004C000D5E9062301F0D8FE53EC182B01F070FAA1
:1004D0000022DFF8183801F071F90022DFF8043D3E
:1004E00001F066FA01F084FC81B20329B8BF032051
:1004F00003DB1529ACBF142000B2A084B4F924009A
:1005000001F02CFFC5E91C01BDEC028BF1BD000020
:10051000B0F92410012907DB038B9942B4BF591AA3
:1005200000218183012070470020704770B5044688
:10053000002020630D46A08A608200211646616378
:10054000E183218414E02946204600F016F8324663
:100550002946204600F02AF8608A401E608280B258
:10056000296831F81020E283696831F8100020848E
:10057000E08A618A8842E6D370BD10B4C18B028CD8
:100580008A420ED2036B5B180363891A028BC18304
:100590008BB29A423EBF428B8CB2944203D2511A24
:1005A00000E00021C18310BC704700002DE9F0413C
:1005B00004462DED048BE78BA08BB8428846154688
:1005C0002BD23F1A608AE78301F0E0FA41EC110B6D
:1005D000B0EE418AF0EE618AB8B201F0D7FA04F1C8
:1005E000480504F1580604F1500841EC100B2A4666
:1005F00031464046B0EE481AF0EE681AFFF7C8FDE3
:10060000E08BA16A814238BFA062E089401CE08192
:10061000012184F84010002074E0A189491C04F1F4
:100620004006A18189B230780B296DDB00286CD09F
:1006300096ED028B53EC182B0020002101F0A0FE58
:1006400065D096ED049B51EC190B01F0ADFA01F069
:10065000EDFB0746606BE7623818032F606347D3F2
:1006600053EC192B0020002101F08AFE96ED068B39
:1006700009D153EC182B01F083FE18BF4FF48060B2
:1006800001F06CFE03E051EC180B01F08DFA01F063
:10069000AFFBD8F80010238A82B231F81220E1892A
:1006A00005EB4313A3F88822228A05EB4213A3F833
:1006B0008A72228A05EB4213A3F88C02208A05EB8A
:1006C0004012A2F88E120022208A05EB4011A1F8F8
:1006D0009022208A05EB401101F52670C0E9002226
:1006E0000272208A291881F80803208A401C20827F
:1006F0009FEDA30B002086ED060B86ED040B86ED27
:10070000020B3070A08103E008B90020E08100BF37
:10071000BDEC048BBDE8F081000000000000244027
:10072000F8B50646378901EB8701D1F8380301F0A7
:100730002DFA0446706B0D4601F028FA02460B466E
:100740002046294601F030FAC6E91801002086F853
:100750004100F1BD2DE9F8430E46416B002952D00E
:1007600000250446904600E06D1C218AE8B28842CC
:1007700049D208EB000999F808030428F4DA08EBD9
:100780004010A26A616B00F52277D2B289B2384676
:10079000FFF72CFDD4E91801D7E9042301F000FE8E
:1007A000E2D2012084F84100042189F8081330685E
:1007B000B98830F91100218B42008842628306DA41
:1007C00009B2081AA18B48BF404201EB6000A11C8E
:1007D0006289A08331F81210F888BA88A2EB50051C
:1007E000A942BABFA2EB5002E282E182A11C228997
:1007F00031F81210BA8802EB50038B42BABF02EBF9
:100800005000A082A182BDE8F1832DE9F84F2DEDC3
:10081000048B82B088460025009008F5427731E0CD
:10082000785D08EB401101F522716C1C088940BB12
:10083000A0B291ED048B4845B0EE489AF0EE689A6C
:100840002E46A24615D208EB000B9BF8080308EBD6
:10085000401053EC192BD0E9A60101F0A1FD38BFDF
:1008600056460AF1010A1FFA8AF048450BF1010BBE
:10087000EBD37E5508EB4513B6B20122BD55A3F864
:100880009022A5B20098B0F810904D45C8DB042D19
:1008900007DA08F54270284400F8015B6D1C042D4E
:1008A000FADB02B081E200002DE9F04106462DEDB1
:1008B000048B378A8846384601F068F941EC180BFA
:1008C00053EC182B0020002101F05AFD08BF9FEDCA
:1008D0002E8B306B86ED1C8B01F058F9D6E91C236A
:1008E00001F066F841EC180B96ED1A9B53EC192BAE
:1008F0000020002101F044FD07D153EC182B01F03A
:100900003FFD0ED19FED1E8B0DE051EC180B01F059
:100910004BF90122DFF8AC3A01F05AFD41EC180B1B
:1009200001D89FED1B8B08F54475002085ED008BE9
:1009300088F80C730021346B2C6395ED008B53EC1D
:10094000182B01F01DFD06D1002C14BF9FED120BDA
:100950009FED0B0B08E0204601F018F953EC182B23
:1009600001F022F941EC100B08F5247085ED060B1F
:1009700000210180018408F5347001800184C7E6FC
:100980000000000000000000000000000000F03F38
:100990000000000000001440000000000000904033
:1009A0002DE9F84F2DED0E8B86B0834600F001FA4D
:1009B0009FEDCC9B421EB0EE49AAF0EE69AA00273B
:1009C0000026002404929FEDC5EB059030E00599C8
:1009D0008F42B8BF864229DA0BF520700BF52373DE
:1009E000C25D0BEB060002EB820190F80823520176
:1009F0000BEB4115985A01F0C9F841EC180BB0EE19
:100A0000480AF0EE680A284601F0F3FAD5E9100129
:100A100053EC182B01F030FC21F0004153EC1A2B61
:100A200000F0CCFE641C41EC1A0BA4B27F1CBFB2D8
:100A30000498874280F211819BF80C03411E8E427C
:100A4000C5DA0BEB060000F542700BF52271027857
:100A5000407801EB421501EB40190BF52071C819E4
:100A600090F800A090F80180A88801F08FF841EC80
:100A70001D0B0AEB8A010BEB4111029153EC1D2B6C
:100A8000D1E9100101F0F8FB21F0004141EC180B15
:100A9000B9F8040001F07AF841EC1C0B08EB88016E
:100AA00049010BF140020091501853EC1C2BD0E986
:100AB000000101F0E1FB21F0004141EC1B0B029829
:100AC00053EC1C2BD0E9100101F0D6FB21F00041C2
:100AD00041EC1C0B00990BF14000014453EC1D2B21
:100AE000D1E9000101F0C8FB21F0004141EC1D0BF0
:100AF00051EC180B0122DFF8D03801F069FC04D862
:100B0000029801F069FB9FED758B51EC1C0B0122E3
:100B1000DFF8B43801F05CFC04D8029801F05CFB0B
:100B20009FED6ECB0098DFF8A03858440390012267
:100B300051EC1B0B01F04CFC04D8039801F04CFB6A
:100B40009FED66BB51EC1D0B0122DFF87C3801F0F4
:100B50003FFC06D8039801F03FFBB0EE4EDAF0EE12
:100B60006EDA53EC182B51EC1B0B00F021FFCDE992
:100B7000000153EC1C2B51EC1D0B00F019FFDDE9BB
:100B80000023A41C01F00CFC21D353EC1C2B51ECD2
:100B90001D0B00F013FE53EC1A2B00F00FFE41EC7E
:100BA0001A0BA88800F0F2FF41EC100B029801F03C
:100BB00020FAB9F8040000F0E9FF41EC100B0398AB
:100BC00001F017FA85F818A089F8188020E053EC96
:100BD000182B51EC1B0B00F0F1FD53EC1A2B00F01D
:100BE000EDFD41EC1A0BB9F8040000F0CFFF41EC29
:100BF000100B029801F0FDF9A88800F0C7FF41EC46
:100C0000100B039801F0F5F989F818A085F8188001
:100C10007F1CB61CBFB2B6B20EE70BF542710BF5E6
:100C200023708A5D52019FED2F1B805AB0EE418ADE
:100C3000F0EE618A00F0AAFF41EC100B0BF520707A
:100C4000B0EE481A815D01EB8102F0EE681A0BEB01
:100C5000421001F087FA761CB6B29BF80C0386426C
:100C6000B8BF042ED9DB042F14DA0BF52070C15D58
:100C700001EB81020BEB421001F0AEFA7F1CBFB218
:100C8000F1E78BEDEC9B06B05846BDEC0E8BBDE852
:100C9000F24F2FE0A0B20028F5D000F077FF024617
:100CA0000B4651EC1A0B00F07FFF0022DFF81837DB
:100CB00001F076FBE5D200F077FF02460B460020FC
:100CC0000A4901F0D9FADFF80427DFF8383700F0D5
:100CD0006FFECBE9EC01D6E70000E0BF00000000AA
:100CE00000407F4000000000000000000000F03FD6
:100CF0000000E03F2DE9F84F2DED048B804601F018
:100D000061FA08F1A00001F05DFA08F5A07001F0A9
:100D100059FA08F5F07001F055FA08F52079002429
:100D20004D4608F19806287800EB800108EB411049
:100D300090F89820012A2AD0671C90ED1E8BB8B23B
:100D40000428B0EE489AF0EE689AA24617DA09EB4A
:100D5000000B9BF800E008F178030EEB8E0203EB2A
:100D6000421251EC190BD2E9002301F019FB38BFF4
:100D7000BA467F1CB8B204280BF1010BE9DB1FFA5D
:100D80008AF085F800A009F8004001213170641C48
:100D9000A0366D1C042CC6DB002088F8980088F86B
:100DA000380188F8D80188F87802BDEC048BBDE8DA
:100DB000F18F2DE9F0412DED028B002500F5207615
:100DC0000424804616F8011B01EB810208EB421750
:100DD000002387F89930384601F0F4F9B0EE408AE4
:100DE000F0EE608A384601F0D7F998B951EC180B4B
:100DF000DFF8DC25DFF8103601F0D2FA0AD397EDE0
:100E0000140B384601F052F86D1C0120641E87F85F
:100E10009900D7D1BDEC028BA8B2BDE8F0810000EB
:100E200010B504462DED0A8BD4E9C4239FEDC79B72
:100E300051EC190B00F0C2FC41EC1A0BB0EE4A1A4F
:100E4000F0EE6A1A9FEDC30B01F0DDFA9FEDC31BB4
:100E5000B0EE418AF0EE618A51EC190B53EC102B85
:100E600001F00AFA41EC100BB0EE481AF0EE681AE5
:100E700001F0C9FA53EC102B51EC190B01F0FCF9FD
:100E800004F5647441EC1C0B84ED00CBB0EE4A1AFF
:100E9000F0EE6A1A9FEDB30B01F0B5FA51EC190BA5
:100EA00053EC102B01F0E8F941EC100BB0EE481AAE
:100EB000F0EE681A01F0A7FA53EC102B51EC190B65
:100EC00001F0DAF941EC1B0B53EC1C2B01F0D4F9C7
:100ED000C4E90201B0EE4A1AF0EE6A1A9FEDBF0BA8
:100EE00001F091FA51EC190B53EC102B01F0C4F9FD
:100EF00041EC100BB0EE481AF0EE681A01F083FADC
:100F000053EC102B51EC190B01F0B6F941EC1C0B12
:100F100053EC1B2B01F0B0F9C4E90401B0EE4A1AFE
:100F2000F0EE6A1A9FED890B01F06DFA51EC190B86
:100F300053EC102B01F0A0F941EC100BB0EE481A65
:100F4000F0EE681A01F05FFA53EC102B51EC190B1C
:100F500001F092F953EC1C2B01F08EF9C4E9060163
:100F6000BDEC0A8B10BD2DE9F0410C4604F5DA68A2
:100F70000546D8E9000116461F4600F039FF2880D3
:100F800004F54674D4E9000100F032FF6880D8E926
:100F9000020100F02DFFA880D4E9020100F028FF33
:100FA0002E816F81E880BDE8F08170B504460D4662
:100FB00020892188A2888142894190428041C00FC6
:100FC00090EAD17F0AD060896188E28881428941B4
:100FD00090428041C00F90EAD17F23D1284600F093
:100FE00015FA286CE96BAA6CE6888842696C6588FA
:100FF000804191428941C90F01EBD070431E237398
:10100000A0882188884292415BB2002BCCBF01238B
:101010000023B542AD4183EAD27292EAD57F1CBF6C
:101020002080A18070BD00002DE9F0472DED028BDE
:101030000646042400F5ED6A9FEDCC8B0546D5E904
:10104000EC23D6E9E40100F0B3FC06F5E96780463D
:101050008946DAE90023D7E9000100F0A9FC4246FD
:101060004B4600F0ABFB53EC182B00F0A1FCC7E99A
:101070000A010836641EE2D1D5E9EC23DAE9000161
:1010800000F09CFB53EC182B00F092FCCAE90A011B
:10109000BDEC028BBDE8F08710B4038882880C8811
:1010A000D2181204520C944238BF2246028144885E
:1010B000C288141924044A88640CA24238BF14461A
:1010C00044810B8142884A8183888B81C288CA818E
:1010D00003890B8242894A820389A1F81A32428924
:1010E000A1F8C2200389A1F84C3A4089A1F89406DE
:1010F00010BC704710B52DED028B044600F036F899
:10110000204600F071F8204600F034F99034D4E91C
:101110000023D4E9020100F051FBD4E9042300F0DC
:101120004DFB0022AB4B01F03BF941EC180B38BFF3
:101130009FEDA98B06D30122A24B01F049F998BF7C
:101140009FED068B84ED068B44E00000000000005C
:101150000000F03F9A9999999999C93F00000000C1
:10116000000014409A9999999999D93F10B504466D
:101170002DED028BE06C50289FED990B27D9502163
:10118000B1FBF0F0C0F1010000F000FD00224FF0D3
:10119000404301F005F941EC180B38BF9FED928BED
:1011A00007D301224FF0804301F012F998BF9FED61
:1011B000908B53EC182B51EC180B00F0F9FB53EC0F
:1011C000182B00F0F5FB81F0004141EC100B84ED91
:1011D000240B00BFBDEC028B10BD0000CDCCCCCCED
:1011E000CCCCE43F00003440F8B5064606F53E6737
:1011F0002DED068B97ED008B86ED1A8B308800F075
:10120000C5FC044670880D4600F0C0FC22462B4603
:1012100000F0CEFB41EC180B41F2482006F6F82511
:10122000315602292AD9C91E40F08E8006F5CE64B7
:10123000208C00F0ABFC41EC100B06F1C80000F074
:101240000DFE608C00F0A2FC41EC100B06F5B470B2
:1012500000F004FE06F62824208C00F097FC41ECF8
:10126000100B06F5087000F0F9FD608C00F08EFCA4
:1012700041EC100B06F5307000F0F0FDD5E90201ED
:1012800001225D4B01F0A4F83CD806F5CE6406F6C9
:10129000282794ED009B97ED00AB51EC1A0B53EC13
:1012A000192B01F07DF824BFB0EE4A9AF0EE6A9A4D
:1012B00085ED009B94ED069B97ED06AB51EC1A0B68
:1012C00053EC192B01F06CF824BFB0EE4A9AF0EE03
:1012D0006A9A85ED049BD5E90023D5E9040100F065
:1012E00067FB41EC190B53EC182B0020002101F097
:1012F00047F804D153EC192B01F042F80BE051EC04
:10130000190B13E053EC182B0020002101F038F8E2
:10131000346D06D1002C14BF9FED380B9FED300BC0
:1013200008E0204600F032FC53EC182B00F03CFCA7
:1013300041EC100B86ED1A0B9FED291B96ED180B57
:1013400006F53A6000F00EFF06F53E6096ED1A0BCA
:1013500090ED001B06F5316001F05EF895ED160B7F
:1013600086ED260BBDEC068BF1BD000000000000F1
:101370000000E03F38B5044604F5356004F53E65ED
:101380002DED048B90ED008B95ED009B53EC192B0C
:101390000020002100F0F4FF09D153EC182B00F0DD
:1013A000EFFF14BF9FED150B9FED0D0B05E051EC0A
:1013B000180B00F0F9FB41EC100B84ED280BBDEC91
:1013C000048B31BD0000144000407F409A999999E8
:1013D0007B14AE47000014C000000000000014C0E1
:1013E000000000000000000000000000000000C03D
:1013F00000000000000000400000E03F000000008E
:10140000000090409999D93FE17A943FF8B596B0A1
:1014100004466846582100F01DFDA28AADF8002060
:10142000238A991A48BF4942ADF802102188CD1A83
:10143000ADF80450E58AADF80650668A701B48BFC7
:101440004042ADF808006088801B9342ADF80A0066
:1014500008D20E988A1A40F00100ADF80030ADF8BD
:1014600004200E90AE4208D20E98491B40F00200B4
:10147000ADF80660ADF80A100E901598022869D8EC
:10148000002114911498411C149115994A1C15922D
:101490000DF106023DF8100032F81110484303AA7E
:1014A000129942F821001298401C129014980228B8
:1014B000E8D9E2E70C9DB5FBF0F0139E0F9D04EB1D
:1014C0008607FE6A06FB00500F901498401C14908B
:1014D000149D109E1398B54231D20E9E4E43164471
:1014E00006EB8000284403AF057C57F825600C9676
:1014F000002515E00E9FDDF84CC04F43174407EB65
:101500008C0EDDF850C0F44403AE9CF820E007EBED
:101510008E0717F805C056F82C6030180D906D1C1A
:101520001595119E159D0D98B542E3D30028C1D1A4
:101530000C98002818BF1846BFE717B0F0BD04EBA1
:1015400080010F9BCA699A422CBFD21A0022CA633B
:10155000401C139013980428EFD20E9B63A23421F1
:101560004B4313441D18404295F8306010961844C0
:10157000002590F83330119314950D954FF4806346
:10158000A6E700002DE9F84388B0064606F5EB61B2
:10159000019106F56872029206F5FF61039106F566
:1015A0008862049206F6D821059106F52E6206920D
:1015B00006F6E821CDF81C1041F230404AA211682D
:1015C000009135180021884700F0E0FA06F5A15295
:1015D0000027C2E900016C460DF1040941F21941EE
:1015E0000020725C7F1CD30714D5227800280CBF22
:1015F00002F00F0212090023012A09DBA846D9F8DC
:1016000000C01CF803E008F801EB5B1C9342F6DB1A
:1016100005EB820590F0010018BF241DFAB2082ADC
:1016200009F10409DDDB41F2184003213018FEF70F
:1016300070FE09B0BDE8F0832DE9F84F002600F5F3
:10164000207700F24E3800F5437504468B4613E0D0
:10165000BAF80200B1F83013081881B2C929A8BF3E
:10166000C82028F8020C88F800B088F80190761C91
:10167000B6B208F104087F1C28788642B8BF102E45
:1016800019DA38780428F2DA00EB800104EB411013
:1016900097F8889090ED100B04EB491000F5227A32
:1016A00051EC100B00F0A4FB298D80B2884234BFAE
:1016B000A11C2146CCE784F88C63BDE8F18F10B5FE
:1016C000044694F86C0620B1217E04F55870FFF7AB
:1016D000B3FF94F8240A28B1217E04F5E360BDE845
:1016E0001040A9E710BD00008888880800010304A5
:1016F00002050000060700000800000000000000CE
:1017000001020000030600000405070800010203AF
:1017100001030000020300000300000004020201B4
:101720000003000001020405060000000708000095
:101730000001000002000000030406070508000085
:10174000000200000001020302000000020300008A
:101750000204010200010000020000000304060769
:101760000508000000030000010204050600000057
:101770000708000000010000010000000001020352
:101780000103000002010402000000000102000049
:101790000306000004050708000103040205000019
:1017A0000607000008000000000000000001000023
:1017B00000020000000102030102020470B44FF0B5
:1017C000004591EA030F40F15F856B40841A71EB8D
:1017D000030604D26E40001BB141121973414FF44D
:1017E000001C1CEB410F34BF7CEB430683E00C0D67
:1017F000A4EB1356362E00F37C80012E45EAC3235A
:1018000041DC43EA525312BFD20292025B08240524
:1018100045EAC12141EA5051D2EBC020994125D47B
:1018200007D1B0FA80F610FA06F162D00020203617
:1018300008E0B1FA81F6B140C6F1200220FA02F2C6
:101840001143B0404FEAF474B4EB465434F001064F
:101850004FEA74040AD8D6F50016760D04F0004459
:10186000F04061FA06F25040F1404840C00A40EAB8
:10187000415021F0004128BF5FEA500550F10000BF
:1018800044EBD12135E0DB0A45EAC121C90AB6F1B2
:1018900020050EDD42EA0242120CC5F1200603FAD1
:1018A00006F6EB4042EA06056D42984161F10001FF
:1018B0000DE062FA06F5F240554063FA06FC82EA52
:1018C0000C02F3405A406D42904161EB030111F468
:1018D000801F05D1641E620502D06D004041494160
:1018E00021F48011430875F1004350F1000041EBF1
:1018F000045170BC70471CEB410F15D223F000431C
:1019000052EA43060BD04FEA4C0CBCEB410F04D813
:101910000C0D661E342EB7DDEBE7801A994150EAB4
:10192000410608BF0021E4E708BF1CEB430F28BFB6
:101930006FF00001DDE7F0B40246106895681318F7
:10194000506803EB5004C0071DD54D441BE013F84D
:10195000017B05F8017B491EF9D1A0B1B60813F847
:10196000011B06F00306032E08BF13F8016B01EB01
:1019700006214942801C294405D011F8016B05F865
:10198000016B401EF9D1A3420ED013F8016B16F083
:10199000030104BF13F8011BC91C30090F28DAD159
:1019A00013F8010B0F30D6E7F0BC02F10C007047C2
:1019B000B0B581EA030C0CF0004C40F2FF7515EA5B
:1019C00011541DBF15EA1357AC42AF4239E0E41978
:1019D00023EA455343F48013C90241F0004141EA30
:1019E000505EC7021100A7FB020200284FF0000062
:1019F000EEFB01204FF00001E3FB072118BF42F08E
:101A00000102401800214941E3FB0E01A4F5806466
:101A10000F0302D252004041494154F101046CDDF0
:101A2000470872F1004250F1000051EB0451A1F55A
:101A300080115CBF41EA0C01B0BD4CEA05510020A9
:101A4000B0BD05EA1357AC4214BFAF4241E050EAC3
:101A5000410E1CBF52EA430E02E061460020B0BDB9
:101A600024423C441BD15FEA070EF6D0090302BFB3
:101A700001460020AEF1140EB1FA81F7AEEB070477
:101A800001FA07FE0C37C7F1200100FA07F7C8403A
:101A90004EEA000E23EA455343F48013A2E733F0E5
:101AA0000043B3FA83F704BFB2FA82FE77440B3FD8
:101AB000E41BB7F1200E2FBF02FA0EF3BB40C7F1B3
:101AC000200E22FA0EFE38BF43EA0E03BA40641C11
:101AD00082E750EA410E14BF52EA430E6FF0000154
:101AE0004FF4001717EB430F8ABF194617EB410F4E
:101AF000B5E74CEA05510020B0BDD4F10104B4F1C2
:101B000020070FDAC4F12007520828BF42F0010273
:101B100010FA07F501FA07F7E1BF2A43E04038431E
:101B2000E1400FE0352C98DCC7F1200452EA400276
:101B300020FA07F218BF42F0010231FA07F0A14083
:101B40000A43002172F1004250F1000051EB0C01F8
:101B5000B0BD30B4002513E050F8042BD30744BFC8
:101B6000A9F101039A18091F042942F8045BFAD26B
:101B700013468C0744BF15809B1CC90748BF1D70C6
:101B800050F8041B0029E7D130BC7047014648B12A
:101B9000B0FA80F18840C91CC1F58461090501EBE8
:101BA000D021400570470000F0B540F2FF7581EA92
:101BB000030C0CF0004C15EA11541DBF15EA135725
:101BC000AC42AF42E5E0BC41C1F31301C3F31303E0
:101BD000801A994143F4801304D2641E40004941A5
:101BE00080185941C90241EA5051B1FBF3F603FB99
:101BF0001611A2FB0675D7EBC020A94102D2761EB2
:101C000080185941C90241EA5051B1FBF3FE03FB70
:101C10001E11A2FB0E75D7EBC020A94103D2AEF175
:101C2000010E80185941890241EA9051760546EA31
:101C30008E2EB1FBF3F603FB1611A2FB0675D7EB54
:101C40008020A94102D2761E80185941C90241EA7A
:101C500050514EEA060EB1FBF3F603FB1611A2FB40
:101C60000675D7EBC020A94102D2761E80185941D3
:101C7000C90241EA5051B1FBF3F703FB1711A2FB74
:101C80000735D3EBC020A94167F100070CBF004224
:101C900047F0010766F3D5274FEA1E31B80814F55F
:101CA000806412DDBD0775F1004250EB0E5051EB20
:101CB000045111F5801F5CBF41EA0C01F0BD4CF0EE
:101CC0007F6141F0E0410020F0BDBD076D0840EAB2
:101CD0000E5041F48011D4F10104B4F120060ADA67
:101CE000C4F120060200E04001FA06F3E140184387
:101CF000B24015430EE0342C13DCC6F1200445EA53
:101D000040056D0820FA06F2154321FA06F0A140BD
:101D10000D43002175F1004250F1000051EB0C0120
:101D2000F0BD00205FEA0C01F0BDCFB992185B4115
:101D3000B3FA83F704BFB2FA82F6BF190B3FB7F1CB
:101D400020062FBF02FA06F3BB40C7F1200622FA95
:101D500006F638BF3343BA401CB1E419641E33E7BA
:101D60007F4231F00041B1FA81F404BFB0FA80F64D
:101D7000A4190B3CB4F120062FBF00FA06F1A140D4
:101D8000C4F1200620FA06F638BF3143A0403C1BC0
:101D90001AE7AC421ABF05EA1357AF4212E050EA05
:101DA00041061CBF52EA4306BFE750EA41073046EE
:101DB00061461CBF41EA0551F0BD52EA430C08BF21
:101DC000C143F0BD00204FF4001616EB410F98BF41
:101DD00016EB430F08BF16EB410F24BFC14305E0CC
:101DE00016EB430F0CBF61464CEA0551F0BD0000F5
:101DF000C1F30A5340F2FE329B1A14DDD3F12003E3
:101E00004FEAE17208DDC90241EA505141F0004059
:101E1000D84080185040704703F2E13010B1D243EF
:101E200082F000407047002070470000400D4918C4
:101E300040EA81200CD2490DA1F58061491C40F097
:101E4000004005DBD1F11F0154BFC840C0177047E7
:101E500000207047002200F091BB000010B504463E
:101E60009FEDBE1B002084ED001B84F89A0084EDDA
:101E7000021B84ED041B84ED061B84ED081B84ED1E
:101E80000A1B84ED0C1B84ED0E1B84ED100B84EDFE
:101E9000121B84ED141B84ED161B84ED1E1B002108
:101EA0008847FFF773FEC4E91C0110BD38B52DED5E
:101EB0000A8B0446B0EE408AF0EE608A002080472C
:101EC000FFF764FED4E91A2300F0D6F941EC190BB0
:101ED000D4E9180153EC192B00F062FA06D2002065
:101EE0008047FFF753FEC4E91A017FE0D4E91001EF
:101EF000D4E9122300F0C0F9C4E9140194ED10AB49
:101F000084ED12ABD4E90E2351EC180B00F0B4F9B8
:101F100041EC100B84ED0C0B53EC192BFFF748FD33
:101F200053EC1A2BFFF74AFC41EC1A0B04F1800525
:101F300084ED10ABA88BFFF729FE41EC180B51EC98
:101F40001A0B53EC182B00F02BFA09D3E88BFFF790
:101F50001DFE53EC1A2B00F023FA41EC180B03D2B0
:101F6000B0EE48AAF0EE68AA94ED0A8B84ED10ABAF
:101F700053EC192B51EC180BFFF71AFD94ED06CB1F
:101F800094ED08BB41EC1A0B53EC1C2B00F074F9D8
:101F900053EC1B2B00F070F9D5E90023FFF70EFC82
:101FA00053EC192BFFF704FDD4E90423FFF706FCDB
:101FB000C4E9040153EC1A2B51EC1C0B00F05CF942
:101FC000C4E9060153EC1A2B51EC1B0B00F054F939
:101FD000C4E90801D5E9022351EC190BFFF7E8FC2D
:101FE00053EC182BFFF7EAFBC4E90A01BDEC0A8B9E
:101FF00031BD38B5044604F190052DED068BD5E9C9
:10200000000194ED049BB0EE408AF0EE608A53EC40
:10201000192BFFF7D3FB02460B4600209349FFF72D
:10202000C3FD41EC1A0B53EC192BFFF7C1FC41EC3B
:10203000190B84ED009BD4E9082351EC1A0BFFF730
:10204000B7FCC4E9020194ED10AB51EC180B53EC52
:102050001A2B00F011F941EC180B53EC192BFFF778
:10206000A7FC53EC1A2BFFF7A9FBC4E91001D4E934
:10207000022351EC180BFFF79BFCD4E90E23FFF76A
:102080009DFBC4E90E0194ED048B94ED009B53EC91
:10209000192B51EC180BFFF78BFC02460B4651EC49
:1020A000180B00F0E9F841EC180B94ED06AB84ED49
:1020B000048B53EC192B51EC1A0BFFF779FC0246F9
:1020C0000B4651EC1A0B00F0D7F841EC190B94EDCC
:1020D00002AB84ED069B53EC1A2B51EC180BFFF767
:1020E00067FC02460B46D4E9080100F0C5F8C4E9D4
:1020F000080153EC1A2B51EC190BFFF759FC02465F
:102100000B46D4E90A0100F0B7F8C4E90A0100203F
:102110008047FFF73BFDC4E91A01A889FFF736FDA8
:1021200041EC180B94ED109B51EC190B53EC182B50
:1021300000F036F90DD3E889FFF728FD53EC192B91
:1021400000F02EF941EC180B24BFB0EE498AF0EEF6
:10215000698A84ED108BBDEC068B31BD0000000058
:102160000000000010B52DED028BB0EE408AF0EEBD
:10217000608A0446B0EE410AF0EE610AFFF796FE6F
:10218000B0EE480AF0EE680A2046FFF732FF94ED01
:10219000100BBDEC028B10BD10B50446002080472B
:1021A000FFF7F4FCD4E91A2300F066F802460B4668
:1021B000D4E9180100F0F4F801D2012010BD00208C
:1021C00010BD000090F89A1090ED000B09B19FED42
:1021D000280B80ED1E0B704710B504464FF066309B
:1021E000D4E900231E49FFF7E3FB41EC100B84ED1B
:1021F000000B94F89A0018B10020C4E91E0008E012
:1022000051EC100B174A184B84ED1E0B00F0C8F868
:1022100024D29FED170B002084ED000B84F89A0068
:1022200084ED020B84ED040B84ED060B84ED080BAA
:1022300084ED0A0B84ED0C0B84ED0E0B84ED100B7A
:1022400084ED120B84ED140B84ED160B84ED1E0B44
:1022500000218847FFF79AFCC4E91C0110BD00006B
:102260006666E63FFCA9F1D24D62503F0000F03FA8
:10227000000000000000000070B44FF0004591EA3B
:10228000030F7FF5A3AA6B40841A71EB030603D2F8
:10229000001BB141121973414FF4001C1CEB410F9C
:1022A00034BF7CEB430442E00C0DA4EB1356352EF7
:1022B0004FDC45EAC323DB0A45EAC121C912B6F166
:1022C00020050DDD63FA05F6EB4086EA03051242B0
:1022D00018BF45F00105C01851F100010CD213E000
:1022E00062FA06F5F2405540F3415A40B340F340DC
:1022F0005A408018594107D349085FEA30005FEA25
:10230000350528BF45F0010501F58011420875F13A
:10231000004250F1000041EB04514E0016F5001F41
:1023200070BC38BF70470020090D090570471CEBD1
:10233000410F10D252EA43060BD0BCEB410F05D837
:102340000C0DAB43661E342EB6DD02E0AB438018A5
:10235000594170BC704770BC70470000C11768B12C
:102360004840401AB0FA80F29040D21CC907C2F52A
:10237000846241EA025202EBD0214005704700001E
:1023800090420CD141EA030C50EA4C0C07D0994220
:1023900005D14FF4001C1CEB410F38BF8942704738
:1023A0004FF4001C1CEB410F94BF1CEB430F09E0E2
:1023B00041EA030C50EA4C0C52EA0C0C03D299424D
:1023C00008BF9042704714BF8B42824270470000A2
:1023D0004FF4001C1CEB410F94BF1CEB430F09E0B2
:1023E00041EA030C50EA4C0C52EA0C0C03D28B422B
:1023F00008BF8242704714BF994290427047000064
:1024000041EC100B01BD80B553EC112B51EC100BBE
:1024100000F046FCF4E7000038B504462DED068BCD
:1024200051EC100B53EC112BFFF726FF41EC100B76
:1024300084ED1A0BD4E9000153EC102BFFF7B8FA26
:10244000C4E90A0100208047FFF7A0FBD4E9162366
:10245000FFF712FF41EC180B94ED1AAB84ED148BCF
:1024600053EC1A2BFFF7A4FAD4E91E23FFF7A6F9C1
:1024700041EC100B84ED1E0BD4E90223FFF798FA10
:1024800041EC190B84ED0C9BD4E9180153EC1A2B89
:10249000FFF7F2FE41EC100B84ED1C0BD4E9042392
:1024A000FFF786FA41EC1A0B53EC182B00200021A1
:1024B000FFF766FF09D153EC1A2BFFF761FF14BF3A
:1024C0009FED280B9FED290B05E051EC1A0BFFF750
:1024D0006BFB41EC100B84ED0E0BD4E90A2351EC9D
:1024E000190BFFF76BF9D4E90E23FFF767F9D4E96D
:1024F0001223FFF763F904F1800541EC180B95ED09
:10250000029B51EC190B00220023FFF761FF18D248
:1025100095ED00AB51EC180B53EC1A2BFFF740FF75
:1025200004D2B0EE4A8AF0EE6A8A0AE051EC190B46
:1025300053EC182BFFF734FF3CBFB0EE498AF0EEA6
:10254000698A94ED1A0B84ED108B84ED180BD4E995
:102550001E2308480849FFF72BFAC4E91E01BDEC09
:10256000068B31BD0000000000009040000000001C
:1025700000000000CDCCCCCCCCCCEC3F00B500BFF3
:10258000130096469446103928BFA0E80C50FAD89C
:102590005FEA417C28BF0CC048BF40F8042BC90744
:1025A00028BF20F8022B48BF00F8012B00BD000017
:1025B0002DE9F84C2DED0A8B82B041EC190B149CDF
:1025C00043EC182B0CB10020206051EC180B21F0CB
:1025D00000474FF0000A20F00006574508BF564557
:1025E00014D053EC192B0020DFF82016FFF7C8FE9B
:1025F0000CD0DFF81416FFF7C3FE0FD151EC180B07
:1026000048004015401C09D1090307D102B0002041
:10261000BDEC0A8BDFF8F415BDE8F48C51EC190B16
:1026200048004015401C0ED051EC190B21F0004120
:10263000514508BF504506D051EC180B48004015D5
:10264000401C40F0F58051EC190B48004015401C2F
:1026500005D1090318BF51EC190B40F0D08251ECA1
:10266000180B48004015401C05D1090318BF51EC58
:10267000180B40F0C48251EC180B4800012440159F
:10268000401C61D051EC180B4B0043EAD073420060
:10269000534508BF524504D1B0EE48AAF0EE68AAEF
:1026A00019E040F23345A5EB5352352A04DB00F024
:1026B000000001F000410CE0202A03DD203AD14067
:1026C000914000E001D1002003E0002AC4BFD040C7
:1026D000904041EC1A0B53EC182B51EC1A0BFFF7FE
:1026E0004FFE18BF00244B0043EAD073420053450D
:1026F00008BF524504D1B0EE4A0AF0EE6A0A19E06A
:1027000040F23445A5EB5352352A04DB00F00000BB
:1027100001F000410CE0202A03DD203AD140914035
:1027200000E001D1002003E0002AC4BFD040904067
:1027300041EC100B44B153EC1A2B51EC100BFFF78A
:102740001FFE0CBF0024012451EC190B480040155A
:10275000401C0ED109030CD151EC190BC80F25D127
:1027600053EC182BDA0F0CBF9FED8D0B9FED8E0BEA
:1027700043E251EC180B48004015401C28D10903D6
:1027800026D153EC192B23F00041B1F5801F22F024
:1027900000002ED2514508BF5045CDF800A02DD0E5
:1027A0006A4651EC190B00F097FC27E051EC180B2E
:1027B000C80F06D1002C0CBF9FED790B9FED7C0B51
:1027C0001BE2002C0CBF9FED780B9FED7B0B14E2FE
:1027D000002C1ABF51EC190BC80F002053EC182B1A
:1027E000DA0F1ED100280CBF9FED6F0B9FED720B0F
:1027F00003E2DFF81C4404EB1150009051EC180B7D
:10280000C80F009806D10028CCBF9FED650B9FED47
:10281000660BF2E10028CCBF9FED630B9FED600BD0
:10282000EBE100280CBF9FED5E0B9FED610BE4E137
:1028300051EC180B4B0043EAD07342000027BB4217
:1028400008BF524504D1B0EE48AAF0EE68AA19E0DC
:1028500040F23345A5EB5352352A04DB00F000006B
:1028600001F000410CE0202A03DD203AD1409140E4
:1028700000E001D1002003E0002AC4BFD040904016
:1028800041EC1A0B51EC190BC80F11D053EC182B5B
:1028900051EC1A0BFFF774FD0AD0AFF3008002B0C1
:1028A0004FF0FF30BDEC0A8B6FF00041BDE8F48CB7
:1028B00053EC192B23F00041B1F5801F22F00000EA
:1028C0000BD2B94208BF5045CDF800A011D06A46DE
:1028D00051EC190B00F000FC09E0CD4E06EB115055
:1028E0000090DFF89813CB4803401046194341ECA1
:1028F000190B51EC190BC80F08BF002638D021F076
:10290000004053EC192B034643EC192B51EC1A0BE6
:102910004B0043EAD07342000026BB4208BFB242DC
:1029200004D1B0EE4A0AF0EE6A0A19E040F23445EA
:10293000A5EB5352352A04DB00F0000001F0004102
:102940000CE0202A03DD203AD140914000E001D183
:10295000002003E0002AC4BFD040904041EC100B9F
:1029600053EC1A2B51EC100BFFF70AFD18BF012690
:102970000098012824D151EC190BA74AA74BFFF767
:102980000FFD1DD253EC192B00204FF08041FFF7B3
:102990000FF800259FEDBEBB41EC190B2EE000BFE8
:1029A000000000000000F07F0000000000000000B8
:1029B000000000000000F0FF0000000000000080A8
:1029C00053EC192B00209649FEF7F2FF9FED95ABD3
:1029D00053EC1A2BFEF7F2FEFFF70AFAA0F12005DE
:1029E0002846FFF7BBFC0022904BFEF7E1FF53ECBB
:1029F0001A2BFEF7E3FE41EC1B0B6D0151EC190B9A
:102A000053EC1B2BFFF738FC41EC1A0B53EC192B42
:102A100051EC1B0BFEF7D2FE02460B4651EC1A0B93
:102A2000FFF7C2F841EC190B53EC192BFEF7C0FF6E
:102A300041EC1C0B53EC1C2B7D487E49FEF7B8FF84
:102A40007D4A7E4BFEF7BAFE53EC1C2BFEF7B0FF1F
:102A50007B4A7C4BFEF7B2FE53EC1C2BFEF7A8FF23
:102A6000794A7A4BFEF7AAFE53EC1C2BFEF7A0FF27
:102A7000774A784BFEF7A2FE53EC1C2BFEF798FF2B
:102A8000754A764BFEF79AFE53EC1C2BFEF790FF2F
:102A9000734A744BFEF792FE53EC1C2BFEF788FF33
:102AA00053EC1A2BFFF7E8FB82468B460020574970
:102AB00053EC1B2BFFF7E0FB00224FF08043FEF7A7
:102AC00077FF52465B46FEF779FE53EC192BFEF773
:102AD0006FFF53EC1A2BFEF771FE41EC190B0098B7
:102AE00075A72F44FFF73AFCD7E90023FEF766FEEF
:102AF00041EC1A0B53EC192B5B485C49FEF758FF6D
:102B000053EC1A2BFEF75AFE53EC182BFEF750FF2E
:102B10000022574BFFF744FC41EC1B0B6AD3012208
:102B2000544BFFF755FC5BD9C80F53EC1B2B1ABF56
:102B3000002051495149FEF741FEFFF759F905467A
:102B400053EC192B51EC180BFEF732FF82468B46E3
:102B5000D7E90201D7E90423FEF730FE53EC182B26
:102B6000FEF726FF9FED46BB53EC1B2BFEF720FF25
:102B700052465B46FEF722FECDE9000153EC1A2BCC
:102B800051EC180BFEF714FF07468B462846FFF75B
:102B9000E5FB02460B4638465946FFF76DFB53EC02
:102BA0001B2BFEF705FFDDE90023FEF707FE0CB146
:102BB0002560002500950022144B002400F0C4FA83
:102BC00021F0004320F00002A34208BFA24241ECE2
:102BD000100B0FD048004015401C03D1090301D150
:102BE0009FED290B4EB151EC100B81F0004141ECEF
:102BF000100B02E09FED280BF4E751EC100B02B034
:102C0000BDEC0A8BBDE8F48C0000F0BF0000F03F83
:102C100002FCFFFFFFFF0F80CD3B7F669EA0E63FDB
:102C200000005040000000000000E03F0000903F26
:102C3000F7DE29BFD8F8C23FF4B3FECC1A99C33FE0
:102C400062CB68D96F46C73FC6C912DAC471CC3FA0
:102C50004AE98A942449D23FF75F97999999D93FD5
:102C6000BC5555555555E53FFE822B654715F73F39
:102C70000000E0C00000E0400000E0BF0000E03FD6
:102C8000EF39FAFE422EE63F000000000000F07F20
:102C9000000000000000F03F000000000000000005
:102CA00080B541EC100B0020009051EC100BFFF7A9
:102CB0007FFC04BD00000000000000000000F0BF29
:102CC0000000000000000080000000000000008004
:102CD0000000000000000000000000C05294EEBFA1
:102CE00000000048204E51BE000000F86467BCBCE4
:102CF0000000000000000000000000208133EDBF54
:102D000000000080B3DB14BE000000506706A3BCC7
:102D10000000000000000000000000D0E9DCEBBF74
:102D200000000008C39259BE00000080B0D3B8BCB8
:102D3000000000000000000000000070F98FEABFF2
:102D4000000000C0A51028BE000000E8BFC0B0BC55
:102D5000000000000000000000000070284CE9BFE7
:102D600000000060134B42BE000000C03D20B8BC14
:102D7000000000000000000000000050FA10E8BF52
:102D8000000000C05FF62BBE000000905C71A7BC85
:102D9000000000000000000000000020FCDDE6BF95
:102DA000000000C0F8F154BE00000018E9F6B9BCFC
:102DB0000000000000000000000000D0C3B2E5BF2A
:102DC00000000070E43254BE00000050DB06B4BCCA
:102DD000000000000000000000000010EF8EE4BFC3
:102DE00000000020F36252BE000000C02A879ABC97
:102DF0000000000000000000000000B02272E3BFED
:102E0000000000F0E8E056BE00000028352DBDBCF3
:102E10000000000000000000000000000A5CE2BFAB
:102E2000000000B0FA8E41BE00000040AE6FBDBC95
:102E3000000000000000000000000000564CE1BF50
:102E4000000000F015CD5FBE00000000141C90BC17
:102E5000000000000000000000000040BD42E0BF94
:102E600000000030F93457BE000000E06C1E93BC37
:102E70000000000000000000000000E0F57DDEBF63
:102E8000000000B08A535EBE00000080DA77AABC62
:102E90000000000000000000000000C09D81DCBFB9
:102EA00000000000FFA226BE0000006057E2B0BC98
:102EB000000000000000000000000060F98FDABF91
:102EC000000000580A8151BE000000F05F60B8BCED
:102ED00000000000000000000000000098A8D8BF1B
:102EE000000000607A7F45BE000000D05433A3BCD0
:102EF0000000000000000000000000600FCBD6BF03
:102F0000000000D091CB40BE000000406D1BA0BC73
:102F10000000000000000000000000A0FBF6D4BF8D
:102F200000000098C5CE52BE000000003A397EBCB9
:102F30000000000000000000000000E0FE2BD3BFF6
:102F40000000004073872BBE00000000926879BC2F
:102F5000000000000000000000000040C069D1BF78
:102F600000000058F16353BE00000080438D7CBC1C
:102F7000000000000000000000000080D85FCFBF0C
:102F8000000000181F8354BE000000B03F42A2BCE6
:102F900000000000000000000000008067FCCBBFC4
:102FA00000000060FAFF53BE00000050E00DB8BC06
:102FB00000000000000000000000000098A8C8BF4A
:102FC000000000607A7F35BE000000C0543393BC1F
:102FD000000000000000000000000000DC63C5BF2E
:102FE00000000058D6FF54BE00000000396490BCB9
:102FF0000000000000000000000000C0AD2DC2BFB6
:1030000000000080A45915BE000000E0484BABBC96
:103010000000000000000000000000801A0BBEBF8E
:1030200000000050BF3C5ABE000000A0B364B6BC14
:1030300000000000000000000000008004D6B7BFC0
:1030400000000040BBCF36BE0000008076CEA8BC9A
:1030500000000000000000000000008032BBB1BF93
:10306000000000402A0043BE00000028C60CBDBC82
:103070000000000000000000000000009473A7BFE3
:10308000000000182B3B59BE000000C0E55DA5BC48
:10309000000000000000000000000000EE4397BFA9
:1030A000000000A0E6C340BE00000020958DB5BC26
:1030B0000000000000000000000000000000008090
:1030C0000000000000000080000000000000008000
:1030D000000000000000000010B5144600F002F8E7
:1030E000226010BDC1F30A5343B14A0012F5001F1C
:1030F00028D2A3F2FE32A1EB0251704750EA410CF4
:1031000020D001F0004C31EA0C01B1FA81F204BF89
:10311000B0FA80F3D2180B3AB2F120032CBF00FAB8
:1031200003F1914041EA0C013EBFC2F1200C20FAAC
:103130000CF319439040524240F2FD33D21A01EB96
:103140000351704700227047F8B52DED0A8B41EC12
:103150001A0B48004015109D401C43EC182B25D03D
:1031600051EC1A0B21F000410022914208BF90421D
:103170001CD051EC180B48004015401C16D051ECE7
:10318000180B21F00041914208BF90420ED051EC43
:103190001A0BDFF86033FFF703F980F0AA8055ECD3
:1031A000184B9FED840B05F00042B3E051EC1A0B75
:1031B00048004015401C02D1090340F0958151ECB4
:1031C000180B48004015401C01D109035AD151EC9D
:1031D000180B21F00043002620F00002B34208BF84
:1031E000B24208D151EC1A0B48004015401C49D19D
:1031F000090347D10DE048004015401C12D10903D6
:1032000010D151EC1A0B48004015401C3AD109036B
:1032100038D1AFF30080BDEC0A8B4FF0FF306FF078
:103220000041F4BD51EC1A0B21F00041B14208BF3E
:10323000B0422AD151EC180B4800400D05EB0002BA
:1032400036D151EC180B21F00041B14208BFB04219
:1032500006D02A4651EC180B00F078F941EC180B17
:1032600051EC180B21F0004320F00002B34208BFDC
:10327000B24205D048004015401C03D1090301D1DA
:10328000AFF3008051EC180B30E151EC1A0B480001
:103290004015401C26D1090324D153EC1A2B51ECC4
:1032A000180BBDEC0A8B01B0BDE8F040FEF780BB07
:1032B000002AC6DD40F2FF70824209DB9FEDA10BC0
:1032C00053EC102B01F000410B4343EC182BC7E7E4
:1032D0006FF31E5141EA025155EC184B0D4645EC77
:1032E000184BBDE755EC184B9FED320B05F0004233
:1032F00010E00122804BFFF76BF811D89FED910B86
:1033000051EC100B55EC184BAFF3008005F000406A
:1033100040EA010251EC100BBDEC0A8B1146F4BDE2
:1033200053EC1A2B75487649FEF742FB41EC100B23
:1033300053EC102B9FED739B03F0004251EC190BE3
:103340000C46144353EC192B51EC100B2346FEF79B
:1033500035FAFEF74DFD0446FFF700F841EC1B0B74
:1033600053EC1B2B4FF078406849FEF721FB0246D7
:103370000B4651EC1A0BFEF77FFF06460F4653EC47
:103380001B2B63486349FEF713FB02460B4630468E
:103390003946FEF771FF41EC1A0B21F00041002283
:1033A0005D4BFEF7FDFF09D2B0EE48AAF0EE68AA29
:1033B00056E000BF000000000000000053EC1A2B94
:1033C00051EC1A0BFEF7F4FA41EC1B0B53EC1B2BE0
:1033D00052485349FEF7ECFA524A534BFEF7EEF9C6
:1033E00053EC1B2BFEF7E4FA41EC1C0B53EC1B2BAC
:1033F0004E484F49FEF7DCFA4E4A4F4BFEF7DEF9D6
:1034000053EC1B2BFEF7D4FA53EC192BFEF7D6F92D
:1034100053EC1A2BFEF7CCFA41EC190B53EC1C2B96
:10342000FEF7CCF99FED45AB53EC1A2BFEF7C6F92E
:1034300006460F4651EC1C0B53EC192BFEF71CFFF4
:1034400053EC1A2BFEF7BAF902460B4630463946C2
:10345000FEF7AAFB53EC182BFEF7AAFA41EC1A0B65
:1034600051EC1A0B2A194800400D02EB000319D049
:10347000002B17DD40F2FF70834209DB9FED310B1B
:1034800053EC102B01F000410B4343EC1A2B18E0D6
:103490006FF31E5141EA035155EC1A4B0D4645ECB2
:1034A0001A4B0EE051EC1A0B21F000410026B142FC
:1034B00008BFB04205D051EC1A0B00F047F841ECC0
:1034C0001A0B51EC1A0B21F00043002420F00002EB
:1034D000A34208BFA24205D048004015401C03D1BA
:1034E000090301D1AFF3008051EC1A0BBDEC0A8B3C
:1034F000F4BD000000C89CC000C89C40FE822B6543
:103500004715F73F000000000000E03F422EE63F75
:10351000F2E4D5BCE7E84B3E0000903C112E578109
:10352000A03F503F5843128C8F71BC3F4BE8A541E0
:10353000B752013F0BBDF3DAE8708C3F000000008A
:103540000000F03F000000000000F07F124254D461
:1035500040F2FF7C1CEA11530FD0634531D09B1819
:1035600063453CBF01EB0251704701F0004141EA65
:103570000C510020AFF30080704750EA410320D087
:1035800001F0004C91EA0C011CD0B1FA81F30B3B25
:103590009A420DD9D21A994051EA0C01C3F1200C7C
:1035A00020FA0CFC61449840531C40F2FF7CD7E7A2
:1035B000914041EA0C01C2F1200C20FA0CF31943AE
:1035C00090407047B0FA80F31533202BE0D3202AC7
:1035D000EED3203A203B9A4209D9D21A00FA03F1DD
:1035E00041EA0C010020531C40F2FF7CB8E700FACE
:1035F00002F141EA0C0100207047524240F2FF7C88
:103600001CEA11530DD06345DBD0B2EB030C3CBF79
:10361000A1EB025170470CF1010221EA035141F480
:10362000801150EA410CCCD001F0004C352A27DC47
:1036300030B481EA0C01B2F1200309DAC2F12003AF
:10364000044601FA03F5D0402843D1409C400CE0E9
:10365000C3F12002450020FA03F418BF44F001042E
:1036600021FA03F091400C43002174F1004550F120
:10367000000051EB0C01244230BC7FF47BAF70475B
:103680006146002076E700002DE9FC47050000F0C8
:10369000A481DFF88877DFF89447B86800F00C0958
:1036A000F86800F003082878C10640F1AA81B9F152
:1036B000000F05D0B9F10C0F08BFB8F1010F57D1B9
:1036C0003868810703D5A869002800F08681396829
:1036D00008074EBF396861680909286A01F0F001DE
:1036E000814216D200F060FB002840F076813868F5
:1036F00040F0080038603968286A21F0F001014381
:1037000039607968E86921F47F4141EA00217960F4
:1037100016E0386840F0080038603968286A21F0FF
:10372000F001014339607968E86921F47F4141EA99
:1037300000217960286A00F037FB002840F04D81B5
:1037400000F0D6FABA68DFF8E816C2F30312895C13
:10375000DFF8CC2601F01F01C8401060DFF8C40676
:10376000006800F07BFB010000F04B81BDE8F687AC
:10377000A869C8B1396841F00101396000F090FBD7
:1037800006463868810700F12B8100F089FB801B19
:103790000328F6D30320BDE8F68700F081FB801BE9
:1037A0000328C0F06981F5E73868400840003860B8
:1037B00000F076FB06463868810740F1228100F070
:1037C0006FFB801B0328F6D3E4E76868B0F5803F01
:1037D00004D1386840F48030386011E0B0F5A02F93
:1037E000386806D140F480203860396841F480316F
:1037F00005E020F480303860396821F48021396098
:10380000686860B100F04CFB06463868810300F13F
:103810000B8100F045FB801B6528F6D3BAE700F06A
:103820003FFB06463868810340F1FE8000F038FB1C
:10383000801B6528F6D3ADE7E86880B1396841F4AC
:103840008071396000F02CFB06463868410500F1B4
:10385000FE8000F025FB801B0328F6D39AE738682A
:1038600020F48070386000F01BFB06463868410584
:1038700040F1F48000F014FB801B0328F6D389E7A5
:1038800040084000606000F00BFB0646606881075E
:1038900040F1F68000F004FB801B0328F6D379E7A3
:1038A0000528206806D140F004002060216841F01E
:1038B000010105E0400840002060216821F004017A
:1038C0002160A86878B100F0EBFA824641F28938AD
:1038D0002068810700F1088100F0E2FAA0EB0A00FD
:1038E0004045F5D356E700F0DBFA824641F28938CD
:1038F0002068810740F1F88000F0D2FAA0EB0A00BE
:103900004045F5D346E700F0CBFA801B0328C0F012
:10391000FE803FE740084000A06000F0C1FA064684
:10392000A068810740F1F78000F0BAFA801B0328F5
:10393000F6D32FE700F0B4FA801B0328C0F0FB8019
:1039400028E700F0ADFA801B0328C0F01E8121E7B4
:103950003968080103D4F96889088900F960F968B1
:10396000DFF8D0040140F96000F09AFA06463868A2
:10397000810140F10E8100F093FA801B0328F6D3F9
:1039800008E7012829D0F868EA6A00F003019142AB
:1039900001BF00F070012A6B521EB1EB021F1CD157
:1039A0006A6B00F4FE41B1EB022F02BF00F07841D8
:1039B000AA6BB1EBC26F10D1EA6B520800F4C001E0
:1039C000521EB1EB425F08D1296C490800F0C0607B
:1039D000491EB0EB416F00F0DC800120BDE8F687A6
:1039E000386840F0080038603968286A21F0F00132
:1039F000014339607968E86921F47F4141EA002197
:103A000079602878C1070FD5B9F1080F06D0B9F150
:103A10000C0F08BFB8F1030F7FF4D7AE38688103ED
:103A200002D568680028D8D02978880716D5B9F15A
:103A3000040F06D0B9F10C0F08BFB8F1020F7FF4E4
:103A4000FBAE3868410502D5E8680028C5D0786823
:103A5000296920F0F85040EA016078602878010771
:103A60000ED56869002860683FF40AAF40F0010095
:103A7000606000F015FA0646606881077FF58DAE3C
:103A80002878410735D5B86D0026C10009D4B86D36
:103A900040F08050B8650126B86D00F0805000906D
:103AA0000098DFF89483D8F80000C10513D4D8F843
:103AB000000040F48070C8F8000000F0F1F9824680
:103AC000D8F80000C10506D400F0EAF9A0EB0A001E
:103AD0000328F5D35EE6A86801287FF4E1AE2068EC
:103AE00040F001002060ECE61EB1B86D20F080507F
:103AF000B865287881060ED5686A0028A0683FF46A
:103B000009AF40F00100A06000F0CAF90646A068C5
:103B100081077FF5F8AEA86AD8B3B9F10C0F3FF46E
:103B200030AF0228386820F0807038607FF410AF22
:103B300000F0B6F90646386881013FF5FBAEFA6839
:103B4000DFF8F812E86A0A40296B0243491E686BE5
:103B500042EA0112E96B490842EA0022286C491E38
:103B6000400842EA4152401E42EA4062A86B42EAE3
:103B7000C062FA60396841F080713960F86840F0DD
:103B80008070F86000F08CF90646386881017FF596
:103B9000D8AE0020BDE8F6872DE9F843040088463A
:103BA00000F07F80DFF89862306800F00700404541
:103BB00009D23168C90848EAC1013160306800F0B3
:103BC000070040456DD12078DFF85052C10750D52D
:103BD0006068032802D129688A0108E0022802D11E
:103BE00029688A0303E00028296802D18A0702D4E1
:103BF00057E04A0555D5A968890840EA8100A860C0
:103C000041F2893900F04CF90746A868616800F074
:103C10000C00B0EB810F2CD000F042F9C01B4845DE
:103C2000F3D30320BDE8F2832078410705D5AA68C5
:103C3000E06822F4E0620243AA602178080706D512
:103C4000A968206921F4605141EAC001A96000F02F
:103C50004FF8AA687649C2F30312895C704A01F0F2
:103C60001F01C8401060BDE8F2436E48006800F0D4
:103C7000F5B82078810705D5AA68A06822F0F0027F
:103C80000243AA60316801F007018845CCD2306850
:103C9000C00848EAC0003060316801F007014145C2
:103CA000C2D00120BDE8F28370B5664E86B0706C5C
:103CB00040F0010070641546706C00F00100009047
:103CC00002220C460098029204924FF480710191F6
:103CD00000220392059201A94FF0904000F0E6F80F
:103CE000316821F0FE410C432C43346006B070BDB6
:103CF00010B44A4A9068D4680023002110F00C00E8
:103D000004F0030403D00C2812D1012C1AD113683B
:103D10001C0704D4444B1C68C4F3032302E013685B
:103D2000C3F30313484C54F8233048B9194624E030
:103D3000042808BF454920D008281ED144491CE06A
:103D40000C281AD1D06800F00300022803D0032801
:103D500008BF3F4B00E03D4BD168D068D268C0F34C
:103D600006204343C1F30210C2F34161401C491CC9
:103D7000B3FBF0F04900B0FBF1F110BC084670470E
:103D80002748304A006813683249C3F3022206E02C
:103D900023482C4A006813682E49C3F3C222895C69
:103DA00001F01F01C84070477CB52B4E05463068B6
:103DB0000024C10002D500F057F90EE0306840F051
:103DC00080503060316801F080510091009800F01F
:103DD0004BF9316821F080513160B0F5007F04D19A
:103DE000802D0CD9A12D09D304E0802D88BF032498
:103DF00005D801D1022402E0702D00D10124104821
:103E00000168C90844EAC1010160006800F00700C8
:103E1000A04201D0012076BD002076BD00100240F6
:103E2000543500204C350020941002409010024080
:103E300028630008FFFFEEFE007000408C809D01AB
:103E40000020024008100240386300080024F400FB
:103E500000127A00886400085810024070B50E4EB7
:103E60000446B0680025A0B14FF47A710B4AB1FB4B
:103E7000F0F11068B0FBF1F000F08AF948B9102CAD
:103E800007D2002221464FF0FF3000F03EF9746067
:103E900000E00125284670BD48350020543500203B
:103EA00001480068704700BF483500202DE9F84FF1
:103EB0000024674A674BDFF8A081DFF8A0914FF03C
:103EC0000F0A07468E4637E0654EB74214BF0726F5
:103ED0000226AE4046EA0C0648F82160C143156848
:103EE00001EA050CDEF80450EE0348BF40EA0C0C72
:103EF000C2F800C0556801EA050CDEF80450AE03B4
:103F000048BF40EA0C0CC2F804C0956801EA050CF1
:103F1000DEF80450EE0248BF40EA0C0CC2F808C0BC
:103F2000D56801EA050CDEF804108D0248BF40EAAE
:103F30000C0CC2F80CC0641CDEF8001031FA04F05E
:103F400076D0012000FA04FC1CEA0100F3D0DEF870
:103F50000410022918BF122910D1E10807EB8101D2
:103F6000A5000E6A05F01C050AFA05FB26EA0B06F9
:103F7000DEF810B00BFA05F535430D62610003253C
:103F80003E689EF804B08D40ED430BF0030B2E40CD
:103F90000BFA01FB4BEA06063E60DEF80460012ED8
:103FA00018BF022E03D0112E18BF122E13D1BE68D7
:103FB000DEF80CB02E400BFA01FB4BEA0606BE60A1
:103FC0007E6826EA0C0CDEF80460C6F30016A640F4
:103FD00046EA0C067E60FE683540DEF8086006FAA8
:103FE00001F12943F960DEF80410C900A3D5D9F81E
:103FF000001041F00101C9F80010D9F8005005F097
:1040000001050095A5000099A10858F8216005F068
:104010000C050AFA05FC26EA0C0CB7F1904F08BF14
:1040200000263FF456AF9F427FF44EAF012650E783
:10403000BDE8F18F0AB18161704781627047094A1A
:10404000136803421CBF106000F0C4B87047000042
:1040500000040140000400480800014060100240D4
:104060000008004814040140DFF87800006800F4FC
:10407000C060704730B4DFF86C10B0F5007F08689E
:1040800000F4C0601BD1B0F5007F21D00868DFF8D4
:104090005820DFF8585020F4C06040F400700860E9
:1040A000322013684343A3FB0554E00C401C4A69CB
:1040B000530510D5002818BF401EF8D10BE0B0F50D
:1040C000806F05D0086820F4C06040F4806008600C
:1040D000002030BC704748694105F9D530BC032049
:1040E00070470000007000405435002006BD378640
:1040F000304B19684FF6FF020002114000F4E060F7
:1041000008432D4908431860704730B4294B1C6898
:10411000C4F30223C3F10704052C28BF04241D1D8A
:10412000072D34BF0023DB1E012505FA04F4641EAD
:104130002140994005FA03F35B1E1A40114309011F
:10414000020003D41D48815430BC70471C4B02F060
:104150000F021A4402F8041C30BC7047010007D457
:10416000012200F01F01174B8A40400943F820202C
:10417000704701000BD4012200F01F01124B8A404E
:10418000400943F82020BFF34F8FBFF36F8F704774
:10419000401EB0F1807F01D3012070470B490C4ACB
:1041A00048600023F02010708B600720086000201A
:1041B000704700000CED00E00000FA0500E400E0AC
:1041C00018ED00E000E100E080E100E010E000E038
:1041D00023ED00E02E4A517A91B1012802D0022845
:1041E00008D070472B48016801F0010181F00101FE
:1041F0009172704727480168490801F00101D172A6
:10420000704780B50620FFF7A9FFBDE802400720F0
:10421000FFF7A4BF80B50620FFF7ABFFBDE8024063
:104220000720FFF7A6BF10B513460A6801680024EF
:10423000A06A00F0C0F808B100F02EFB2168CA683F
:1042400042F48062CA602168CA6842F00402CA600F
:1042500001222068BDE8104007E000220421106818
:1042600000F0D1BC002001220068042100F0CBBC8A
:1042700028210A6813680068D8607047002000F0A1
:104280002BBD012070470249002048737047000091
:1042900064460020100400481CB5049C009400F003
:1042A00036FF13BD78B585B06B4600240025002687
:1042B00070C330C3009101926946FFF7F7FD06B065
:1042C00070BDFFF7B7BEFFF7EBBD01F0B1B800005E
:1042D000F0B400B96CE004682D4DAC4200F1240349
:1042E0000AD22C492C4F2D4DDD610A19A2FB07760D
:1042F000320992001A6209E02949274E0A19A2FBE5
:1043000006652A09920027491A62D96102225A7069
:1043100025688168C2686FF30E150D430169154366
:1043200042690D4381691543C2690D43016A154312
:104330000D4325608268B2F5804F21D0DA69174CB1
:104340000F21A24209D1184A156893F8204004F0C1
:104350001C04A14025EA010108E0144A146893F8FE
:10436000205005F01C05A94024EA010111601168E4
:1043700093F82040406804F01C04A0400143116001
:1043800000209861012159701870F0BC704700003E
:1043900008040240F8FFFDBFCDCCCCCC00000240A9
:1043A000F8FBFDBF00040240A8000240A804024040
:1043B000F0BC01207047F0B400F1240500242E78F1
:1043C000012E08BF02203CD001262E706F78012FED
:1043D00034D102266E70AC61066837687F087F00B2
:1043E0003760012695F8207007F01C07BE40EF6982
:1043F0007E60066873608368102B04D10668B26023
:104400000268D16003E0036899600168CA600268CD
:10441000E96821B1136843F00E03136008E01168E6
:1044200021F00401116001680A6842F00A020A6082
:104430000068016841F00101016001E02C70022474
:104440002046F0BC704738B500F1240100244A78BA
:10445000022A03D004208861012417E0026813684F
:1044600023F00E031360026815686D086D00156077
:10447000012291F82030CD6903F01C039A406A6054
:1044800001224A700C70496901B18847204632BD4B
:10449000F0B400F124010423CA69146802681568A5
:1044A00091F8206006F01C0603FA06F73C4214D08F
:1044B0006F0712D51468A50603D4146824F0040409
:1044C000146091F82020CC6902F01C0293406360D4
:1044D000C96800293AD0F0BC0847022303FA06F75E
:1044E0003C4217D0AF0715D51468A50605D414684B
:1044F00024F00A04146001224A7091F82020CC694B
:1045000002F01C029340636000220A708968E9B1DE
:10451000F0BC0847082303FA06F6344216D02B07EE
:1045200014D5146824F00E041460012291F8203090
:10453000CC6903F01C039A40626001228A614A70D0
:1045400000220A70096909B1F0BC0847F0BC704745
:1045500000000000F8B58CB000F07EFF00F0B8F865
:1045600000F015F9C348C44C016841F00101016035
:10457000026802F0010200920099026842F0020211
:1045800002600022006800F0020000900021009804
:104590001120FFF7BAFD1120FFF7E0FD00220021F6
:1045A0004420FFF7B2FD4420FFF7D8FDB348B449DB
:1045B000206061600120C022E0600021A2602161D2
:1045C0006161A161E1612162204600F04BFD00B113
:1045D000FEE70021204600F04FFF00B1FEE700217A
:1045E000204600F066FF00B1FEE7A648E0644FF405
:1045F0006121216500206065A065E0650821606695
:10460000A066E066216604F14C0000F00DFB00B1ED
:10461000FEE707A80021002200230EC08E4606C038
:10462000684604AD80E80E40002600278C4685E8E9
:10463000C010002004F19C056860E860286120211A
:104640008020A8614FF08046A9602E60284600F0C7
:1046500025F900B1FEE7284600F039F900B1FEE780
:104660004FF4803107916022089209970B9707A9B0
:10467000284600F0C9F900B1FEE70497069704A99F
:10468000284600F057FF00B1FEE701220192039295
:104690000097029704226946284600F028F900B1E5
:1046A000FEE7012201210620FFF72FFD0620FFF77C
:1046B00055FD012201210720FFF727FD0720FFF705
:1046C0004DFD04F14C022946204600F094FFFEE720
:1046D000F0B5ABB005A84421FDF7BCFB6C46002546
:1046E00000260027E0C460C416A85421FDF7B2FBE1
:1046F00000F0A8FF6448016821F01801016016224B
:10470000059201214FF48072079108921021012235
:1047100009910B920221B0220D920F9101220421E6
:10472000109211910A220721129213910222042160
:10473000149215910C9505A8FEF7A6FF00B1FEE7AF
:104740000F2003210090019102950395049501210A
:104750006846FFF721FA00B1FEE7412016904FF4BA
:10476000805221921E9516A800F074FF00B1FEE75A
:1047700000224FF04071FFF797FA4FF40070FFF7F7
:1047800079FC00B1FEE701F083F82BB0F0BD10B565
:1047900086B068460021002200230EC006C03B48B8
:1047A000046844F0040404600168394C01F0040119
:1047B00005910599026842F001020260036803F066
:1047C000010305930599026842F00202026000228B
:1047D000006800F0020005904FF41841059B4FF06F
:1047E0009040FFF727FCFF210091002201920292E6
:1047F00069464FF09040FFF759FB03202549009090
:1048000001910122029269462046FFF74FFB4FF4C7
:104810008070022100900191002202920392049282
:1048200069464FF09040FFF741FB4FF4C0510091B3
:104830000122002102910391019269464FF09040BC
:10484000FFF734FB0122019202924FF400410091E4
:104850000022039269464FF09040FFF727FB10209B
:10486000002100900191029120466946FFF71EFB4E
:1048700006B010BD48100240F8440020005400402B
:10488000340E200000380140901002404C100240CD
:104890000004004800003110FEE7000038B50400B5
:1048A00001D1012032BD04F13C05687820B9002116
:1048B0002970204601F0D6F8FFE702206870211D1C
:1048C000206800F0C9F801206870002032BD38B5BA
:1048D000040001D1012032BD04F13C05687820B903
:1048E00000212970204601F06FF9FFF7E6BFF8B507
:1048F000064606F13C040D462078012801D102202D
:10490000F2BD012020700221617082B9EB686A68F3
:104910002968306800F02EF93068816921F00C01B7
:10492000816131688A69A86802438A6166E0042A65
:1049300011D1EB686A682968306800F049F930687D
:10494000816921F44061816130688169AA6841EA26
:104950000221816152E0082AE9686A682B6827D140
:104960003768386A20F480703862090107F11C004A
:1049700001F0F001D0F800C0D7F820E04FEA9C0C1D
:1049800042EA8C0222F0F002114301601B022EF475
:10499000206003F4206303433B623068C16921F067
:1049A0000C01C1613168CA69A8680243CA6125E087
:1049B00030681C300903476827F48057476001F4CA
:1049C00070410768D0F804C027F4407747EA02270F
:1049D00027F47047394301601B032CF4204103F492
:1049E00020430B4343603068C16921F44061C161D9
:1049F0003068C169AA6841EA0221C1610120607082
:104A0000002121700020F2BD38B5054605F13C04B7
:104A10002078012801D1022032BD0120207002221D
:104A20006270284600F04BF800B104E02868C168C5
:104A300021F0400104E0012060700021217032BDAE
:104A4000C1602868C16821F48041C16001206070A4
:104A500000212170002032BD30B4DFF868410368C6
:104A6000A04218BFB0F1804F01BF23F070034A6825
:104A70001343A04209D0B0F1804F1FBFDFF8482197
:104A80009042DFF84851A84203D1CA6823F440732A
:104A900013434A6923F0800313430360A0428B68E9
:104AA000C3620A6882621FBF474B9842474A9042DE
:104AB00001D1096901630122426130BC704730B401
:104AC00004683F4AA5684B68086825F070051D43D7
:104AD00015400543A5604A68402A11D0502A22D0CB
:104AE000602A32D0702A42D108698A68C968A368EE
:104AF00023F47F4319430A4342EA0022A26036E0CE
:104B00000868052808BF012032D0206A226A5208AE
:104B100052002262A269096922F0F00242EA0112FF
:104B2000A261206223E008698968226A236A5B081F
:104B30005B00236222F00A02A36923F0F00343EA38
:104B40000013A3611143216211E008698968226A98
:104B500022F010022262A269236A22F4704242EA21
:104B6000003223F0A003A26143EA01132362002074
:104B700030BC704770B4046A124E6408640004626A
:104B8000B0428469056A1EBFB0F1804F0E4EB0423C
:104B900003D1A40842EA840201E044F001021B01AF
:104BA00022F0F00203F0F0031A4325F00A0501F0A9
:104BB0000A0182612943016270BC70470000000055
:104BC000F8FFFEFF002C014000400140004401407E
:104BD00030B4046A24F0100404621B038469056A7B
:104BE00024F4407444EA022424F4704403F470432F
:104BF0000901234325F0A00501F0A00183612943A9
:104C0000016230BC704701F01F01036A4FF0010CD4
:104C10000CFA01FC23EA0C03036202FA01F1036AB5
:104C2000194301627047000070B5040014D004F10C
:104C30004805697821B900202870204600F05BFF04
:104C40000221697020680268520852000260204602
:104C500000F08EF9012801D1012070BD2068416863
:104C600021F4804141602068816821F02A0181603F
:104C70002068016841F00101016000206860FFF7D1
:104C80000FF90646206801680A0718D52068C1692F
:104C9000880214D4FFF704F9801B40F2E9318842FE
:104CA000F4D306E0FFF7FCF8801B40F2E9318842BC
:104CB00009D30120687000212970032070BD20688D
:104CC00001684A0703D52068C1694802EAD5012175
:104CD00069700020287070BD70B5044604F1480565
:104CE00013466878012837D109B1180001D1012095
:104CF00070BD287801282FD001222A706162238597
:104D000063850020686012226A70206C88B10FF2FF
:104D1000E512C2620FF21120226C1063266C0FF2B2
:104D200011207063206800F12802206CFFF743FB1C
:104D300050B921684020086200222A7020688168EA
:104D400041F08001816005E0102068600021297039
:104D500001226A70104670BD022070BD70B5044615
:104D60002568E9692A68AB6811F00F000BD1880645
:104D700079D5930677D5A16B002900F0AB8020464A
:104D8000BDE870400847D80702D412F4907F6AD07B
:104D9000C80707D5D60505D501202862E56C45F082
:104DA0000105E564880708D5DD0706D526680220D9
:104DB0003062E06C40F00400E064480708D5DD078D
:104DC00006D5266804203062E06C40F00200E06402
:104DD00008070AD5950601D4D80706D52568082303
:104DE0002B62E06C40F00800E064E06C002871D0B9
:104DF000880605D5910603D5A16B09B120468847E1
:104E0000E06C21688A68510601D4000725D5204648
:104E100000F061F8206881684A0619D5816821F0A0
:104E200040018160206C20B100218163206CFFF77C
:104E30000AFB606C60B10FF22D118163606CFFF7AB
:104E400002FB002846D0606C816BBDE870400847CB
:104E50002046BDE8704000F0B8BE204600F0B5FE28
:104E60000020E06470BD080607D5130605D5E16B88
:104E700081B32046BDE87040084748062AD5510650
:104E800028D5286820F040002860206881684908FB
:104E9000490081600020E06394F8491012290FD185
:104EA0002168082008622068018B41F00801018315
:104EB000012084F849002046BDE8704000F086BE1D
:104EC000608E38B9012184F849102046BDE8704051
:104ED00000F07DBE70BD01680A6822F4F0720A60BD
:104EE00001688A68520852008A60012180F84910DE
:104EF00070470000816A0068026893060CD40020A5
:104F0000488591F84920122A0DD10868826822F05C
:104F10008002826008689FE091F84900122804BF6F
:104F2000084600F053BE7047806A00F051BE000092
:104F3000806A00214186418501680B6823F4F07383
:104F40000B6001688A68520852008A60012180F86B
:104F50004910C26C42F01002C26480F8491000F09F
:104F600034BE0000806A00214186418500F02DBEDC
:104F700070B50446334923681E68A0680E40216955
:104F8000064360690E43064346F400461E60002552
:104F90005E68216AA06926F47C560E43E1690643E7
:104FA000E0680E4300220643274946F400668B4220
:104FB0005E600CD12548036803F00303032B2DD852
:104FC000DFE803F0021C1725FEF7E2FE18E0204898
:104FD000834223D11D490B6813F00C0306D0042B28
:104FE0000CD0082B05D00C2B11D017E0FEF7C8FE13
:104FF00006E06068174901EB50010CE0FEF778FE0F
:1050000061684A0802EB4002B2FBF1F207E0606817
:10501000410801F58031B1FBF0F200E001254FF6C7
:10502000F071A2F11000884206D21140C2F3420092
:1050300001432068C16000E001250020A063E06317
:10504000284670BDF369FFEF003801408810024028
:10505000004400400048E801016841F0400101605F
:105060007047000038B5040001D1012032BD04F1C1
:105070004005687820B900212970204600F0C1FC65
:105080002420687020680168490849000160606850
:10509000216820F0706008612068816821F4004177
:1050A0008160E06821680128A0680CBF40F40040DE
:1050B00040F404408860E068022803D120684FF47F
:1050C000006141602068416841F0007141F4004195
:1050D00041602068C16821F40041C16060692169B4
:1050E000A2690143206841EA0221C160206AE169A6
:1050F0002268014311602068016841F001010160EC
:1051000000206860202169702063A87032BD2DE9FD
:10511000F843054605F1400788467878202814466C
:10512000994672D1397801296FD001203870FEF785
:10513000B7FE06460096192301224FF40041284687
:1051400000F0AEF8002868D1212078701021B970E5
:10515000002078606C62A5F82A906863089C698DCD
:10516000DFF81001B1F5807F05D3FF222A8500907A
:105170004FF0807305E06A8D2A8500904FF0007330
:10518000D2B24146284600F03CF908E0FF232B85C7
:1051900043681A401143DFF8E02011434160688DF5
:1051A000002833D032462146284600F0A7F80028D0
:1051B00033D1686A2A6801789162686A411C696221
:1051C000688D411E6985288D411E2985688D0028BE
:1051D000E5D089B20029E2D1286881690A061DD488
:1051E00014F1010FF8D0FEF75BFE801B844201D35F
:1051F000002CF1D1786840F020007860202179708F
:105200000020B870387008E023E01CE021463246E8
:10521000284600F09AF80028F6D017E06B8DDFF8EA
:105220005C20B3F5807FC8F30901AFD26B8D2B856D
:10523000DBB2D0F804C002EA0C02114341EA034198
:1052400041F00071AAE70220BDE8F2830120BDE829
:10525000F28329682020C8612968DFF824004A68A1
:1052600002404A60202179700020B8703870BDE893
:10527000F2830000002000800000FF01009C00FC81
:1052800000E800FE006881698A0744BF002181624E
:105290008169CA0703D4816941F0010181617047C6
:1052A0002DE9F041069F05460E4690461C462868AB
:1052B00081693140B1420CBF01200020404517D127
:1052C00014F1010FF3D0FEF7EBFDC01B844201D3B4
:1052D000002CECD105F140002022416841F0200172
:1052E000416042700021817001700120BDE8F081B1
:1052F00001E0104308600020BDE8F08170B505466C
:105300000C4616462868816988071CD43246214617
:10531000284600F03EF8A0B914F1010FF2D0FEF7D4
:10532000BFFD801B844201D3002CEBD105F140006E
:105330002022416841F020014160427000218170CB
:105340000170012070BD002070BD70B505460C468F
:10535000164628688169880619D4324621462846AF
:1053600000F017F888B9FEF79BFD801B844201D33B
:10537000002CEED105F140002022416841F02001CF
:1053800041604270002181700170012070BD0020D9
:1053900070BD70B505460C4628688169C80616467A
:1053A0001AD5286881698A0618D414F1010FF8D03B
:1053B000FEF776FD801B844201D3002CF1D105F16C
:1053C0004000416841F020014160202242700021EC
:1053D00081700170012070BD002070BD1021C1617D
:1053E00020202A68D0612846FFF74CFF29680E4824
:1053F0004A68024005F140004A60416841F00401FA
:10540000E2E770B40068039C4568084E46EA5456CB
:10541000B543C1F30901294341EA0241194321433C
:10542000416070BC7047000000E800FEFF63FF03AE
:1054300038B50446FEF734FD14F1010F054602D0DD
:10544000044988680419FEF72BFD401BA042FAD3DB
:1054500031BD00BF48350020032010B5FEF748FEDF
:105460000020FEF7FBFC0024002814BF012400F0FC
:10547000A9FA204610BD000030B400F14002537874
:10548000202B15D11478012C12D001231370242461
:10549000547003681D686D086D001D6003681C680A
:1054A00024F480541C6003681D68294319601DE0C2
:1054B00019E030B400F140025378202B13D1147856
:1054C000012C10D0012313702424547003681D682C
:1054D0006D086D001D6003681C6824F4706444EA64
:1054E00001241C6002E030BC0220704700680168A3
:1054F00041F0010101602020507000211170002056
:1055000030BC7047094981B00A6842F001020A6064
:10551000096801F001010091009905490A681043EA
:10552000FFE7086001B07047000000006010024013
:105530000400014070B400F13C031A78012A08BF4E
:1055400002201CD001221A7002245C700D4A0468EB
:105550006568A668944203D14A6825F4700515432E
:1055600025F070058A6809680D43656026F080069D
:10557000006816438660012159700020187070BCC5
:1055800070470000002C01402C4B1A6D03F15800AD
:105590001B680221184738B541F28834274D02E0D4
:1055A000696820468847AA6C03210120904701289A
:1055B000F6D131BD10B5214C04F16001204600F058
:1055C00023FC00229047E16C04F1680204F188009A
:1055D000BDE8104000F03CBC80B50421184800F044
:1055E00091FC08B100F020F8BDE8014000F0D2BB0A
:1055F00000F0C0BB7047114BD8641A65596510B5EF
:105600000F4C04F10801204600F063FC0121204604
:1056100000F070FC0321204600F06CFC2046BDE841
:105620001040042100F066BC10B5054C0521204651
:1056300000F054FC204600F053FCFBE758340020F7
:10564000EC3400200248016841F480710160704729
:10565000007000402DE9FC47054600242868DFF86B
:1056600048630105A1461CD5E86B58B1B0F5000FA1
:1056700003D0B0F5400F0AD011E0326842F4803216
:10568000326005E00021281D00F009F904463CB90C
:10569000F16FE86B21F440010143F16701E001245F
:1056A000A146286881032BD5F06CC1004FF000089B
:1056B0000AD4F06C40F08050F0644FF00108F06CB8
:1056C00000F0805000900098DFF8E072386840F4F5
:1056D00080703860FEF7E4FB82463868C10500F14F
:1056E000AE80FEF7DDFBA0EB0A000328F5D3032410
:1056F000A146B8F1000F03D0F06C20F08050F064A8
:105700002878C10705D5F26F286A920840EA82021C
:10571000F2672978880705D5F16F686A21F00C01D6
:105720000143F1672978880605D5F16FA86A21F44D
:1057300040610143F1672968880505D5F16F686B01
:1057400021F440210143F1672968480505D5F16F2F
:10575000A86B21F440110143F1672978480605D56B
:10576000F16FE86A21F440510143F1672968C805E7
:1057700005D5F16F286B21F440310143F1672968A9
:10578000880420D5F16F286C21F040610143F16756
:10579000286CB0F1006F0CD1306840F4801030609C
:1057A00011E0FEF77DFB001B504567D34FF0030966
:1057B0009FE7B0F1806F06D10121281D00F06FF83E
:1057C000010018BF81462868410318D5F26F686C44
:1057D00022F040620243F267686CB0F1006F04D1BE
:1057E000306840F48010306009E0B0F1806F06D17D
:1057F0000121281D00F053F8010018BF81462868D8
:10580000410410D5F26FA86C22F040520243F267B7
:10581000A96CB1F1805F06D10221281D00F03FF88C
:10582000010018BF81462868010405D5F26FE86CB5
:1058300022F080420243F2674846BDE8F687002C1A
:105840007FF456AFDFF86871386810F440701CBF01
:10585000296D88420BD03868396841F4803139604D
:1058600020F440703A6822F480323A603860C00711
:1058700007D5FEF715FB044641F2893A38688107DF
:105880008FD53A68286D22F4407202433A6030E7BF
:10589000DFF82001016841F00401016070472DE943
:1058A000F0410746434E38680C46F168002511F078
:1058B000030F0DD0F16801F00301814237D1B0B37D
:1058C000F0687968C0F30210401C884213D02EE0C3
:1058D000012804D02BD3032823D01ED327E032681D
:1058E000910724D5F268796822F073021043491EAB
:1058F00040EA0110F060306820F080603060FEF710
:10590000CFFA8046306801013AD5FEF7C9FAA0EB1C
:1059100008000328F6D3032542E031684A05E1D4A4
:1059200005E031688A03DDD431684A03DAD4012501
:1059300036E0012C326909D13B691F4802405B08FF
:1059400042EA01215B1E41EA435108E07B691B48A2
:1059500002405B0842EA01215B1E41EA436131617A
:10596000306840F080603060FEF79AFA0446306894
:10597000010111D4FEF794FA001B0328F7D3CAE7FC
:10598000B968002CD5D132690D48FB68024042EA63
:10599000012141EAC361E2E73169B869014331613C
:1059A0002846BDE8F08100000C1002400070004065
:1059B0009010024000100240FF809FFFFF80FFF91F
:1059C000FF80FF0780B57748816841F00101816061
:1059D000816801F0010100910099026842F0805253
:1059E0000260006800F08050009000980520FEF7EB
:1059F0007FFBBDE80840012200216FF00400FEF7A4
:105A000084BB38B586B001A90022002300241CC144
:105A10000CC10068644DA84222D1644C206840F05B
:105A2000010020601222216801F0010100914FF471
:105A3000C061009801910292012103910322042385
:105A40000492059301A94FF09040FEF72FFAE06809
:105A500040F40010E060E06800F40010009000984E
:105A600007B030BD38B586B0044601A80021002239
:105A700000230EC006C02568B5F1804F39D14B48D0
:105A80004B4DC16841F00101C160C16801F00101E5
:105A900000910099026842F002020260022200684E
:105AA00000F00200009008210098029203930191F7
:105AB000032201230492059301A93E48FEF7F6F95B
:105AC0000421696080213C4828602961202000224F
:105AD000E8614FF44051AA60EA606A61AA612962F4
