:020000040800F2
:10000000508E00203D6E0008196D00081B6D000821
:100010001D6D00081F6D0008216D00080000000024
:10002000000000000000000000000000236D000838
:10003000256D000800000000276D0008296D0008EC
:10004000616E0008656E0008696E00086D6E00083C
:10005000716E0008756E00082D6D0008796E00083D
:100060007D6E0008816E0008336D0008856E000803
:10007000896E00088D6E0008916E0008956E00086C
:10008000996E0008396D00089D6E0008A16E000889
:10009000A56E0008A96E0008AD6E0008B16E0008DC
:1000A000B56E0008B96E0008BD6E0008C16E00088C
:1000B000C56E00080000000000000000C96E0008C6
:1000C000CD6E00080000000000000000D16E0008A6
:1000D000000000003F6D0008D56E00080000000021
:1000E000D96E0008DD6E000800000000000000006E
:1000F0000000000000000000000000000000000000
:10010000000000000000000000000000E16E000898
:100110000000000000000000E56E0008E96E000825
:10012000ED6E0008F16E0008F56E0008F96E00082B
:10013000FD6E00080000000000000000000000004C
:10014000016F0008056F0008096F00080D6F0008B7
:10015000456D0008116F0008156F0008196F000841
:100160001D6F0008216F0008256F000800000000C7
:10017000296F00082D6F000800000000000000003B
:10018000316F0008356F0008396F0008000000006B
:1001900080ED020B704770B516462DED048BD6E945
:1001A000002304460D46B0EE408AF0EE608AB0EEC1
:1001B000419AF0EE619A0020DFF8B41D01F01AFCBC
:1001C000C6E90001D4E9002351EC180B01F012FC40
:1001D000C4E9000153EC182B51EC190B01F004FD9C
:1001E000D5E9002301F006FCC5E90001BDEC048B54
:1001F00070BD2DE9704306462DED048B70880C46CA
:10020000154601F0DFFD80468946204601F0DAFD03
:1002100002460B464046494601F0E2FD0022DFF867
:100220003C3D01F0E7FB41EC180B284601F0CAFD0C
:10023000044630880D4601F0C5FD02460B462046B7
:10024000294601F0CDFD41EC190B53EC182B51EC74
:10025000180B01F0C9FC04460D4653EC192B51EC68
:10026000190B01F0C1FC22462B4601F0C3FB002212
:10027000DFF8143E01F0B8FCC6E90401BDEC048BC4
:10028000BDE870832DE9F04E2DED048B86B0144649
:1002900000269FEDBA8B0A008DED028B8DED008B51
:1002A0008DED048B26D08B469946074638788145DC
:1002B0001CDA01F087FD41EC190BB0B201F082FDB0
:1002C0000DF1100A02AD41EC110B52466946284669
:1002D000B0EE490AF0EE690AFFF75DFF51EC190B29
:1002E00053EC182B01F086FB41EC180B761C7F1C9D
:1002F0005E45DBDBDDE90001DDE9022301F070FD95
:1003000001F092FE208051EC180B01F0ABFE06B01C
:10031000BDEC048BBDE8F08E7047000070B50D4653
:10032000044616464FF4A35101F0B0FE04F52870C0
:10033000DFF8583D46800580760846826D08418A80
:10034000058241810581AB25028A418A8281C18172
:1003500041F21041DFF8382DC0E91A2321447F26ED
:100360000D704E7041F228410022625042769FED9E
:10037000850BDFF8201DDFF8203DC165C4E9CA23E5
:100380000676DFF8180D00F1A402226000F537713F
:10039000616004F5A871086000F50E70486041F2D4
:1003A00030216018FFF7F4FE04F59250BDE870406C
:1003B000032101F005BF000010B588B0044682B0EB
:1003C0000FA16846282202F05BF80CBC04F6F82066
:1003D00002F09AF8DFF8B80CDFF8B01C12A2C4E9FA
:1003E000C20108B004F68830BDE8104092EC062B3C
:1003F000012200219FED631B9FED640B02F090B979
:10040000000000000000E03FFCA9F1D24D62603F17
:10041000FCA9F1D24D62503F000000000000000036
:100420000000000000000000FCA9F1D24D62503F26
:100430009A9999999999A93F9A9999999999B93FAE
:10044000F8B504460D46202104F5647001F01EFE47
:100450002DA62A4696EC062B00219FEDDA1B9FED78
:10046000470B204602F05CF904F520770020387035
:100470002A4696EC062B00219FEDD21B9FED3F0BE9
:1004800004F1A00002F04CF9012078702A4696ECA5
:10049000062B00219FEDCB1B9FED380B04F5A070C0
:1004A00002F03EF90220B8702A4696EC062B002195
:1004B0009FEDC41B9FED310B04F5F07002F030F995
:1004C0000320F870202104F5227001F0DFFD04F50F
:1004D000427500202870202104F52A7001F0D6FD15
:1004E00001206870202104F5327001F0CFFD022058
:1004F000A870202104F53A7001F0C8FD0320E870CF
:10050000F1BD0000000000009A9999999999A93FBE
:10051000FCA9F1D24D62503F9A9999999999A93FB6
:1005200070B504460D462068164602F04FFB606821
:10053000294602F04BFB00202072002116A06581A5
:100540006172A6812A4690EC062B9FED0E1B9FED53
:100550000B0B04F1100002F0E3F800BF14A02A46D0
:1005600090EC062B04F1B000BDE8704000219FED37
:10057000051B9FED020B02F0D3B800000000000045
:1005800000000000000000000000144079E926315E
:1005900008AC7C3F00000000FCA9F1D24D62503F46
:1005A000FCA9F1D24D62503F7B14AE47E17A843F03
:1005B000FCA9F1D24D62503FFCA9F1D24D62503FEF
:1005C0007B14AE47E17A843F70B50E46054614466B
:1005D000782101F05BFD72892A8070896880002093
:1005E000B189A980E88004F564752021284601F0CE
:1005F0004DFD2021284601F049FD04F542750020FB
:10060000C5E90200A8632871202104F5227001F0D9
:100610003DFD00202870202104F52A7001F036FDF0
:1006200001206870202104F5327001F02FFD0220B6
:10063000A870202104F53A7001F028FD0320E8702D
:10064000002104F520700122017002230321427071
:100650008370C17070BDF8B504460D460120164682
:10066000208102214EE0084637E00020A062A11C54
:10067000208931F810106389A182A01C324630F81D
:100680001370E7822946204600F042F8204600F029
:100690009DF8F0B132462946204600F0A5F83146D3
:1006A000204600F091F932462946204600F0A6F98E
:1006B000608C08B9606BA06394F8440028B1608C2A
:1006C000401C608480B20228E4DD3146204600F000
:1006D000EFF9A16A20888842C5D2218906EB410240
:1006E000A2F8300305F10802208906EB8001A06B17
:1006F000C1F838032089A16A1154218960894A1EF2
:100700002281411E618160890028AED1F1BD0000C7
:10071000F8B504462DED028B20890D4600EB8001D3
:100720004E01A91905F1100791ED181B02EB4001CC
:10073000B0EE418AB1F83003F0EE618A01F042FB7D
:1007400041EC100BB0EE481AF0EE681AB81902F03E
:10075000B3F951EC100B01F067FC20839FED988BEF
:10076000208B40006083208900EB800105EB411560
:1007700051EC180BD5E9042302F02CFA53EC182B9A
:1007800001F032FA0022DFF8E83701F033F90022F5
:10079000DFF8043E01F028FA01F046FC81B203299B
:1007A000B8BF032003DB1529ACBF142000B2A0841E
:1007B000B4F9240002F080FAC5E91A01BDEC028BFD
:1007C000F1BD0000000000000000F03FB0F924106F
:1007D000012907DB038B9942B4BF591A0021818399
:1007E000012070470020704770B504460D4694F80C
:1007F0004400164610B90021216360630021A08ADD
:100800006082E183218414E094F8440010B920460A
:1008100000F014F832462946204600F027F8608A96
:10082000401E608280B229680A5CE2836968085CC5
:100830002084E08A618A8842E6D370BD10B4C18BFF
:10084000028C8A420ED2036B5B180363891A028BF7
:10085000C1838BB29A423EBF428B8CB2944203D288
:10086000511A00E00021C18310BC70472DE9F0410E
:1008700005462DED048BEF8BA88BB8420C469046B5
:1008800028D2AA6ABA4238BFAF623F1A688AEF8399
:1008900001F098FA41EC110BB0EE418AF0EE618A5A
:1008A000B8B201F08FFA05F1480405F1580805F1D6
:1008B000500641EC100B224641463046B0EE481A35
:1008C000F0EE681AFFF767FCE889401C0021E88118
:1008D000A98171E0A889401CA88180B20B286BDB3C
:1008E000EE89002E68D095ED128B53EC182B00206A
:1008F000002102F0F3F95FD095ED149B51EC190B38
:1009000001F06EFA01F0AEFB0746686BEF62381833
:10091000032F686345D353EC192B0020002102F00C
:10092000DDF995ED168B09D153EC182B02F0D6F9B1
:1009300018BF4FF4806002F0BFF903E051EC180BD0
:1009400001F04EFA01F070FB2368298A84B208EBAB
:100950004112195DA2F888122A8A08EB4213A3F803
:100960008A72298A08EB4112A2F88C020022288A96
:1009700008EB4011A1F88E62288A08EB4011A1F81B
:100980009022288A08EB401101F52670C0E9002268
:100990000272288A08EB000181F80803288A401CAB
:1009A00028829FEDA00B002085ED160B85ED140B22
:1009B00085ED120BE881A881BDEC048BBDE8F081C8
:1009C0000000000000002440F8B50646378901EB1E
:1009D0008701D1F8380301F0F5F90446706B0D4634
:1009E00001F0F0F902460B462046294601F0F8F9DD
:1009F000C6E91801002086F84400F1BD2DE9F8434E
:100A00000E46416B002951D000250446904600E077
:100A10006D1C218AE8B2884248D208EB000999F897
:100A200008030428F4DA08EB4010A26A616B00F5B1
:100A30002277D2B289B23846FFF7DBFBD4E918013E
:100A4000D7E9042302F05AF9E2D2012084F84400E5
:100A5000042189F808133068B988405C218B420072
:100A60008842628306DA09B2081AA18B48BF404265
:100A700001EB6000A11C6289A08331F81210F88894
:100A8000BA88A2EB5005A942BABFA2EB5002E2829B
:100A9000E182A11C228931F81210BA8802EB5003BE
:100AA0008B42BABF02EB5000A082A182BDE8F18365
:100AB0002DE9F84F2DED048B82B08846002500907B
:100AC00008F5427731E0785D08EB401101F52271BD
:100AD0006C1C088940BBA0B291ED048B4845B0EE78
:100AE000489AF0EE689A2E46A24615D208EB000B03
:100AF0009BF8080308EB401053EC192BD0E9A60132
:100B000002F0FCF838BF56460AF1010A1FFA8AF0D3
:100B100048450BF1010BEBD37E5508EB4513B6B2FC
:100B20000122BD55A3F89022A5B20098B0F810900C
:100B30004D45C8DB042D07DA08F54270284400F85B
:100B4000015B6D1C042DFADB02B063E22DE9F0417C
:100B500006462DED048B378A8846384601F032F977
:100B600041EC180B53EC182B0020002102F0B6F8D2
:100B700008BF9FED2E8B306B86ED1C8B01F022F9A8
:100B8000D6E91C2301F030F841EC180B96ED1A9BC6
:100B900053EC192B0020002102F0A0F807D153ECF0
:100BA000182B02F09BF80ED19FED1E8B0DE051EC3F
:100BB000180B01F015F90122DFF8283A02F0B6F817
:100BC00041EC180B01D89FED1B8B08F544750020F4
:100BD00085ED008B88F80C730021346B2C6395ED48
:100BE000008B53EC182B02F079F806D1002C14BFBF
:100BF0009FED120B9FED0B0B08E0204601F0E2F891
:100C000053EC182B01F0ECF841EC100B08F52470B4
:100C100085ED060B00210180018408F53470018008
:100C20000184C9E600000000000000000000000090
:100C30000000F03F00000000000014400000000031
:100C4000000090402DE9F84F2DED0E8B86B08346C5
:100C500000F0E4F99FEDC49B421EB0EE49AAF0EE0D
:100C600069AA00260025002704929FEDBDEB0590A0
:100C700030E005998E42B8BF854229DA0BF5207025
:100C80000BF52373825D0BEB050002EB820190F8FC
:100C9000082352010BEB4114985A01F093F841ECF0
:100CA000180BB0EE480AF0EE680A204601F04BFE41
:100CB000D4E9100153EC182B01F08CFF21F0004116
:100CC00053EC1A2B00F096FE7F1C41EC1A0BBFB2BE
:100CD000761CB6B20498864280F201815EE0A0885C
:100CE00001F070F841EC100B029801F02CFEB9F8FD
:100CF000040001F067F841EC100B039801F023FEAB
:100D000084F8188089F818A051EC1C0B53EC1D2BAB
:100D100037E051EC1D0B02F009F806D8B0EE4EDAC0
:100D2000F0EE6EDA039801F001FF53EC182B51EC52
:100D30001B0B00F059FFCDE9000153EC1C2B51ECCB
:100D40001D0B00F051FFDDE9002301F0D7FFC6D2F3
:100D5000B9F8040001F036F841EC100B029801F0EC
:100D6000F2FDA08801F02EF841EC100B039801F081
:100D7000EAFD89F8188084F818A051EC180B53ECA0
:100D80001B2B00F037FE53EC1A2B00F033FE761CC1
:100D9000AD1C41EC1A0BBF1CB6B2ADB29BF80C03F4
:100DA000411E8D42BFF665AF0BEB050000F54270AA
:100DB0000BF522710278407801EB421401EB4019E7
:100DC0000BF52071881990F8008090F801A0A08898
:100DD00000F0F8FF41EC1D0B08EB88010BEB411113
:100DE000029153EC1D2BD1E9100101F0F3FE21F02B
:100DF000004141EC180BB9F8040000F0E3FF41ECAE
:100E00001C0B0AEB8A0149010BF1400200915018BA
:100E100053EC1C2BD0E9000101F0DCFE21F0004175
:100E200041EC1B0B029853EC1C2BD0E9100101F094
:100E3000D1FE21F0004141EC1C0B00990BF1400068
:100E4000014453EC1D2BD1E9000101F0C3FE21F058
:100E5000004141EC1D0B51EC180B0122DFF88837E3
:100E600001F064FF98BF9FED3E8B06D951EC1C0B3F
:100E700001F05CFF04D89FED3ACB029801F056FEDA
:100E80000098DFF8643758440390012251EC1B0BA3
:100E900001F04CFF3FF63DAF9FED31BB42E70BF554
:100EA00042710BF523704A5D52019FED2F1B805A52
:100EB000B0EE418AF0EE618A00F084FF41EC100B45
:100EC0000BF52070B0EE481A415D01EB8102F0EEA7
:100ED000681A0BEB421001F0EFFD6D1CADB29BF8F0
:100EE0000C038542B8BF042DD9DB042E14DA0BF5B0
:100EF0002070815D01EB81020BEB421001F016FEC8
:100F0000761CB6B2F1E78BEDEC9B06B05846BDEC13
:100F10000E8BBDE8F24F2DE0B8B20028F5D000F0FE
:100F200051FF02460B4651EC1A0B00F059FF00220C
:100F3000DFF8B43601F0E2FEE5D200F051FF0246E0
:100F40000B4600200A4901F045FEDFF8A026DFF835
:100F5000D83600F049FECBE9EC01D6E70000E0BF4F
:100F60000000000000407F40000000000000000082
:100F70000000F03F2DE9F84F814609F520782DED6E
:100F8000048B0025464609F19807307800EB800174
:100F900009EB411494F89820012A2DD0204601F045
:100FA000BBFD94ED1E8B6C1CA0B20428B0EE489AD9
:100FB000F0EE689AAA4617DA08EB000B9BF800E0FF
:100FC00009F178030EEB8E0203EB421251EC190B80
:100FD000D2E9002301F092FE38BFA246641CA0B201
:100FE00004280BF1010BE9DB1FFA8AF086F800A058
:100FF00008F80050012139706D1CA037761C042DB3
:10100000C3DB002089F8980089F8380189F8D801F5
:1010100089F87802BDEC048BBDE8F18F2DE9F04131
:101020002DED028B002500F520760424804616F86D
:10103000011B01EB810208EB4217002387F899306E
:10104000384601F069FDB0EE408AF0EE608A38461D
:1010500001F04CFD98B951EC180BDFF89425DFF83E
:10106000CC3501F04BFE0AD397ED140B384601F056
:10107000C7FB6D1C0120641E87F89900D7D1BDEC19
:10108000028BA8B2BDE8F0810000E03F08AC7C3FD5
:1010900079E92631A086010000E05F40387D00201C
:1010A00010B504462DED0A8BD4E9C4239FEDC99BEE
:1010B00051EC190B00F09EFC41EC1A0BB0EE4A1AF1
:1010C000F0EE6A1A9FEDC50B01F04BFE9FEDC51BBC
:1010D000B0EE418AF0EE618A51EC190B53EC102B03
:1010E00001F078FD41EC100BB0EE481AF0EE681AF2
:1010F00001F037FE53EC102B51EC190B01F06AFD97
:1011000004F5647441EC1C0B84ED00CBB0EE4A1A7C
:10111000F0EE6A1A9FEDB50B01F023FE51EC190BAE
:1011200053EC102B01F056FD41EC100BB0EE481AB9
:10113000F0EE681A01F015FE53EC102B51EC190B70
:1011400001F048FD41EC1B0B53EC1C2B01F042FD60
:10115000C4E90201B0EE4A1AF0EE6A1A9FEDC10B23
:1011600001F0FFFD51EC190B53EC102B01F032FD97
:1011700041EC100BB0EE481AF0EE681A01F0F1FDE8
:1011800053EC102B51EC190B01F024FD41EC1C0B1E
:1011900053EC1B2B01F01EFDC4E90401B0EE4A1A0A
:1011A000F0EE6A1A9FED8B0B01F0DBFD51EC190B91
:1011B00053EC102B01F00EFD41EC100BB0EE481A71
:1011C000F0EE681A01F0CDFD53EC102B51EC190B29
:1011D00001F000FD53EC1C2B01F0FCFCC4E90601FE
:1011E000BDEC0A8B10BD2DE9F0410C4604F5DA6820
:1011F0000546D8E9000116461F4600F015FF288075
:1012000004F54674D4E9000100F00EFF6880D8E9C7
:10121000020100F009FFA880D4E9020100F004FFF8
:101220002E816F81E880BDE8F08170B504460D46DF
:1012300020892188A2888142894190428041C00F43
:1012400090EAD17F0AD060896188E2888142894131
:1012500090428041C00F90EAD17F25D1284600F00E
:10126000E9F905F53770416802686588E6889142BA
:101270008268C068894182428041C00F00EBD17111
:101280004B1E2373A0882188884292415BB2002BB9
:10129000CCBF01230023B542AD4183EAD27292EA6A
:1012A000D57F1CBF2080A18070BD00002DE9F047D4
:1012B0002DED028B0646042400F5ED6A9FEDB78BF9
:1012C0000546D5E9EC23D6E9E40100F08DFC06F5EE
:1012D000E96780468946DAE90023D7E9000100F092
:1012E00083FC42464B4600F085FB53EC182B00F084
:1012F0007BFCC7E90A010836641EE2D1D5E9EC237C
:10130000DAE9000100F076FB53EC182B00F06CFCDE
:10131000CAE90A01BDEC028BBDE8F08730B403884E
:10132000828801F52874D21812042588520C95423F
:1013300038BF2A4602814588C28855192D04628823
:101340006D0CAA4238BF15464581238142886281CF
:101350008388A381C288E2810389238242896282D1
:101360000389A1F85C3142898A810389A1F83C3A5A
:101370004089A1F8840630BC7047000010B52DEDFF
:10138000028B044600F036F8204600F06FF8204645
:1013900000F0DAF804F54C74D4E90023D4E9020132
:1013A00000F028FBD4E9042300F024FB0022914B39
:1013B00001F0A4FC41EC180B38BF9FED8F8B06D3D6
:1013C0000122884B01F0B2FC98BF9FED068B84EDA3
:1013D000068B43E0000000000000F03F9A999999C5
:1013E0009999C93F00000000000014409A9999990A
:1013F0009999D93F10B504462DED028BD4F8EC0233
:1014000050289FED7F0B27D95021B1FBF0F0C0F1A0
:10141000010000F0D7FC00224FF0404301F06EFCC9
:1014200041EC180B38BF9FED788B07D301224FF0AA
:10143000804301F07BFC98BF9FED758B53EC182B1C
:1014400051EC180B00F0D0FB53EC182B00F0CCFB48
:1014500081F0004141EC100B84EDCC0BBDEC028B14
:1014600010BD0000CDCCCCCCCCCCE43F2DE9F0417C
:10147000044604F6C8302DED048B04F5407590ED5C
:10148000000B04F5CF6604F5236785ED020B96ED9E
:10149000008B97ED009B51EC190B53EC182B01F0CE
:1014A0002DFC04F52F6824BFB0EE498AF0EE698A5E
:1014B00004F5925088ED008B90F90010032932D882
:1014C000DFE801F02E262E02308900F07BFC41EC93
:1014D000100B04F1100001F06BF9708900F072FC40
:1014E00041EC100B04F1B00001F062F9388900F012
:1014F00069FC41EC100B04F5B07001F059F97889E2
:1015000000F060FC41EC100B04F5007001F050F9A4
:101510009FED3B1B95ED000B04F6883001F0CCFAF3
:10152000204600F03FF804F6C83095ED020B90ED30
:10153000001B04F6F82001F037F898ED120B85ED4A
:101540000E0BFFF739BA000038B5044604F6383000
:1015500004F6C8352DED048B90ED008B95ED009BC6
:1015600053EC192B0020002101F0B8FB09D153ECFA
:10157000182B01F0B3FB14BF9FED270B9FED200B41
:1015800005E051EC180B00F02BFC41EC100B84ED46
:10159000D00BBDEC048B31BD0000344000000000D6
:1015A0000000E03F38B500F52E6500F53C74D5E944
:1015B00000011B4A1B4B01F0B9FB06D8D5E90223F9
:1015C000D5E9040100F010FB02E0206800F0FAFB0E
:1015D0000022174B00F004FC41EC100B84ED060BCD
:1015E00031BD00000000144000407F409A99999955
:1015F0007B14AE47000014C000000000000014C0BF
:10160000000000000000000000000000000000C01A
:1016100000000000000000400000000000009040BA
:101620007C14AE47E17A843F9999D93FE17A943F9F
:101630000040AF40F8B596B004466846582100F027
:1016400025FD04F52875AA8AADF800202B8A991A81
:1016500048BF4942ADF802102988CE1AADF804609F
:10166000EE8AADF806606F8AB81B48BF4042ADF8FD
:1016700008006888C01B9342ADF80A0008D20E9893
:101680008A1A40F00100ADF80030ADF804200E9049
:10169000B74208D20E98891B40F00200ADF80670E0
:1016A000ADF80A100E90159802286CD800211491FC
:1016B0001498411C149115994A1C15920DF10602BB
:1016C0003DF8100032F81110484303AA129942F86D
:1016D00021001298401C129014980228E8D9E2E7E1
:1016E0000C9DB5FBF0F0139E0F9D04EB8607D7F819
:1016F000CC6206FB00500F901498401C1490149D6F
:10170000109E1398B54231D20E9E4E43164406EBFE
:101710008000284403AF057C57F825600C9600250F
:1017200015E00E9FDDF84CC04F43174407EB8C0EBD
:10173000DDF850C0F44403AE9CF820E007EB8E07C0
:1017400017F805C056F82C6030180D906D1C1595D3
:10175000119E159D0D98B542E3D30028C0D10C9879
:10176000002818BF1846BEE717B0F0BD04EB800193
:1017700001F52F710F9B0A689A422CBFD21A0022E2
:101780000A62401C139013980428EDD2DDF838301B
:1017900064A234214B4313441D18404295F8306035
:1017A00010961844002590F83330119314950D9538
:1017B0004FF48063A3E700002DE9F84388B00746A3
:1017C00007F5E961019107F56472029207F5FD6181
:1017D000039107F58662049207F6C821059107F583
:1017E0002D62069207F6D821CDF81C1041F2284050
:1017F0004BA2116800913D1801F055FB00F0E2FA90
:1018000041F21842BA180024C2E900016E460DF1F7
:10181000040941F2114100207A5C641CD30713D5FE
:10182000327800280CBF02F00F0212090023012AAF
:1018300009DBA846D9F800C01CF803E008F801EB62
:101840005B1C9342F6DB551990F0010018BF761C23
:10185000E2B2082A09F10409DEDB41F2104003215B
:101860003818FEF759FD09B0BDE8F0832DE9F84FAF
:10187000002600F5207700F24E3800F54375044647
:101880008B4613E0BAF80200B1F83013081881B2A1
:10189000C929A8BFC82028F8020C88F800B088F829
:1018A0000190761CB6B208F104087F1C28788642A5
:1018B000B8BF102E19DA38780428F2DA00EB80016C
:1018C00004EB411097F8889090ED100B04EB491051
:1018D00000F5227A51EC100B00F0A6FB298D80B2A6
:1018E000884234BFA11C2146CCE784F88C63BDE854
:1018F000F18F10B5044694F85C0628B194F8B8123C
:1019000004F55470FFF7B2FF94F8140A30B194F85C
:10191000B81204F5E160BDE81040A7E710BD000073
:1019200088888808000103040205000006070000FB
:101930000800000000000000010200000306000093
:101940000405070800010203010300000203000070
:10195000030000000402020100030000010204056C
:10196000060000000708000000010000020000005F
:10197000030406070508000000020000000102033E
:101980000200000002030000020401020001000046
:101990000200000003040607050800000003000021
:1019A0000102040506000000070800000001000015
:1019B0000100000000010203010300000201040213
:1019C00000000000010200000306000004050708F3
:1019D00000010304020500000607000008000000E3
:1019E00000000000000100000002000000010203EE
:1019F0000102020470B44FF0004591EA030F41F177
:101A0000F1806B40841A71EB030604D26E40001B18
:101A1000B141121973414FF4001C1CEB410F34BF4C
:101A20007CEB430683E00C0DA4EB1356362E00F33B
:101A30007C80012E45EAC32341DC43EA525312BFA6
:101A4000D20292025B08240545EAC12141EA5051C5
:101A5000D2EBC020994125D407D1B0FA80F610FA14
:101A600006F162D00020203608E0B1FA81F6B140DC
:101A7000C6F1200220FA02F21143B0404FEAF4749A
:101A8000B4EB465434F001064FEA74040AD8D6F594
:101A90000016760D04F00044F04061FA06F2504062
:101AA000F1404840C00A40EA415021F0004128BFBF
:101AB0005FEA500550F1000044EBD12135E0DB0A2C
:101AC00045EAC121C90AB6F120050EDD42EA02420B
:101AD000120CC5F1200603FA06F6EB4042EA0605B1
:101AE0006D42984161F100010DE062FA06F5F240A5
:101AF000554063FA06FC82EA0C02F3405A406D42FC
:101B0000904161EB030111F4801F05D1641E620551
:101B100002D06D004041494121F48011430875F124
:101B2000004350F1000041EB045170BC70471CEBC6
:101B3000410F15D223F0004352EA43060BD04FEA7F
:101B40004C0CBCEB410F04D80C0D661E342EB7DDD7
:101B5000EBE7801A994150EA410608BF0021E4E70B
:101B600008BF1CEB430F28BF6FF00001DDE7F0B4A6
:101B70000246106895681318506803EB5004C007BC
:101B80001DD54D441BE013F8017B05F8017B491E70
:101B9000F9D1A0B1B60813F8011B06F00306032E15
:101BA00008BF13F8016B01EB06214942801C294450
:101BB00005D011F8016B05F8016B401EF9D1A34265
:101BC0000ED013F8016B16F0030104BF13F8011BCC
:101BD000C91C30090F28DAD113F8010B0F30D6E7F2
:101BE000F0BC02F10C007047B0B581EA030C0CF0B8
:101BF000004C40F2FF7515EA11541DBF15EA13574A
:101C0000AC42AF4239E0E41923EA455343F4801370
:101C1000C90241F0004141EA505EC7021100A7FB32
:101C2000020200284FF00000EEFB01204FF00001FF
:101C3000E3FB072118BF42F001024018002149418F
:101C4000E3FB0E01A4F580640F0302D25200404171
:101C5000494154F101046CDD470872F1004250F132
:101C6000000051EB0451A1F580115CBF41EA0C0169
:101C7000B0BD4CEA05510020B0BD05EA1357AC4297
:101C800014BFAF4241E050EA410E1CBF52EA430E7E
:101C900002E061460020B0BD24423C441BD15FEA13
:101CA000070EF6D0090302BF01460020AEF1140E64
:101CB000B1FA81F7AEEB070401FA07FE0C37C7F162
:101CC000200100FA07F7C8404EEA000E23EA455308
:101CD00043F48013A2E733F00043B3FA83F704BF61
:101CE000B2FA82FE77440B3FE41BB7F1200E2FBF00
:101CF00002FA0EF3BB40C7F1200E22FA0EFE38BFE7
:101D000043EA0E03BA40641C82E750EA410E14BF56
:101D100052EA430E6FF000014FF4001717EB430F28
:101D20008ABF194617EB410FB5E74CEA0551002071
:101D3000B0BDD4F10104B4F120070FDAC4F12007DB
:101D4000520828BF42F0010210FA07F501FA07F71E
:101D5000E1BF2A43E0403843E1400FE0352C98DCF6
:101D6000C7F1200452EA400220FA07F218BF42F0FD
:101D7000010231FA07F0A1400A43002172F100424A
:101D800050F1000051EB0C01B0BD30B4002513E060
:101D900050F8042BD30744BFA9F101039A18091F77
:101DA000042942F8045BFAD213468C0744BF15801D
:101DB0009B1CC90748BF1D7050F8041B0029E7D1C0
:101DC00030BC7047014648B1B0FA80F18840C91C68
:101DD000C1F58461090501EBD02140057047000081
:101DE000F0B540F2FF7581EA030C0CF0004C15EAE7
:101DF00011541DBF15EA1357AC42AF42E5E0BC4198
:101E0000C1F31301C3F31303801A994143F4801300
:101E100004D2641E4000494180185941C90241EA78
:101E20005051B1FBF3F603FB1611A2FB0675D7EB7D
:101E3000C020A94102D2761E80185941C90241EA48
:101E40005051B1FBF3FE03FB1E11A2FB0E75D7EB45
:101E5000C020A94103D2AEF1010E80185941890278
:101E600041EA9051760546EA8E2EB1FBF3F603FB6C
:101E70001611A2FB0675D7EB8020A94102D2761E6F
:101E800080185941C90241EA50514EEA060EB1FB91
:101E9000F3F603FB1611A2FB0675D7EBC020A94190
:101EA00002D2761E80185941C90241EA5051B1FB55
:101EB000F3F703FB1711A2FB0735D3EBC020A941B1
:101EC00067F100070CBF004247F0010766F3D52712
:101ED0004FEA1E31B80814F5806412DDBD0775F1B4
:101EE000004250EB0E5051EB045111F5801F5CBFC6
:101EF00041EA0C01F0BD4CF07F6141F0E04100206F
:101F0000F0BDBD076D0840EA0E5041F48011D4F1D8
:101F10000104B4F120060ADAC4F120060200E04010
:101F200001FA06F3E1401843B24015430EE0342CA9
:101F300013DCC6F1200445EA40056D0820FA06F2DC
:101F4000154321FA06F0A1400D43002175F100422E
:101F500050F1000051EB0C01F0BD00205FEA0C01D4
:101F6000F0BDCFB992185B41B3FA83F704BFB2FA60
:101F700082F6BF190B3FB7F120062FBF02FA06F316
:101F8000BB40C7F1200622FA06F638BF3343BA40F9
:101F90001CB1E419641E33E77F4231F00041B1FA0D
:101FA00081F404BFB0FA80F6A4190B3CB4F120060A
:101FB0002FBF00FA06F1A140C4F1200620FA06F670
:101FC00038BF3143A0403C1B1AE7AC421ABF05EAB8
:101FD0001357AF4212E050EA41061CBF52EA4306D3
:101FE000BFE750EA4107304661461CBF41EA055150
:101FF000F0BD52EA430C08BFC143F0BD00204FF4CE
:10200000001616EB410F98BF16EB430F08BF16EBF7
:10201000410F24BFC14305E016EB430F0CBF6146DF
:102020004CEA0551F0BD0000C1F30A5340F2FE3204
:102030009B1A14DDD3F120034FEAE17208DDC902D7
:1020400041EA505141F00040D8408018504070475C
:1020500003F2E13010B1D24382F00040704700201B
:1020600070470000400D491840EA81200CD2490D0C
:10207000A1F58061491C40F0004005DBD1F11F0152
:1020800054BFC840C017704700207047002200F0BE
:1020900011BF0000000000000146DFF87C2304208F
:1020A00000239FED5B0B10705370937082ED020B59
:1020B00082ED040B81F8800053781078834200D3BE
:1020C0007047F0B49FED7F1B002358B1547801EBAB
:1020D0004415DEB25B1C05EBC607DCB2844287ED1B
:1020E000000BF3D39370537801EB431505EBC30456
:1020F0005B1C84ED001B5370DBB28342E4D3F0BC65
:10210000704700002DE9F84305462DED028B95F848
:102110008000DFF8046330700027347800209FEDE2
:102120003C0B002C707086ED020B86ED040B88468C
:102130003DD005EB4819F8B209EBC000002200239E
:1021400090ED008B86ED028B51EC180B00F0EEFD4C
:1021500007D8D6E9040153EC182BFFF74BFCC6E96E
:1021600004017F1CF8B2A042E5D396ED048B53EC3A
:10217000182B0020002100F0B1FD18D0DFF8C012AC
:10218000FFF72EFEC6E904010027FDB209EBC500EA
:1021900009EBC505D0E90023D6E90401FFF724FDCA
:1021A000C5E900017F1CF8B2A042EED305E005EBC3
:1021B000C8000022A24BC0E90023B7707EE00000F7
:1021C00010B504464FF0FF3021706070A070002001
:1021D0009FA3E070012293EC062B00219FED8F1B43
:1021E0009FED0B0B04F1A80000F09AFA9EA10122CA
:1021F00091EC062B00219FED8B1B9FED050B04F14D
:10220000080000F08DFA04F5A470BDE8104043E723
:1022100000000000000000002DE9F84304467E4D58
:102220002DED028B0420287000226A70AA709FEDA9
:10223000860B85ED020B85ED040B204600F046F879
:1022400004F5A47921784846FFF75CFF95F80080F3
:10225000687894F9006040451AD294F900006F78CC
:10226000000604EBD04101EBC703D5E9020193ED71
:10227000528B85ED048B53EC182B00F03FFD3CBFD7
:1022800085ED028B7EB27F1C6F70FFB24745E4D3B1
:10229000A670204600F078F894F90010484600F047
:1022A000A1F800F000FEFFF78DFDC4E9440100F045
:1022B000FAFDFFF787FDC4E91C0100BFBDEC028BEE
:1022C000BDE8F183000000000000F03F2DE9F04779
:1022D0002DED068B8A4690F900104F4E0022727049
:1022E00000EB411755469FED518B9FED529B814668
:1022F000D9E9120153EC192BFFF77CFB53EC182B97
:10230000FFF772FC41EC1A0BD7E9520153EC1A2B80
:10231000FFF76AFC0446884651EC190B53EC1A2B64
:1023200000F058FCD5E90023FFF75EFC2246434647
:10233000FFF760FB414A434B00F0E0FC41EC1A0B15
:1023400038BF87ED52AB7078401C70700835083785
:10235000C0B20428CCDB00F0A6FDFFF733FDD9E9BD
:102360001C2300F037FC41EC110B99F900000AEB3B
:10237000C00109F1080091ED000BBDEC068BBDE832
:10238000F04700F099BB000070B5044694F90200D4
:1023900010F1010F24D02178A078617020704FF0E7
:1023A000FF31A1709FED280B04F1080000F000FA46
:1023B00000F079FD94F90050FFF704FDD4E94423BF
:1023C00000F008FC41EC110B04EB451606EBC500D0
:1023D00090ED520B04F1A800BDE8704000F06CBB1A
:1023E00070BD000090F880000B4908700020487014
:1023F000487000229FED140B08788A7081ED020B63
:1024000081ED040B28B14870521CD3B2834288700E
:10241000FAD34A7070470000108A002000000000C4
:102420000000244000000000000008400000000000
:102430000000E03F000000000000F03FCECCCCCC1C
:102440000000F03FCCCCEC3F00000000000000009A
:102450007B14AE47E17AA43F9A9999999999B93F2B
:102460009A9999999999D93F7B14AE47E17AA43FFB
:102470009A9999999999B93F9A9999999999D93F1E
:10248000103A07D330B4B1E83810103AA0E8381049
:10249000F9D230BC530724BFB1E80810A0E80810F7
:1024A00044BF51F8043B40F8043BD20724BF31F845
:1024B000022B20F8022B44BF0B7803707047121FC9
:1024C00017D35B0009D151F8043B20F8023B1B0CE9
:1024D000121F20F8023BF6D20BE051F8043B00F843
:1024E000013B1B0A20F8023B1B0C121F00F8013BAA
:1024F000F3D238BF121D521E24BF11F8013B00F861
:10250000013BF8D8704700000CB410B52DED068BD8
:1025100004469021FFF7BAFDDDE9082300200021E1
:1025200000F0DCFB94ED048B9DED0A9B26D153EC6F
:10253000192B00F0D3FB21D1DDE90C2300F0CEFBF9
:102540001CD16D49CDE91001DDE90E236949FFF782
:102550004BFB41EC1A0B0022674BFFF741FC684A2A
:10256000664BFFF741FB41EC190B53EC182B644809
:102570006949FFF739FB41EC100B03E09DED08AB17
:102580009DED0C0B84ED040B84ED029B84ED00AB00
:1025900000F089FCFFF716FCC4E91601BDEC068BC0
:1025A00010BC5DF80CFB000038B504462DED068B21
:1025B00051EC100B53EC112B00F00CFB41EC100B09
:1025C00084ED1A0BD4E9000153EC102BFFF70CFB40
:1025D000C4E90A0100F067FCFFF7F4FBD4E9162315
:1025E00000F0F8FA41EC180B94ED1AAB84ED148B63
:1025F00053EC1A2BFFF7F8FAD4E91E23FFF7FAF988
:1026000041EC100B84ED1E0BD4E90223FFF7ECFA2A
:1026100041EC190B84ED0C9BD4E9180153EC1A2BF7
:1026200000F0D8FA41EC100B84ED1C0BD4E9042324
:10263000FFF7DAFA41EC1A0B53EC182B00200021BB
:1026400000F04CFB09D153EC1A2B00F047FB14BFF0
:102650009FED2C0B9FED2D0B05E051EC1A0BFFF7B6
:10266000BFFB41EC100B84ED0E0BD4E90A2351ECB7
:10267000190BFFF7BFF9D4E90E23FFF7BBF9D4E933
:102680001223FFF7B7F904F1800541EC180B95ED23
:10269000029B51EC190B0022002300F047FB18D2DB
:1026A00095ED00AB51EC180B53EC1A2B00F026FB08
:1026B00004D2B0EE4A8AF0EE6A8A0AE051EC190BB5
:1026C00053EC182B00F01AFB3CBFB0EE498AF0EE39
:1026D000698A94ED1A0B84ED108B84ED180BD4E904
:1026E0001E230C480D49FFF77FFAC4E91E01BDEC1B
:1026F000068B31BD0000E03F0000F03F4D62603FBF
:10270000FCA9F1D200000000000090400000000091
:1027100000000000CDCCCCCC4D62503FCCCCEC3F87
:10272000F8B5044604F180072DED028B84ED181BEB
:10273000B0EE408AF0EE608A0D46164687ED002B1B
:1027400087ED023B87ED044B00F0ADFBFFF73AFB52
:10275000C4E91C0194ED1C0B84ED1A0BBD83FE83B0
:102760009FEDD30B84ED000B84ED020B84ED040B85
:1027700084ED060B84ED080B84ED0A0B84ED0C0B45
:1027800084ED0E0B84ED108B84ED120B84ED140B95
:1027900084ED160B0020B87684ED1E0B00F083FB51
:1027A000FFF710FBC4E91C01BDEC028BF1BD00007A
:1027B00010B504469FEDBE1B002084ED001B84F87D
:1027C0009A0084ED021B84ED041B84ED061B84ED4E
:1027D000081B84ED0A1B84ED0C1B84ED0E1B84ED9D
:1027E000100B84ED121B84ED141B84ED161B84ED7D
:1027F0001E1B00F058FBFFF7E5FAC4E91C0110BDF1
:1028000038B52DED0A8B0446B0EE408AF0EE608AB2
:1028100000F049FBFFF7D6FAD4E91A2300F0DAF901
:1028200041EC190BD4E9180153EC192B00F066FAAE
:1028300006D200F038FBFFF7C5FAC4E91A017FE0C1
:10284000D4E91001D4E9122300F0C4F9C4E9140159
:1028500094ED10AB84ED12ABD4E90E2351EC180BC0
:1028600000F0B8F941EC100B84ED0C0B53EC192B74
:10287000FFF7BAF953EC1A2BFFF7BCF841EC1A0B2F
:1028800004F1800584ED10ABA88BFFF79BFA41ECB7
:10289000180B51EC1A0B53EC182B00F02FFA09D33C
:1028A000E88BFFF78FFA53EC1A2B00F027FA41EC74
:1028B000180B03D2B0EE48AAF0EE68AA94ED0A8B8A
:1028C00084ED10AB53EC192B51EC180BFFF78CF97E
:1028D00094ED06CB94ED08BB41EC1A0B53EC1C2B8A
:1028E00000F078F953EC1B2B00F074F9D5E90023C4
:1028F000FFF780F853EC192BFFF776F9D4E904239E
:10290000FFF778F8C4E9040153EC1A2B51EC1C0BC7
:1029100000F060F9C4E9060153EC1A2B51EC1B0BD3
:1029200000F058F9C4E90801D5E9022351EC190B6C
:10293000FFF75AF953EC182BFFF75CF8C4E90A01CA
:10294000BDEC0A8B31BD38B5044604F190052DED80
:10295000068BD5E9000194ED049BB0EE408AF0EEC1
:10296000608A53EC192BFFF745F802460B4600200E
:102970009349FFF735FA41EC1A0B53EC192BFFF78B
:1029800033F941EC190B84ED009BD4E9082351EC99
:102990001A0BFFF729F9C4E9020194ED10AB51ECD1
:1029A000180B53EC1A2B00F015F941EC180B53ECF3
:1029B000192BFFF719F953EC1A2BFFF71BF8C4E991
:1029C0001001D4E9022351EC180BFFF70DF9D4E9FB
:1029D0000E23FFF70FF8C4E90E0194ED048B94ED7C
:1029E000009B53EC192B51EC180BFFF7FDF8024636
:1029F0000B4651EC180B00F0EDF841EC180B94ED80
:102A000006AB84ED048B53EC192B51EC1A0BFFF73A
:102A1000EBF802460B4651EC1A0B00F0DBF841ECE8
:102A2000190B94ED02AB84ED069B53EC1A2B51EC81
:102A3000180BFFF7D9F802460B46D4E9080100F05D
:102A4000C9F8C4E9080153EC1A2B51EC190BFFF734
:102A5000CBF802460B46D4E90A0100F0BBF8C4E902
:102A60000A0100F020FAFFF7ADF9C4E91A01A889BC
:102A7000FFF7A8F941EC180B94ED109B51EC190BE2
:102A800053EC182B00F03AF90DD3E889FFF79AF9C7
:102A900053EC192B00F032F941EC180B24BFB0EEC7
:102AA000498AF0EE698A84ED108BBDEC068B31BD4E
:102AB000000000000000000010B52DED028BB0EE0C
:102AC000408AF0EE608A0446B0EE410AF0EE610AF8
:102AD000FFF796FEB0EE480AF0EE680A2046FFF7D0
:102AE00032FF94ED100BBDEC028B10BD10B5044607
:102AF00000F0D9F9FFF766F9D4E91A2300F06AF873
:102B000002460B46D4E9180100F0F8F801D2012082
:102B100010BD002010BD000090F89A1090ED000B41
:102B200009B19FED280B80ED1E0B704710B50446D0
:102B30004FF06630D4E900231E49FFF755F841EC09
:102B4000100B84ED000B94F89A0018B10020C4E932
:102B50001E0008E051EC100B174A184B84ED1E0BB9
:102B600000F0CCF824D29FED170B002084ED000B71
:102B700084F89A0084ED020B84ED040B84ED060BBF
:102B800084ED080B84ED0A0B84ED0C0B84ED0E0B29
:102B900084ED100B84ED120B84ED140B84ED160BF9
:102BA00084ED1E0B00F07FF9FFF70CF9C4E91C015E
:102BB00010BD00006666E63FFCA9F1D24D62503FB1
:102BC0000000F03F0000000000000000002200F0C4
:102BD0008BB9000070B44FF0004591EA030F7EF509
:102BE00011AF6B40841A71EB030603D2001BB14195
:102BF000121973414FF4001C1CEB410F34BF7CEBE6
:102C0000430442E00C0DA4EB1356352E4FDC45EA8D
:102C1000C323DB0A45EAC121C912B6F120050DDD47
:102C200063FA05F6EB4086EA0305124218BF45F049
:102C30000105C01851F100010CD213E062FA06F54B
:102C4000F2405540F3415A40B340F3405A40801897
:102C5000594107D349085FEA30005FEA350528BFCC
:102C600045F0010501F58011420875F1004250F16F
:102C7000000041EB04514E0016F5001F70BC38BF38
:102C800070470020090D090570471CEB410F10D259
:102C900052EA43060BD0BCEB410F05D80C0DAB43F9
:102CA000661E342EB6DD02E0AB438018594170BC7D
:102CB000704770BC70470000C11768B14840401AA7
:102CC000B0FA80F29040D21CC907C2F5846241EA92
:102CD000025202EBD02140057047000090420CD117
:102CE00041EA030C50EA4C0C07D0994205D14FF44D
:102CF000001C1CEB410F38BF894270474FF4001C89
:102D00001CEB410F94BF1CEB430F09E041EA030C9D
:102D100050EA4C0C52EA0C0C03D2994208BF904284
:102D2000704714BF8B428242704700004FF4001C72
:102D30001CEB410F94BF1CEB430F09E041EA030C6D
:102D400050EA4C0C52EA0C0C03D28B4208BF824270
:102D5000704714BF994290427047000041EC100B3D
:102D600001BD80B553EC112B51EC100B00F064FC4D
:102D7000F4E7000010B53D4C617AB1B1012802D0F2
:102D8000102813D010BD3A48016801F0010181F00C
:102D90000101A172E07A08B1A07A30B13549086822
:102DA00018B128210A681368D86010BD304801683E
:102DB000090901F00101E172E07A00281FBF207CBF
:102DC000002860690028E5D08047E3E780B500F07F
:102DD0001AF8062000F082FEBDE802400A2000F04A
:102DE0007DBE80B500F008F8062000F082FEBDE848
:102DF00002400A2000F07DBE002000220168CB685E
:102E000023F0040305E0002001220168CB6843F0B1
:102E10000403CB600421006801F051B81548006834
:102E200018B128210A681368D860704710B50020CF
:102E30000C460168CA6842F48062CA604BB10168FE
:102E4000CB6843F00403CB6001220068042101F049
:102E500036F808490C6010BD002001F099B8012037
:102E6000704702490020487370470000288A0020FC
:102E700010040048408A00201CB5049C009401F016
:102E8000A2FA13BD78B585B06B4600240025002654
:102E900070C330C300910192694601F025FC06B071
:102EA00070BD01F0E5BC01F0FDBC01F001BD02F018
:102EB00047B8000000B500BF13009646944610398D
:102EC00028BFA0E80C50FAD85FEA417C28BF0CC0AC
:102ED00048BF40F8042BC90728BF20F8022B48BF81
:102EE00000F8012B00BD0000401810F0030308D0CB
:102EF000C91A1FD3DB0748BF00F8012D28BF20F8EF
:102F0000022D130030B414461546103928BF20E9AD
:102F10003C00FAD8490728BF20E90C0048BF40F818
:102F2000042D890028BF20F8022D48BF00F8012D8C
:102F300030BC7047C91818BF00F8012DCB0728BF57
:102F400000F8012D704700002DE9F84C2DED0A8B9B
:102F500082B041EC190B149C43EC182B0CB10020EF
:102F6000206051EC180B21F000474FF0000A20F0D0
:102F70000006574508BF564514D053EC192B0020C6
:102F8000DFF82016FFF7AAFE0CD0DFF81416FFF7C3
:102F9000A5FE0FD151EC180B48004015401C09D17B
:102FA000090307D102B00020BDEC0A8BDFF8F4154D
:102FB000BDE8F48C51EC190B48004015401C0ED0B4
:102FC00051EC190B21F00041514508BF504506D086
:102FD00051EC180B48004015401C40F0F58051ECB6
:102FE000190B48004015401C05D1090318BF51ECCE
:102FF000190B40F0D08251EC180B48004015401CD2
:1030000005D1090318BF51EC180B40F0C48251ECF4
:10301000180B480001244015401C61D051EC180BDE
:103020004B0043EAD0734200534508BF524504D1D8
:10303000B0EE48AAF0EE68AA19E040F23345A5EBDD
:103040005352352A04DB00F0000001F000410CE08F
:10305000202A03DD203AD140914000E001D1002038
:1030600003E0002AC4BFD040904041EC1A0B53EC5F
:10307000182B51EC1A0BFFF731FE18BF00244B0040
:1030800043EAD0734200534508BF524504D1B0EE25
:103090004A0AF0EE6A0A19E040F23445A5EB5352B1
:1030A000352A04DB00F0000001F000410CE0202A8A
:1030B00003DD203AD140914000E001D1002003E03F
:1030C000002AC4BFD040904041EC100B44B153ECF7
:1030D0001A2B51EC100BFFF701FE0CBF002401244A
:1030E00051EC190B48004015401C0ED109030CD1BE
:1030F00051EC190BC80F25D153EC182BDA0F0CBF6C
:103100009FED8D0B9FED8E0B43E251EC180B4800A9
:103110004015401C28D1090326D153EC192B23F06C
:103120000041B1F5801F22F000002ED2514508BFAA
:103130005045CDF800A02DD06A4651EC190B01F096
:10314000B5FF27E051EC180BC80F06D1002C0CBFBF
:103150009FED790B9FED7C0B1BE2002C0CBF9FEDCC
:10316000780B9FED7B0B14E2002C1ABF51EC190B6E
:10317000C80F002053EC182BDA0F1ED100280CBF0B
:103180009FED6F0B9FED720B03E2DFF81C4404EB25
:103190001150009051EC180BC80F009806D1002870
:1031A000CCBF9FED650B9FED660BF2E10028CCBF15
:1031B0009FED630B9FED600BEBE100280CBF9FEDD3
:1031C0005E0B9FED610BE4E151EC180B4B0043EA01
:1031D000D07342000027BB4208BF524504D1B0EE75
:1031E00048AAF0EE68AA19E040F23345A5EB535225
:1031F000352A04DB00F0000001F000410CE0202A39
:1032000003DD203AD140914000E001D1002003E0ED
:10321000002AC4BFD040904041EC1A0B51EC190B6E
:10322000C80F11D053EC182B51EC1A0BFFF756FDB9
:103230000AD0AFF3008002B04FF0FF30BDEC0A8B34
:103240006FF00041BDE8F48C53EC192B23F00041E2
:10325000B1F5801F22F000000BD2B94208BF5045E3
:10326000CDF800A011D06A4651EC190B01F01EFFF9
:1032700009E0CD4E06EB11500090DFF89813CB48D3
:1032800003401046194341EC190B51EC190BC80FC0
:1032900008BF002638D021F0004053EC192B03461C
:1032A00043EC192B51EC1A0B4B0043EAD07342004C
:1032B0000026BB4208BFB24204D1B0EE4A0AF0EE8B
:1032C0006A0A19E040F23445A5EB5352352A04DB73
:1032D00000F0000001F000410CE0202A03DD203A5C
:1032E000D140914000E001D1002003E0002AC4BF9A
:1032F000D040904041EC100B53EC1A2B51EC100BCA
:10330000FFF7ECFC18BF01260098012824D151ECEE
:10331000190BA74AA74BFFF7F1FC1DD253EC192B51
:1033200000204FF08041FEF75FFC00259FEDBEBB03
:1033300041EC190B2EE000BF000000000000F07F00
:103340000000000000000000000000000000F0FF8E
:10335000000000000000008053EC192B002096496B
:10336000FEF742FC9FED95AB53EC1A2BFEF742FBA8
:10337000FEF75AFEA0F120052846FFF79DFC00222B
:10338000904BFEF731FC53EC1A2BFEF733FB41EC6C
:103390001B0B6D0151EC190B53EC1B2BFFF71AFCA7
:1033A00041EC1A0B53EC192B51EC1B0BFEF722FBD3
:1033B00002460B4651EC1A0BFEF712FD41EC190BBD
:1033C00053EC192BFEF710FC41EC1C0B53EC1C2B9F
:1033D0007D487E49FEF708FC7D4A7E4BFEF70AFBDE
:1033E00053EC1C2BFEF700FC7B4A7C4BFEF702FBE8
:1033F00053EC1C2BFEF7F8FB794A7A4BFEF7FAFAEE
:1034000053EC1C2BFEF7F0FB774A784BFEF7F2FAF1
:1034100053EC1C2BFEF7E8FB754A764BFEF7EAFAF5
:1034200053EC1C2BFEF7E0FB734A744BFEF7E2FAF9
:1034300053EC1C2BFEF7D8FB53EC1A2BFFF7CAFBFF
:1034400082468B460020574953EC1B2BFFF7C2FBEB
:1034500000224FF08043FEF7C7FB52465B46FEF763
:10346000C9FA53EC192BFEF7BFFB53EC1A2BFEF7EE
:10347000C1FA41EC190B009875A72F44FFF71CFC0B
:10348000D7E90023FEF7B6FA41EC1A0B53EC192BDF
:103490005B485C49FEF7A8FB53EC1A2BFEF7AAFA2F
:1034A00053EC182BFEF7A0FB0022574BFFF726FC2E
:1034B00041EC1B0B6AD30122544BFFF737FC5BD95D
:1034C000C80F53EC1B2B1ABF002051495149FEF77E
:1034D00091FAFEF7A9FD054653EC192B51EC180B98
:1034E000FEF782FB82468B46D7E90201D7E9042327
:1034F000FEF780FA53EC182BFEF776FB9FED46BBE8
:1035000053EC1B2BFEF770FB52465B46FEF772FA3C
:10351000CDE9000153EC1A2B51EC180BFEF764FBBC
:1035200007468B462846FFF7C7FB02460B46384640
:103530005946FFF74FFB53EC1B2BFEF755FBDDE91C
:103540000023FEF757FA0CB12560002500950022F4
:10355000144B002401F0E2FD21F0004320F00002B2
:10356000A34208BFA24241EC100B0FD04800401507
:10357000401C03D1090301D19FED290B4EB151EC41
:10358000100B81F0004141EC100B02E09FED280B85
:10359000F4E751EC100B02B0BDEC0A8BBDE8F48CE3
:1035A0000000F0BF0000F03F02FCFFFFFFFF0F80B4
:1035B000CD3B7F669EA0E63F00005040000000002B
:1035C0000000E03F0000903FF7DE29BFD8F8C23F7F
:1035D000F4B3FECC1A99C33F62CB68D96F46C73F9C
:1035E000C6C912DAC471CC3F4AE98A942449D23F51
:1035F000F75F97999999D93FBC5555555555E53F72
:10360000FE822B654715F73F0000E0C00000E04058
:103610000000E0BF0000E03FEF39FAFE422EE63F37
:10362000000000000000F07F000000000000F03FFC
:10363000000000000000000080B541EC100B0020ED
:10364000009051EC100BFFF77FFC04BD0000000060
:10365000000000000000F0BF00000000000000803B
:1036600000000000000000800000000000000000DA
:10367000000000C05294EEBF00000048204E51BE32
:10368000000000F86467BCBC0000000000000000FF
:10369000000000208133EDBF00000080B3DB14BECA
:1036A000000000506706A3BC0000000000000000FE
:1036B000000000D0E9DCEBBF00000008C39259BE57
:1036C00000000080B0D3B8BC000000000000000083
:1036D00000000070F98FEABF000000C0A51028BEEE
:1036E000000000E8BFC0B0BC000000000000000007
:1036F00000000070284CE9BF00000060134B42BE80
:10370000000000C03D20B8BC000000000000000028
:1037100000000050FA10E8BF000000C05FF62BBEAA
:10372000000000905C71A7BC0000000000000000D9
:1037300000000020FCDDE6BF000000C0F8F154BE30
:1037400000000018E9F6B9BC00000000000000000D
:10375000000000D0C3B2E5BF00000070E43254BEE8
:1037600000000050DB06B4BC0000000000000000B8
:1037700000000010EF8EE4BF00000020F36252BE94
:10378000000000C02A879ABC000000000000000072
:10379000000000B02272E3BF000000F0E8E056BE77
:1037A00000000028352DBDBC000000000000000016
:1037B000000000000A5CE2BF000000B0FA8E41BECB
:1037C00000000040AE6FBDBC000000000000000023
:1037D00000000000564CE1BF000000F015CD5FBEB8
:1037E00000000000141C90BC00000000000000005D
:1037F00000000040BD42E0BF00000030F93457BE79
:10380000000000E06C1E93BC0000000000000000FF
:10381000000000E0F57DDEBF000000B08A535EBE10
:1038200000000080DA77AABC000000000000000061
:10383000000000C09D81DCBF00000000FFA226BE8A
:103840000000006057E2B0BC000000000000000073
:1038500000000060F98FDABF000000580A8151BEF5
:10386000000000F05F60B8BC000000000000000035
:103870000000000098A8D8BF000000607A7F45BE15
:10388000000000D05433A3BC000000000000000082
:10389000000000600FCBD6BF000000D091CB40BE2F
:1038A000000000406D1BA0BC0000000000000000F4
:1038B000000000A0FBF6D4BF00000098C5CE52BEA9
:1038C000000000003A397EBC00000000000000004B
:1038D000000000E0FE2BD3BF0000004073872BBE2A
:1038E00000000000926879BC0000000000000000A9
:1038F00000000040C069D1BF00000058F16353BE12
:1039000000000080438D7CBC00000000000000002F
:1039100000000080D85FCFBF000000181F8354BE96
:10392000000000B03F42A2BC000000000000000008
:103930000000008067FCCBBF00000060FAFF53BEB0
:1039400000000050E00DB8BC0000000000000000C6
:103950000000000098A8C8BF000000607A7F35BE54
:10396000000000C0543393BC0000000000000000C1
:1039700000000000DC63C5BF00000058D6FF54BE45
:1039800000000000396490BC00000000000000004E
:10399000000000C0AD2DC2BF00000080A45915BEBC
:1039A000000000E0484BABBC00000000000000003D
:1039B000000000801A0BBEBF00000050BF3C5ABE82
:1039C000000000A0B364B6BC0000000000000000CE
:1039D0000000008004D6B7BF00000040BBCF36BE59
:1039E0000000008076CEA8BC0000000000000000AF
:1039F0000000008032BBB1BF000000402A0043BE7F
:103A000000000028C60CBDBC000000000000000043
:103A1000000000009473A7BF000000182B3B59BEA4
:103A2000000000C0E55DA5BC000000000000000033
:103A300000000000EE4397BF000000A0E6C340BEB8
:103A400000000020958DB5BC0000000000000000C3
:103A50000000000000000080000000000000008066
:103A600000000000000000800000000000000000D6
:103A7000304B19684FF6FF020002114000F4E0607D
:103A800008432D4908431860704730B4294B1C681F
:103A9000C4F30223C3F10704052C28BF04241D1D11
:103AA000072D34BF0023DB1E012505FA04F4641E34
:103AB0002140994005FA03F35B1E1A4011430901A6
:103AC000020003D41D48815430BC70471C4B02F0E7
:103AD0000F021A4402F8041C30BC7047010007D4DE
:103AE000012200F01F01174B8A40400943F82020B3
:103AF000704701000BD4012200F01F01124B8A40D5
:103B0000400943F82020BFF34F8FBFF36F8F7047FA
:103B1000401EB0F1807F01D3012070470B490C4A51
:103B200048600023F02010708B60072008600020A0
:103B3000704700000CED00E00000FA0500E400E032
:103B400018ED00E000E100E080E100E010E000E0BE
:103B500023ED00E038B5040001D1012032BD04F1AD
:103B60003C05687820B900212970204601F028FD25
:103B7000FFE702206870211D206800F0C9F80120CD
:103B80006870002032BD38B5040001D1012032BD7B
:103B900004F13C05687820B900212970204601F025
:103BA000B9FDFFF7E6BFF8B5064606F13C040D4641
:103BB0002078012801D10220F2BD012020700221CD
:103BC000617082B9EB686A682968306800F02EF984
:103BD0003068816921F00C01816131688A69A868C7
:103BE00002438A6166E0042A11D1EB686A68296899
:103BF000306800F049F93068816921F440618161E1
:103C000030688169AA6841EA0221816152E0082A8C
:103C1000E9686A682B6827D13768386A20F48070B1
:103C20003862090107F11C0001F0F001D0F800C072
:103C3000D7F820E04FEA9C0C42EA8C0222F0F00216
:103C4000114301601B022EF4206003F42063034340
:103C50003B623068C16921F00C01C1613168CA69F9
:103C6000A8680243CA6125E030681C300903476830
:103C700027F48057476001F470410768D0F804C00A
:103C800027F4407747EA022727F470473943016059
:103C90001B032CF4204103F420430B4343603068A2
:103CA000C16921F44061C1613068C169AA6841EA13
:103CB0000221C16101206070002121700020F2BD4D
:103CC00038B5054605F13C042078012801D10220D1
:103CD00032BD0120207002226270284600F04BF8AD
:103CE00000B104E02868C16821F0400104E001202F
:103CF00060700021217032BDC1602868C16821F464
:103D00008041C1600120607000212170002032BD1F
:103D100030B4DFF868410368A04218BFB0F1804FAB
:103D200001BF23F070034A681343A04209D0B0F1E9
:103D3000804F1FBFDFF848219042DFF84851A8426A
:103D400003D1CA6823F4407313434A6923F0800304
:103D500013430360A0428B68C3620A6882621FBF7C
:103D6000474B9842474A904201D1096901630122B9
:103D7000426130BC704730B404683F4AA5684B6864
:103D8000086825F070051D4315400543A5604A6885
:103D9000402A11D0502A22D0602A32D0702A42D133
:103DA00008698A68C968A36823F47F4319430A43F2
:103DB00042EA0022A26036E00868052808BF012018
:103DC00032D0206A226A520852002262A26909692E
:103DD00022F0F00242EA0112A261206223E00869A7
:103DE0008968226A236A5B085B00236222F00A0268
:103DF000A36923F0F00343EA0013A3611143216296
:103E000011E008698968226A22F010022262A26920
:103E1000236A22F4704242EA003223F0A003A26136
:103E200043EA01132362002030BC704770B4046A77
:103E3000124E640864000462B0428469056A1EBFC1
:103E4000B0F1804F0E4EB04203D1A40842EA840282
:103E500001E044F001021B0122F0F00203F0F00344
:103E60001A4325F00A0501F00A0182612943016223
:103E700070BC704700000000F8FFFEFF002C0140FE
:103E8000004001400044014030B4046A24F01004B2
:103E900004621B038469056A24F4407444EA022422
:103EA00024F4704403F470430901234325F0A00572
:103EB00001F0A00183612943016230BC704701F029
:103EC0001F01036A4FF0010C0CFA01FC23EA0C03FA
:103ED000036202FA01F1036A1943016270470000AC
:103EE00070B5040014D004F14805697821B90020A8
:103EF0002870204601F0ADFB02216970206802683D
:103F0000520852000260204600F08EF9012801D1CB
:103F1000012070BD2068416821F480414160206823
:103F2000816821F02A0181602068016841F0010167
:103F300001600020686000F0B5FC0646206801685A
:103F40000A0718D52068C169880214D400F0AAFCB9
:103F5000801B40F2E9318842F4D306E000F0A2FC75
:103F6000801B40F2E931884209D3012068700021AA
:103F70002970032070BD206801684A0703D52068B6
:103F8000C1694802EAD5012169700020287070BD1E
:103F900070B5044604F1480513466878012837D106
:103FA00009B1180001D1012070BD287801282FD057
:103FB00001222A70616223856385002068601222D5
:103FC0006A70206C88B10FF2E512C2620FF2112004
:103FD000226C1063266C0FF211207063206800F1D0
:103FE0002802206C01F00BFC50B9216840200862C7
:103FF00000222A702068816841F08001816005E01C
:10400000102068600021297001226A70104670BD7E
:10401000022070BD70B504462568E9692A68AB685E
:1040200011F00F000BD1880679D5930677D5A16BD7
:10403000002900F0AB802046BDE870400847D80753
:1040400002D412F4907F6AD0C80707D5D60505D5EB
:1040500001202862E56C45F00105E564880708D574
:10406000DD0706D5266802203062E06C40F00400CF
:10407000E064480708D5DD0706D5266804203062CD
:10408000E06C40F00200E06408070AD5950601D410
:10409000D80706D5256808232B62E06C40F008009D
:1040A000E064E06C002871D0880605D5910603D540
:1040B000A16B09B120468847E06C21688A685106E7
:1040C00001D4000725D5204600F061F820688168FA
:1040D0004A0619D5816821F040018160206C20B129
:1040E00000218163206C01F0D2FB606C60B10FF2A3
:1040F0002D118163606C01F0CAFB002846D0606C12
:10410000816BBDE8704008472046BDE8704001F073
:1041100044BC204601F041FC0020E06470BD08066C
:1041200007D5130605D5E16B81B32046BDE8704085
:10413000084748062AD5510628D5286820F04000AF
:104140002860206881684908490081600020E06398
:1041500094F8491012290FD12168082008622068BC
:10416000018B41F008010183012084F849002046B9
:10417000BDE8704001F012BC608E38B9012184F8AE
:1041800049102046BDE8704001F009BC70BD0168CF
:104190000A6822F4F0720A6001688A6852085200C4
:1041A0008A60012180F8491070470000816A006828
:1041B000026893060CD40020488591F84920122A01
:1041C0000DD10868826822F08002826008689FE052
:1041D00091F84900122804BF084601F0DFBB704780
:1041E000806A01F0DDBB0000806A002141864185C4
:1041F00001680B6823F4F0730B6001688A68520849
:1042000052008A60012180F84910C26C42F010020D
:10421000C26480F8491001F0C0BB0000806A002130
:104220004186418501F0B9BB70B504463349236826
:104230001E68A0680E402169064360690E4306436C
:1042400046F400461E6000255E68216AA06926F4D7
:104250007C560E43E1690643E0680E4300220643A4
:10426000274946F400668B425E600CD125480368FE
:1042700003F00303032B2DD8DFE803F0021C1725FE
:1042800000F0AEFE18E02048834223D11D490B68A0
:1042900013F00C0306D0042B0CD0082B05D00C2BEC
:1042A00011D017E000F094FE06E06068174901EBBA
:1042B00050010CE000F044FE61684A0802EB400245
:1042C000B2FBF1F207E06068410801F58031B1FB13
:1042D000F0F200E001254FF6F071A2F110008842E3
:1042E00006D21140C2F3420001432068C16000E0E1
:1042F00001250020A063E063284670BDF369FFEF4D
:104300000038014088100240004400400048E801A5
:10431000016841F0400101607047000038B50400B9
:1043200001D1012032BD04F14005687820B9002197
:104330002970204601F013F9242068702068016874
:104340004908490001606068216820F070600861D8
:104350002068816821F400418160E06821680128BB
:10436000A0680CBF40F4004040F404408860E0685E
:10437000022803D120684FF4006141602068416841
:1043800041F0007141F4004141602068C16821F4AE
:104390000041C16060692169A2690143206841EA66
:1043A0000221C160206AE16922680143116020682E
:1043B000016841F0010101600020686020216970FE
:1043C0002063A87032BD2DE9F843054605F140078A
:1043D0008846787820281446994672D13978012980
:1043E0006FD00120387000F05DFA06460096192360
:1043F00001224FF40041284600F0AEF8002868D1B1
:10440000212078701021B970002078606C62A5F8C6
:104410002A906863089C698DDFF81001B1F5807FF0
:1044200005D3FF222A8500904FF0807305E06A8D46
:104430002A8500904FF00073D2B24146284600F022
:104440003CF908E0FF232B8543681A401143DFF84D
:10445000E02011434160688D002833D03246214668
:10446000284600F0A7F8002833D1686A2A68017846
:104470009162686A411C6962688D411E6985288D58
:10448000411E2985688D0028E5D089B20029E2D136
:10449000286881690A061DD414F1010FF8D000F0D4
:1044A00001FA801B844201D3002CF1D1786840F0DE
:1044B00020007860202179700020B870387008E002
:1044C00023E01CE021463246284600F09AF80028F6
:1044D000F6D017E06B8DDFF85C20B3F5807FC8F372
:1044E0000901AFD26B8D2B85DBB2D0F804C002EA94
:1044F0000C02114341EA034141F00071AAE7022096
:10450000BDE8F2830120BDE8F28329682020C8615C
:104510002968DFF824004A6802404A602021797047
:104520000020B8703870BDE8F283000000200080E1
:104530000000FF01009C00FC00E800FE00688169AB
:104540008A0744BF002181628169CA0703D4816957
:1045500041F00101816170472DE9F041069F054658
:104560000E4690461C46286881693140B1420CBF16
:1045700001200020404517D114F1010FF3D000F0C5
:1045800091F9C01B844201D3002CECD105F140000D
:104590002022416841F02001416042700021817079
:1045A00001700120BDE8F08101E0104308600020A7
:1045B000BDE8F08170B505460C461646286881694D
:1045C00088071CD432462146284600F03EF8A0B9A0
:1045D00014F1010FF2D000F065F9801B844201D381
:1045E000002CEBD105F140002022416841F0200170
:1045F00041604270002181700170012070BD002077
:1046000070BD70B505460C46164628688169880657
:1046100019D432462146284600F017F888B900F030
:1046200041F9801B844201D3002CEED105F14000FA
:104630002022416841F020014160427000218170D8
:104640000170012070BD002070BD70B505460C469C
:1046500028688169C80616461AD5286881698A06BD
:1046600018D414F1010FF8D000F01CF9801B84421B
:1046700001D3002CF1D105F14000416841F0200147
:10468000416020224270002181700170012070BDC4
:10469000002070BD1021C16120202A68D061284609
:1046A000FFF74CFF29680E484A68024005F14000B8
:1046B0004A60416841F00401E2E770B40068039C7D
:1046C0004568084E46EA5456B543C1F309012943EB
:1046D00041EA024119432143416070BC7047000028
:1046E00000E800FEFF63FF032DE9F84F0024674A4E
:1046F000674BDFF8A081DFF8A0914FF00F0A074663
:104700008E4637E0654EB74214BF07260226AE40FC
:1047100046EA0C0648F82160C143156801EA050C19
:10472000DEF80450EE0348BF40EA0C0CC2F800C0AB
:10473000556801EA050CDEF80450AE0348BF40EAB4
:104740000C0CC2F804C0956801EA050CDEF80450B0
:10475000EE0248BF40EA0C0CC2F808C0D56801EA76
:10476000050CDEF804108D0248BF40EA0C0CC2F8BC
:104770000CC0641CDEF8001031FA04F076D0012081
:1047800000FA04FC1CEA0100F3D0DEF80410022950
:1047900018BF122910D1E10807EB8101A5000E6AAC
:1047A00005F01C050AFA05FB26EA0B06DEF810B038
:1047B0000BFA05F535430D62610003253E689EF84E
:1047C00004B08D40ED430BF0030B2E400BFA01FBC0
:1047D0004BEA06063E60DEF80460012E18BF022E8A
:1047E00003D0112E18BF122E13D1BE68DEF80CB004
:1047F0002E400BFA01FB4BEA0606BE607E6826EAF5
:104800000C0CDEF80460C6F30016A64046EA0C065F
:104810007E60FE683540DEF8086006FA01F1294343
:10482000F960DEF80410C900A3D5D9F8001041F0F2
:104830000101C9F80010D9F8005005F001050095F4
:10484000A5000099A10858F8216005F00C050AFAA6
:1048500005FC26EA0C0CB7F1904F08BF00263FF488
:1048600056AF9F427FF44EAF012650E7BDE8F18F6F
:104870000AB18161704781627047094A1368034237
:104880001CBF1060FEF776BA7047000000040140BC
:104890000004004808000140601002400008004881
:1048A0001404014001480068704700BF041600204E
:1048B00038B50446FFF7F6FF14F1010F054602D0A4
:1048C000044988680419FFF7EDFF401BA042FAD3A2
:1048D00031BD00BF041600202DE9FC47050000F0A3
:1048E000A481DFF88877DFF89847B86800F00C09F2
:1048F000F86800F003082878C10640F1AA81B9F1F0
:10490000000F05D0B9F10C0F08BFB8F1010F57D156
:104910003868810703D5A869002800F086813968C6
:1049200008074EBF396861680909286A01F0F0017B
:10493000814216D200F060FB002840F07681386892
:1049400040F0080038603968286A21F0F00101431E
:1049500039607968E86921F47F4141EA0021796092
:1049600016E0386840F0080038603968286A21F09D
:10497000F001014339607968E86921F47F4141EA37
:1049800000217960286A00F037FB002840F04D8153
:1049900000F0D6FABA68DFF8EC16C2F30312895CAD
:1049A000DFF8CC2601F01F01C8401060DFF8C80610
:1049B000006800F0F7FF010000F04B81BDE8F687CA
:1049C000A869C8B1396841F001013960FFF76AFF91
:1049D00006463868810700F12B81FFF763FF801BD3
:1049E0000328F6D30320BDE8F687FFF75BFF801BA3
:1049F0000328C0F06981F5E7386840084000386056
:104A0000FFF750FF06463868810740F12281FFF723
:104A100049FF801B0328F6D3E4E76868B0F5803FC0
:104A200004D1386840F48030386011E0B0F5A02F30
:104A3000386806D140F480203860396841F480310C
:104A400005E020F480303860396821F48021396035
:104A5000686860B1FFF726FF06463868810300F1F9
:104A60000B81FFF71FFF801B6528F6D3BAE7FFF71E
:104A700019FF06463868810340F1FE80FFF712FFF8
:104A8000801B6528F6D3ADE7E86880B1396841F44A
:104A900080713960FFF706FF06463868410500F16E
:104AA000FE80FFF7FFFE801B0328F6D39AE73868E5
:104AB00020F480703860FFF7F5FE0646386841053F
:104AC00040F1F480FFF7EEFE801B0328F6D389E760
:104AD000400840006060FFF7E5FE06466068810719
:104AE00040F1F680FFF7DEFE801B0328F6D379E75E
:104AF0000528206806D140F004002060216841F0BC
:104B0000010105E0400840002060216821F0040117
:104B10002160A86878B1FFF7C5FE824641F2893866
:104B20002068810700F10881FFF7BCFEA0EB0A00B6
:104B30004045F5D356E7FFF7B5FE824641F2893886
:104B40002068810740F1F880FFF7ACFEA0EB0A0077
:104B50004045F5D346E7FFF7A5FE801B0328C0F0CC
:104B6000FE803FE740084000A060FFF79BFE06463E
:104B7000A068810740F1F780FFF794FE801B0328AF
:104B8000F6D32FE7FFF78EFE801B0328C0F0FB80D3
:104B900028E7FFF787FE801B0328C0F01E8121E76E
:104BA0003968080103D4F96889088900F960F9684F
:104BB000DFF8D4040140F960FFF774FE0646386858
:104BC000810140F10E81FFF76DFE801B0328F6D3B3
:104BD00008E7012829D0F868EA6A00F00301914249
:104BE00001BF00F070012A6B521EB1EB021F1CD1F5
:104BF0006A6B00F4FE41B1EB022F02BF00F0784176
:104C0000AA6BB1EBC26F10D1EA6B520800F4C0017D
:104C1000521EB1EB425F08D1296C490800F0C06018
:104C2000491EB0EB416F00F0DC800120BDE8F68743
:104C3000386840F0080038603968286A21F0F001CF
:104C4000014339607968E86921F47F4141EA002134
:104C500079602878C1070FD5B9F1080F06D0B9F1EE
:104C60000C0F08BFB8F1030F7FF4D7AE386881038B
:104C700002D568680028D8D02978880716D5B9F1F8
:104C8000040F06D0B9F10C0F08BFB8F1020F7FF482
:104C9000FBAE3868410502D5E8680028C5D07868C1
:104CA000296920F0F85040EA01607860287801070F
:104CB0000ED56869002860683FF40AAF40F0010033
:104CC0006060FFF7EFFD0646606881077FF58DAEF7
:104CD0002878410735D5B86D0026C10009D4B86DD4
:104CE00040F08050B8650126B86D00F0805000900B
:104CF0000098DFF89883D8F80000C10513D4D8F8DD
:104D0000000040F48070C8F80000FFF7CBFD824639
:104D1000D8F80000C10506D4FFF7C4FDA0EB0A00D7
:104D20000328F5D35EE6A86801287FF4E1AE206889
:104D300040F001002060ECE61EB1B86D20F080501C
:104D4000B865287881060ED5686A0028A0683FF407
:104D500009AF40F00100A060FFF7A4FD0646A0687F
:104D600081077FF5F8AEA86AD8B3B9F10C0F3FF40C
:104D700030AF0228386820F0807038607FF410AFC0
:104D8000FFF790FD0646386881013FF5FBAEFA68F3
:104D9000DFF8FC12E86A0A40296B0243491E686B7F
:104DA00042EA0112E96B490842EA0022286C491ED6
:104DB000400842EA4152401E42EA4062A86B42EA81
:104DC000C062FA60396841F080713960F86840F07B
:104DD0008070F860FFF766FD0646386881017FF550
:104DE000D8AE0020BDE8F6872DE9F84304008846D8
:104DF00000F07F80DFF89C62306800F007004045DB
:104E000009D23168C90848EAC1013160306800F050
:104E1000070040456DD12078DFF85052C10750D5CA
:104E20006068032802D129688A0108E0022802D1BB
:104E300029688A0303E00028296802D18A0702D47E
:104E400057E04A0555D5A968890840EA8100A8605D
:104E500041F28939FFF726FD0746A868616800F02E
:104E60000C00B0EB810F2CD0FFF71CFDC01B484598
:104E7000F3D30320BDE8F2832078410705D5AA6863
:104E8000E06822F4E0620243AA602178080706D5B0
:104E9000A968206921F4605141EAC001A96000F0CD
:104EA0004FF8AA687749C2F30312895C704A01F08F
:104EB0001F01C8401060BDE8F2436F48006800F071
:104EC00071BD2078810705D5AA68A06822F0F0029C
:104ED0000243AA60316801F007018845CCD23068EE
:104EE000C00848EAC0003060316801F00701414560
:104EF000C2D00120BDE8F28370B5674E86B0706CF9
:104F000040F0010070641546706C00F001000090E4
:104F100002220C460098029204924FF48071019193
:104F200000220392059201A94FF09040FFF7DCFBAD
:104F3000316821F0FE410C432C43346006B070BD53
:104F400010B44A4A9068D4680023002110F00C0085
:104F500004F0030403D00C2812D1012C1AD11368D9
:104F60001C0704D4454B1C68C4F3032302E01368F8
:104F7000C3F30313494C54F8233048B9194624E0CD
:104F8000042808BF464920D008281ED139491CE012
:104F90000C281AD1D06800F00300022803D003289F
:104FA00008BF344B00E03E4BD168D068D268C0F3F4
:104FB00006204343C1F30210C2F34161401C491C67
:104FC000B3FBF0F04900B0FBF1F110BC08467047AC
:104FD0002748314A006813683249C3F3022206E0C9
:104FE00023482D4A006813682E49C3F3C222895C06
:104FF00001F01F01C84070477CB52B4E0546306854
:105000000024C10002D500F0EFFC0EE0306840F053
:1050100080503060316801F080510091009800F0BC
:10502000E3FC316821F080513160B0F5007F04D19C
:10503000802D0CD9A12D09D304E0802D88BF032435
:1050400005D801D1022402E0702D00D101241148BD
:105050000168C90844EAC1010160006800F0070066
:10506000A04201D0012076BD002076BD0010024094
:1050700010160020006CDC0208160020941002407C
:1050800090100240D86C0008FFFFEEFE0070004058
:105090008C809D010020024008100240E86C00084E
:1050A0000024F400586E00085810024010B5144651
:1050B00000F002F8226010BDC1F30A5343B14A0068
:1050C00012F5001F28D2A3F2FE32A1EB0251704765
:1050D00050EA410C20D001F0004C31EA0C01B1FA49
:1050E00081F204BFB0FA80F3D2180B3AB2F1200378
:1050F0002CBF00FA03F1914041EA0C013EBFC2F11E
:10510000200C20FA0CF319439040524240F2FD3338
:10511000D21A01EB0351704700227047F8B52DED0C
:105120000A8B41EC1A0B48004015109D401C43ECC3
:10513000182B25D051EC1A0B21F00041002291428E
:1051400008BF90421CD051EC180B48004015401C81
:1051500016D051EC180B21F00041914208BF90424B
:105160000ED051EC1A0BDFF86033FDF7C7FD80F06D
:10517000AA8055EC184B9FED840B05F00042B3E07C
:1051800051EC1A0B48004015401C02D1090340F0B5
:10519000958151EC180B48004015401C01D10903C2
:1051A0005AD151EC180B21F00043002620F00002E8
:1051B000B34208BFB24208D151EC1A0B4800401567
:1051C000401C49D1090347D10DE048004015401C5F
:1051D00012D1090310D151EC1A0B48004015401CA4
:1051E0003AD1090338D1AFF30080BDEC0A8B4FF000
:1051F000FF306FF00041F4BD51EC1A0B21F000417B
:10520000B14208BFB0422AD151EC180B4800400D02
:1052100005EB000236D151EC180B21F00041B142F0
:1052200008BFB04206D02A4651EC180B00F020FC13
:1052300041EC180B51EC180B21F0004320F0000258
:10524000B34208BFB24205D048004015401C03D10C
:10525000090301D1AFF3008051EC180B30E151ECA0
:105260001A0B48004015401C26D1090324D153ECE9
:105270001A2B51EC180BBDEC0A8B01B0BDE8F040C5
:10528000FCF7B2BC002AC6DD40F2FF70824209DBA7
:105290009FEDA10B53EC102B01F000410B4343ECAD
:1052A000182BC7E76FF31E5141EA025155EC184B1A
:1052B0000D4645EC184BBDE755EC184B9FED320BF6
:1052C00005F0004210E00122804BFDF72FFD11D8C0
:1052D0009FED910B51EC100B55EC184BAFF3008088
:1052E00005F0004040EA010251EC100BBDEC0A8BC6
:1052F0001146F4BD53EC1A2B75487649FCF774FC43
:1053000041EC100B53EC102B9FED739B03F000420C
:1053100051EC190B0C46144353EC192B51EC100BA8
:105320002346FCF767FBFCF77FFE0446FDF7C4FC51
:1053300041EC1B0B53EC1B2B4FF078406849FCF7FA
:1053400053FC02460B4651EC1A0BFDF743FC064694
:105350000F4653EC1B2B63486349FCF745FC0246A0
:105360000B4630463946FDF735FC41EC1A0B21F06F
:10537000004100225D4BFDF7C1FC09D2B0EE48AA06
:10538000F0EE68AA56E000BF000000000000000038
:1053900053EC1A2B51EC1A0BFCF726FC41EC1B0BBF
:1053A00053EC1B2B52485349FCF71EFC524A534BFB
:1053B000FCF720FB53EC1B2BFCF716FC41EC1C0B01
:1053C00053EC1B2B4E484F49FCF70EFC4E4A4F4BFB
:1053D000FCF710FB53EC1B2BFCF706FC53EC192BD2
:1053E000FCF708FB53EC1A2BFCF7FEFB41EC190B06
:1053F00053EC1C2BFCF7FEFA9FED45AB53EC1A2B3C
:10540000FCF7F8FA06460F4651EC1C0B53EC192B2F
:10541000FDF7E0FB53EC1A2BFCF7ECFA02460B46C7
:1054200030463946FCF7DCFC53EC182BFCF7DCFB70
:1054300041EC1A0B51EC1A0B2A194800400D02EBF3
:10544000000319D0002B17DD40F2FF70834209DB07
:105450009FED310B53EC102B01F000410B4343EC5B
:105460001A2B18E06FF31E5141EA035155EC1A4B09
:105470000D4645EC1A4B0EE051EC1A0B21F00041A1
:105480000026B14208BFB04205D051EC1A0B00F023
:10549000EFFA41EC1A0B51EC1A0B21F000430024F7
:1054A00020F00002A34208BFA24205D048004015E8
:1054B000401C03D1090301D1AFF3008051EC1A0B5A
:1054C000BDEC0A8BF4BD000000C89CC000C89C4025
:1054D000FE822B654715F73F000000000000E03F0B
:1054E000422EE63FF2E4D5BCE7E84B3E0000903C9C
:1054F000112E5781A03F503F5843128C8F71BC3FF3
:105500004BE8A541B752013F0BBDF3DAE8708C3F81
:10551000000000000000F03F000000000000F07FED
:1055200080B57348816841F001018160816801F0B4
:10553000010100910099026842F080520260006807
:1055400000F08050009000980520FEF791FABDE829
:105550000840012200216FF00400FEF796BA38B52A
:1055600086B001A90022002300241CC10CC10068E0
:10557000604DA84222D1604C206840F001002060BC
:105580001222216801F0010100914FF4C0610098DE
:1055900001910292012103910322042304920593B5
:1055A00001A94FF09040FFF79FF8E06840F4001029
:1055B000E060E06800F400100090009807B030BD93
:1055C00038B586B0044601A80021002200230EC091
:1055D00006C02568B5F1804F39D14748474DC168AD
:1055E00041F00101C160C16801F001010091009921
:1055F000026842F0020202600222006800F002002B
:105600000090082100980292039301910322012344
:105610000492059301A93A48FFF766F804216960EE
:10562000802138482860296120200022E8614FF459
:105630004051AA60EA606A61AA612962284600F0C6
:105640006BF808B100F040FCA562AC62256307B0BE
:1056500030BD70B586B0044601A8002100220023A9
:105660000EC006C02568284EB5423ED12248274DBF
:10567000416941F480414161416901F480410091F7
:105680000099026842F0020202600222006800F003
:1056900002000090E02100980292039301910322FE
:1056A00007230492059301A91548FFF71DF84FF44D
:1056B000803000F051FC4FF4003000F04DFC1448F5
:1056C00028600221696000201022E8608021686162
:1056D000A861E8612862AA602961284600F01CF8E8
:1056E00008B100F0F1FB2564AC6206B070BD0000AB
:1056F00058100240005400404C10024078890020AD
:10570000000400488000024000380140C0890020A9
:105710006C04024070470000F0B400B96CE004680B
:105720002D4DAC4200F124030AD22C492C4F2D4DB3
:10573000DD610A19A2FB0776320992001A6209E0BC
:105740002949274E0A19A2FB06652A099200274912
:105750001A62D96102225A7025688168C2686FF3A3
:105760000E150D430169154342690D4381691543C7
:10577000C2690D43016A15430D4325608268B2F585
:10578000804F21D0DA69174C0F21A24209D1184A63
:10579000156893F8204004F01C04A14025EA01019B
:1057A00008E0144A146893F8205005F01C05A9403D
:1057B00024EA01011160116893F82040406804F068
:1057C0001C04A04001431160002098610121597020
:1057D0001870F0BC7047000008040240F8FFFDBFDD
:1057E000CDCCCCCC00000240F8FBFDBF0004024051
:1057F000A8000240A8040240F0BC01207047F0B4A9
:1058000000F1240500242E78012E08BF02203CD090
:1058100001262E706F78012F34D102266E70AC6194
:10582000066837687F087F003760012695F820708A
:1058300007F01C07BE40EF697E60066873608368EE
:10584000102B04D10668B2600268D16003E00368DF
:1058500099600168CA600268E96821B1136843F081
:105860000E03136008E0116821F004011160016863
:105870000A6842F00A020A600068016841F001010A
:10588000016001E02C7002242046F0BC704738B55E
:1058900000F1240100244A78022A03D00420886100
:1058A000012417E00268136823F00E0313600268F6
:1058B00015686D086D001560012291F82030CD69E2
:1058C00003F01C039A406A6001224A700C70496917
:1058D00001B18847204632BDF0B400F12401042311
:1058E000CA6914680268156891F8206006F01C0601
:1058F00003FA06F73C4214D06F0712D51468A506C8
:1059000003D4146824F00404146091F82020CC69B6
:1059100002F01C0293406360C96800293AD0F0BCD1
:105920000847022303FA06F73C4217D0AF0715D504
:105930001468A50605D4146824F00A041460012232
:105940004A7091F82020CC6902F01C0293406360F9
:1059500000220A708968E9B1F0BC0847082303FAFD
:1059600006F6344216D02B0714D5146824F00E0422
:105970001460012291F82030CC6903F01C039A4096
:10598000626001228A614A7000220A70096909B1C5
:10599000F0BC0847F0BC7047000070477047704784
:1059A0007047000070B50E4E0446B0680025A0B1E7
:1059B0004FF47A710B4AB1FBF0F11068B0FBF1F0D3
:1059C000FEF7A6F848B9102C07D2002221464FF066
:1059D000FF30FEF75AF8746000E00125284670BDDC
:1059E0000416002010160020DFF87800006800F48C
:1059F000C060704730B4DFF86C10B0F5007F086805
:105A000000F4C0601BD1B0F5007F21D00868DFF83A
:105A10005820DFF8585020F4C06040F4007008604F
:105A2000322013684343A3FB0554E00C401C4A6931
:105A3000530510D5002818BF401EF8D10BE0B0F573
:105A4000806F05D0086820F4C06040F48060086072
:105A5000002030BC704748694105F9D530BC0320AF
:105A600070470000007000401016002006BD378609
:105A7000124254D440F2FF7C1CEA11530FD063450C
:105A800031D09B1863453CBF01EB0251704701F0D8
:105A9000004141EA0C510020AFF30080704750EA0A
:105AA000410320D001F0004C91EA0C011CD0B1FA66
:105AB00081F30B3B9A420DD9D21A994051EA0C015D
:105AC000C3F1200C20FA0CFC61449840531C40F2B6
:105AD000FF7CD7E7914041EA0C01C2F1200C20FA8B
