:020000040800F2
:10000000E8FB0020F98C0008E18B0008E38B000876
:10001000E58B0008E78B0008E98B00080000000072
:10002000000000000000000000000000EB8B000852
:10003000ED8B000800000000EF8B0008F18B00083A
:10004000238D0008278D00082B8D00082F8D0008B8
:10005000338D0008378D0008F58B0008FB8B0008F6
:100060003B8D00083F8D0008438D0008478D000838
:100070004B8D00084F8D0008538D0008578D0008E8
:100080005B8D0008018C00085F8D0008638D0008FF
:10009000678D00086B8D00086F8D0008738D000858
:1000A000778D00087B8D00087F8D0008838D000808
:1000B000878D000800000000000000008B8D000804
:1000C0008F8D00080000000000000000938D0008E4
:1000D00000000000078C0008978D00080000000059
:1000E0009B8D00089F8D00080000000000000000AC
:1000F0000000000000000000000000000000000000
:10010000000000000000000000000000A38D0008B7
:100110000000000000000000A78D0008AB8D000863
:10012000AF8D0008B38D0008B78D0008BB8D0008A7
:10013000BF8D00080000000000000000000000006B
:10014000C38D0008C78D0008CB8D0008CF8D000837
:10015000D38D0008D78D0008DB8D0008DF8D0008E7
:10016000E38D0008E78D0008EB8D0008000000001B
:10017000EF8D0008F38D0008000000000000000073
:10018000F78D0008FB8D0008FF8D000800000000BF
:1001900080ED020B704770B516462DED048BD6E945
:1001A000002304460D46B0EE408AF0EE608AB0EEC1
:1001B000419AF0EE619A0020DFF8B41D01F01CFCBA
:1001C000C6E90001D4E9002351EC180B01F014FC3E
:1001D000C4E9000153EC182B51EC190B01F006FD9A
:1001E000D5E9002301F008FCC5E90001BDEC048B52
:1001F00070BD2DE9704306462DED048B70880C46CA
:10020000154601F0E1FD80468946204601F0DCFDFF
:1002100002460B464046494601F0F2FD0022DFF857
:100220003C3D01F0E9FB41EC180B284601F0CCFD08
:10023000044630880D4601F0C7FD02460B462046B5
:10024000294601F0DDFD41EC190B53EC182B51EC64
:10025000180B01F0CBFC04460D4653EC192B51EC66
:10026000190B01F0C3FC22462B4601F0C5FB00220E
:10027000DFF8143E01F0BAFCC6E90401BDEC048BC2
:10028000BDE870832DE9F04E2DED048B86B0144649
:1002900000269FEDBA8B0A008DED028B8DED008B51
:1002A0008DED048B26D08B469946074638788145DC
:1002B0001CDA01F089FD41EC190BB0B201F084FDAC
:1002C0000DF1100A02AD41EC110B52466946284669
:1002D000B0EE490AF0EE690AFFF75DFF51EC190B29
:1002E00053EC182B01F088FB41EC180B761C7F1C9B
:1002F0005E45DBDBDDE90001DDE9022301F080FD85
:1003000001F0A6FE208051EC180B01F0BFFE06B0F4
:10031000BDEC048BBDE8F08E7047000070B50D4653
:10032000044616464FF4A35101F0C4FE04F52870AC
:10033000DFF8583D46800580760846826D08418A80
:10034000058241810581AB25028A418A8281C18172
:1003500041F21041DFF8382DC0E91A2321447F26ED
:100360000D704E7041F228410022625042769FED9E
:10037000850BDFF8201DDFF8203DC165C4E9CA23E5
:100380000676DFF8180D00F5A272226000F21C411B
:10039000616004F5A871086000F53670486041F2AC
:1003A00030216018FFF7F4FE04F59250BDE870406C
:1003B000032101F067BF000010B588B0044682B089
:1003C0000FA16846282202F083FA0CBC04F6F8203C
:1003D00002F0C2FADFF8B80CDFF8B01C12A2C4E9D0
:1003E000C20108B004F68830BDE8104092EC062B3C
:1003F000012200219FED631B9FED640B02F0B8BB4F
:10040000000000000000E03FFCA9F1D24D62603F17
:10041000FCA9F1D24D62503F000000000000000036
:100420000000000000000000FCA9F1D24D62503F26
:100430009A9999999999A93F9A9999999999B93FAE
:10044000F8B504460D46202104F5647001F032FE33
:100450002DA62A4696EC062B00219FEDDA1B9FED78
:10046000470B204602F084FB04F52077002038700B
:100470002A4696EC062B00219FEDD21B9FED3F0BE9
:1004800004F1A00002F074FB012078702A4696EC7B
:10049000062B00219FEDCB1B9FED380B04F5A070C0
:1004A00002F066FB0220B8702A4696EC062B00216B
:1004B0009FEDC41B9FED310B04F5F07002F058FB6B
:1004C0000320F870202104F5227001F0F3FD04F5FB
:1004D000427500202870202104F52A7001F0EAFD01
:1004E00001206870202104F5327001F0E3FD022044
:1004F000A870202104F53A7001F0DCFD0320E870BB
:10050000F1BD0000000000009A9999999999A93FBE
:10051000FCA9F1D24D62503F9A9999999999A93FB6
:1005200070B504460D462068164602F077FD6068F7
:10053000294602F073FD00202072002116A065817B
:100540006172A6812A4690EC062B9FED0E1B9FED53
:100550000B0B04F1100002F00BFB00BF14A02A46A5
:1005600090EC062B04F1B000BDE8704000219FED37
:10057000051B9FED020B02F0FBBA0000000000001B
:1005800000000000000000000000144079E926315E
:1005900008AC7C3F00000000FCA9F1D24D62503F46
:1005A000FCA9F1D24D62503F7B14AE47E17A843F03
:1005B000FCA9F1D24D62503FFCA9F1D24D62503FEF
:1005C0007B14AE47E17A843F70B50E46054614466B
:1005D000782101F06FFD72892A807089688000207F
:1005E000B189A980E88004F564752021284601F0CE
:1005F00061FD2021284601F05DFD04F542750020D3
:10060000C5E90200A8632871202104F5227001F0D9
:1006100051FD00202870202104F52A7001F04AFDC8
:1006200001206870202104F5327001F043FD0220A2
:10063000A870202104F53A7001F03CFD0320E87019
:10064000002104F520700122017002230321427071
:100650008370C17070BDF8B504460D460120164682
:10066000208102214EE0084637E00020A062A11C54
:10067000208931F810106389A182A01C324630F81D
:100680001370E7822946204600F042F8204600F029
:100690009DF8F0B132462946204600F0A5F83146D3
:1006A000204600F091F932462946204600F0A6F98E
:1006B000608C08B9606BA06394F8440028B1608C2A
:1006C000401C608480B20228E4DD3146204600F000
:1006D000EFF9A16A20888842C5D2218906EB410240
:1006E000A2F8300305F10802208906EB8001A06B17
:1006F000C1F838032089A16A1154218960894A1EF2
:100700002281411E618160890028AED1F1BD0000C7
:10071000F8B504462DED028B20890D4600EB8001D3
:100720004E01A91905F1100791ED181B02EB4001CC
:10073000B0EE418AB1F83003F0EE618A01F044FB7B
:1007400041EC100BB0EE481AF0EE681AB81902F03E
:10075000DBFB51EC100B01F07BFC20839FED988BB1
:10076000208B40006083208900EB800105EB411560
:1007700051EC180BD5E9042302F054FC53EC182B70
:1007800001F034FA0022DFF8E83701F035F90022F1
:10079000DFF8083E01F02AFA01F05AFC81B2032981
:1007A000B8BF032003DB1529ACBF142000B2A0841E
:1007B000B4F9240002F0A8FCC5E91A01BDEC028BD3
:1007C000F1BD0000000000000000F03FB0F924106F
:1007D000012907DB038B9942B4BF591A0021818399
:1007E000012070470020704770B504460D4694F80C
:1007F0004400164610B90021216360630021A08ADD
:100800006082E183218414E094F8440010B920460A
:1008100000F014F832462946204600F027F8608A96
:10082000401E608280B229680A5CE2836968085CC5
:100830002084E08A618A8842E6D370BD10B4C18BFF
:10084000028C8A420ED2036B5B180363891A028BF7
:10085000C1838BB29A423EBF428B8CB2944203D288
:10086000511A00E00021C18310BC70472DE9F0410E
:1008700005462DED048BEF8BA88BB8420C469046B5
:1008800028D2AA6ABA4238BFAF623F1A688AEF8399
:1008900001F09AFA41EC110BB0EE418AF0EE618A58
:1008A000B8B201F091FA05F1480405F1580805F1D4
:1008B000500641EC100B224641463046B0EE481A35
:1008C000F0EE681AFFF767FCE889401C0021E88118
:1008D000A98171E0A889401CA88180B20B286BDB3C
:1008E000EE89002E68D095ED128B53EC182B00206A
:1008F000002102F01BFC5FD095ED149B51EC190B0D
:1009000001F07EFA01F0C2FB0746686BEF6238180F
:10091000032F686345D353EC192B0020002102F00C
:1009200005FC95ED168B09D153EC182B02F0FEFB5C
:1009300018BF4FF4806002F0E7FB03E051EC180BA6
:1009400001F05EFA01F084FB2368298A84B208EB87
:100950004112195DA2F888122A8A08EB4213A3F803
:100960008A72298A08EB4112A2F88C020022288A96
:1009700008EB4011A1F88E62288A08EB4011A1F81B
:100980009022288A08EB401101F52670C0E9002268
:100990000272288A08EB000181F80803288A401CAB
:1009A00028829FEDA00B002085ED160B85ED140B22
:1009B00085ED120BE881A881BDEC048BBDE8F081C8
:1009C0000000000000002440F8B50646378901EB1E
:1009D0008701D1F8380301F0F7F90446706B0D4632
:1009E00001F0F2F902460B462046294601F008FACA
:1009F000C6E91801002086F84400F1BD2DE9F8434E
:100A00000E46416B002951D000250446904600E077
:100A10006D1C218AE8B2884248D208EB000999F897
:100A200008030428F4DA08EB4010A26A616B00F5B1
:100A30002277D2B289B23846FFF7DBFBD4E918013E
:100A4000D7E9042302F082FBE2D2012084F84400BB
:100A5000042189F808133068B988405C218B420072
:100A60008842628306DA09B2081AA18B48BF404265
:100A700001EB6000A11C6289A08331F81210F88894
:100A8000BA88A2EB5005A942BABFA2EB5002E2829B
:100A9000E182A11C228931F81210BA8802EB5003BE
:100AA0008B42BABF02EB5000A082A182BDE8F18365
:100AB0002DE9F84F2DED048B82B08846002500907B
:100AC00008F5427731E0785D08EB401101F52271BD
:100AD0006C1C088940BBA0B291ED048B4845B0EE78
:100AE000489AF0EE689A2E46A24615D208EB000B03
:100AF0009BF8080308EB401053EC192BD0E9A60132
:100B000002F024FB38BF56460AF1010A1FFA8AF0A8
:100B100048450BF1010BEBD37E5508EB4513B6B2FC
:100B20000122BD55A3F89022A5B20098B0F810900C
:100B30004D45C8DB042D07DA08F54270284400F85B
:100B4000015B6D1C042DFADB02B063E22DE9F0417C
:100B500006462DED048B378A8846384601F034F975
:100B600041EC180B53EC182B0020002102F0DEFAA8
:100B700008BF9FED2E8B306B86ED1C8B01F024F9A6
:100B8000D6E91C2301F032F841EC180B96ED1A9BC4
:100B900053EC192B0020002102F0C8FA07D153ECC6
:100BA000182B02F0C3FA0ED19FED1E8B0DE051EC15
:100BB000180B01F025F90122DFF82C3A02F0DEFAD9
:100BC00041EC180B01D89FED1B8B08F544750020F4
:100BD00085ED008B88F80C730021346B2C6395ED48
:100BE000008B53EC182B02F0A1FA06D1002C14BF95
:100BF0009FED120B9FED0B0B08E0204601F0E4F88F
:100C000053EC182B01F0FCF841EC100B08F52470A4
:100C100085ED060B00210180018408F53470018008
:100C20000184C9E600000000000000000000000090
:100C30000000F03F00000000000014400000000031
:100C4000000090402DE9F84F2DED0E8B86B08346C5
:100C500000F0E4F99FEDC49B421EB0EE49AAF0EE0D
:100C600069AA00260025002704929FEDBDEB0590A0
:100C700030E005998E42B8BF854229DA0BF5207025
:100C80000BF52373825D0BEB050002EB820190F8FC
:100C9000082352010BEB4114985A01F095F841ECEE
:100CA000180BB0EE480AF0EE680A204602F073F81E
:100CB000D4E9100153EC182B02F0B4F921F00041F3
:100CC00053EC1A2B00F098FE7F1C41EC1A0BBFB2BC
:100CD000761CB6B20498864280F201815EE0A0885C
:100CE00001F072F841EC100B029802F054F8B9F8D8
:100CF000040001F069F841EC100B039802F04BF886
:100D000084F8188089F818A051EC1C0B53EC1D2BAB
:100D100037E051EC1D0B02F031FA06D8B0EE4EDA96
:100D2000F0EE6EDA039802F029F953EC182B51EC2F
:100D30001B0B00F05BFFCDE9000153EC1C2B51ECC9
:100D40001D0B00F053FFDDE9002302F0FFF9C6D2CE
:100D5000B9F8040001F038F841EC100B029802F0E9
:100D60001AF8A08801F030F841EC100B039802F05B
:100D700012F889F8188084F818A051EC180B53EC7D
:100D80001B2B00F039FE53EC1A2B00F035FE761CBD
:100D9000AD1C41EC1A0BBF1CB6B2ADB29BF80C03F4
:100DA000411E8D42BFF665AF0BEB050000F54270AA
:100DB0000BF522710278407801EB421401EB4019E7
:100DC0000BF52071881990F8008090F801A0A08898
:100DD00000F0FAFF41EC1D0B08EB88010BEB411111
:100DE000029153EC1D2BD1E9100102F01BF921F007
:100DF000004141EC180BB9F8040000F0E5FF41ECAC
:100E00001C0B0AEB8A0149010BF1400200915018BA
:100E100053EC1C2BD0E9000102F004F921F0004151
:100E200041EC1B0B029853EC1C2BD0E9100102F093
:100E3000F9F821F0004141EC1C0B00990BF1400046
:100E4000014453EC1D2BD1E9000102F0EBF821F035
:100E5000004141EC1D0B51EC180B0122DFF88C37DF
:100E600002F08CF998BF9FED3E8B06D951EC1C0B1C
:100E700002F084F904D89FED3ACB029802F07EF894
:100E80000098DFF8683758440390012251EC1B0B9F
:100E900002F074F93FF63DAF9FED31BB42E70BF531
:100EA00042710BF523704A5D52019FED2F1B805A52
:100EB000B0EE418AF0EE618A00F086FF41EC100B43
:100EC0000BF52070B0EE481A415D01EB8102F0EEA7
:100ED000681A0BEB421002F017F86D1CADB29BF8CC
:100EE0000C038542B8BF042DD9DB042E14DA0BF5B0
:100EF0002070815D01EB81020BEB421002F03EF8A5
:100F0000761CB6B2F1E78BEDEC9B06B05846BDEC13
:100F10000E8BBDE8F24F2DE0B8B20028F5D000F0FE
:100F200053FF02460B4651EC1A0B00F069FF0022FA
:100F3000DFF8B83602F00AF9E5D200F061FF0246A8
:100F40000B4600200A4902F06DF8DFF8A426DFF80E
:100F5000DC3600F04BFECBE9EC01D6E70000E0BF49
:100F60000000000000407F40000000000000000082
:100F70000000F03F2DE9F84F814609F520782DED6E
:100F8000048B0025464609F19807307800EB800174
:100F900009EB411494F89820012A2DD0204601F045
:100FA000E3FF94ED1E8B6C1CA0B20428B0EE489AAF
:100FB000F0EE689AAA4617DA08EB000B9BF800E0FF
:100FC00009F178030EEB8E0203EB421251EC190B80
:100FD000D2E9002302F0BAF838BFA246641CA0B2DE
:100FE00004280BF1010BE9DB1FFA8AF086F800A058
:100FF00008F80050012139706D1CA037761C042DB3
:10100000C3DB002089F8980089F8380189F8D801F5
:1010100089F87802BDEC048BBDE8F18F2DE9F04131
:101020002DED028B002500F520760424804616F86D
:10103000011B01EB810208EB4217002387F899306E
:10104000384601F091FFB0EE408AF0EE608A3846F3
:1010500001F074FF98B951EC180BDFF89825DFF810
:10106000D03502F073F80AD397ED140B384601F02F
:10107000EFFD6D1C0120641E87F89900D7D1BDECEF
:10108000028BA8B2BDE8F0810000E03F08AC7C3FD5
:1010900079E92631A086010000E05F4004E50020E8
:1010A00010B504462DED0A8BD4E9C4239FEDC99BEE
:1010B00051EC190B00F0A0FC41EC1A0BB0EE4A1AEF
:1010C000F0EE6A1A9FEDC50B02F073F89FEDC51B99
:1010D000B0EE418AF0EE618A51EC190B53EC102B03
:1010E00001F0A0FF41EC100BB0EE481AF0EE681AC8
:1010F00002F05FF853EC102B51EC190B01F092FF4A
:1011000004F5647441EC1C0B84ED00CBB0EE4A1A7C
:10111000F0EE6A1A9FEDB50B02F04BF851EC190B8B
:1011200053EC102B01F07EFF41EC100BB0EE481A8F
:10113000F0EE681A02F03DF853EC102B51EC190B4D
:1011400001F070FF41EC1B0B53EC1C2B01F06AFF0C
:10115000C4E90201B0EE4A1AF0EE6A1A9FEDC20B22
:1011600002F027F851EC190B53EC102B01F05AFF49
:1011700041EC100BB0EE481AF0EE681A02F019F8C4
:1011800053EC102B51EC190B01F04CFF41EC1C0BF4
:1011900053EC1B2B01F046FFC4E90401B0EE4A1AE0
:1011A000F0EE6A1A9FED8B0B02F003F851EC190B6D
:1011B00053EC102B01F036FF41EC100BB0EE481A47
:1011C000F0EE681A01F0F5FF53EC102B51EC190BFF
:1011D00001F028FF53EC1C2B01F024FFC4E90601A9
:1011E000BDEC0A8B10BD2DE9F0410C4604F5DA6820
:1011F0000546D8E9000116461F4600F029FF288061
:1012000004F54674D4E9000100F022FF6880D8E9B3
:10121000020100F01DFFA880D4E9020100F018FFD0
:101220002E816F81E880BDE8F08170B504460D46DF
:1012300020892188A2888142894190428041C00F43
:1012400090EAD17F0AD060896188E2888142894131
:1012500090428041C00F90EAD17F25D1284600F00E
:10126000EBF905F53770416802686588E6889142B8
:101270008268C068894182428041C00F00EBD17111
:101280004B1E2373A0882188884292415BB2002BB9
:10129000CCBF01230023B542AD4183EAD27292EA6A
:1012A000D57F1CBF2080A18070BD00002DE9F047D4
:1012B0002DED028B0646042400F5ED6A9FEDB88BF8
:1012C0000546D5E9EC23D6E9E40100F08FFC06F5EC
:1012D000E96780468946DAE90023D7E9000100F092
:1012E00085FC42464B4600F087FB53EC182B00F080
:1012F0007DFCC7E90A010836641EE2D1D5E9EC237A
:10130000DAE9000100F078FB53EC182B00F06EFCDA
:10131000CAE90A01BDEC028BBDE8F08730B403884E
:10132000828801F52874D21812042588520C95423F
:1013300038BF2A4602814588C28855192D04628823
:101340006D0CAA4238BF15464581238142886281CF
:101350008388A381C288E2810389238242896282D1
:101360000389A1F85C3142898A810389A1F83C3A5A
:101370004089A1F8840630BC7047000010B52DEDFF
:10138000028B044600F036F8204600F071F8204643
:1013900000F0DCF804F54C74D4E90023D4E9020130
:1013A00000F02AFBD4E9042300F026FB0022924B34
:1013B00001F0CCFE41EC180B38BF9FED908B06D3AB
:1013C0000122894B01F0DAFE98BF9FED068B84ED78
:1013D000068B45E0000000000000F03F9A999999C3
:1013E0009999C93F00000000000014409A9999990A
:1013F0009999D93F10B504462DED028BD4F8EC0233
:10140000B0F5A07F9FED7F0B28D94FF4A071B1FB01
:10141000F0F0C0F1010000F0D7FC00224FF0404393
:1014200001F094FE41EC180B38BF9FED788B07D389
:1014300001224FF0804301F0A1FE98BF9FED758B14
:1014400053EC182B51EC180B00F0D0FB53EC182B7D
:1014500000F0CCFB81F0004141EC100B84EDCC0B93
:10146000BDEC028B10BD0000CDCCCCCCCCCCE43F8D
:101470002DE9F041044604F6C8302DED048B04F547
:10148000407590ED000B04F5CF6604F5236785EDFC
:10149000020B96ED008B97ED009B51EC190B53EC72
:1014A000182B01F053FE04F52F6824BFB0EE498AD3
:1014B000F0EE698A04F5925088ED008B90F90010E7
:1014C000032932D8DFE801F02E262E02308900F001
:1014D0007BFC41EC100B04F1100001F091FB7089D2
:1014E00000F072FC41EC100B04F1B00001F088FB3D
:1014F000388900F069FC41EC100B04F5B07001F084
:101500007FFB788900F060FC41EC100B04F5007063
:1015100001F076FB9FED3B1B95ED000B04F6883048
:1015200001F0F2FC204600F03FF804F6C83095EDDB
:10153000020B90ED001B04F6F82001F05DFA98ED27
:10154000120B85ED0E0BFFF737BA000038B50446D5
:1015500004F6383004F6C8352DED048B90ED008B81
:1015600095ED009B53EC192B0020002101F0DEFDCE
:1015700009D153EC182B01F0D9FD14BF9FED270BB7
:101580009FED200B05E051EC180B00F039FC41EC0D
:10159000100B84EDD00BBDEC048B31BD000034404A
:1015A000000000000000E03F38B500F52E6500F5B2
:1015B0003C74D5E900011B4A1B4B01F0DFFD06D846
:1015C000D5E90223D5E9040100F010FB02E0206810
:1015D00000F0FAFB0022174B00F012FC41EC100B5C
:1015E00084ED060B31BD00000000144000407F4038
:1015F0009A9999997B14AE47000014C0000000002E
:10160000000014C000000000000000000000000006
:10161000000000C0000000000000004000000000CA
:10162000000090407C14AE47E17A843F9999D93FFD
:10163000E17A943F0040CF40F8B596B00446684642
:10164000582100F037FD04F52875AA8AADF800206E
:101650002B8A991A48BF4942ADF802102988CE1A40
:10166000ADF80460EE8AADF806606F8AB81B48BF1B
:101670004042ADF808006888C01B9342ADF80A00EC
:1016800008D20E988A1A40F00100ADF80030ADF88B
:1016900004200E90B74208D20E98891B40F0020039
:1016A000ADF80670ADF80A100E90159802286CD8A7
:1016B000002114911498411C149115994A1C1592FB
:1016C0000DF106023DF8100032F81110484303AA4C
:1016D000129942F821001298401C12901498022886
:1016E000E8D9E2E70C9DB5FBF0F0139E0F9D04EBEB
:1016F0008607D7F8CC6206FB00500F901498401C68
:101700001490149D109E1398B54231D20E9E4E43F4
:10171000164406EB8000284403AF057C57F825608B
:101720000C96002515E00E9FDDF84CC04F43174482
:1017300007EB8C0EDDF850C0F44403AE9CF820E0BB
:1017400007EB8E0717F805C056F82C6030180D907F
:101750006D1C1595119E159D0D98B542E3D300287B
:10176000C0D10C98002818BF1846BEE717B0F0BDCE
:1017700004EB800101F52F710F9B0A689A422CBF80
:10178000D21A00220A62401C139013980428EDD24A
:10179000DDF8383064A234214B4313441D18404215
:1017A00095F8306010961844002590F83330119366
:1017B00014950D954FF48063A3E700002DE9F843DD
:1017C00088B0074607F5E961019107F56472029256
:1017D00007F5FD61039107F58662049207F6C821BB
:1017E000059107F52D62069207F6D821CDF81C1059
:1017F00041F228404BA2116800913D1801F092FD82
:1018000000F0E2FA41F21842BA180024C2E90001DD
:101810006E460DF1040941F2114100207A5C641C0E
:10182000D30713D5327800280CBF02F00F0212093B
:101830000023012A09DBA846D9F800C01CF803E000
:1018400008F801EB5B1C9342F6DB551990F00100A0
:1018500018BF761CE2B2082A09F10409DEDB41F266
:10186000104003213818FEF757FD09B0BDE8F0839A
:101870002DE9F84F002600F5207700F24E3800F5EC
:10188000437504468B4613E0BAF80200B1F83013F2
:10189000081881B2C929A8BFC82028F8020C88F806
:1018A00000B088F80190761CB6B208F104087F1CDD
:1018B00028788642B8BF102E19DA38780428F2DA70
:1018C00000EB800104EB411097F8889090ED100B2D
:1018D00004EB491000F5227A51EC100B00F0B8FB34
:1018E000298D80B2884234BFA11C2146CCE784F800
:1018F0008C63BDE8F18F10B5044694F85C0628B1FE
:1019000094F8B81204F55470FFF7B2FF94F8140A73
:1019100030B194F8B81204F5E160BDE81040A7E7D3
:1019200010BD00008888880800010304020500003B
:10193000060700000800000000000000010200008F
:10194000030600000405070800010203010300006C
:101950000203000003000000040202010003000073
:101960000102040506000000070800000001000055
:101970000200000003040607050800000002000042
:101980000001020302000000020300000204010241
:101990000001000002000000030406070508000023
:1019A0000003000001020405060000000708000013
:1019B000000100000100000000010203010300001B
:1019C0000201040200000000010200000306000002
:1019D00004050708000103040205000006070000D3
:1019E00008000000000000000001000000020000EC
:1019F000000102030102020470B44FF0004591EAB5
:101A0000030F41F117836B40841A71EB030604D274
:101A10006E40001BB141121973414FF4001C1CEBC6
:101A2000410F34BF7CEB430683E00C0DA4EB13564F
:101A3000362E00F37C80012E45EAC32341DC43EAC5
:101A4000525312BFD20292025B08240545EAC1211B
:101A500041EA5051D2EBC020994125D407D1B0FAC8
:101A600080F610FA06F162D00020203608E0B1FAC4
:101A700081F6B140C6F1200220FA02F21143B040D3
:101A80004FEAF474B4EB465434F001064FEA7404A0
:101A90000AD8D6F50016760D04F00044F04061FA3D
:101AA00006F25040F1404840C00A40EA415021F05F
:101AB000004128BF5FEA500550F1000044EBD121FE
:101AC00035E0DB0A45EAC121C90AB6F120050EDD81
:101AD00042EA0242120CC5F1200603FA06F6EB4078
:101AE00042EA06056D42984161F100010DE062FA9B
:101AF00006F5F240554063FA06FC82EA0C02F34018
:101B00005A406D42904161EB030111F4801F05D1F1
:101B1000641E620502D06D004041494121F48011EC
:101B2000430875F1004350F1000041EB045170BCD3
:101B300070471CEB410F15D223F0004352EA4306D5
:101B40000BD04FEA4C0CBCEB410F04D80C0D661EB9
:101B5000342EB7DDEBE7801A994150EA410608BF01
:101B60000021E4E708BF1CEB430F28BF6FF0000122
:101B7000DDE7F0B40246106895681318506803EB6F
:101B80005004C0071DD54D441BE013F8017B05F838
:101B9000017B491EF9D1A0B1B60813F8011B06F06C
:101BA0000306032E08BF13F8016B01EB062149421F
:101BB000801C294405D011F8016B05F8016B401E0B
:101BC000F9D1A3420ED013F8016B16F0030104BF44
:101BD00013F8011BC91C30090F28DAD113F8010BC7
:101BE0000F30D6E7F0BC02F10C007047B0B581EAC7
:101BF000030C0CF0004C40F2FF7515EA11541DBFA8
:101C000015EA1357AC42AF4239E0E41923EA4553D1
:101C100043F48013C90241F0004141EA505EC7021B
:101C20001100A7FB020200284FF00000EEFB01208C
:101C30004FF00001E3FB072118BF42F001024018FA
:101C400000214941E3FB0E01A4F580640F0302D299
:101C500052004041494154F101046CDD470872F1E2
:101C6000004250F1000051EB0451A1F580115CBF1E
:101C700041EA0C01B0BD4CEA05510020B0BD05EAB7
:101C80001357AC4214BFAF4241E050EA410E1CBFB3
:101C900052EA430E02E061460020B0BD24423C44BB
:101CA0001BD15FEA070EF6D0090302BF01460020F0
:101CB000AEF1140EB1FA81F7AEEB070401FA07FE9C
:101CC0000C37C7F1200100FA07F7C8404EEA000EB2
:101CD00023EA455343F48013A2E733F00043B3FAF9
:101CE00083F704BFB2FA82FE77440B3FE41BB7F1DF
:101CF000200E2FBF02FA0EF3BB40C7F1200E22FACE
:101D00000EFE38BF43EA0E03BA40641C82E750EA75
:101D1000410E14BF52EA430E6FF000014FF400175A
:101D200017EB430F8ABF194617EB410FB5E74CEA93
:101D300005510020B0BDD4F10104B4F120070FDA41
:101D4000C4F12007520828BF42F0010210FA07F53B
:101D500001FA07F7E1BF2A43E0403843E1400FE0D2
:101D6000352C98DCC7F1200452EA400220FA07F231
:101D700018BF42F0010231FA07F0A1400A430021E6
:101D800072F1004250F1000051EB0C01B0BD30B4D3
:101D9000002513E050F8042BD30744BFA9F1010339
:101DA0009A18091F042942F8045BFAD213468C07DB
:101DB00044BF15809B1CC90748BF1D7050F8041B09
:101DC0000029E7D130BC7047014648B1B0FA80F134
:101DD0008840C91CC1F58461090501EBD02140058B
:101DE0007047B1F5807F02D34FF0FF30704701702C
:101DF000012070470078401E8041C043C00F7047EB
:101E0000F0B540F2FF7581EA030C0CF0004C15EAC6
:101E100011541DBF15EA1357AC42AF42E5E0BC4177
:101E2000C1F31301C3F31303801A994143F48013E0
:101E300004D2641E4000494180185941C90241EA58
:101E40005051B1FBF3F603FB1611A2FB0675D7EB5D
:101E5000C020A94102D2761E80185941C90241EA28
:101E60005051B1FBF3FE03FB1E11A2FB0E75D7EB25
:101E7000C020A94103D2AEF1010E80185941890258
:101E800041EA9051760546EA8E2EB1FBF3F603FB4C
:101E90001611A2FB0675D7EB8020A94102D2761E4F
:101EA00080185941C90241EA50514EEA060EB1FB71
:101EB000F3F603FB1611A2FB0675D7EBC020A94170
:101EC00002D2761E80185941C90241EA5051B1FB35
:101ED000F3F703FB1711A2FB0735D3EBC020A94191
:101EE00067F100070CBF004247F0010766F3D527F2
:101EF0004FEA1E31B80814F5806412DDBD0775F194
:101F0000004250EB0E5051EB045111F5801F5CBFA5
:101F100041EA0C01F0BD4CF07F6141F0E04100204E
:101F2000F0BDBD076D0840EA0E5041F48011D4F1B8
:101F30000104B4F120060ADAC4F120060200E040F0
:101F400001FA06F3E1401843B24015430EE0342C89
:101F500013DCC6F1200445EA40056D0820FA06F2BC
:101F6000154321FA06F0A1400D43002175F100420E
:101F700050F1000051EB0C01F0BD00205FEA0C01B4
:101F8000F0BDCFB992185B41B3FA83F704BFB2FA40
:101F900082F6BF190B3FB7F120062FBF02FA06F3F6
:101FA000BB40C7F1200622FA06F638BF3343BA40D9
:101FB0001CB1E419641E33E77F4231F00041B1FAED
:101FC00081F404BFB0FA80F6A4190B3CB4F12006EA
:101FD0002FBF00FA06F1A140C4F1200620FA06F650
:101FE00038BF3143A0403C1B1AE7AC421ABF05EA98
:101FF0001357AF4212E050EA41061CBF52EA4306B3
:10200000BFE750EA4107304661461CBF41EA05512F
:10201000F0BD52EA430C08BFC143F0BD00204FF4AD
:10202000001616EB410F98BF16EB430F08BF16EBD7
:10203000410F24BFC14305E016EB430F0CBF6146BF
:102040004CEA0551F0BD0268531C036011707047E3
:10205000C1F30A5340F2FE329B1A14DDD3F1200380
:102060004FEAE17208DDC90241EA505141F00040F7
:10207000D84080185040704703F2E13010B1D2438D
:1020800082F000407047002070470000400D491862
:1020900040EA81200CD2490DA1F58061491C40F035
:1020A000004005DBD1F11F0154BFC840C017704785
:1020B00000207047002201F055B90000494E4954F4
:1020C00049414C495A494E4700000000434F4E4E8B
:1020D000454354494E475F544F5F484F53540000A7
:1020E000434F4E4649475552494E47005245414499
:1020F00059000000414354495645000049444C45AD
:10210000000000005245434F4E4649475552494E44
:10211000470000005359535F4552524F5200000090
:10212000554E4B4E4F574E0001709FED6D0B0021E9
:102130004170817080ED020B80ED040B7047000050
:10214000F8B5044664A001F027F9DFF8FC550FF25A
:102150001C6105F12C0001F083F905F12C0001F060
:102160001BF95EA001F018F9042000219FED5C0B23
:1021700028706970A97085ED020B85ED040B84F859
:1021800080006978287881421CD29FED821B002153
:1021900058B16A7804EB4213CEB2491C03EBC60770
:1021A000CAB2824287ED000BF3D3A970697804EBC1
:1021B000411303EBC102491C82ED001B6970C9B2D7
:1021C0008142E4D3F1BD00002DE9F84305462DED31
:1021D000028B95F88000DFF8706530700027347846
:1021E00000209FED3F0B002C707086ED020B86EDFA
:1021F000040B88463DD005EB4819F8B209EBC00046
:102200000022002390ED008B86ED028B51EC180B21
:1022100000F0B4FF07D8D6E9040153EC182BFFF700
:10222000EBFBC6E904017F1CF8B2A042E5D396EDB2
:10223000048B53EC182B0020002100F077FF18D0FE
:10224000DFF81C15FFF7DCFDC6E904010027FDB22D
:1022500009EBC50009EBC505D0E90023D6E9040167
:10226000FFF7C4FCC5E900017F1CF8B2A042EED321
:1022700006E005EBC8000022DFF8E434C0E90023E3
:10228000B77083E010B504464FF0FF3021706070E6
:10229000A07000200FF2E853E070012293EC062BAF
:1022A00000219FED9C1B9FED0E0B04F1A80000F098
:1022B0005FFC0FF2E451012291EC062B00219FED0F
:1022C000971B9FED070B04F1080000F051FC04F58B
:1022D000A470BDE8104033E7090000000D0A0000BB
:1022E00000000000000000002DE9F8430446DFF87C
:1022F00058542DED028B0420287000226A70AA70B9
:102300009FEDC00B85ED020B85ED040B204600F020
:1023100045F804F5A47921784846FFF755FF95F86C
:102320000080687894F9006040451AD294F9000062
:102330006F78000604EBD04101EBC703D5E9020139
:1023400093ED528B85ED048B53EC182B00F0FEFEC1
:102350003CBF85ED028B7EB27F1C6F70FFB247459C
:10236000E4D3A670204600F0DDF894F9001048464A
:1023700000F04CF900F0D6FFFFF726FDC4E9440158
:1023800000F0D0FFFFF720FDC4E91C01BDEC028B7B
:10239000BDE8F183000000000000F03F2DE9F84F98
:1023A0002DED068B814686B099F90050884693A0A2
:1023B00000F0F2FF98ED060BE34C0FF2D4318DEDF7
:1023C000040B04F12C0098ED041B8DED021B9FED16
:1023D000898B98ED020B8DED000BD8E9002301F0FD
:1023E0003FF804F12C0000F0D7FF85A000F0D4FFE7
:1023F00082A000F0D1FF99ED120B04F11800691CC6
:102400008DED000BC9B250F821200FF2BC3104F160
:102410002C0001F025F804F12C0000F0BDFF78A09D
:1024200000F0BAFF002060709FEDC89B029573A07A
:1024300000F0B2FF60780FF2B43108EBC00204F193
:10244000180392ED000B8DED000B401CC0B253F849
:10245000202004F12C0001F003F804F12C0000F01E
:102460009BFF67A000F098FFD9E9122351EC190BEC
:10247000FFF7C2FA02460B4651EC180BFFF7B6FB0A
:1024800041EC1A0B0298657809EB401707EBC5077A
:1024900051EC1A0BD7E95223FFF7A8FB82468B4673
:1024A00051EC190B53EC1A2B00F0BCFD08EBC506E0
:1024B00002460B46D6E90001FFF798FB52465B4601
:1024C000FFF79AFAA34AA74B00F040FE41EC1A0B23
:1024D00038BF87ED52AB6D1C6570EDB2042DA6DBE5
:1024E00000F020FFFFF770FCD9E91C2300F09AFDF3
:1024F00041EC110B99F9000008EBC00109F108004B
:1025000091ED000B06B0BDEC068BBDE8F24F00F07C
:10251000FBBC0000000000000000244000000000A0
:1025200000000840F8B5044694F9021011F1010FBB
:102530005FD032A5284600F02FFFA178824E06F129
:102540001800491CC9B250F821302178491CC9B281
:1025500050F82120ACA106F12C0000F081FF06F11B
:102560002C0000F019FF26A7384600F015FF94F95B
:10257000020094F90010884216D0284600F00CFFA3
:10258000A17806F1180011F10101C9B250F821201B
:10259000A6A106F12C0000F063FF06F12C0000F06C
:1025A000FBFE384600F0F8FE2078A17860702170BC
:1025B0004FF0FF30A0709FED130B04F1080000F006
:1025C0001FFB00F0AFFE94F90050FFF7FDFBD4E9CC
:1025D000442300F027FD41EC110B04EB451606EBFC
:1025E000C50090ED520B04F1A800BDE8F24000F0E8
:1025F0008BBCF1BD000000000000E03F09000000BE
:102600000D0A000000000000000000002DE9F04F5E
:10261000834683B08A464C4C9BF880108DA7204699
:10262000FFF782FD4CA5284600F0B6FE86A104F116
:102630002C0000F015FF04F12C0000F0ADFE47A6C1
:10264000304600F0A9FE0020607012E0034604F15D
:102650001801401CC0B251F82020394604F12C006A
:1026600000F0FEFE04F12C0000F096FE6078401CA5
:102670006070607821788842E8D33BA7394604F13E
:102680002C0000F0EDFE04F12C0000F085FE00208F
:1026900060700FF2DC180FF2C8192BE020225FFAED
:1026A0008AF3617898420BEB401008BF7C2200EB64
:1026B000C1030292414693ED000B8DED000B04F136
:1026C0002C0000F0CDFE04F12C0000F065FEA07897
:1026D000401CA0702178A0788842DFD3394604F1ED
:1026E0002C0000F0BDFE04F12C0000F055FE6078D7
:1026F000401C607060782178884218D2284600F02B
:102700004BFE6078034604F11801401CC0B251F83A
:102710002020494604F12C0000F0A2FE04F12C0018
:1027200000F03AFE304600F037FE0020D1E739468F
:1027300004F12C0000F094FE04F12C0003B0BDE87D
:10274000F04F00F029BE0000000000200000000053
:102750000000F03FCECCCCCC090000000D0A0000F8
:102760000000F03FCCCCEC3F0A0000003C46534D4B
:102770003E20496E697469616C697A696E6720539D
:1027800074617465204D616368696E652E0A00008E
:102790003C46534D3E2050726F626162696C6965C0
:1027A0007320617265205B305D252E3266205B31BF
:1027B0005D252E3266205B325D252E3266205B332E
:1027C0005D252E32662E0A003C46534D3E20537442
:1027D0006174652025732068617320737461626978
:1027E0006C69747920252E34660A00003C46534DEE
:1027F0003E205570646174696E672025732062798C
:1028000020252E32662E0A003C46534D3E20557040
:10281000646174696E672073746174652066726F99
:102820006D20257320746F2025730A003C46534D9C
:102830003E207E7E7E20537461746520697320255E
:1028400073207E7E7E0A00003C46534D3E200909DF
:102850000920200025732D5B25645D0920200000E0
:102860003C46534D3E202025732D5B25645D0000C2
:102870000925635B252E35665D2563000000000099
:102880007B14AE47E17AA43F9A9999999999B93FF7
:102890009A9999999999D93F7B14AE47E17AA43FC7
:1028A0009A9999999999B93F9A9999999999D93FEA
:1028B00062B38B0708D0521E11F8013B00F8013BB0
:1028C00000F024808B07F6D1830740F0208000BF02
:1028D000103A07D330B4B1E83810103AA0E83810F5
:1028E000F9D230BC530724BFB1E80810A0E80810A3
:1028F00044BF51F8043B40F8043BD20724BF31F8F1
:10290000022B20F8022B44BF0B7803707047121F74
:1029100017D35B0009D151F8043B20F8023B1B0C94
:10292000121F20F8023BF6D20BE051F8043B00F8EE
:10293000013B1B0A20F8023B1B0C121F00F8013B55
:10294000F3D238BF121D521E24BF11F8013B00F80C
:10295000013BF8D8704700000CB410B52DED068B84
:1029600004469021FFF7A6FBDDE9082300200021A3
:1029700000F0DCFB94ED048B9DED0A9B26D153EC1B
:10298000192B00F0D3FB21D1DDE90C2300F0CEFBA5
:102990001CD16D49CDE91001DDE90E236949FFF72E
:1029A00025F941EC1A0B0022674BFFF729FA684A18
:1029B000664BFFF71BF941EC190B53EC182B6448DD
:1029C0006949FFF713F941EC100B03E09DED08ABEB
:1029D0009DED0C0B84ED040B84ED029B84ED00ABAC
:1029E00000F0A0FCFFF7F0F9C4E91601BDEC068B7E
:1029F00010BC5DF80CFB000038B504462DED068BCD
:102A000051EC100B53EC112B00F00CFB41EC100BB4
:102A100084ED1A0BD4E9000153EC102BFFF7E6F814
:102A2000C4E90A0100F07EFCFFF7CEF9D4E91623D1
:102A300000F0F8FA41EC180B94ED1AAB84ED148B0E
:102A400053EC1A2BFFF7D2F8D4E91E23FEF7D4FF7C
:102A500041EC100B84ED1E0BD4E90223FFF7C6F8FE
:102A600041EC190B84ED0C9BD4E9180153EC1A2BA3
:102A700000F0D8FA41EC100B84ED1C0BD4E90423D0
:102A8000FFF7B4F841EC1A0B53EC182B002000218F
:102A900000F04CFB09D153EC1A2B00F047FB14BF9C
:102AA0009FED2C0B9FED2D0B05E051EC1A0BFFF762
:102AB000A7F941EC100B84ED0E0BD4E90A2351EC7D
:102AC000190BFEF799FFD4E90E23FEF795FFD4E921
:102AD0001223FEF791FF04F1800541EC180B95EDF0
:102AE000029B51EC190B0022002300F047FB18D287
:102AF00095ED00AB51EC180B53EC1A2B00F026FBB4
:102B000004D2B0EE4A8AF0EE6A8A0AE051EC190B60
:102B100053EC182B00F01AFB3CBFB0EE498AF0EEE4
:102B2000698A94ED1A0B84ED108B84ED180BD4E9AF
:102B30001E230C480D49FFF759F8C4E91E01BDECEE
:102B4000068B31BD0000E03F0000F03F4D62603F6A
:102B5000FCA9F1D20000000000009040000000003D
:102B600000000000CDCCCCCC4D62503FCCCCEC3F33
:102B7000F8B5044604F180072DED028B84ED181B97
:102B8000B0EE408AF0EE608A0D46164687ED002BC7
:102B900087ED023B87ED044B00F0C4FBFFF714F90F
:102BA000C4E91C0194ED1C0B84ED1A0BBD83FE835C
:102BB0009FEDD30B84ED000B84ED020B84ED040B31
:102BC00084ED060B84ED080B84ED0A0B84ED0C0BF1
:102BD00084ED0E0B84ED108B84ED120B84ED140B41
:102BE00084ED160B0020B87684ED1E0B00F09AFBE6
:102BF000FFF7EAF8C4E91C01BDEC028BF1BD00004F
:102C000010B504469FEDBE1B002084ED001B84F828
:102C10009A0084ED021B84ED041B84ED061B84EDF9
:102C2000081B84ED0A1B84ED0C1B84ED0E1B84ED48
:102C3000100B84ED121B84ED141B84ED161B84ED28
:102C40001E1B00F06FFBFFF7BFF8C4E91C0110BDAD
:102C500038B52DED0A8B0446B0EE408AF0EE608A5E
:102C600000F060FBFFF7B0F8D4E91A2300F0DAF9BE
:102C700041EC190BD4E9180153EC192B00F066FA5A
:102C800006D200F04FFBFFF79FF8C4E91A017FE07E
:102C9000D4E91001D4E9122300F0C4F9C4E9140105
:102CA00094ED10AB84ED12ABD4E90E2351EC180B6C
:102CB00000F0B8F941EC100B84ED0C0B53EC192B20
:102CC000FEF794FF53EC1A2BFEF796FE41EC1A0B1D
:102CD00004F1800584ED10ABA88BFFF775F841EC8B
:102CE000180B51EC1A0B53EC182B00F02FFA09D3E8
:102CF000E88BFFF769F853EC1A2B00F027FA41EC48
:102D0000180B03D2B0EE48AAF0EE68AA94ED0A8B35
:102D100084ED10AB53EC192B51EC180BFEF766FF4A
:102D200094ED06CB94ED08BB41EC1A0B53EC1C2B35
:102D300000F078F953EC1B2B00F074F9D5E900236F
:102D4000FEF75AFE53EC192BFEF750FFD4E904238B
:102D5000FEF752FEC4E9040153EC1A2B51EC1C0B94
:102D600000F060F9C4E9060153EC1A2B51EC1B0B7F
:102D700000F058F9C4E90801D5E9022351EC190B18
:102D8000FEF734FF53EC182BFEF736FEC4E90A01B8
:102D9000BDEC0A8B31BD38B5044604F190052DED2C
:102DA000068BD5E9000194ED049BB0EE408AF0EE6D
:102DB000608A53EC192BFEF71FFE02460B460020DB
:102DC0009349FFF71DF841EC1A0B53EC192BFEF752
:102DD0000DFF41EC190B84ED009BD4E9082351EC65
:102DE0001A0BFEF703FFC4E9020194ED10AB51EC9E
:102DF000180B53EC1A2B00F015F941EC180B53EC9F
:102E0000192BFEF7F3FE53EC1A2BFEF7F5FDC4E980
:102E10001001D4E9022351EC180BFEF7E7FED4E9C8
:102E20000E23FEF7E9FDC4E90E0194ED048B94ED49
:102E3000009B53EC192B51EC180BFEF7D7FE024602
:102E40000B4651EC180B00F0EDF841EC180B94ED2B
:102E500006AB84ED048B53EC192B51EC1A0BFEF7E7
:102E6000C5FE02460B4651EC1A0B00F0DBF841ECB4
:102E7000190B94ED02AB84ED069B53EC1A2B51EC2D
:102E8000180BFEF7B3FE02460B46D4E9080100F02A
:102E9000C9F8C4E9080153EC1A2B51EC190BFEF7E1
:102EA000A5FE02460B46D4E90A0100F0BBF8C4E9CE
:102EB0000A0100F037FAFEF787FFC4E91A01A88972
:102EC000FEF782FF41EC180B94ED109B51EC190BAF
:102ED00053EC182B00F03AF90DD3E889FEF774FF94
:102EE00053EC192B00F032F941EC180B24BFB0EE73
:102EF000498AF0EE698A84ED108BBDEC068B31BDFA
:102F0000000000000000000010B52DED028BB0EEB7
:102F1000408AF0EE608A0446B0EE410AF0EE610AA3
:102F2000FFF796FEB0EE480AF0EE680A2046FFF77B
:102F300032FF94ED100BBDEC028B10BD10B50446B2
:102F400000F0F0F9FEF740FFD4E91A2300F06AF828
:102F500002460B46D4E9180100F0F8F801D201202E
:102F600010BD002010BD000090F89A1090ED000BED
:102F700009B19FED280B80ED1E0B704710B504467C
:102F80004FF06630D4E900231E49FEF72FFE41ECD6
:102F9000100B84ED000B94F89A0018B10020C4E9DE
:102FA0001E0008E051EC100B174A184B84ED1E0B65
:102FB00000F0CCF824D29FED170B002084ED000B1D
:102FC00084F89A0084ED020B84ED040B84ED060B6B
:102FD00084ED080B84ED0A0B84ED0C0B84ED0E0BD5
:102FE00084ED100B84ED120B84ED140B84ED160BA5
:102FF00084ED1E0B00F096F9FEF7E6FEC4E91C0115
:1030000010BD00006666E63FFCA9F1D24D62503F5C
:103010000000F03F0000000000000000002200F06F
:103020003FBA000070B44FF0004591EA030F7EF5FF
:10303000EBAC6B40841A71EB030603D2001BB14169
:10304000121973414FF4001C1CEB410F34BF7CEB91
:10305000430442E00C0DA4EB1356352E4FDC45EA39
:10306000C323DB0A45EAC121C912B6F120050DDDF3
:1030700063FA05F6EB4086EA0305124218BF45F0F5
:103080000105C01851F100010CD213E062FA06F5F7
:10309000F2405540F3415A40B340F3405A40801843
:1030A000594107D349085FEA30005FEA350528BF78
:1030B00045F0010501F58011420875F1004250F11B
:1030C000000041EB04514E0016F5001F70BC38BFE4
:1030D00070470020090D090570471CEB410F10D205
:1030E00052EA43060BD0BCEB410F05D80C0DAB43A5
:1030F000661E342EB6DD02E0AB438018594170BC29
:10310000704770BC70470000C11768B14840401A52
:10311000B0FA80F29040D21CC907C2F5846241EA3D
:10312000025202EBD02140057047000090420CD1C2
:1031300041EA030C50EA4C0C07D0994205D14FF4F8
:10314000001C1CEB410F38BF894270474FF4001C34
:103150001CEB410F94BF1CEB430F09E041EA030C49
:1031600050EA4C0C52EA0C0C03D2994208BF904230
:10317000704714BF8B428242704700004FF4001C1E
:103180001CEB410F94BF1CEB430F09E041EA030C19
:1031900050EA4C0C52EA0C0C03D28B4208BF82421C
:1031A000704714BF994290427047000041EC100BE9
:1031B00001BD80B553EC112B51EC100B00F018FD44
:1031C000F4E7000010B5614C617AE1B1012802D04A
:1031D000022819D010BD5E48016801F0010181F09C
:1031E0000101A172E07A08B1A07A60B1594CA168DE
:1031F000886A00F0D4FFE16822695748BDE81040B2
:10320000012392B244E010BD51480168490801F021
:103210000101E172E07A00281FBF207C002860696C
:103220000028DFD08047DDE780B500F01CF80620DD
:1032300001F094F8BDE802400A2001F08FB880B593
:1032400000F008F8062001F094F8BDE802400A20DA
:1032500001F08FB83F4881680968CB6823F0040308
:10326000CB60002207E03B4881680968CB6843F0E7
:103270000403CB60012280680068042101F05FBA7A
:103280003449C86818B189688A6A1368D860704779
:10329000F8B5304DD5F808C00C46014616461F4615
:1032A000DCF828003346224600F031FF08B101F077
:1032B00009FCA8680068C16841F48061C1600FB171
:1032C000FFF7D1FFEC602E61F1BD224AD068116991
:1032D0009268936AD3F800C00818DCF80410401A0A
:1032E00070471C484068642301F022BC01207047ED
:1032F0001CB5049C009401F088FF13BD78B585B01F
:103300006B4600240025002670C330C30091019253
:10331000694602F00BF906B070BD0069C0B2704793
:1033200002F0C8B902F0E0B902F0E4B902F02ABD37
:10333000BFF34F8F09490A480A6802F4E06202436A
:103340000A60BFF34F8F00BFFDE70000B0F7002019
:1033500010040048C8F70020100000480CED00E001
:103360000400FA0500B500BF1300964694461039D4
:1033700028BFA0E80C50FAD85FEA417C28BF0CC0F7
:1033800048BF40F8042BC90728BF20F8022B48BFCC
:1033900000F8012B00BD000010B5044602F0A8FDA6
:1033A00081B22046BDE8104002F0F5BDF8B50D46EB
:1033B0004CF6AA510446ADF8001016461F46684662
:1033C00002F096FD81B2684602F0E5FD29462046EE
:1033D00000F00CF83946304600F008F8684602F074
:1033E00087FD81B2684602F0D6FDF1BD2DE9F041BE
:1033F0000D4604466E1EF01106EB10663612761C62
:103400000027002E28D4DFF85480761E0020414685
:10341000E219AF421ADA1378401C7F1CAF420B70DE
:1034200014DA5378401C7F1CAF424B700EDA93784D
:10343000401C7F1CAF428B7008DAD378CB70401CE5
:103440007F1C121D091DB0F5807FE2DB81B2404672
:1034500002F0A1FD002ED8D5BDE8F08168F600206D
:103460000CB430B583B00A4606A902910446002583
:103470000194009502AB01A9084878441E3002F07F
:10348000A5FD019A157000284EBF04460198041B43
:10349000204603B030BC5DF80CFB00BFABEBFFFF78
:1034A000401810F0030308D0C91A1FD3DB0748BF28
:1034B00000F8012D28BF20F8022D130030B4144667
:1034C0001546103928BF20E93C00FAD8490728BF23
:1034D00020E90C0048BF40F8042D890028BF20F8DF
:1034E000022D48BF00F8012D30BC7047C91818BF25
:1034F00000F8012DCB0728BF00F8012D7047000010
:103500002DE9F84C2DED0A8B82B041EC190B149C7F
:1035100043EC182B0CB10020206051EC180B21F06B
:1035200000474FF0000A20F00006574508BF5645F7
:1035300014D053EC192B0020DFF82016FFF7F6FD0E
:103540000CD0DFF81416FFF7F1FD0FD151EC180B7A
:1035500048004015401C09D1090307D102B00020E2
:10356000BDEC0A8BDFF8F415BDE8F48C51EC190BB7
:1035700048004015401C0ED051EC190B21F00041C1
:10358000514508BF504506D051EC180B4800401576
:10359000401C40F0F58051EC190B48004015401CD0
:1035A00005D1090318BF51EC190B40F0D08251EC42
:1035B000180B48004015401C05D1090318BF51ECF9
:1035C000180B40F0C48251EC180B48000124401540
:1035D000401C61D051EC180B4B0043EAD073420001
:1035E000534508BF524504D1B0EE48AAF0EE68AA90
:1035F00019E040F23345A5EB5352352A04DB00F0C5
:10360000000001F000410CE0202A03DD203AD14007
:10361000914000E001D1002003E0002AC4BFD04067
:10362000904041EC1A0B53EC182B51EC1A0BFFF79E
:103630007DFD18BF00244B0043EAD0734200534580
:1036400008BF524504D1B0EE4A0AF0EE6A0A19E00A
:1036500040F23445A5EB5352352A04DB00F000005C
:1036600001F000410CE0202A03DD203AD1409140D6
:1036700000E001D1002003E0002AC4BFD040904008
:1036800041EC100B44B153EC1A2B51EC100BFFF72B
:103690004DFD0CBF0024012451EC190B48004015CE
:1036A000401C0ED109030CD151EC190BC80F25D1C8
:1036B00053EC182BDA0F0CBF9FED8D0B9FED8E0B8B
:1036C00043E251EC180B48004015401C28D1090377
:1036D00026D153EC192B23F00041B1F5801F22F0C5
:1036E00000002ED2514508BF5045CDF800A02DD086
:1036F0006A4651EC190B03F027FC27E051EC180B3C
:10370000C80F06D1002C0CBF9FED790B9FED7C0BF1
:103710001BE2002C0CBF9FED780B9FED7B0B14E29E
:10372000002C1ABF51EC190BC80F002053EC182BBA
:10373000DA0F1ED100280CBF9FED6F0B9FED720BAF
:1037400003E2DFF81C4404EB1150009051EC180B1D
:10375000C80F009806D10028CCBF9FED650B9FEDE8
:10376000660BF2E10028CCBF9FED630B9FED600B71
:10377000EBE100280CBF9FED5E0B9FED610BE4E1D8
:1037800051EC180B4B0043EAD07342000027BB42B8
:1037900008BF524504D1B0EE48AAF0EE68AA19E07D
:1037A00040F23345A5EB5352352A04DB00F000000C
:1037B00001F000410CE0202A03DD203AD140914085
:1037C00000E001D1002003E0002AC4BFD0409040B7
:1037D00041EC1A0B51EC190BC80F11D053EC182BFC
:1037E00051EC1A0BFFF7A2FC0AD0AFF3008002B035
:1037F0004FF0FF30BDEC0A8B6FF00041BDE8F48C58
:1038000053EC192B23F00041B1F5801F22F000008A
:103810000BD2B94208BF5045CDF800A011D06A467E
:1038200051EC190B03F090FB09E0CD4E06EB115063
:103830000090DFF89813CB4803401046194341EC41
:10384000190B51EC190BC80F08BF002638D021F016
:10385000004053EC192B034643EC192B51EC1A0B87
:103860004B0043EAD07342000026BB4208BFB2427D
:1038700004D1B0EE4A0AF0EE6A0A19E040F234458B
:10388000A5EB5352352A04DB00F0000001F00041A3
:103890000CE0202A03DD203AD140914000E001D124
:1038A000002003E0002AC4BFD040904041EC100B40
:1038B00053EC1A2B51EC100BFFF738FC18BF012604
:1038C0000098012824D151EC190BA74AA74BFFF708
:1038D0003DFC1DD253EC192B00204FF08041FEF728
:1038E00085F900259FEDBEBB41EC190B2EE000BF12
:1038F000000000000000F07F000000000000000059
:10390000000000000000F0FF000000000000008048
:1039100053EC192B00209649FEF768F99FED95AB03
:1039200053EC1A2BFEF768F8FEF792FBA0F1200586
:103930002846FFF7E9FB0022904BFEF757F953ECBE
:103940001A2BFEF759F841EC1B0B6D0151EC190BCA
:1039500053EC1B2BFFF766FB41EC1A0B53EC192BB6
:1039600051EC1B0BFEF748F802460B4651EC1A0BC4
:10397000FEF746FA41EC190B53EC192BFEF736F91A
:1039800041EC1C0B53EC1C2B7D487E49FEF72EF9B5
:103990007D4A7E4BFEF730F853EC1C2BFEF726F9E0
:1039A0007B4A7C4BFEF728F853EC1C2BFEF71EF9E4
:1039B000794A7A4BFEF720F853EC1C2BFEF716F9E8
:1039C000774A784BFEF718F853EC1C2BFEF70EF9EC
:1039D000754A764BFEF710F853EC1C2BFEF706F9F0
:1039E000734A744BFEF708F853EC1C2BFEF7FEF8F5
:1039F00053EC1A2BFFF716FB82468B4600205749E3
:103A000053EC1B2BFFF70EFB00224FF08043FEF719
:103A1000EDF852465B46FDF7EFFF53EC192BFEF72E
:103A2000E5F853EC1A2BFDF7E7FF41EC190B009872
:103A300075A72F44FFF768FBD7E90023FDF7DCFFEC
:103A400041EC1A0B53EC192B5B485C49FEF7CEF89E
:103A500053EC1A2BFDF7D0FF53EC182BFEF7C6F8EA
:103A60000022574BFFF772FB41EC1B0B6AD301227C
:103A7000544BFFF783FB5BD9C80F53EC1B2B1ABFCA
:103A8000002051495149FDF7B7FFFEF7E1FA05461D
:103A900053EC192B51EC180BFEF7A8F882468B4615
:103AA000D7E90201D7E90423FDF7A6FF53EC182B51
:103AB000FEF79CF89FED46BB53EC1B2BFEF796F8E8
:103AC00052465B46FDF798FFCDE9000153EC1A2BF7
:103AD00051EC180BFEF78AF807468B462846FFF78D
:103AE00013FB02460B4638465946FFF79BFA53EC48
:103AF0001B2BFEF77BF8DDE90023FDF77DFF0CB102
:103B00002560002500950022144B002403F054FA90
:103B100021F0004320F00002A34208BFA24241EC82
:103B2000100B0FD048004015401C03D1090301D1F0
:103B30009FED290B4EB151EC100B81F0004141EC8F
:103B4000100B02E09FED280BF4E751EC100B02B0D4
:103B5000BDEC0A8BBDE8F48C0000F0BF0000F03F24
:103B600002FCFFFFFFFF0F80CD3B7F669EA0E63F7C
:103B700000005040000000000000E03F0000903FC7
:103B8000F7DE29BFD8F8C23FF4B3FECC1A99C33F81
:103B900062CB68D96F46C73FC6C912DAC471CC3F41
:103BA0004AE98A942449D23FF75F97999999D93F76
:103BB000BC5555555555E53FFE822B654715F73FDA
:103BC0000000E0C00000E0400000E0BF0000E03F77
:103BD000EF39FAFE422EE63F000000000000F07FC1
:103BE000000000000000F03F0000000000000000A6
:103BF00080B541EC100B0020009051EC100BFFF74A
:103C00007FFC04BD00000000000000000000F0BFC9
:103C100000000000000000800000000000000080A4
:103C20000000000000000000000000C05294EEBF41
:103C300000000048204E51BE000000F86467BCBC84
:103C40000000000000000000000000208133EDBFF4
:103C500000000080B3DB14BE000000506706A3BC68
:103C60000000000000000000000000D0E9DCEBBF15
:103C700000000008C39259BE00000080B0D3B8BC59
:103C8000000000000000000000000070F98FEABF93
:103C9000000000C0A51028BE000000E8BFC0B0BCF6
:103CA000000000000000000000000070284CE9BF88
:103CB00000000060134B42BE000000C03D20B8BCB5
:103CC000000000000000000000000050FA10E8BFF3
:103CD000000000C05FF62BBE000000905C71A7BC26
:103CE000000000000000000000000020FCDDE6BF36
:103CF000000000C0F8F154BE00000018E9F6B9BC9D
:103D00000000000000000000000000D0C3B2E5BFCA
:103D100000000070E43254BE00000050DB06B4BC6A
:103D2000000000000000000000000010EF8EE4BF63
:103D300000000020F36252BE000000C02A879ABC37
:103D40000000000000000000000000B02272E3BF8D
:103D5000000000F0E8E056BE00000028352DBDBC94
:103D60000000000000000000000000000A5CE2BF4C
:103D7000000000B0FA8E41BE00000040AE6FBDBC36
:103D8000000000000000000000000000564CE1BFF1
:103D9000000000F015CD5FBE00000000141C90BCB8
:103DA000000000000000000000000040BD42E0BF35
:103DB00000000030F93457BE000000E06C1E93BCD8
:103DC0000000000000000000000000E0F57DDEBF04
:103DD000000000B08A535EBE00000080DA77AABC03
:103DE0000000000000000000000000C09D81DCBF5A
:103DF00000000000FFA226BE0000006057E2B0BC39
:103E0000000000000000000000000060F98FDABF31
:103E1000000000580A8151BE000000F05F60B8BC8D
:103E200000000000000000000000000098A8D8BFBB
:103E3000000000607A7F45BE000000D05433A3BC70
:103E40000000000000000000000000600FCBD6BFA3
:103E5000000000D091CB40BE000000406D1BA0BC14
:103E60000000000000000000000000A0FBF6D4BF2E
:103E700000000098C5CE52BE000000003A397EBC5A
:103E80000000000000000000000000E0FE2BD3BF97
:103E90000000004073872BBE00000000926879BCD0
:103EA000000000000000000000000040C069D1BF19
:103EB00000000058F16353BE00000080438D7CBCBD
:103EC000000000000000000000000080D85FCFBFAD
:103ED000000000181F8354BE000000B03F42A2BC87
:103EE00000000000000000000000008067FCCBBF65
:103EF00000000060FAFF53BE00000050E00DB8BCA7
:103F000000000000000000000000000098A8C8BFEA
:103F1000000000607A7F35BE000000C0543393BCBF
:103F2000000000000000000000000000DC63C5BFCE
:103F300000000058D6FF54BE00000000396490BC59
:103F40000000000000000000000000C0AD2DC2BF56
:103F500000000080A45915BE000000E0484BABBC37
:103F60000000000000000000000000801A0BBEBF2F
:103F700000000050BF3C5ABE000000A0B364B6BCB5
:103F800000000000000000000000008004D6B7BF61
:103F900000000040BBCF36BE0000008076CEA8BC3B
:103FA00000000000000000000000008032BBB1BF34
:103FB000000000402A0043BE00000028C60CBDBC23
:103FC0000000000000000000000000009473A7BF84
:103FD000000000182B3B59BE000000C0E55DA5BCE9
:103FE000000000000000000000000000EE4397BF4A
:103FF000000000A0E6C340BE00000020958DB5BCC7
:104000000000000000000000000000000000008030
:1040100000000000000000800000000000000080A0
:104020000000000000000000F0B400B96CE004687B
:104030002D4DAC4200F124030AD22C492C4F2D4DBA
:10404000DD610A19A2FB0776320992001A6209E0C3
:104050002949274E0A19A2FB06652A099200274919
:104060001A62D96102225A7025688168C2686FF3AA
:104070000E150D430169154342690D4381691543CE
:10408000C2690D43016A15430D4325608268B2F58C
:10409000804F21D0DA69174C0F21A24209D1184A6A
:1040A000156893F8204004F01C04A14025EA0101A2
:1040B00008E0144A146893F8205005F01C05A94044
:1040C00024EA01011160116893F82040406804F06F
:1040D0001C04A04001431160002098610121597027
:1040E0001870F0BC7047000008040240F8FFFDBFE4
:1040F000CDCCCCCC00000240F8FBFDBF0004024058
:10410000A8000240A8040240F0BC01207047F0B4AF
:1041100000F1240500242E78012E08BF02203CD097
:1041200001262E706F78012F34D102266E70AC619B
:10413000066837687F087F003760012695F8207091
:1041400007F01C07BE40EF697E60066873608368F5
:10415000102B04D10668B2600268D16003E00368E6
:1041600099600168CA600268E96821B1136843F088
:104170000E03136008E0116821F00401116001686A
:104180000A6842F00A020A600068016841F0010111
:10419000016001E02C7002242046F0BC704700F161
:1041A00024014A78022A05D00420886100220A707E
:1041B000012070470268136823F00E031360006843
:1041C0000268520852000260012091F82020CB6959
:1041D00002F01C02904058600022012048700A70D2
:1041E0000020704738B500F1240100244A78022AE3
:1041F00003D004208861012417E00268136823F0CB
:104200000E031360026815686D086D0015600122C9
:1042100091F82030CD6903F01C039A406A600122B6
:104220004A700C70496901B18847204632BDF0B42C
:1042300000F124010423CA6914680268156891F822
:10424000206006F01C0603FA06F73C4214D06F0704
:1042500012D51468A50603D4146824F0040414606D
:1042600091F82020CC6902F01C0293406360C96879
:1042700000293AD0F0BC0847022303FA06F73C4273
:1042800017D0AF0715D51468A50605D4146824F017
:104290000A04146001224A7091F82020CC6902F0CF
:1042A0001C029340636000220A708968E9B1F0BC87
:1042B0000847082303FA06F6344216D02B0714D514
:1042C000146824F00E041460012291F82030CC69A7
:1042D00003F01C039A40626001228A614A70002246
:1042E0000A70096909B1F0BC0847F0BC70470000CA
:1042F000304B19684FF6FF020002114000F4E060F5
:1043000008432D4908431860704730B4294B1C6896
:10431000C4F30223C3F10704052C28BF04241D1D88
:10432000072D34BF0023DB1E012505FA04F4641EAB
:104330002140994005FA03F35B1E1A40114309011D
:10434000020003D41D48815430BC70471C4B02F05E
:104350000F021A4402F8041C30BC7047010007D455
:10436000012200F01F01174B8A40400943F820202A
:10437000704701000BD4012200F01F01124B8A404C
:10438000400943F82020BFF34F8FBFF36F8F704772
:10439000401EB0F1807F01D3012070470B490C4AC9
:1043A00048600023F02010708B6007200860002018
:1043B000704700000CED00E00000FA0500E400E0AA
:1043C00018ED00E000E100E080E100E010E000E036
:1043D00023ED00E038B5040001D1012032BD04F125
:1043E0003C05687820B900212970204603F036F892
:1043F000FFE702206870211D206800F0C9F8012045
:104400006870002032BD38B5040001D1012032BDF2
:1044100004F13C05687820B900212970204603F09A
:10442000BDF8FFF7E6BFF8B5064606F13C040D46B9
:104430002078012801D10220F2BD01202070022144
:10444000617082B9EB686A682968306800F02EF9FB
:104450003068816921F00C01816131688A69A8683E
:1044600002438A6166E0042A11D1EB686A68296810
:10447000306800F049F93068816921F44061816158
:1044800030688169AA6841EA0221816152E0082A04
:10449000E9686A682B6827D13768386A20F4807029
:1044A0003862090107F11C0001F0F001D0F800C0EA
:1044B000D7F820E04FEA9C0C42EA8C0222F0F0028E
:1044C000114301601B022EF4206003F420630343B8
:1044D0003B623068C16921F00C01C1613168CA6971
:1044E000A8680243CA6125E030681C3009034768A8
:1044F00027F48057476001F470410768D0F804C082
:1045000027F4407747EA022727F4704739430160D0
:104510001B032CF4204103F420430B434360306819
:10452000C16921F44061C1613068C169AA6841EA8A
:104530000221C16101206070002121700020F2BDC4
:1045400038B5054605F13C042078012801D1022048
:1045500032BD0120207002226270284600F04BF824
:1045600000B104E02868C16821F0400104E00120A6
:1045700060700021217032BDC1602868C16821F4DB
:104580008041C1600120607000212170002032BD97
:1045900030B4DFF868410368A04218BFB0F1804F23
:1045A00001BF23F070034A681343A04209D0B0F161
:1045B000804F1FBFDFF848219042DFF84851A842E2
:1045C00003D1CA6823F4407313434A6923F080037C
:1045D00013430360A0428B68C3620A6882621FBFF4
:1045E000474B9842474A904201D109690163012231
:1045F000426130BC704730B404683F4AA5684B68DC
:10460000086825F070051D4315400543A5604A68FC
:10461000402A11D0502A22D0602A32D0702A42D1AA
:1046200008698A68C968A36823F47F4319430A4369
:1046300042EA0022A26036E00868052808BF01208F
:1046400032D0206A226A520852002262A2690969A5
:1046500022F0F00242EA0112A261206223E008691E
:104660008968226A236A5B085B00236222F00A02DF
:10467000A36923F0F00343EA0013A361114321620D
:1046800011E008698968226A22F010022262A26998
:10469000236A22F4704242EA003223F0A003A261AE
:1046A00043EA01132362002030BC704770B4046AEF
:1046B000124E640864000462B0428469056A1EBF39
:1046C000B0F1804F0E4EB04203D1A40842EA8402FA
:1046D00001E044F001021B0122F0F00203F0F003BC
:1046E0001A4325F00A0501F00A018261294301629B
:1046F00070BC704700000000F8FFFEFF002C014076
:10470000004001400044014030B4046A24F0100429
:1047100004621B038469056A24F4407444EA022499
:1047200024F4704403F470430901234325F0A005E9
:1047300001F0A00183612943016230BC704701F0A0
:104740001F01036A4FF0010C0CFA01FC23EA0C0371
:10475000036202FA01F1036A194301627047000023
:104760002DE9F8438CB002F01BFF00F0CDF800F00B
:104770001CF9CA48CA4C016841F00101016004F10A
:1047800084050068C74900F00100009001220098EC
:10479000C5482860C4F880100020C021E860286166
:1047A0006861A861E8616960AA6004F1800630462A
:1047B00000F0D6FC00B1FEE70021304602F000FF19
:1047C00000B1FEE70021304602F017FF00B1FEE71E
:1047D000B64820604FF461210C20002260616160C6
:1047E000A260E2602261A261E2612262626220460E
:1047F00000F06AF900B1FEE707A8002100220023BB
:104800000EC006C004AF68468C468E468846894670
:1048100087E8005180E80E0204F550774FF08040A1
:10482000386079608020B861B960F96039613846D4
:10483000FFF7D0FD00B1FEE73846FFF7E4FD00B119
:10484000FEE74FF48031079160220221099108921E
:10485000CDF82C8007A93846FFF772FE00B1FEE7BD
:1048600030210491CDF8188004A9384602F006FFE3
:1048700000B1FEE70221012200910192CDF80880EB
:10488000CDF80C80042269463846FFF7CCFD00B114
:10489000FEE78748A864082102202865A865E96426
:1048A000C5F85C80C5F86080C5F86480C5F868808C
:1048B00004F1CC0002F00CFF00B1FEE7022200215F
:1048C0000620FFF722FD0620FFF748FD0122002108
:1048D0000720FFF71AFD0720FFF740FD0022002107
:1048E0002520FFF712FD2520FFF738FD00220021CB
:1048F0001120FFF70AFD1120FFF730FD224639464F
:10490000304602F0C2FFFEE7F0B5ABB005A8442187
:10491000FDF7D0FB6C46002500260027E0C460C4EC
:1049200016A85421FDF7C6FB4FF4807101220891AF
:104930000E921021022209910F9210921E21032241
:1049400011921291222005900722022113921491B4
:10495000159105A800F0E2FE00B1FEE70F2003214B
:10496000009001910295039504950421684601F099
:104970005DF900B1FEE742F2410116911E954FF438
:1049800080512191269516A802F0DCFF00B1FEE7C8
:1049900000224FF0407101F0D1F94FF4007003F0A4
:1049A00087F900B1FEE72BB0F0BD10B586B06846C0
:1049B0000021002200230EC006C03E48046844F0D7
:1049C0000404046001683C4C01F004010591059960
:1049D000026842F001020260036803F001030593DC
:1049E0000599026842F0020202600022006800F0AD
:1049F000020005904FF40041059B4FF0904000F0FD
:104A000059FE00221021204600F054FEFF20002114
:104A10000090019102914FF09040694600F086FDB0
:104A20000120264900900191002202926946204609
:104A300000F07CFD022022490090019100220292A8
:104A40006946204600F072FD4FF48070022100900C
:104A50000191002202920392049269464FF0904025
:104A600000F064FD0122019202924FF40041009196
:104A70000022039269464FF0904000F057FD10214C
:104A800000910122019202210291002203926946C3
:104A9000204600F04BFD06B010BD0000481002405B
:104AA000B4EA002000540040EC9C90100038014013
:104AB000006800404C100240000400480000311023
:104AC00000001110FEE7000038B5040014D004F116
:104AD0007005696821B900202870204602F007FDA2
:104AE0002421696020680268520852000260204652
:104AF00000F03EF9012801D1012032BD606A10B1F9
:104B0000204600F073FA2068416821F4904141602A
:104B10002068816821F02A01FFE781602068016830
:104B200041F0010101602046BDE8324000F0C1BA09
:104B30002DE9F047054605F170078A467868202878
:104B40001446984661D1BAF1000F14BF002C012021
:104B50005CD03878012858D0012139700020F860E5
:104B600021227A6005F1500600F0BEFD34808146B6
:104B70007480A868B0F5805F04BF286900281ABF58
:104B800050460024544682460CE0BAF1000F12BF92
:104B90001AF8011B34F8021BC1F308010185708863
:104BA000411E7180708880B12868C1690A06ECD402
:104BB00018F1010FF8D000F097FDA0EB0900804537
:104BC00013D3B8F1000FEFD10FE02968C86941068F
:104BD0001ED418F1010FF8D000F086FDA0EB0900FB
:104BE000804502D3B8F1000FEFD12868016821F4A5
:104BF000D0710160286881684908490081602020DF
:104C00007860B8600020387007E00220BDE8F087C7
:104C1000202078600021397002E00320BDE8F08791
:104C20000020BDE8F08770B504462568E9692A6868
:104C3000AB6811F00F000BD1880671D596066FD5C1
:104C4000216E002900F093802046BDE8704008479F
:104C5000D80702D412F4907F62D0C80707D5D605D2
:104C600005D501202862E56F45F00105E567880755
:104C700008D5DD0706D5266802203062E06F40F0D7
:104C80000400E067480708D5DD0706D5266804203C
:104C90003062E06F40F00200E06708070AD5950631
:104CA00001D4D80706D5256808232B62E06F40F0B1
:104CB0000800E067E06F002859D0880605D5910606
:104CC00003D5216E09B120468847E06F21688A68C4
:104CD000510601D400071DD5204600F028FA2068AF
:104CE00081684A0611D5816821F040018160E06E3B
:104CF00058B10FF25D418163E06EFFF773FAB0B314
:104D0000E06E816BBDE8704008472046BDE870400A
:104D100003F00CB8204603F009F80020E06770BDEE
:104D2000C80209D55B0207D54FF4801028622046DF
:104D3000BDE8704002F0FBBF080607D5130605D595
:104D4000616EA1B12046BDE87040084748060ED507
:104D500051060CD5286820F04000286020216167AA
:104D6000002060662046BDE8704002F0E1BF70BDE3
:104D7000F8B50446944822681368A1680340206986
:104D80000B4361690343E0690B430343136000264F
:104D90005168E06821F44051014351600025A36946
:104DA0008A498A421CBF206A03439768884827F4CF
:104DB00030673B438242936022D1864B1F6807F0E5
:104DC0000307032F2AD8DFE807F00259575B0127B2
:104DD000E069B0F5004F40F0B980082F00F2A880DC
:104DE000DFE807F0058790A695A6A6A69E0001F02D
:104DF00011F861684A0802EB4002B2FBF1F695E057
:104E00007548824225D1734B1F6817F00C0731D0CB
:104E1000042F33D0082F2FD00C2F31D010278A42E7
:104E2000D6D1380006D0022F2CD0042F2CD0082F3A
:104E30002DD0C3E000F0EEFF002800F0C0806268D3
:104E400002EB42018842C0F0B9801303834221D2B1
:104E5000B4E08A42E2D15F48036813F4406309D0AA
:104E6000B3F5806F0AD0B3F5006F05D0B3F5406F8E
:104E700006D0D3E70027D2E70227D0E70427CEE702
:104E80000827CCE75548DAE700F07CFFD4E74FF479
:104E90000040D4E737B1022F0DD0042F11D0082FD6
:104EA0001CD021E000F0B6FF6268010E560816EB38
:104EB000002079410DE04A4911EB520045EB050114
:104EC00007E000F05FFF6268010E560816EB002055
:104ED0006941002302F02EFF064606E0530803F561
:104EE0000003B3FBF2F600E00125A6F540703D4952
:104EF0005FE000F097FF61684A0802EB4002B2FBF6
:104F0000F1F613E06068384901EB50010CE000F065
:104F100039FF61684A0802EB4002B2FBF1F605E096
:104F20006068410801F58031B1FBF0F6B6B200E0EF
:104F300001254FF6F071A6F1100088423ED23140B3
:104F4000C6F3420001432068C16038E0082F2BD827
:104F5000DFE807F0050D152A1A2A2A2A220000F098
:104F600059FF616800EB5100B0FBF1F61AE000F068
:104F700059FF616800EB5100B0FBF1F612E0606888
:104F8000164901EB50010BE000F0FCFE616800EBFC
:104F90005100B0FBF1F605E06068410801F5004101
:104FA000B1FBF0F6B6B200E00125A6F110004FF615
:104FB000F071884202D22268D66000E0012500200C
:104FC000206660662846F2BDF369FFEF008000406E
:104FD0000038014088100240004400400024F400E2
:104FE000000024F400FD0F000048E80190F82410B0
:104FF000CA0706D502685368816A23F400330B435D
:10500000536090F824108A0706D502685368C16A75
:1050100023F480330B43536090F824104A0706D5DD
:1050200002685368016B23F480230B43536090F8AC
:1050300024100A0706D502685368416B23F4004325
:105040000B43536090F82410CA0606D50268936893
:10505000816B23F480530B43936090F824108A06ED
:1050600006D502689368C16B23F400530B43936029
:1050700090F824104A0610D502685368016C23F496
:1050800080130B435360036CB3F5801F05D1536845
:10509000416C23F4C0030B43536090F824100A06BC
:1050A00006D501684A68806C22F4002202434A60F7
:1050B000704770B5054605F170040020E06000F00F
:1050C00013FB0646286801680A0721D52868C169CC
:1050D00088021DD400F008FB801BB0F1007FF5D3DF
:1050E00005E000F001FB801BB0F1007F14D32868BD
:1050F000016821F4D071016028688168490849007D
:10510000816020206060A06000202070032070BDBE
:10511000286801684A0703D52868C1694802E0D5B4
:1051200020216160A16000200021217070BD016814
:105130000A6822F490720A6001688A685208520074
:105140008A6020218167002202667047000000000B
:10515000806A00F1520100220A810A8002F0E6BD55
:1051600038B5040001D1012032BD04F14005687852
:1051700020B900212970204602F03FF924206870F0
:10518000206801684908490001606068216820F0D2
:10519000706008612068816821F400418160E068E6
:1051A00021680128A0680CBF40F4004040F404408E
:1051B0008860E068022803D120684FF400614160F4
:1051C0002068416841F0007141F40041416020686D
:1051D000C16821F40041C16060692169A26901438D
:1051E000206841EA0221C160206AE1692268014326
:1051F00011602068016841F00101016000206860D1
:10520000202169702063A87032BD2DE9F84305465E
:1052100005F140078846787820281446994672D1CF
:10522000397801296FD00120387000F05DFA064608
:105230000096192301224FF40041284600F0AEF8F1
:10524000002868D1212078701021B9700020786082
:105250006C62A5F82A906863089C698DDFF81001DC
:10526000B1F5807F05D3FF222A8500904FF080732F
:1052700005E06A8D2A8500904FF00073D2B2414656
:10528000284600F03CF908E0FF232B8543681A40CC
:105290001143DFF8E02011434160688D002833D0CE
:1052A00032462146284600F0A7F8002833D1686A24
:1052B0002A6801789162686A411C6962688D411EA2
:1052C0006985288D411E2985688D0028E5D089B221
:1052D0000029E2D1286881690A061DD414F1010F62
:1052E000F8D000F001FA801B844201D3002CF1D1E8
:1052F000786840F020007860202179700020B87034
:10530000387008E023E01CE021463246284600F0D1
:105310009AF80028F6D017E06B8DDFF85C20B3F523
:10532000807FC8F30901AFD26B8D2B85DBB2D0F83B
:1053300004C002EA0C02114341EA034141F000714A
:10534000AAE70220BDE8F2830120BDE8F2832968C4
:105350002020C8612968DFF824004A6802404A60BA
:10536000202179700020B8703870BDE8F283000009
:10537000002000800000FF01009C00FC00E800FE0F
:10538000006881698A0744BF002181628169CA0778
:1053900003D4816941F00101816170472DE9F04139
:1053A000069F05460E4690461C4628688169314096
:1053B000B1420CBF01200020404517D114F1010F6C
:1053C000F3D000F091F9C01B844201D3002CECD142
:1053D00005F140002022416841F020014160427007
:1053E0000021817001700120BDE8F08101E01043CF
:1053F00008600020BDE8F08170B505460C461646F1
:105400002868816988071CD432462146284600F066
:105410003EF8A0B914F1010FF2D000F065F9801B3D
:10542000844201D3002CEBD105F1400020224168D9
:1054300041F0200141604270002181700170012023
:1054400070BD002070BD70B505460C461646286834
:105450008169880619D432462146284600F017F89B
:1054600088B900F041F9801B844201D3002CEED1B1
:1054700005F140002022416841F020014160427066
:10548000002181700170012070BD002070BD70B5D9
:1054900005460C4628688169C80616461AD528684C
:1054A00081698A0618D414F1010FF8D000F01CF9B4
:1054B000801B844201D3002CF1D105F140004168EA
:1054C00041F0200141602022427000218170017072
:1054D000012070BD002070BD1021C16120202A680C
:1054E000D0612846FFF74CFF29680E484A68024001
:1054F00005F140004A60416841F00401E2E770B400
:105500000068039C4568084E46EA5456B543C1F30B
:105510000901294341EA024119432143416070BC1A
:105520007047000000E800FEFF63FF032DE9F84F1D
:105530000024674A674BDFF8A081DFF8A0914FF0A5
:105540000F0A07468E4637E0654EB74214BF07265E
:105550000226AE4046EA0C0648F82160C1431568B1
:1055600001EA050CDEF80450EE0348BF40EA0C0CDB
:10557000C2F800C0556801EA050CDEF80450AE031D
:1055800048BF40EA0C0CC2F804C0956801EA050C5B
:10559000DEF80450EE0248BF40EA0C0CC2F808C026
:1055A000D56801EA050CDEF804108D0248BF40EA18
:1055B0000C0CC2F80CC0641CDEF8001031FA04F0C8
:1055C00076D0012000FA04FC1CEA0100F3D0DEF8DA
:1055D0000410022918BF122910D1E10807EB81013C
:1055E000A5000E6A05F01C050AFA05FB26EA0B0663
:1055F000DEF810B00BFA05F535430D6261000325A6
:105600003E689EF804B08D40ED430BF0030B2E4036
:105610000BFA01FB4BEA06063E60DEF80460012E41
:1056200018BF022E03D0112E18BF122E13D1BE6840
:10563000DEF80CB02E400BFA01FB4BEA0606BE600A
:105640007E6826EA0C0CDEF80460C6F30016A6405D
:1056500046EA0C067E60FE683540DEF8086006FA11
:1056600001F12943F960DEF80410C900A3D5D9F887
:10567000001041F00101C9F80010D9F8005005F000
:1056800001050095A5000099A10858F8216005F0D2
:105690000C050AFA05FC26EA0C0CB7F1904F08BF7E
:1056A00000263FF456AF9F427FF44EAF012650E7ED
:1056B000BDE8F18F0AB18161704781627047094A84
:1056C000136803421CBF1060FDF77CBD70470000EB
:1056D000000401400004004808000140601002403E
:1056E000000800481404014001480068704700BFEA
:1056F0002C18002038B50446FFF7F6FF14F1010F0F
:10570000054602D0044988680419FFF7EDFF401BE5
:10571000A042FAD331BD00BF2C1800202DE9FC4770
:10572000050000F0A481DFF88877DFF89847B868B3
:1057300000F00C09F86800F003082878C10640F171
:10574000AA81B9F1000F05D0B9F10C0F08BFB8F16B
:10575000010F57D13868810703D5A869002800F0E8
:105760008681396808074EBF396861680909286A67
:1057700001F0F001814216D200F060FB002840F0F9
:105780007681386840F0080038603968286A21F06E
:10579000F001014339607968E86921F47F4141EA09
:1057A0000021796016E0386840F0080038603968F8
:1057B000286A21F0F001014339607968E86921F431
:1057C0007F4141EA00217960286A00F037FB002818
:1057D00040F04D8100F0D6FABA68DFF8EC16C2F35B
:1057E0000312895CDFF8CC2601F01F01C84010606D
:1057F000DFF8C806006802F0B5FB010000F04B813D
:10580000BDE8F687A869C8B1396841F0010139607F
:10581000FFF76AFF06463868810700F12B81FFF722
:1058200063FF801B0328F6D30320BDE8F687FFF74C
:105830005BFF801B0328C0F06981F5E738684008EA
:1058400040003860FFF750FF06463868810740F196
:105850002281FFF749FF801B0328F6D3E4E768683D
:10586000B0F5803F04D1386840F48030386011E0F2
:10587000B0F5A02F386806D140F480203860396830
:1058800041F4803105E020F480303860396821F43B
:1058900080213960686860B1FFF726FF06463868E6
:1058A000810300F10B81FFF71FFF801B6528F6D3F2
:1058B000BAE7FFF719FF06463868810340F1FE801A
:1058C000FFF712FF801B6528F6D3ADE7E86880B1CB
:1058D000396841F480713960FFF706FF0646386881
:1058E000410500F1FE80FFF7FFFE801B0328F6D381
:1058F0009AE7386820F480703860FFF7F5FE0646B6
:105900003868410540F1F480FFF7EEFE801B032864
:10591000F6D389E7400840006060FFF7E5FE0646E1
:105920006068810740F1F680FFF7DEFE801B0328E8
:10593000F6D379E70528206806D140F004002060FE
:10594000216841F0010105E0400840002060216825
:1059500021F004012160A86878B1FFF7C5FE8246F6
:1059600041F289382068810700F10881FFF7BCFE09
:10597000A0EB0A004045F5D356E7FFF7B5FE824697
:1059800041F289382068810740F1F880FFF7ACFECA
:10599000A0EB0A004045F5D346E7FFF7A5FE801BC4
:1059A0000328C0F0FE803FE740084000A060FFF7FA
:1059B0009BFE0646A068810740F1F780FFF794FE42
:1059C000801B0328F6D32FE7FFF78EFE801B0328EA
:1059D000C0F0FB8028E7FFF787FE801B0328C0F09C
:1059E0001E8121E73968080103D4F9688908890014
:1059F000F960F968DFF8D4040140F960FFF774FE3C
:105A000006463868810140F10E81FFF76DFE801B6C
:105A10000328F6D308E7012829D0F868EA6A00F0DD
:105A20000301914201BF00F070012A6B521EB1EBDD
:105A3000021F1CD16A6B00F4FE41B1EB022F02BFC2
:105A400000F07841AA6BB1EBC26F10D1EA6B52083B
:105A500000F4C001521EB1EB425F08D1296C490825
:105A600000F0C060491EB0EB416F00F0DC80012007
:105A7000BDE8F687386840F0080038603968286A61
:105A800021F0F001014339607968E86921F47F4130
:105A900041EA002179602878C1070FD5B9F1080FD4
:105AA00006D0B9F10C0F08BFB8F1030F7FF4D7AEE1
:105AB0003868810302D568680028D8D0297888071B
:105AC00016D5B9F1040F06D0B9F10C0F08BFB8F123
:105AD000020F7FF4FBAE3868410502D5E868002864
