:020000040800F2
:100000000806002039280008FD260008FF26000801
:10001000012700080327000805270008000000004A
:10002000000000000000000000000000072700089A
:1000300009270008000000000B2700080D27000812
:100040005D28000861280008652800086928000864
:100050006D280008712800081127000817270008DC
:1000600075280008792800087D28000881280008E4
:1000700085280008892800088D2800089128000894
:10008000952800081D270008992800089D280008C9
:10009000A1280008A5280008A9280008AD28000804
:1000A000B1280008B5280008B9280008BD280008B4
:1000B000C12800080000000000000000C52800085A
:1000C000C92800080000000000000000CD2800083A
:1000D0000000000023270008D128000800000000CD
:1000E000D5280008D9280008000000000000000002
:1000F0000000000000000000000000000000000000
:10010000000000000000000000000000DD280008E2
:100110000000000000000000E1280008E5280008B9
:10012000E9280008ED280008F1280008F528000853
:10013000F928000800000000000000000000000096
:10014000FD280008012900080529000809290008E0
:10015000292700080D290008112900081529000881
:10016000192900081D2900082129000800000000A5
:1001700025290008292900080000000000000000CF
:100180002D29000831290008352900082DE9FC47F0
:10019000050000F0A481DFF88877DFF89447B8689D
:1001A00000F00C09F86800F003082878C10640F157
:1001B000AA81B9F1000F05D0B9F10C0F08BFB8F151
:1001C000010F57D13868810703D5A869002800F0CE
:1001D0008681396808074EBF396861680909286A4D
:1001E00001F0F001814216D200F060FB002840F0DF
:1001F0007681386840F0080038603968286A21F054
:10020000F001014339607968E86921F47F4141EAEE
:100210000021796016E0386840F0080038603968DD
:10022000286A21F0F001014339607968E86921F416
:100230007F4141EA00217960286A00F037FB0028FD
:1002400040F04D8100F0D6FABA68DFF8E816C2F344
:100250000312895CDFF8CC2601F01F01C840106052
:10026000DFF8C406006800F07BFB010000F04B8162
:10027000BDE8F687A869C8B1396841F00101396065
:1002800000F090FB06463868810700F12B8100F0F2
:1002900089FB801B0328F6D30320BDE8F68700F016
:1002A00081FB801B0328C0F06981F5E738684008AE
:1002B0004000386000F076FB06463868810740F160
:1002C000228100F06FFB801B0328F6D3E4E7686807
:1002D000B0F5803F04D1386840F48030386011E0D8
:1002E000B0F5A02F386806D140F480203860396816
:1002F00041F4803105E020F480303860396821F421
:1003000080213960686860B100F04CFB06463868AF
:10031000810300F10B8100F045FB801B6528F6D3BB
:10032000BAE700F03FFB06463868810340F1FE80E3
:1003300000F038FB801B6528F6D3ADE7E86880B194
:10034000396841F48071396000F02CFB064638684A
:10035000410500F1FE8000F025FB801B0328F6D349
:100360009AE7386820F48070386000F01BFB06467E
:100370003868410540F1F48000F014FB801B03282D
:10038000F6D389E740084000606000F00BFB0646AA
:100390006068810740F1F68000F004FB801B0328B1
:1003A000F6D379E70528206806D140F004002060E4
:1003B000216841F0010105E040084000206021680B
:1003C00021F004012160A86878B100F0EBFA8246C0
:1003D00041F289382068810700F1088100F0E2FAD3
:1003E000A0EB0A004045F5D356E700F0DBFA824661
:1003F00041F289382068810740F1F88000F0D2FA94
:10040000A0EB0A004045F5D346E700F0CBFA801B8D
:100410000328C0F0FE803FE740084000A06000F0E5
:10042000C1FA0646A068810740F1F78000F0BAFAE9
:10043000801B0328F6D32FE700F0B4FA801B0328B3
:10044000C0F0FB8028E700F0ADFA801B0328C0F065
:100450001E8121E73968080103D4F96889088900F9
:10046000F960F968DFF8D0040140F96000F09AFA09
:1004700006463868810140F10E8100F093FA801B36
:100480000328F6D308E7012829D0F868EA6A00F0C3
:100490000301914201BF00F070012A6B521EB1EBC3
:1004A000021F1CD16A6B00F4FE41B1EB022F02BFA8
:1004B00000F07841AA6BB1EBC26F10D1EA6B520821
:1004C00000F4C001521EB1EB425F08D1296C49080B
:1004D00000F0C060491EB0EB416F00F0DC800120ED
:1004E000BDE8F687386840F0080038603968286A47
:1004F00021F0F001014339607968E86921F47F4116
:1005000041EA002179602878C1070FD5B9F1080FB9
:1005100006D0B9F10C0F08BFB8F1030F7FF4D7AEC6
:100520003868810302D568680028D8D02978880700
:1005300016D5B9F1040F06D0B9F10C0F08BFB8F108
:10054000020F7FF4FBAE3868410502D5E868002849
:10055000C5D07868296920F0F85040EA01607860D9
:10056000287801070ED56869002860683FF40AAF53
:1005700040F00100606000F015FA064660688107EF
:100580007FF58DAE2878410735D5B86D0026C100BE
:1005900009D4B86D40F08050B8650126B86D00F000
:1005A000805000900098DFF89483D8F80000C105CF
:1005B00013D4D8F8000040F48070C8F8000000F0B0
:1005C000F1F98246D8F80000C10506D400F0EAF936
:1005D000A0EB0A000328F5D35EE6A86801287FF4A3
:1005E000E1AE206840F001002060ECE61EB1B86D7D
:1005F00020F08050B865287881060ED5686A0028FA
:10060000A0683FF409AF40F00100A06000F0CAF913
:100610000646A06881077FF5F8AEA86AD8B3B9F19D
:100620000C0F3FF430AF0228386820F0807038603B
:100630007FF410AF00F0B6F90646386881013FF547
:10064000FBAEFA68DFF8F812E86A0A40296B024349
:10065000491E686B42EA0112E96B490842EA00222E
:10066000286C491E400842EA4152401E42EA40625C
:10067000A86B42EAC062FA60396841F08071396063
:10068000F86840F08070F86000F08CF90646386831
:1006900081017FF5D8AE0020BDE8F6872DE9F8434B
:1006A0000400884600F07F80DFF89862306800F030
:1006B0000700404509D23168C90848EAC1013160E4
:1006C000306800F0070040456DD12078DFF85052C7
:1006D000C10750D56068032802D129688A0108E063
:1006E000022802D129688A0303E00028296802D180
:1006F0008A0702D457E04A0555D5A968890840EA17
:100700008100A86041F2893900F04CF90746A868D9
:10071000616800F00C00B0EB810F2CD000F042F9C2
:10072000C01B4845F3D30320BDE8F283207841077E
:1007300005D5AA68E06822F4E0620243AA60217845
:10074000080706D5A968206921F4605141EAC00173
:10075000A96000F04FF8AA687649C2F30312895CD9
:10076000704A01F01F01C8401060BDE8F2436E48B6
:10077000006800F0F5B82078810705D5AA68A06860
:1007800022F0F0020243AA60316801F007018845B7
:10079000CCD23068C00848EAC0003060316801F04F
:1007A00007014145C2D00120BDE8F28370B5664E15
:1007B00086B0706C40F0010070641546706C00F0FB
:1007C0000100009002220C460098029204924FF41D
:1007D0008071019100220392059201A94FF090408F
:1007E00000F0E6F8316821F0FE410C432C43346000
:1007F00006B070BD10B44A4A9068D4680023002146
:1008000010F00C0004F0030403D00C2812D1012CCA
:100810001AD113681C0704D4444B1C68C4F3032387
:1008200002E01368C3F30313484C54F8233048B96B
:10083000194624E0042808BF454920D008281ED1C5
:1008400044491CE00C281AD1D06800F003000228AB
:1008500003D0032808BF3F4B00E03D4BD168D06870
:10086000D268C0F306204343C1F30210C2F34161D2
:10087000401C491CB3FBF0F04900B0FBF1F110BC87
:10088000084670472748304A006813683249C3F366
:10089000022206E023482C4A006813682E49C3F35D
:1008A000C222895C01F01F01C84070477CB52B4E05
:1008B000054630680024C10002D500F057F90EE06B
:1008C000306840F080503060316801F08051009114
:1008D000009800F04BF9316821F080513160B0F59B
:1008E000007F04D1802D0CD9A12D09D304E0802DE7
:1008F00088BF032405D801D1022402E0702D00D165
:10090000012410480168C90844EAC1010160006877
:1009100000F00700A04201D0012076BD002076BD86
:1009200000100240940000208C000020941002402F
:1009300090100240BC260008FFFFEEFE0070004051
:100940008C809D010020024008100240CC26000847
:100950000024F40000127A005428000858100240C5
:1009600070B50E4E0446B0680025A0B14FF47A7100
:100970000B4AB1FBF0F11068B0FBF1F000F07BF92D
:1009800048B9102C07D2002221464FF0FF3000F06A
:100990003EF9746000E00125284670BD8800002003
:1009A0009400002001480068704700BF88000020C4
:1009B0002DE9F84F0024674A674BDFF8A081DFF884
:1009C000A0914FF00F0A07468E4637E0654EB742BA
:1009D00014BF07260226AE4046EA0C0648F82160FE
:1009E000C143156801EA050CDEF80450EE0348BF68
:1009F00040EA0C0CC2F800C0556801EA050CDEF8AC
:100A00000450AE0348BF40EA0C0CC2F804C095681D
:100A100001EA050CDEF80450EE0248BF40EA0C0C77
:100A2000C2F808C0D56801EA050CDEF804108D0292
:100A300048BF40EA0C0CC2F80CC0641CDEF8001081
:100A400031FA04F076D0012000FA04FC1CEA01001F
:100A5000F3D0DEF80410022918BF122910D1E108E2
:100A600007EB8101A5000E6A05F01C050AFA05FBDB
:100A700026EA0B06DEF810B00BFA05F535430D62D9
:100A8000610003253E689EF804B08D40ED430BF0F5
:100A9000030B2E400BFA01FB4BEA06063E60DEF824
:100AA0000460012E18BF022E03D0112E18BF122E83
:100AB00013D1BE68DEF80CB02E400BFA01FB4BEAF6
:100AC0000606BE607E6826EA0C0CDEF80460C6F3FB
:100AD0000016A64046EA0C067E60FE683540DEF849
:100AE000086006FA01F12943F960DEF80410C90034
:100AF000A3D5D9F8001041F00101C9F80010D9F8C8
:100B0000005005F001050095A5000099A10858F8CE
:100B1000216005F00C050AFA05FC26EA0C0CB7F179
:100B2000904F08BF00263FF456AF9F427FF44EAF70
:100B3000012650E7BDE8F18F0AB1816170478162FB
:100B40007047094A136803421CBF106000F0B2B836
:100B50007047000000040140000400480800014004
:100B6000601002400008004814040140DFF87800DB
:100B7000006800F4C060704730B4DFF86C10B0F566
:100B8000007F086800F4C0601BD1B0F5007F21D061
:100B90000868DFF85820DFF8585020F4C06040F4AF
:100BA00000700860322013684343A3FB0554E00C37
:100BB000401C4A69530510D5002818BF401EF8D1C3
:100BC0000BE0B0F5806F05D0086820F4C06040F4F9
:100BD00080600860002030BC704748694105F9D545
:100BE00030BC0320704700000070004094000020DB
:100BF00006BD3786284B19684FF6FF0200021140E8
:100C000000F4E0600843254908431860704730B499
:100C1000214B1C68C4F30223C3F10704052C28BF31
:100C200004241D1D072D34BF0023DB1E012505FAFA
:100C300004F4641E2140994005FA03F35B1E1A4038
:100C400011430901020003D41548815430BC704798
:100C5000144B02F00F021A4402F8041C30BC704717
:100C6000010007D4012200F01F010F4B8A40400908
:100C700043F820207047401EB0F1807F01D301204F
:100C800070470A490A4A48600023F02010708B60C0
:100C900007200860002070470CED00E00000FA0516
:100CA00000E400E018ED00E000E100E010E000E00A
:100CB00023ED00E070471CB5049C009400F069F837
:100CC00013BD78B585B06B4600240025002670C39F
:100CD00030C3009101926946FFF76AFE06B070BD0D
:100CE000FFF72ABF00F0E6B938B5040001D10120B2
:100CF00032BD04F14005687820B9002129702046F2
:100D000000F00BFA24206870206801684908490047
:100D100001606068216820F0706008612068816867
:100D200021F400418160E06821680128A0680CBFBF
:100D300040F4004040F404408860E068022803D199
:100D400020684FF4006141602068416841F0007103
:100D500041F4004141602068C16821F40041C16054
:100D600060692169A2690143206841EA0221C160EA
:100D7000206AE1692268014311602068016841F03E
:100D80000101016000206860202169702063A87063
:100D900032BD2DE9F843054605F1400788467878CD
:100DA00020281446994672D1397801296FD0012044
:100DB0003870FFF7F7FD06460096192301224FF41D
:100DC0000041284600F0AEF8002868D12120787054
:100DD0001021B970002078606C62A5F82A906863D1
:100DE000089C698DDFF81001B1F5807F05D3FF22E3
:100DF0002A8500904FF0807305E06A8D2A85009067
:100E00004FF00073D2B24146284600F03CF908E0AA
:100E1000FF232B8543681A401143DFF8E02011437C
:100E20004160688D002833D032462146284600F0C4
:100E3000A7F8002833D1686A2A6801789162686A45
:100E4000411C6962688D411E6985288D411E298576
:100E5000688D0028E5D089B20029E2D1286881692F
:100E60000A061DD414F1010FF8D0FFF79BFD801B7B
:100E7000844201D3002CF1D1786840F020007860E2
:100E8000202179700020B870387008E023E01CE061
:100E900021463246284600F09AF80028F6D017E09E
:100EA0006B8DDFF85C20B3F5807FC8F30901AFD20A
:100EB0006B8D2B85DBB2D0F804C002EA0C02114323
:100EC00041EA034141F00071AAE70220BDE8F28344
:100ED0000120BDE8F28329682020C8612968DFF875
:100EE00024004A6802404A60202179700020B870CE
:100EF0003870BDE8F2830000002000800000FF0190
:100F0000009C00FC00E800FE006881698A0744BF7D
:100F1000002181628169CA0703D4816941F001011E
:100F2000816170472DE9F041069F05460E469046C7
:100F30001C46286881693140B1420CBF0120002065
:100F4000404517D114F1010FF3D0FFF72BFDC01B63
:100F5000844201D3002CECD105F1400020224168ED
:100F600041F0200141604270002181700170012038
:100F7000BDE8F08101E0104308600020BDE8F08189
:100F800070B505460C4616462868816988071CD44A
:100F900032462146284600F03EF8A0B914F1010F70
:100FA000F2D0FFF7FFFC801B844201D3002CEBD171
:100FB00005F140002022416841F02001416042706B
:100FC000002181700170012070BD002070BD70B5DE
:100FD00005460C46164628688169880619D43246AB
:100FE0002146284600F017F888B9FFF7DBFC801B84
:100FF000844201D3002CEED105F14000202241684B
:1010000041F0200141604270002181700170012097
:1010100070BD002070BD70B505460C46286881691A
:10102000C80616461AD5286881698A0618D414F1AC
:10103000010FF8D0FFF7B6FC801B844201D3002CCF
:10104000F1D105F14000416841F0200141602022CA
:101050004270002181700170012070BD002070BDC0
:101060001021C16120202A68D0612846FFF74CFF7B
:1010700029680E484A68024005F140004A6041680C
:1010800041F00401E2E770B40068039C4568084E33
:1010900046EA5456B543C1F30901294341EA0241E6
:1010A00019432143416070BC7047000000E800FE16
:1010B000FF63FF0338B50446FFF774FC14F1010F1A
:1010C000054602D0044988680419FFF76BFC401BF1
:1010D000A042FAD331BD00BF8800002080B5774818
:1010E000816841F001018160816801F00101009196
:1010F0000099026842F080520260006800F080505F
:10110000009000980520FFF775FDBDE8084001221A
:1011100000216FF00400FFF77ABD38B586B001A951
:101120000022002300241CC10CC10068644DA842A9
:1011300022D1644C206840F0010020601222216816
:1011400001F0010100914FF4C061009801910292F9
:1011500001210391032204230492059301A94FF076
:101160009040FFF725FCE06840F40010E060E06884
:1011700000F400100090009807B030BD38B586B07C
:10118000044601A80021002200230EC006C02568E5
:10119000B5F1804F39D14B484B4DC16841F0010149
:1011A000C160C16801F0010100910099026842F03C
:1011B000020202600222006800F002000090082192
:1011C0000098029203930191032201230492059354
:1011D00001A93E48FFF7ECFB0421696080213C48EF
:1011E0002860296120200022E8614FF44051AA6064
:1011F000EA606A61AA612962284600F071F808B1C4
:1012000000F048FBA562AC62256307B030BD70B545
:1012100086B0044601A80021002200230EC006C0AB
:1012200025682C4EB54246D126482B4D416941F4E4
:1012300080414161416901F4804100910099026857
:1012400042F0020202600222006800F002000090F8
:10125000E021009802920393019103220723049254
:10126000059301A91948FFF7A3FB4FF4803000F064
:1012700059FB4FF4003000F055FB1848286002215C
:10128000696000201022E86080216861A861E8613F
:101290002862AA602961284600F022F808B100F00F
:1012A000F9FA2564AC62002200212520FFF7AFFC8B
:1012B0002520FFF7D5FC06B070BD00005810024095
:1012C000005400404C10024074010020000400480B
:1012D0008000024000380140BC0100206C04024044
:1012E000F0B400B96CE004682D4DAC4200F1240369
:1012F0000AD22C492C4F2D4DDD610A19A2FB07762D
:10130000320992001A6209E02949274E0A19A2FB04
:1013100006652A09920027491A62D96102225A7089
:1013200025688168C2686FF30E150D430169154386
:1013300042690D4381691543C2690D43016A154332
:101340000D4325608268B2F5804F21D0DA69174CD1
:101350000F21A24209D1184A156893F8204004F0E1
:101360001C04A14025EA010108E0144A146893F81E
:10137000205005F01C05A94024EA01011160116804
:1013800093F82040406804F01C04A0400143116021
:1013900000209861012159701870F0BC704700005E
:1013A00008040240F8FFFDBFCDCCCCCC00000240C9
:1013B000F8FBFDBF00040240A8000240A804024060
:1013C000F0BC0120704738B500F1240100244A78B0
:1013D000022A03D004208861012417E00268136800
:1013E00023F00E031360026815686D086D00156028
:1013F000012291F82030CD6903F01C039A406A6005
:1014000001224A700C70496901B18847204632BDFB
:10141000F0B400F124010423CA6914680268156855
:1014200091F8206006F01C0603FA06F73C4214D03F
:101430006F0712D51468A50603D4146824F00404B9
:10144000146091F82020CC6902F01C029340636084
:10145000C96800293AD0F0BC0847022303FA06F70E
:101460003C4217D0AF0715D51468A50605D41468FB
:1014700024F00A04146001224A7091F82020CC69FB
:1014800002F01C029340636000220A708968E9B18F
:10149000F0BC0847082303FA06F6344216D02B079F
:1014A00014D5146824F00E041460012291F8203041
:1014B000CC6903F01C039A40626001228A614A7081
:1014C00000220A70096909B1F0BC0847F0BC7047F6
:1014D000000030B4002513E050F8042BD30744BFBC
:1014E000A9F101039A18091F042942F8045BFAD2F2
:1014F00013468C0744BF15809B1CC90748BF1D704D
:1015000050F8041B0029E7D130BC7047F8B58CB007
:1015100000F020FA00F0B8F800F015F9D348D44CE8
:10152000016841F001010160026802F001020092CD
:101530000099026842F0020202600022006800F096
:1015400002000090002100981120FFF760FB11209D
:10155000FFF786FB002200214420FFF758FB4420C0
:10156000FFF77EFBC348C449206061600120C022B0
:10157000E0600021A26021616161A161E1612162FD
:101580002046FFF7B1FB00B1FEE70021204600F046
:1015900083F900B1FEE70021204600F09AF900B17E
:1015A000FEE7B648E0644FF46121216500206065E4
:1015B000A065E06508216066A066E066216604F12A
:1015C0004C0000F0D7F900B1FEE707A80021002287
:1015D00000230EC08E4606C0684604AD80E80E406B
:1015E000002600278C4685E8C010002004F19C05E9
:1015F0006860E860286120218020A8614FF0804663
:10160000A9602E60284600F053FB00B1FEE7284693
:1016100000F067FB00B1FEE74FF4803107916022D4
:10162000089209970B9707A9284600F0F7FB00B12D
:10163000FEE70497069704A9284600F0EFFC00B1E6
:10164000FEE7012201920392009702970422694665
:10165000284600F056FB00B1FEE7012201210620DA
:10166000FFF7D5FA0620FFF7FBFA01220121072038
:10167000FFF7CDFA0720FFF7F3FA04F14C022946F1
:10168000204600F01AFDFEE7F0B5ABB005A84421F6
:1016900000F03EFD6C46002500260027E0C460C433
:1016A00016A8542100F034FD00F036FD744801689E
:1016B00021F0180101601622059201214FF4807279
:1016C000079108921021012209910B920221B02268
:1016D0000D920F9101220421109211910A220721EB
:1016E0001292139102220421149215910C9505A8CF
:1016F000FEF74CFD00B1FEE70F20032100900191A1
:1017000002950395049501216846FEF7C7FF00B1D5
:10171000FEE7412016904FF4805221921E9516A8A4
:1017200000F002FD00B1FEE700224FF04071FFF72C
:101730003DF84FF40070FFF71FFA00B1FEE700F02C
:1017400011FE2BB0F0BD10B586B068460021002216
:1017500000230EC006C04B48046844F00404046033
:101760000168494C01F0040105910599026842F0B5
:1017700001020260036803F0010305930599026802
:1017800042F002020260036803F002030593059928
:10179000026842F0800202600022006800F08000CF
:1017A00005904FF41841059B4FF09040FFF7C4F9A6
:1017B000FF21009100220192029269464FF0904071
:1017C000FFF7F6F8032031490090019101220292BF
:1017D00069462046FFF7ECF84FF480700221009034
:1017E0000191002202920392049269464FF09040C8
:1017F000FFF7DEF84FF4C051009101220021029161
:101800000391019269464FF09040FFF7D1F84FF4F1
:10181000C0400321009001910022029269464FF0DE
:101820009040FFF7C5F80122019202924FF4004167
:1018300000910022039269464FF09040FFF7B8F8FC
:101840001020002100900191029120466946FFF787
:10185000AFF808200321009001910022029269460E
:101860000B48FFF7A5F806B010BD00004810024075
:101870009800002000540040340E20000038014041
:10188000901002404C10024000040048000031104B
:10189000001C0048FEE7000030B400F1400253781D
:1018A000202B15D11478012C12D00123137024247D
:1018B000547003681D686D086D001D6003681C6826
:1018C00024F480541C6003681D68294319601DE0DE
:1018D00019E030B400F140025378202B13D1147872
:1018E000012C10D0012313702424547003681D6848
:1018F0006D086D001D6003681C6824F4706444EA80
:1019000001241C6002E030BC0220704700680168BE
:1019100041F0010101602020507000211170002071
:1019200030BC7047094981B00A6842F001020A6080
:10193000096801F001010091009905490A68104306
:10194000FFE7086001B0704700000000601002402F
:1019500004000140032010B5FFF74CF90020FEF70A
:10196000FFFF0024002814BF0124FFF7B7FB204627
:1019700010BD000070B5040014D004F1480569786A
:1019800021B9002028702046FFF741FC0221697030
:1019900020680268520852000260204600F014F9E4
:1019A000012801D1012070BD2068416821F48041E7
:1019B00041602068816821F02A0181602068016807
:1019C00041F00101016000206860FEF7EBFF064670
:1019D000206801680A0718D52068C169880214D4F4
:1019E000FEF7E0FF801B40F2E9318842F4D306E0C5
:1019F000FEF7D8FF801B40F2E931884209D301206D
:101A0000687000212970032070BD206801684A07B2
:101A100003D52068C1694802EAD501216970002018
:101A2000287070BD70B504462568E9692A68AB68FE
:101A300011F00F000BD1880679D5930677D5A16BED
:101A4000002900F0AB802046BDE870400847D80769
:101A500002D412F4907F6AD0C80707D5D60505D501
:101A600001202862E56C45F00105E564880708D58A
:101A7000DD0706D5266802203062E06C40F00400E5
:101A8000E064480708D5DD0706D5266804203062E3
:101A9000E06C40F00200E06408070AD5950601D426
:101AA000D80706D5256808232B62E06C40F00800B3
:101AB000E064E06C002871D0880605D5910603D556
:101AC000A16B09B120468847E06C21688A685106FD
:101AD00001D4000725D5204600F061F82068816810
:101AE0004A0619D5816821F040018160206C20B13F
:101AF00000218163206CFFF766FC606C60B10FF21F
:101B0000BD018163606CFFF75EFC002846D0606C0D
:101B1000816BBDE8704008472046BDE8704000F08A
:101B2000BBBC204600F0B8FC0020E06470BD080695
:101B300007D5130605D5E16B81B32046BDE870409B
:101B4000084748062AD5510628D5286820F04000C5
:101B50002860206881684908490081600020E063AE
:101B600094F8491012290FD12168082008622068D2
:101B7000018B41F008010183012084F849002046CF
:101B8000BDE8704000F089BC608E38B9012184F84E
:101B900049102046BDE8704000F080BC70BD01686F
:101BA0000A6822F4F0720A6001688A6852085200DA
:101BB0008A60012180F8491070470000806A002186
:101BC0004186418500F068BC70B5044633492368FE
:101BD0001E68A0680E402169064360690E430643F3
:101BE00046F400461E6000255E68216AA06926F45E
:101BF0007C560E43E1690643E0680E43002206432B
:101C0000274946F400668B425E600CD12548036884
:101C100003F00303032B2DD8DFE803F0021C172584
:101C2000FEF738FE18E02048834223D11D490B6897
:101C300013F00C0306D0042B0CD0082B05D00C2B72
:101C400011D017E0FEF71EFE06E06068174901EBB1
:101C500050010CE0FEF7CEFD61684A0802EB40023D
:101C6000B2FBF1F207E06068410801F58031B1FB99
:101C7000F0F200E001254FF6F071A2F11000884269
:101C800006D21140C2F3420001432068C16000E067
:101C900001250020A063E063284670BDF369FFEFD3
:101CA0000038014088100240004400400048E8012C
:101CB00038B5040001D1012032BD04F13C0568783B
:101CC00020B9002129702046FFF758FAFFE70220CB
:101CD0006870211D206800F0C9F80120687000209C
:101CE00032BD38B5040001D1012032BD04F13C05FC
:101CF000687820B900212970204600F0D0FBFFF75A
:101D0000E6BFF8B5064606F13C040D4620780128EA
:101D100001D10220F2BD012020700221617082B940
:101D2000EB686A682968306800F02EF930688169CC
:101D300021F00C01816131688A69A86802438A61D7
:101D400066E0042A11D1EB686A682968306800F0FF
:101D500049F93068816921F44061816130688169A5
:101D6000AA6841EA0221816152E0082AE9686A68AA
:101D70002B6827D13768386A20F4807038620901EF
:101D800007F11C0001F0F001D0F800C0D7F820E006
:101D90004FEA9C0C42EA8C0222F0F00211430160EF
:101DA0001B022EF4206003F4206303433B6230687F
:101DB000C16921F00C01C1613168CA69A868024398
:101DC000CA6125E030681C300903476827F4805752
:101DD000476001F470410768D0F804C027F44077E9
:101DE00047EA022727F47047394301601B032CF4AC
:101DF000204103F420430B4343603068C16921F460
:101E00004061C1613068C169AA6841EA0221C161CB
:101E100001206070002121700020F2BD38B5054618
:101E200005F13C042078012801D1022032BD0120B7
:101E3000207002226270284600F04BF800B104E0E6
:101E40002868C16821F0400104E001206070002191
:101E5000217032BDC1602868C16821F48041C16031
:101E60000120607000212170002032BD30B4DFF805
:101E700068410368A04218BFB0F1804F01BF23F052
:101E800070034A681343A04209D0B0F1804F1FBFCE
:101E9000DFF848219042DFF84851A84203D1CA68D0
:101EA00023F4407313434A6923F080031343036010
:101EB000A0428B68C3620A6882621FBF474B984288
:101EC000474A904201D1096901630122426130BC55
:101ED000704730B404683F4AA5684B68086825F02D
:101EE00070051D4315400543A5604A68402A11D07E
:101EF000502A22D0602A32D0702A42D108698A68DA
:101F0000C968A36823F47F4319430A4342EA0022C5
:101F1000A26036E00868052808BF012032D0206A98
:101F2000226A520852002262A269096922F0F00274
:101F300042EA0112A261206223E008698968226AEC
:101F4000236A5B085B00236222F00A02A36923F084
:101F5000F00343EA0013A3611143216211E0086911
:101F60008968226A22F010022262A269236A22F49E
:101F7000704242EA003223F0A003A26143EA011357
:101F80002362002030BC704770B4046A124E6408AB
:101F900064000462B0428469056A1EBFB0F1804FDC
:101FA0000E4EB04203D1A40842EA840201E044F09C
:101FB00001021B0122F0F00203F0F0031A4325F0A6
:101FC0000A0501F00A0182612943016270BC704771
:101FD00000000000F8FFFEFF002C0140004001401F
:101FE0000044014030B4046A24F0100404621B036E
:101FF0008469056A24F4407444EA022424F4704499
:1020000003F470430901234325F0A00501F0A0016A
:1020100083612943016230BC7047000070B400F155
:102020003C031A78012A08BF02201CD001221A7032
:1020300002245C700D4A04686568A668944203D166
:102040004A6825F47005154325F070058A6809680B
:102050000D43656026F08006006816438660012106
:1020600059700020187070BC70470000002C0140AF
:102070002548426802210C3000F012BA10B541F236
:10208000883402E02046FEF72DFE0321012000F0F7
:1020900014FA0028F6D110BD1B4850F8141B00227A
:1020A00000F00EBA80B50321184800F075FA10B19F
:1020B000BDE801401EE001BD7047134B18605A6037
:1020C000996010B5114C04F10801204600F03DFA6A
:1020D0000021204600F058FA0121204600F054FA71
:1020E0000221204600F050FA2046BDE810400321AE
:1020F00000F04ABA10B5054C0421204600F035FA2C
:10210000204600F033FAFBE7000000203C000020EE
:10211000002200F04FBA00000248016841F48071CB
:1021200001607047007000402DE9FC47054600241F
:102130002868DFF848630105A1461CD5E86B58B153
:10214000B0F5000F03D0B0F5400F0AD011E03268AF
:1021500042F48032326005E00021281D00F009F9C8
:1021600004463CB9F16FE86B21F440010143F1678B
:1021700001E00124A146286881032BD5F06CC10041
:102180004FF000080AD4F06C40F08050F0644FF03B
:102190000108F06C00F0805000900098DFF8E072C9
:1021A000386840F480703860FEF7FCFB824638687F
:1021B000C10500F1AE80FEF7F5FBA0EB0A00032895
:1021C000F5D30324A146B8F1000F03D0F06C20F042
:1021D0008050F0642878C10705D5F26F286A92080C
:1021E00040EA8202F2672978880705D5F16F686AAC
:1021F00021F00C010143F1672978880605D5F16FBC
:10220000A86A21F440610143F1672968880505D572
:10221000F16F686B21F440210143F167296848059B
:1022200005D5F16FA86B21F440110143F1672978BE
:10223000480605D5F16FE86A21F440510143F16782
:102240002968C80505D5F16F286B21F44031014399
:10225000F1672968880420D5F16F286C21F040616E
:102260000143F167286CB0F1006F0CD1306840F485
:102270008010306011E0FEF795FB001B504567D3DE
:102280004FF003099FE7B0F1806F06D10121281DAF
:1022900000F06FF8010018BF81462868410318D587
:1022A000F26F686C22F040620243F267686CB0F132
:1022B000006F04D1306840F48010306009E0B0F164
:1022C000806F06D10121281D00F053F8010018BFCE
:1022D00081462868410410D5F26FA86C22F0405264
:1022E0000243F267A96CB1F1805F06D10221281D7B
:1022F00000F03FF8010018BF81462868010405D5A9
:10230000F26FE86C22F080420243F2674846BDE873
:10231000F687002C7FF456AFDFF86871386810F448
:1023200040701CBF296D88420BD03868396841F471
:102330008031396020F440703A6822F480323A608B
:102340003860C00707D5FEF72DFB044641F2893AF5
:10235000386881078FD53A68286D22F440720243AD
:102360003A6030E7DFF82001016841F004010160C4
:1023700070472DE9F0410746434E38680C46F16836
:10238000002511F0030F0DD0F16801F00301814227
:1023900037D1B0B3F0687968C0F30210401C8842AE
:1023A00013D02EE0012804D02BD3032823D01ED332
:1023B00027E03268910724D5F268796822F0730229
:1023C0001043491E40EA0110F060306820F0806040
:1023D0003060FEF7E7FA8046306801013AD5FEF733
:1023E000E1FAA0EB08000328F6D3032542E03168A8
:1023F0004A05E1D405E031688A03DDD431684A0337
:10240000DAD4012536E0012C326909D13B691F4835
:1024100002405B0842EA01215B1E41EA435108E0A9
:102420007B691B4802405B0842EA01215B1E41EACE
:1024300043613161306840F080603060FEF7B2FA8D
:1024400004463068010111D4FEF7ACFA001B0328E2
:10245000F7D3CAE7B968002CD5D132690D48FB68BB
:10246000024042EA012141EAC361E2E73169B86909
:10247000014331612846BDE8F08100000C100240A4
:10248000007000409010024000100240FF809FFF4B
:10249000FF80FFF9FF80FF07704770477047704764
:1024A0000170426070470A4601790068FEF718BC67
:1024B0000A4601790068FEF704BC0020704700005E
:1024C00038B50446104661602022014604F1080038
:1024D00000F08AF8204600F020F80A20FEF7EAFD16
:1024E000054D04E06A78204600F008F8AD1C297814
:1024F000FF29F7D131BD00007C000020E0B58DF848
:10250000041064238DF805200093022301784068AD
:1025100001AAFEF7D0FB03B000BD10B504460121AF
:1025200004F10800FFF7BFFF012104F11000FFF7DD
:10253000BAFF002104F11800FFF7B5FF04F12000F5
:10254000BDE810400221FFF7B3BF416041780CE0C5
:1025500030B44A684978C1EBC10302EBC303D3E945
:102560000045C0E9004530BC70477047E0B5014602
:102570006846FFF7EDFF0198010003D003B05DF856
:1025800004EB004703B000BD10B50446FFF7EDFFB4
:102590002046BDE81040E9E71CB50C4601466846F8
:1025A000FFF7D6FF9DF80000A04201D1012016BD23
:1025B000002016BD00B500BF1300964694461039A2
:1025C00028BFA0E80C50FAD85FEA417C28BF0CC0B5
:1025D00048BF40F8042BC90728BF20F8022B48BF8A
:1025E00000F8012B00BD0000103A07D330B4B1E869
:1025F0003810103AA0E83810F9D230BC530724BF85
:10260000B1E80810A0E8081044BF51F8043B40F8B6
:10261000043BD20724BF31F8022B20F8022B44BF21
:102620000B7803707047121F17D35B0009D151F864
:10263000043B20F8023B1B0C121F20F8023BF6D291
:102640000BE051F8043B00F8013B1B0A20F8023B69
:102650001B0C121F00F8013BF3D238BF121D521E93
:1026600024BF11F8013B00F8013BF8D87047000087
:102670000E48016841F47001016000220C490868AD
:1026800040F0010008608A604FF480520B680948EE
:1026900003400B60CA6000200B68074A23F48023C4
:1026A0000B6088614FF000611160704788ED00E0B9
:1026B00000100240FFFFF6EA08ED00E00000000015
:1026C000000000000102030406070809A0860100BB
:1026D000400D0300801A060000350C0040420F0038
:1026E00080841E0000093D0000127A000024F400DE
:1026F00000366E010048E801006CDC027047FEE71E
:10270000FEE7FEE7FEE770477047704700F016B837
:102710000120FEF716BA0220FEF713BA0448FEF7AE
:1027200077BE0448FFF77EB90348FEF771BE00008C
:1027300074010020E4000020BC01002002490A6866
:10274000886882180A6070478800002030B50168E8
:1027500084684218416802EB5103C9070BD54C4409
:1027600009E012F9011B12F8015B002904F8015B72
:1027700005D5491CF9D19A42F3D10C3030BD491E20
:10278000F1D5F8E710B5074979441831064C7C4477
:10279000163404E00A68081D114488470146A14226
:1027A000F8D110BD2C000000480000004EF6885102
:1027B000CEF20001086840F470000860BFF34F8F4C
:1027C000BFF36F8F4FF00070E1EE100A704700000A
:1027D00003EDFFFF6C0100009800002000000000E6
:1027E0006DFFFFFF540100009C000000000000206E
:1027F00000F00DF8002801D0FFF7C4FFAFF3008010
:102800000020AFF30080FEF781FE00F002F8012007
:10281000704700F001B800000746384600F002F8A3
:10282000FBE7000080B5AFF30080024A11001820DA
:10283000ABBEFBE726000200014880470148004785
:102840007126000849280008AFF30080FFF7AEFFAB
:10285000FFF7CEFF0000000001020304FFF7FEBFF8
:10286000FFF7FEBFFFF7FEBFFFF7FEBFFFF7FEBF9C
:10287000FFF7FEBFFFF7FEBFFFF7FEBFFFF7FEBF8C
:10288000FFF7FEBFFFF7FEBFFFF7FEBFFFF7FEBF7C
:10289000FFF7FEBFFFF7FEBFFFF7FEBFFFF7FEBF6C
:1028A000FFF7FEBFFFF7FEBFFFF7FEBFFFF7FEBF5C
:1028B000FFF7FEBFFFF7FEBFFFF7FEBFFFF7FEBF4C
:1028C000FFF7FEBFFFF7FEBFFFF7FEBFFFF7FEBF3C
:1028D000FFF7FEBFFFF7FEBFFFF7FEBFFFF7FEBF2C
:1028E000FFF7FEBFFFF7FEBFFFF7FEBFFFF7FEBF1C
:1028F000FFF7FEBFFFF7FEBFFFF7FEBFFFF7FEBF0C
:10290000FFF7FEBFFFF7FEBFFFF7FEBFFFF7FEBFFB
:10291000FFF7FEBFFFF7FEBFFFF7FEBFFFF7FEBFEB
:10292000FFF7FEBFFFF7FEBFFFF7FEBFFFF7FEBFDB
:10293000FFF7FEBFFFF7FEBFEC000060D90000010B
:10294000F8002601000071200008010200007D202F
:102950000008020300009920000803040000A520DD
:10296000000804050000B9200008F0000AC2B05CAD
:102970006A570058325928FFFB000010FD00000183
:06298000FC0002093D000D
:04000005080028497E
:00000001FF
