:020000040800F2
:10000000F02C002071500008814F0008834F000839
:10001000854F0008874F0008894F00080000000046
:100020000000000000000000000000008B4F0008EE
:100030008D4F0008000000008F4F0008914F00080E
:100040009B5000089F500008A3500008A7500008CC
:10005000AB500008AF500008954F00089B4F0008B8
:10006000B3500008B7500008BB500008BF5000084C
:10007000C3500008C7500008CB500008CF500008FC
:10008000D3500008A14F0008D7500008DB500008EB
:10009000DF500008E3500008E7500008EB5000086C
:1000A000EF500008F3500008F7500008FB5000081C
:1000B000FF5000080000000000000000035100088D
:1000C0000751000800000000000000000B5100086C
:1000D00000000000A74F00080F51000800000000BA
:1000E0001351000817510008000000000000000034
:1000F0000000000000000000000000000000000000
:100100000000000000000000000000001B5100087B
:1001100000000000000000001F51000823510008EB
:10012000275100082B5100082F51000833510008B7
:10013000375100080000000000000000000000002F
:100140003B5100083F510008435100084751000847
:10015000AD4F00084B5100084F51000853510008A3
:10016000575100085B5100085F5100080000000073
:100170006351000867510008000000000000000003
:100180006B5100086F510008735100082DE9F04FC2
:100190000FF2A41CA1B0DCE90089CDE900892A9DF9
:1001A000DFF8109C049100248DF843500D944FF01B
:1001B000FF38824616461F460FE0B3462C461BF812
:1001C000011B0498D0470028049000F0A2800D98ED
:1001D000401C641E0D90F2D176193078252808D184
:1001E000002100220791089209910A920B910C922A
:1001F0000DE06A464146304600F0F4FF050001D1AB
:100200000D98A1E0D9D50125E6E741F0010116F8E6
:10021000010F2028F9D023280CD02B2804D02D281A
:1002200005D0302809D076E041F00201EFE741F037
:100230000401ECE741F00801E9E741F01001E6E7CD
:100240000F9209E00F98484505DA00EB800402EBB5
:100250004402303A0F92761C3278A2F130000A281C
:10026000F0D330782E2818BFCDF8388022D116F878
:10027000010F2A2807D138683860761C50F8042B03
:1002800038600E9216E02D280CBF761C002000224C
:100290000E920AE040B90E9A4A4505DA02EB820452
:1002A00003EB4403303B0E93761C3378A3F130020A
:1002B0000A2AEFD3ADF8401021A0317800F09CFF5E
:1002C00008B116F8010B8DF842009DF8420068282D
:1002D00004D1307868280AD1622105E06C2804BF77
:1002E00030786C2803D171218DF84210761C12A849
:1002F00006903A4616F8013B02A9504600F064F811
:1003000038B912AA02A9504600F0CAF900287FF5B0
:1003100064AF404618E02A2892D13A683A6052F811
:10032000040B3A6000280F9003D540420F9041F033
:100330000401761C95E700000000000000000000AA
:10034000686A6C747A4C000021B0BDE8F08F6228B6
:1003500020D0682811D06A2803D06C2827D07128B3
:1003600025D10868C01D20F007000860D0E90023EF
:1003700008300860194610467047002A0A680A606B
:10038000106803D0121D0A6000B217E0121D0A6047
:1003900080B217E0002A0A680A60106803D0121DB4
:1003A0000A6040B20AE0121D0A60C0B20AE0002AE8
:1003B0000A680A60106803D0121D0A60C1177047EE
:1003C000121D0A60002170477CB50D4611461C467F
:1003D0002E69B4F1250200F051811C3A00F08680AC
:1003E000121F022A40F282800E3A00F00B81521F47
:1003F0005AD0093A7AD0921E16D0521E35D0521ECB
:10040000022A73D9121F30D0521F00F09A80521E58
:100410004AD0521E00F0E480D21E00F00181921EEC
:1004200042D0D21E40D02FE195F83A406C2C09D032
:100430006869421C6A610A680A6052F8043B0A60F3
:1004400033542BE10A680A6052F8043B0A600093B7
:10045000002201924FF0FF332B636A46294600F0D9
:100460009AF9002840F11A8105E195F83A00012235
:10047000FFF76DFFC5E900010023994204DA6869BE
:10048000411C69612D220DE0288F810704D5686920
:10049000411C69612B2205E0C00722D56869411C17
:1004A0006961202232541CE095F83A000022FFF7DF
:1004B0004EFFC5E9000195F83800010711D5D5E9CF
:1004C00000230020834208BF82420AD044F020006B
:1004D000782806D1686930213154401C421C6A6179
:1004E0003454214668693044E86087E00868C01DDC
:1004F00020F007000860D0E9002308300860C5E953
:100500000023D5E90001C80F04D06869411C696166
:100510002D220DE0288F810704D56869411C69618F
:100520002B2205E0C00704D56869411C69612022BF
:10053000325468693044E8602146284600F03AFAAF
:10054000ACE005F13A02507820B14FF0FF340FF6DD
:10055000343074E01078622808D0682824D06A28E3
:1005600012D06C282ED071280ED02BE00A680A60B9
:1005700052F8040B0A6020B94FF0FF340FF61C301C
:100580005DE0E96A017089E00A680A6052F8040BCC
:100590000A6020B94FF0FF340FF600304FE0EA6AEE
:1005A000D317C0E9002379E00A680A6052F8040B07
:1005B0000A6020B94FF0FF340FF6E0203FE0E96A0F
:1005C00001806BE00A680A6052F8040B0A6020B9E7
:1005D0004FF0FF340FF6C42031E0E96A01605DE0BE
:1005E0000A680A6052F8040B0A60002120F0000239
:1005F00021F0FF33C5E90023EE607821284600F0A2
:100600002DF94BE06C2285F83A200B680B6053F80B
:10061000042B0B6052BB4FF0FF340FF6B4200EE0FA
:1006200095F83A206C2AF0D00868086050F8044B1E
:100630000860EC603CB94FF0FF340FF6782000F012
:1006400003FE201A76BD2E6B002E04D5204600F046
:100650001BFE044608E032460021204600F03EFE24
:10066000002814BF041B3446AC6117E0294600F093
:1006700092F8002812D54FF0FF3076BD6869411C12
:1006800069612522325409E06969481C68612522A4
:100690007254210002D0431C6B613454002076BD9B
:1006A0002DE9F0410E4605469046726B7069316A3D
:1006B000B46A121AB069521A716A121AF069521A9F
:1006C000121A96F83800141B41070DD4002C0BDDCC
:1006D0002746B0682021A8470028B06057D0F06AAC
:1006E000401C7F1EF062F4D17369424631462846B1
:1006F00000F0B0FC00284AD1376A002F0ADDB0684C
:100700003021A8470028B06041D0F06A401C7F1E0D
:10071000F062F4D1B369F2683146284600F09AFCE1
:10072000A8BB776A002F09DDB0683021A847B06008
:1007300068B3F06A401C7F1EF062F5D1F068B169C1
:10074000F36942183146284600F084FCF8B9B76ACC
:10075000002F09DDB0683021A847B060B8B1F06A59
:10076000401C7F1EF062F5D196F8380041070BD58A
:10077000002C09DDB0682021A847B06038B1F06ACC
:10078000401C641EF062F5D10020BDE8F0814FF0FE
:10079000FF30BDE8F0812DE9F8470D46A3B02F6B7F
:1007A000002F0646904648BF6FF000470FF63C14F6
:1007B00000F0C0FDD4E90023696B4018CDE90123A6
:1007C000812828BF4FF0FF3042D20024002F33DDB4
:1007D000D8F8001001AA684600F006FD8146B9F17C
:1007E000000F38D4D8F8000010B9B9F1010932D49B
:1007F0004F4521DB6869484481280AD30021696399
:1008000003AA29463046FFF74BFF040014D400200A
:10081000686103ABD5F814A04A46694603EB0A00A9
:1008200000F092FDCA44C5F814A058F8040B002843
:1008300018BFA7EB0907C9D14CB903AA294630460E
:10084000FFF72EFF044614B9002068616863204654
:1008500024B0BDE8F0874FF0FF34F8E72DE9FC47FE
:1008600007468C463E69BCF16F0F08BF082405D0CF
:100870004CF02000782814BF0A2410243C25D7E926
:100880000023BCF1640F18BFBCF1690F9046994674
:1008900006D100218B4203DAD8F1000869EB49093F
:1008A0004FF0000AD14508BFD0451FD1386BE8B9D9
:1008B000082C4BD197F83800010747D530203B254D
:1008C00086F83B0042E000280ED597F8380000F08B
:1008D0001400102808D17B6B7969386A5B1A1B1ADF
:1008E0009A1A002AC8BF3A62BDE8F3878DF800C0A3
:1008F000404649462246E31700F07AFD3032D0B236
:100900006D1E3A28019504DB9DF80000A0F151010D
:100910008A187255404649462246E31700F068FDA2
:1009200089468046D14508BFD04503D0F868711983
:100930008842DDD3082C09D197F83800010705D586
:10094000705D302802D06D1E30207055C5F13C021C
:10095000BA617119F960386B8242B4DA821A3A626C
:100960004FF6EF70398F01403987BDE8F3872DE9E5
:10097000D04306460F4614464FF00008DFF838947F
:1009800012E0E00707D542464B463046394600F0B4
:1009900047FE06460F464046494642464B4600F053
:1009A0003FFE641080468946002CEAD13046394625
:1009B000BDE8D0832DE9F34F054641F020048DB00A
:1009C000D5E90089612C02AE09D0286B002848BF08
:1009D000062003D408BF672C01D101202863D5E984
:1009E000002358004015401C0ED119030CD00320E1
:1009F000A8619DF8381061391A2902D20FF2F4610A
:100A000011E00FF2F4610EE059004915491C0FD1B5
:100A100018030DD10320A8619DF8381061391A29F7
:100A200014D30FF2DC61E868032200F08DFCD3E1FF
:100A3000194621F00043B3F5801F10460DD2002760
:100A4000BB4208BFBA42019703D111E00FF2AC617B
:100A5000E9E701AA00F0B6FE0AE0DFF8607307EBF1
:100A60001352DFF85C3301921940DFF85833194311
:100A7000C5E90001612C0ED1E86830210170821CAB
:100A8000EA609DF8381061290CBF78215821417027
:100A90006869801C6861D5E900AB2BF00043002039
:100AA0002AF00002834204BF8242002300F05B81EF
:100AB000612C40F0AA80286B002847BF21210091BB
:100AC000401C0090009F7F1C4046494600220023A6
:100AD00000F0B0FED94601998DF8082038BF89F0A2
:100AE0000049091F002FD04601910DF1090040F384
:100AF0004981B349DFF8D0B20C91064640464946D9
:100B00000022002300F0AEFE80F03B814800400D43
:100B100000F11C0211D0002A0FDD40F2FF7082426A
:100B200005DB09F0004040EA0B01002013E00C98BF
:100B3000014041EA025140460DE029F00043002007
:100B400028F00002834208BF82420FBF40461C22A9
:100B5000404600F09FFE8046894600F039FFFF1FA7
:100B6000002F044609DD00F051FF02460B464046C7
:100B7000494600F05DFF80468946F01D072104E0EC
:100B800004F00F0200F8012D2411002C01DD491E94
:100B9000F6D5491E5CBF002200F8012DF9D5ECE026
:100BA0000020194602AA0A4400E05B1E12F801491F
:100BB000491E8442F9D00F2804D10DF10900425C8E
:100BC000521C4254002904D50198001D02AE5B1C42
:100BD0000190591E12D49DF838007218A0F13A07FE
:100BE000147804F130085FFA88F43A2CA8BFB844AE
:100BF000491E02F80189F3D58DF83800286B0028CA
:100C000040F1B080591E2963ACE0404649460022BD
:100C1000002300F00FFE019938BF89F0004947F228
:100C200097504143694A91FBF2F20192D2F10702D7
:100C300004DD40464946FFF79AFE0AE05242002092
:100C40006349FFF794FE02460B464046494600F0D2
:100C500061FF8046662C286BDFF878B106BF019FE4
:100C60000A3706273F18142FC8BF142730208DF8E5
:100C7000080089460DF1090000E03046002F34DD00
:100C800006464046494601F069F801460A4606F123
:100C9000080304200A26B2FBF6F606EB860EA2EB4A
:100CA0004E02303203F8012C0A22B6FBF2F202EBBC
:100CB000820EA6EB4E063036401E03F8026DE9D1D7
:100CC000083F002F03F10806D7DD084601F05AF867
:100CD00002460B464046494600F0AAFE00225B460B
:100CE00000F09EFC80468946CBE70DF10901401AD1
:100CF0000DF1090604E00199491E401E0191761C80
:100D000031783029F7D0662C02D10199491C03E0D3
:100D1000652C0CBF012100212B6BCB189842B8BF6A
:100D2000431E002B1ED4834204DAF05C3528A8BF92
:100D3000392000DA30201946721E02EB010800E06B
:100D40005B1E18F80199491E8145F9D0392802D156
:100D5000705C401C7054002904D50198401C164654
:100D60005B1C0190019800B200901BB29DF83810F6
:100D70003246284600F034F82EE0C61D002F3FF71B
:100D8000BDAE30460DF10901401A00990346884274
:100D9000C8BF0B46002B0DF109063FF52FAF83426C
:100DA000BFF6FEAE0DF10900C15C07297FF7F8AE72
:100DB0000F20F6E6CBCCCC0C0000244002FCFFFF59
:100DC000FFFF0F800000E03F0000F07FA0860100E1
:100DD0000000F03F84D797410FB0BDE8F08F0000CE
:100DE0002DE9F84783B006468A461746984600F034
:100DF000FDF9B8F1000F406A356B90F8009002DC05
:100E00004FF00108BFA74AF02000BDF93040662826
:100E100008BF641C15D0672840F0848014F1040FCB
:100E2000C0F28680AC4280F2838096F83800641C61
:100E3000010702D4A845B8BF454620B22D1A48BFC5
:100E400000250FFA84FAF068B169BAF1000F25DCC9
:100E50004A1C30234354002D03DC96F83800010768
:100E600003D5F06800F80290521C15EB0A0FB8BFCA
:100E70006C4220B2441941424445B8BFA046B26119
:100E800071620FFA88F5F561F068B3692A46394650
:100E9000184400F059FA641BB462C4E022B29045D1
:100EA000084417DA4246394600F04EFAB069404429
:100EB000B061AAEB0801002D716203DC96F83810CE
:100EC0000A0705D5F16801F80090F069401CF0614F
:100ED000B562A8E0394600F037FAB069002D5044F9
:100EE000A8EB040803DC96F838100A0703D5F1686C
:100EF00001F80090401CB0610FFA88F08542F36859
:100F0000B069B8BFA8460FFA88F207EB0A01184487
:100F100000F01AFAB1690FFA88F00144B161281A99
:100F2000706280E0BAF1610F14D14FF0700A16E0E0
:100F3000A84504DA96F838100A0758BF45466D1ED2
:100F400048BF0025BAF1670F14BF4FF0450A4FF0B4
:100F5000650A04E0BAF1410F08BF4FF0500AB169C9
:100F6000F368481CB061002D17F8012B5A5403DCBC
:100F700096F838100A071BD5F168431CB36101F8D5
:100F80000090002D14DDA8F101080FFA88F0394611
:100F90008542F768B8BFA8460FFA88F2F81800F043
:100FA000D3F9B0690FFA88F108446D1AB06175621F
:100FB000F068B1690844002C80F800A003D42B220B
:100FC0004270811C03E02D2141706442811C00208D
:100FD0006A460AE023460A2493FBF4F404EB8405F2
:100FE000A3EB450302F8013B401C24B2002CF1DCCA
:100FF000012806DC4AF02002652A04BF302201F8ED
:10100000012B48B9302001F8010B07E0401E1DF804
:101010000030303301F8013B0028F7DCF268B0699A
:101020001044091AF16196F8380000F014001028F5
:101030000DD17269B169706A8A18F1698218B06A53
:101040008A188218706B8242BCBF821A326204B066
:10105000BDE8F087F8B505460E4617461C46002049
:1010600074B117F8011BB068A847B06030B1F06ADE
:10107000401CF0620020641EF3D1F2BD4FF0FF303F
:10108000F2BD00007072696E74665F733A20256E5F
:1010900020646973616C6C6F776564007072696E4F
:1010A00074663A2062616420256E20617267756DF6
:1010B000656E74007072696E74665F733A20626167
:1010C0006420257320617267756D656E7400000081
:1010D0007072696E74665F733A2062616420256C79
:1010E0007320617267756D656E740000000000000A
:1010F000000000006E616E004E414E00696E660099
:10110000494E46003000F0B4024610689568131846
:10111000506803EB5004C0071DD54D441BE013F885
:10112000017B05F8017B491EF9D1A0B1B60813F87F
:10113000011B06F00306032E08BF13F8016B01EB39
:1011400006214942801C294405D011F8016B05F89D
:10115000016B401EF9D1A3420ED013F8016B16F0BB
:10116000030104BF13F8011BC91C30090F28DAD191
:1011700013F8010B0F30D6E7F0BC02F10C007047FA
:101180001B48704770B45368D418042B09DA41B176
:10119000057804F8015B10F8016B16B15B1C491E61
:1011A000F3E7536070BC704738B514461D4661B113
:1011B000FFF7E8FF61686A6B204690476FF0010215
:1011C000811A02D0491E01D001E003E005E00021B0
:1011D000616032BD6FF0010032BD4FF0FF3032BDB3
:1011E000DA6B1047024BDFE7014BF9E70148704724
:1011F000641700202C1700200278C9B28A421AB165
:101200001CBF10F8012FF9E718BF0020704730B459
:10121000002513E050F8042BD30744BFA9F10103C4
:101220009A18091F042942F8045BFAD213468C0766
:1012300044BF15809B1CC90748BF1D7050F8041B94
:101240000029E7D130BC704780B500B906A0054938
:101250000B681BB122220021984701E000F09FFD9E
:10126000222002BDE0280020636F6E7374726169F2
:101270006E742068616E646C65723A2062616420ED
:101280006D6573736167650000F10103810704D028
:1012900010F8011B820781B1FAD10268A2F1013175
:1012A000914311F0803104BF50F8042FF6E709BADA
:1012B000B1FA81F100EBD100401CC01A7047B1F5C2
:1012C000807F02D34FF0FF307047017001207047DC
:1012D0000078401E8041C043C00F7047C9B28307E9
:1012E00006D0521E22D310F8013B9942F7D11FE0DD
:1012F000083A13D302F1040241EA012141EA014113
:1013000050F8043B121F21BF4B40A3F1013C2CEAD3
:10131000030C1CF0803FF3D0C9B2001F083210F854
:10132000013B521E28BF91EA030FF8D818BF0120D5
:10133000401E704780B5FFF723FF006C02BD0268B6
:10134000531C03601170704762B38B0708D0521EA4
:1013500011F8013B00F8013B00F024808B07F6D127
:10136000830740F0208000BF103A07D330B4B1E8C3
:101370003810103AA0E83810F9D230BC530724BF17
:10138000B1E80810A0E8081044BF51F8043B40F849
:10139000043BD20724BF31F8022B20F8022B44BFB4
:1013A0000B7803707047121F17D35B0009D151F8F7
:1013B000043B20F8023B1B0C121F20F8023BF6D224
:1013C0000BE051F8043B00F8013B1B0A20F8023BFC
:1013D0001B0C121F00F8013BF3D238BF121D521E26
:1013E00024BF11F8013B00F8013BF8D8704700001A
:1013F000BBBBE1B1B2F5803F80F07E80022A1ED9EE
:101400008C46B1FBF2F102FB11C31B0443EA10430B
:10141000B3FBF2FC02FB1C3380B240EA0343B3FB94
:10142000F2F002FB103240EA0C4000237047022A1F
:1014300005D98446B0FBF2F002FB10C270474AB1F6
:1014400005D100F0010249085FEA30007047002230
:101450000023704700F0A6BC0B0002000021002012
:101460007047904271EB030CF6D3B3F5803F2FD257
:10147000F0B5B3FA83F7B1FA81F4A7F10F0E3D1B73
:101480005340CEF1200602FA0EF2F3415340B5F17B
:101490000F0746D80F3C2C444140C4F12006A04021
:1014A000F1414140B1FBF3F603FB1611A2FB0645E7
:1014B000001BA94102D2761E8018594180EA010220
:1014C00021FA0EF362FA0EF200215A403046F0BDC6
:1014D00030B4B1FBF3FC03FB1C11A2FB0C45001B59
:1014E000A94103D2ACF1010C8018594130BC02462D
:1014F0000B46604600217047B2F1807F65D3F0B59E
:10150000B2FA82F7B1FA81F4C7F10F063D1B22FA55
:1015100006F307F1110EF24120355A40B5F10F07DD
:10152000B8D94140C4F12006A040F1414140B1FB8F
:10153000F3FC03FB1C11A2FB0C45001BA94103D2C9
:10154000BCF1010C801859410F2F12D30F3FC90372
:1015500041EA5041B1FBF3F603FB1611A2FB06452D
:10156000D4EBC030A94102D2761E8018594146EA18
:10157000CC3C07B34140C7F12006B840F14141409F
:10158000B1FBF3F603FB1611A2FB0645001BA941B4
:1015900002D2761E8018594180EA010221FA0EF328
:1015A000C7F1200462FA0EF20CFA07F05A402CFA46
:1015B00004F13043F0BD80EA010221FA0EF300216C
:1015C00062FA0EF260465A40F0BD8C46B1FBF2F171
:1015D00002FB11C31B0243EA1063B3FBF2FC02FBE4
:1015E0001C331B024CEA002043EA1063B3FBF2FCFD
:1015F00002FB1C331B024CEA002043EA1063B3FBDE
:10160000F2FC02FB1C331B024CEA002043EA10638D
:10161000B3FBF2FC02FB1C324CEA002000237047B3
:10162000B0B581EA030C0CF0004C40F2FF7515EAEE
:1016300011541DBF15EA1357AC42AF4239E0E4190B
:1016400023EA455343F48013C90241F0004141EAC3
:10165000505EC7021100A7FB020200284FF00000F5
:10166000EEFB01204FF00001E3FB072118BF42F021
:101670000102401800214941E3FB0E01A4F58064FA
:101680000F0302D252004041494154F101046CDD84
:10169000470872F1004250F1000051EB0451A1F5EE
:1016A00080115CBF41EA0C01B0BD4CEA055100203D
:1016B000B0BD05EA1357AC4214BFAF4241E050EA57
:1016C000410E1CBF52EA430E02E061460020B0BD4D
:1016D00024423C441BD15FEA070EF6D0090302BF47
:1016E00001460020AEF1140EB1FA81F7AEEB07040B
:1016F00001FA07FE0C37C7F1200100FA07F7C840CE
:101700004EEA000E23EA455343F48013A2E733F078
:101710000043B3FA83F704BFB2FA82FE77440B3F6B
:10172000E41BB7F1200E2FBF02FA0EF3BB40C7F146
:10173000200E22FA0EFE38BF43EA0E03BA40641CA4
:1017400082E750EA410E14BF52EA430E6FF00001E7
:101750004FF4001717EB430F8ABF194617EB410FE1
:10176000B5E74CEA05510020B0BDD4F10104B4F155
:1017700020070FDAC4F12007520828BF42F0010207
:1017800010FA07F501FA07F7E1BF2A43E0403843B2
:10179000E1400FE0352C98DCC7F1200452EA40020A
:1017A00020FA07F218BF42F0010231FA07F0A14017
:1017B0000A43002172F1004250F1000051EB0C018C
:1017C000B0BD000010B5144600F002F8226010BD54
:1017D000C1F30A5343B14A0012F5001F28D2A3F205
:1017E000FE32A1EB0251704750EA410C20D001F0CB
:1017F000004C31EA0C01B1FA81F204BFB0FA80F377
:10180000D2180B3AB2F120032CBF00FA03F1914039
:1018100041EA0C013EBFC2F1200C20FA0CF319433F
:101820009040524240F2FD33D21A01EB035170470F
:10183000002270474FF4001C1CEB410F94BF1CEBBF
:10184000430F09E041EA030C50EA4C0C52EA0C0C3D
:1018500003D2994208BF9042704714BF8B42824224
:10186000704700004FF4001C1CEB410F94BF1CEBB1
:10187000430F09E041EA030C50EA4C0C52EA0C0C0D
:1018800003D28B4208BF8242704714BF99429042F4
:1018900070470000124254D440F2FF7C1CEA1153FE
:1018A0000FD0634531D09B1863453CBF01EB02511B
:1018B000704701F0004141EA0C510020AFF3008075
:1018C000704750EA410320D001F0004C91EA0C012E
:1018D0001CD0B1FA81F30B3B9A420DD9D21A994030
:1018E00051EA0C01C3F1200C20FA0CFC6144984031
:1018F000531C40F2FF7CD7E7914041EA0C01C2F152
:10190000200C20FA0CF3194390407047B0FA80F392
:101910001533202BE0D3202AEED3203A203B9A42E5
:1019200009D9D21A00FA03F141EA0C010020531C34
:1019300040F2FF7CB8E700FA02F141EA0C01002016
:101940007047524240F2FF7C1CEA11530DD06345B0
:10195000DBD0B2EB030C3CBFA1EB025170470CF1A2
:10196000010221EA035141F4801150EA410CCCD02C
:1019700001F0004C352A27DC30B481EA0C01B2F1C9
:10198000200309DAC2F12003044601FA03F5D0402E
:101990002843D1409C400CE0C3F12002450020FACE
:1019A00003F418BF44F0010421FA03F091400C4302
:1019B000002174F1004550F1000051EB0C0124426C
:1019C00030BC7FF47BAF70476146002076E70000B3
:1019D000C1F30A5340F2FE329B1A14DDD3F1200307
:1019E0004FEAE17208DDC90241EA505141F000407E
:1019F000D84080185040704703F2E13010B1D24314
:101A000082F000407047002070470000C11768B1A5
:101A10004840401AB0FA80F29040D21CC907C2F583
:101A2000846241EA025202EBD02140057047000077
:101A300070B44FF0004591EA030F40F1B5816B405F
:101A4000841A71EB030603D2001BB14112197341D2
:101A50004FF4001C1CEB410F34BF7CEB430442E00D
:101A60000C0DA4EB1356352E4FDC45EAC323DB0ADD
:101A700045EAC121C912B6F120050DDD63FA05F66C
:101A8000EB4086EA0305124218BF45F00105C01875
:101A900051F100010CD213E062FA06F5F240554014
:101AA000F3415A40B340F3405A408018594107D39C
:101AB00049085FEA30005FEA350528BF45F00105B7
:101AC00001F58011420875F1004250F1000041EB30
:101AD00004514E0016F5001F70BC38BF704700203F
:101AE000090D090570471CEB410F10D252EA43065D
:101AF0000BD0BCEB410F05D80C0DAB43661E342E4A
:101B0000B6DD02E0AB438018594170BC704770BC31
:101B100070470000F0B540F2FF7581EA030C0CF04D
:101B2000004C15EA11541DBF15EA1357AC42AF42E1
:101B3000E5E0BC41C1F31301C3F31303801A9941DB
:101B400043F4801304D2641E400049418018594177
:101B5000C90241EA5051B1FBF3F603FB1611A2FB97
:101B60000675D7EBC020A94102D2761E80185941D4
:101B7000C90241EA5051B1FBF3FE03FB1E11A2FB67
:101B80000E75D7EBC020A94103D2AEF1010E80182B
:101B90005941890241EA9051760546EA8E2EB1FB01
:101BA000F3F603FB1611A2FB0675D7EB8020A941C3
:101BB00002D2761E80185941C90241EA50514EEABC
:101BC000060EB1FBF3F603FB1611A2FB0675D7EB6D
:101BD000C020A94102D2761E80185941C90241EAAB
:101BE0005051B1FBF3F703FB1711A2FB0735D3EB01
:101BF000C020A94167F100070CBF004247F0010770
:101C000066F3D5274FEA1E31B80814F5806412DD5B
:101C1000BD0775F1004250EB0E5051EB045111F528
:101C2000801F5CBF41EA0C01F0BD4CF07F6141F0C8
:101C3000E0410020F0BDBD076D0840EA0E5041F4C0
:101C40008011D4F10104B4F120060ADAC4F12006AF
:101C50000200E04001FA06F3E1401843B2401543A8
:101C60000EE0342C13DCC6F1200445EA40056D0873
:101C700020FA06F2154321FA06F0A1400D43002197
:101C800075F1004250F1000051EB0C01F0BD002055
:101C90005FEA0C01F0BDCFB992185B41B3FA83F74C
:101CA00004BFB2FA82F6BF190B3FB7F120062FBF6F
:101CB00002FA06F3BB40C7F1200622FA06F638BF47
:101CC0003343BA401CB1E419641E33E77F4231F05C
:101CD0000041B1FA81F404BFB0FA80F6A4190B3CBC
:101CE000B4F120062FBF00FA06F1A140C4F120068E
:101CF00020FA06F638BF3143A0403C1B1AE7AC423D
:101D00001ABF05EA1357AF4212E050EA41061CBF62
:101D100052EA4306BFE750EA4107304661461CBF1E
:101D200041EA0551F0BD52EA430C08BFC143F0BD82
:101D300000204FF4001616EB410F98BF16EB430F2F
:101D400008BF16EB410F24BFC14305E016EB430F5C
:101D50000CBF61464CEA0551F0BD0000400D49182A
:101D600040EA81200CD2490DA1F58061491C40F068
:101D7000004005DBD1F11F0154BFC840C0177047B8
:101D800000207047014648B1B0FA80F18840C91C74
:101D9000C1F58461090501EBD021400570470120A0
:101DA00000F0B8B870470000841A71EB030604D243
:101DB0006E40001BB141121973414FF4001C1CEB23
:101DC000410F34BF7CEB430683E00C0DA4EB1356AC
:101DD000362E00F37C80012E45EAC32341DC43EA22
:101DE000525312BFD20292025B08240545EAC12178
:101DF00041EA5051D2EBC020994125D407D1B0FA25
:101E000080F610FA06F162D00020203608E0B1FA20
:101E100081F6B140C6F1200220FA02F21143B0402F
:101E20004FEAF474B4EB465434F001064FEA7404FC
:101E30000AD8D6F50016760D04F00044F04061FA99
:101E400006F25040F1404840C00A40EA415021F0BB
:101E5000004128BF5FEA500550F1000044EBD1215A
:101E600035E0DB0A45EAC121C90AB6F120050EDDDD
:101E700042EA0242120CC5F1200603FA06F6EB40D4
:101E800042EA06056D42984161F100010DE062FAF7
:101E900006F5F240554063FA06FC82EA0C02F34074
:101EA0005A406D42904161EB030111F4801F05D14E
:101EB000641E620502D06D004041494121F4801149
:101EC000430875F1004350F1000041EB045170BC30
:101ED00070471CEB410F15D223F0004352EA430632
:101EE0000BD04FEA4C0CBCEB410F04D80C0D661E16
:101EF000342EB7DDEBE7801A994150EA410608BF5E
:101F00000021E4E708BF1CEB430F28BF6FF000017E
:101F1000DDE7000080B5AFF30080024A1100182011
:101F2000ABBEFBE7260002002DE9FC47050000F0F0
:101F3000A481DFF88877DFF89447B86800F00C09CF
:101F4000F86800F003082878C10640F1AA81B9F1C9
:101F5000000F05D0B9F10C0F08BFB8F1010F57D130
:101F60003868810703D5A869002800F086813968A0
:101F700008074EBF396861680909286A01F0F00155
:101F8000814216D200F060FB002840F0768138686C
:101F900040F0080038603968286A21F0F0010143F8
:101FA00039607968E86921F47F4141EA002179606C
:101FB00016E0386840F0080038603968286A21F077
:101FC000F001014339607968E86921F47F4141EA11
:101FD00000217960286A00F037FB002840F04D812D
:101FE00000F0D6FABA68DFF8E816C2F30312895C8B
:101FF000DFF8CC2601F01F01C8401060DFF8C406EE
:10200000006800F07BFB010000F04B81BDE8F68723
:10201000A869C8B1396841F00101396000F090FB4E
:1020200006463868810700F12B8100F089FB801B90
:102030000328F6D30320BDE8F68700F081FB801B60
:102040000328C0F06981F5E738684008400038602F
:1020500000F076FB06463868810740F1228100F0E7
:102060006FFB801B0328F6D3E4E76868B0F5803F78
:1020700004D1386840F48030386011E0B0F5A02F0A
:10208000386806D140F480203860396841F48031E6
:1020900005E020F480303860396821F4802139600F
:1020A000686860B100F04CFB06463868810300F1B7
:1020B0000B8100F045FB801B6528F6D3BAE700F0E2
:1020C0003FFB06463868810340F1FE8000F038FB94
:1020D000801B6528F6D3ADE7E86880B1396841F424
:1020E0008071396000F02CFB06463868410500F12C
:1020F000FE8000F025FB801B0328F6D39AE73868A2
:1021000020F48070386000F01BFB064638684105FB
:1021100040F1F48000F014FB801B0328F6D389E71C
:1021200040084000606000F00BFB064660688107D5
:1021300040F1F68000F004FB801B0328F6D379E71A
:102140000528206806D140F004002060216841F095
:10215000010105E0400840002060216821F00401F1
:102160002160A86878B100F0EBFA824641F2893824
:102170002068810700F1088100F0E2FAA0EB0A0074
:102180004045F5D356E700F0DBFA824641F2893844
:102190002068810740F1F88000F0D2FAA0EB0A0035
:1021A0004045F5D346E700F0CBFA801B0328C0F08A
:1021B000FE803FE740084000A06000F0C1FA0646FC
:1021C000A068810740F1F78000F0BAFA801B03286D
:1021D000F6D32FE700F0B4FA801B0328C0F0FB8091
:1021E00028E700F0ADFA801B0328C0F01E8121E72C
:1021F0003968080103D4F96889088900F960F96829
:10220000DFF8D0040140F96000F09AFA0646386819
:10221000810140F10E8100F093FA801B0328F6D370
:1022200008E7012829D0F868EA6A00F00301914222
:1022300001BF00F070012A6B521EB1EB021F1CD1CE
:102240006A6B00F4FE41B1EB022F02BF00F078414F
:10225000AA6BB1EBC26F10D1EA6B520800F4C00157
:10226000521EB1EB425F08D1296C490800F0C060F2
:10227000491EB0EB416F00F0DC800120BDE8F6871D
:10228000386840F0080038603968286A21F0F001A9
:10229000014339607968E86921F47F4141EA00210E
:1022A00079602878C1070FD5B9F1080F06D0B9F1C8
:1022B0000C0F08BFB8F1030F7FF4D7AE3868810365
:1022C00002D568680028D8D02978880716D5B9F1D2
:1022D000040F06D0B9F10C0F08BFB8F1020F7FF45C
:1022E000FBAE3868410502D5E8680028C5D078689B
:1022F000296920F0F85040EA0160786028780107E9
:102300000ED56869002860683FF40AAF40F001000C
:10231000606000F015FA0646606881077FF58DAEB3
:102320002878410735D5B86D0026C10009D4B86DAD
:1023300040F08050B8650126B86D00F080500090E4
:102340000098DFF89483D8F80000C10513D4D8F8BA
:10235000000040F48070C8F8000000F0F1F98246F7
:10236000D8F80000C10506D400F0EAF9A0EB0A0095
:102370000328F5D35EE6A86801287FF4E1AE206863
:1023800040F001002060ECE61EB1B86D20F08050F6
:10239000B865287881060ED5686A0028A0683FF4E1
:1023A00009AF40F00100A06000F0CAF90646A0683D
:1023B00081077FF5F8AEA86AD8B3B9F10C0F3FF4E6
:1023C00030AF0228386820F0807038607FF410AF9A
:1023D00000F0B6F90646386881013FF5FBAEFA68B1
:1023E000DFF8F812E86A0A40296B0243491E686B5D
:1023F00042EA0112E96B490842EA0022286C491EB0
:10240000400842EA4152401E42EA4062A86B42EA5A
:10241000C062FA60396841F080713960F86840F054
:102420008070F86000F08CF90646386881017FF50D
:10243000D8AE0020BDE8F6872DE9F84304008846B1
:1024400000F07F80DFF89862306800F007004045B8
:1024500009D23168C90848EAC1013160306800F02A
:10246000070040456DD12078DFF85052C10750D5A4
:102470006068032802D129688A0108E0022802D195
:1024800029688A0303E00028296802D18A0702D458
:1024900057E04A0555D5A968890840EA8100A86037
:1024A00041F2893900F04CF90746A868616800F0EC
:1024B0000C00B0EB810F2CD000F042F9C01B484556
:1024C000F3D30320BDE8F2832078410705D5AA683D
:1024D000E06822F4E0620243AA602178080706D58A
:1024E000A968206921F4605141EAC001A96000F0A7
:1024F0004FF8AA687649C2F30312895C704A01F06A
:102500001F01C8401060BDE8F2436E48006800F04B
:10251000F5B82078810705D5AA68A06822F0F002F6
:102520000243AA60316801F007018845CCD23068C7
:10253000C00848EAC0003060316801F00701414539
:10254000C2D00120BDE8F28370B5664E86B0706CD3
:1025500040F0010070641546706C00F001000090BE
:1025600002220C460098029204924FF4807101916D
:1025700000220392059201A94FF0904000F0E6F886
:10258000316821F0FE410C432C43346006B070BD2D
:1025900010B44A4A9068D4680023002110F00C005F
:1025A00004F0030403D00C2812D1012C1AD11368B3
:1025B0001C0704D4444B1C68C4F3032302E01368D3
:1025C000C3F30313484C54F8233048B9194624E0A8
:1025D000042808BF454920D008281ED144491CE0E2
:1025E0000C281AD1D06800F00300022803D0032879
:1025F00008BF3F4B00E03D4BD168D068D268C0F3C4
:1026000006204343C1F30210C2F34161401C491C40
:10261000B3FBF0F04900B0FBF1F110BC0846704785
:102620002748304A006813683249C3F3022206E0A3
:1026300023482C4A006813682E49C3F3C222895CE0
:1026400001F01F01C84070477CB52B4E054630682D
:102650000024C10002D500F057F90EE0306840F0C8
:1026600080503060316801F080510091009800F096
:102670004BF9316821F080513160B0F5007F04D111
:10268000802D0CD9A12D09D304E0802D88BF03240F
:1026900005D801D1022402E0702D00D10124104898
:1026A0000168C90844EAC1010160006800F0070040
:1026B000A04201D0012076BD002076BD001002406E
:1026C00028170020FC1500209410024090100240B2
:1026D000D44E0008FFFFEEFE007000408C809D018C
:1026E0000020024008100240E44E00080024F400DC
:1026F00000127A008C5000085810024070B50E4E3F
:102700000446B0680025A0B14FF47A710B4AB1FBC2
:10271000F0F11068B0FBF1F000F08AF948B9102C24
:1027200007D2002221464FF0FF3000F03EF97460DE
:1027300000E00125284670BDF8150020281700206C
:1027400001480068704700BFF81500202DE9F84FD8
:102750000024674A674BDFF8A081DFF8A0914FF0B3
:102760000F0A07468E4637E0654EB74214BF07266C
:102770000226AE4046EA0C0648F82160C1431568BF
:1027800001EA050CDEF80450EE0348BF40EA0C0CE9
:10279000C2F800C0556801EA050CDEF80450AE032B
:1027A00048BF40EA0C0CC2F804C0956801EA050C69
:1027B000DEF80450EE0248BF40EA0C0CC2F808C034
:1027C000D56801EA050CDEF804108D0248BF40EA26
:1027D0000C0CC2F80CC0641CDEF8001031FA04F0D6
:1027E00076D0012000FA04FC1CEA0100F3D0DEF8E8
:1027F0000410022918BF122910D1E10807EB81014A
:10280000A5000E6A05F01C050AFA05FB26EA0B0670
:10281000DEF810B00BFA05F535430D6261000325B3
:102820003E689EF804B08D40ED430BF0030B2E4044
:102830000BFA01FB4BEA06063E60DEF80460012E4F
:1028400018BF022E03D0112E18BF122E13D1BE684E
:10285000DEF80CB02E400BFA01FB4BEA0606BE6018
:102860007E6826EA0C0CDEF80460C6F30016A6406B
:1028700046EA0C067E60FE683540DEF8086006FA1F
:1028800001F12943F960DEF80410C900A3D5D9F895
:10289000001041F00101C9F80010D9F8005005F00E
:1028A00001050095A5000099A10858F8216005F0E0
:1028B0000C050AFA05FC26EA0C0CB7F1904F08BF8C
:1028C00000263FF456AF9F427FF44EAF012650E7FB
:1028D000BDE8F18F0AB18161704781627047094A92
:1028E000136803421CBF106000F0C4B870470000BA
:1028F000000401400004004808000140601002404C
:102900000008004814040140DFF87800006800F473
:10291000C060704730B4DFF86C10B0F5007F086815
:1029200000F4C0601BD1B0F5007F21D00868DFF84B
:102930005820DFF8585020F4C06040F40070086060
:10294000322013684343A3FB0554E00C401C4A6942
:10295000530510D5002818BF401EF8D10BE0B0F584
:10296000806F05D0086820F4C06040F48060086083
:10297000002030BC704748694105F9D530BC0320C0
:1029800070470000007000402817002006BD378601
:10299000304B19684FF6FF020002114000F4E0606E
:1029A00008432D4908431860704730B4294B1C6810
:1029B000C4F30223C3F10704052C28BF04241D1D02
:1029C000072D34BF0023DB1E012505FA04F4641E25
:1029D0002140994005FA03F35B1E1A401143090197
:1029E000020003D41D48815430BC70471C4B02F0D8
:1029F0000F021A4402F8041C30BC7047010007D4CF
:102A0000012200F01F01174B8A40400943F82020A3
:102A1000704701000BD4012200F01F01124B8A40C5
:102A2000400943F82020BFF34F8FBFF36F8F7047EB
:102A3000401EB0F1807F01D3012070470B490C4A42
:102A400048600023F02010708B6007200860002091
:102A5000704700000CED00E00000FA0500E400E023
:102A600018ED00E000E100E080E100E010E000E0AF
:102A700023ED00E0364A517AA9B1012802D002289C
:102A800012D070473348016801F0010181F0010163
:102A90009172D07A08B1907A28B1106918B12821C2
:102AA0000A681368D86070472A480168490801F02D
:102AB0000101D172EDE780B50620FFF79FFFBDE869
:102AC00002400720FFF79ABF80B50620FFF7A1FF5D
:102AD000BDE802400720FFF79CBF70B500261D46E9
:102AE0000C4601461346B06A224600F0C4F808B10D
:102AF00000F01CFB3168CA6842F48062CA60316829
:102B0000CA6842F00402CA602A463068042100F014
:102B1000C4FC0F48046170BD00220421106800F05D
:102B2000BCBC002001220068042100F0B6BC0848AB
:102B3000006918B128210A681368D860704700201E
:102B400000F014BD01207047014900204873704710
:102B5000CC280020100400481CB5049C009400F010
:102B600020FF13BD78B585B06B46002400250026F4
:102B700070C330C3009101926946FFF7E7FD06B0CC
:102B800070BDFFF7A7BEFFF7DBBD01F09BB80000EB
:102B9000F0B400B96CE004682D4DAC4200F12403A0
:102BA0000AD22C492C4F2D4DDD610A19A2FB077664
:102BB000320992001A6209E02949274E0A19A2FB3C
:102BC00006652A09920027491A62D96102225A70C1
:102BD00025688168C2686FF30E150D4301691543BE
:102BE00042690D4381691543C2690D43016A15436A
:102BF0000D4325608268B2F5804F21D0DA69174C09
:102C00000F21A24209D1184A156893F8204004F018
:102C10001C04A14025EA010108E0144A146893F855
:102C2000205005F01C05A94024EA0101116011683B
:102C300093F82040406804F01C04A0400143116058
:102C400000209861012159701870F0BC7047000095
:102C500008040240F8FFFDBFCDCCCCCC0000024000
:102C6000F8FBFDBF00040240A8000240A804024097
:102C7000F0BC01207047F0B400F1240500242E7848
:102C8000012E08BF02203CD001262E706F78012F44
:102C900034D102266E70AC61066837687F087F0009
:102CA0003760012695F8207007F01C07BE40EF69D9
:102CB0007E60066873608368102B04D10668B2607A
:102CC0000268D16003E0036899600168CA60026825
:102CD000E96821B1136843F00E03136008E011683E
:102CE00021F00401116001680A6842F00A020A60DA
:102CF0000068016841F00101016001E02C700224CC
:102D00002046F0BC704738B500F1240100244A7811
:102D1000022A03D004208861012417E002681368A6
:102D200023F00E031360026815686D086D001560CE
:102D3000012291F82030CD6903F01C039A406A60AB
:102D400001224A700C70496901B18847204632BDA2
:102D5000F0B400F124010423CA69146802681568FC
:102D600091F8206006F01C0603FA06F73C4214D0E6
:102D70006F0712D51468A50603D4146824F0040460
:102D8000146091F82020CC6902F01C02934063602B
:102D9000C96800293AD0F0BC0847022303FA06F7B5
:102DA0003C4217D0AF0715D51468A50605D41468A2
:102DB00024F00A04146001224A7091F82020CC69A2
:102DC00002F01C029340636000220A708968E9B136
:102DD000F0BC0847082303FA06F6344216D02B0746
:102DE00014D5146824F00E041460012291F82030E8
:102DF000CC6903F01C039A40626001228A614A7028
:102E000000220A70096909B1F0BC0847F0BC70479C
:102E100000000000F8B58CB000F068FF00F0B5F8D5
:102E200000F0FFF8B848B94C016841F002010160B8
:102E3000026802F0020200920099026842F0010268
:102E400002600022006800F001000090002100985C
:102E50001120FFF7AAFD1120FFF7D0FD002200216D
:102E60004420FFF7A2FD4420FFF7C8FDA848A94968
:102E7000206061600120C022E0600021A260216129
:102E80006161A161E1612162204600F035FD00B180
:102E9000FEE70021204600F039FF00B1FEE70021E7
:102EA000204600F050FF00B1FEE79B48E0644FF47D
:102EB0006121216500206065A065E06508216066EC
:102EC000A066E066216604F14C0000F0F7FA00B15C
:102ED000FEE707A80021002200230EC006C004ADB3
:102EE000002600278C46684685E8C0108E4680E89C
:102EF0000E4004F19C054FF080466960A960E960CE
:102F00002961A9612E60284600F012F900B1FEE7A0
:102F1000284600F026F900B1FEE74FF48031079112
:102F20006022089209970B9707A9284600F0B6F986
:102F300000B1FEE70497069704A9284600F044FF75
:102F400000B1FEE701220192009702970397042245
:102F50006946284600F015F900B1FEE7012201217B
:102F60000620FFF722FD0620FFF748FD0122012180
:102F70000720FFF71AFD0720FFF740FD04F14C0280
:102F80002946204600F085FFFEE7F0B5ABB01AA851
:102F9000442100F0A9FF6C46002500260027E0C46C
:102FA00060C405A8542100F09FFF00F0A1FF5B481A
:102FB000016821F01801016014221A920121B02247
:102FC0001C9120912292219524951AA8FEF7ACFF1E
:102FD00000B1FEE70F20009001950295039504953E
:102FE00002216846FFF728FA00B1FEE7412005906C
:102FF0004FF4805210920D9505A800F081FF00B1AA
:10300000FEE74FF000524FF08071FFF79DFA4FF44A
:103010000070FFF77FFC00B1FEE701F08FF82BB0E6
:10302000F0BD10B586B068460021002200230EC016
:1030300006C03B48046844F0040404600168394C4D
:1030400001F0040105910599026842F00102026055
:10305000036803F0010305930599026842F0020238
:1030600002600022006800F0020005904FF4184151
:10307000059B4FF09040FFF72DFCFF2100910022AF
:103080000192029269464FF09040FFF75FFB0320E8
:103090002549009001910122029269462046FFF7DE
:1030A00055FB4FF4807002210090019100220292A2
:1030B0000392049269464FF09040FFF747FB4FF4AC
:1030C000C0510091012200210291039101926946B1
:1030D0004FF09040FFF73AFB0122019202924FF429
:1030E000004100910022039269464FF09040FFF7A3
:1030F0002DFB10200021009001910291204669468D
:10310000FFF724FB06B010BD48100240082600203F
:10311000005400401A09102000380140901002406D
:103120004C1002400004004800003110FEE700008F
:1031300038B5040001D1012032BD04F13C056878A6
:1031400020B900212970204601F0E2F8FFE70220B3
:103150006870211D206800F0C9F801206870002007
:1031600032BD38B5040001D1012032BD04F13C0567
:10317000687820B900212970204601F07BF9FFF71B
:10318000E6BFF8B5064606F13C040D462078012856
:1031900001D10220F2BD012020700221617082B9AC
:1031A000EB686A682968306800F02EF93068816938
:1031B00021F00C01816131688A69A86802438A6143
:1031C00066E0042A11D1EB686A682968306800F06B
:1031D00049F93068816921F4406181613068816911
:1031E000AA6841EA0221816152E0082AE9686A6816
:1031F0002B6827D13768386A20F48070386209015B
:1032000007F11C0001F0F001D0F800C0D7F820E071
:103210004FEA9C0C42EA8C0222F0F002114301605A
:103220001B022EF4206003F4206303433B623068EA
:10323000C16921F00C01C1613168CA69A868024303
:10324000CA6125E030681C300903476827F48057BD
:10325000476001F470410768D0F804C027F4407754
:1032600047EA022727F47047394301601B032CF417
:10327000204103F420430B4343603068C16921F4CB
:103280004061C1613068C169AA6841EA0221C16137
:1032900001206070002121700020F2BD38B5054684
:1032A00005F13C042078012801D1022032BD012023
:1032B000207002226270284600F04BF800B104E052
:1032C0002868C16821F0400104E0012060700021FD
:1032D000217032BDC1602868C16821F48041C1609D
:1032E0000120607000212170002032BD30B4DFF871
:1032F00068410368A04218BFB0F1804F01BF23F0BE
:1033000070034A681343A04209D0B0F1804F1FBF39
:10331000DFF848219042DFF84851A84203D1CA683B
:1033200023F4407313434A6923F08003134303607B
:10333000A0428B68C3620A6882621FBF474B9842F3
:10334000474A904201D1096901630122426130BCC0
:10335000704730B404683F4AA5684B68086825F098
:1033600070051D4315400543A5604A68402A11D0E9
:10337000502A22D0602A32D0702A42D108698A6845
:10338000C968A36823F47F4319430A4342EA002231
:10339000A26036E00868052808BF012032D0206A04
:1033A000226A520852002262A269096922F0F002E0
:1033B00042EA0112A261206223E008698968226A58
:1033C000236A5B085B00236222F00A02A36923F0F0
:1033D000F00343EA0013A3611143216211E008697D
:1033E0008968226A22F010022262A269236A22F40A
:1033F000704242EA003223F0A003A26143EA0113C3
:103400002362002030BC704770B4046A124E640816
:1034100064000462B0428469056A1EBFB0F1804F47
:103420000E4EB04203D1A40842EA840201E044F007
:1034300001021B0122F0F00203F0F0031A4325F011
:103440000A0501F00A0182612943016270BC7047DC
:1034500000000000F8FFFEFF002C0140004001408A
:103460000044014030B4046A24F0100404621B03D9
:103470008469056A24F4407444EA022424F4704404
:1034800003F470430901234325F0A00501F0A001D6
:1034900083612943016230BC704701F01F01036A58
:1034A0004FF0010C0CFA01FC23EA0C03036202FA50
:1034B00001F1036A194301627047000070B504000E
:1034C00014D004F14805697821B9002028702046FD
:1034D00000F067FF022169702068026852085200FC
:1034E0000260204600F08EF9012801D1012070BD54
:1034F0002068416821F4804141602068816821F0A2
:103500002A0181602068016841F00101016000200A
:103510006860FFF715F90646206801680A0718D5A4
:103520002068C169880214D4FFF70AF9801B40F2B1
:10353000E9318842F4D306E0FFF702F9801B40F23C
:10354000E931884209D301206870002129700320E5
:1035500070BD206801684A0703D52068C169480228
:10356000EAD5012169700020287070BD70B504464D
:1035700004F1480513466878012837D109B11800CD
:1035800001D1012070BD287801282FD001222A7096
:103590006162238563850020686012226A70206C56
:1035A00088B10FF2E512C2620FF21120226C106393
:1035B000266C0FF211207063206800F12802206C45
:1035C000FFF759FB50B921684020086200222A7099
:1035D0002068816841F08001816005E0102068600A
:1035E0000021297001226A70104670BD022070BD52
:1035F00070B504462568E9692A68AB6811F00F00C8
:103600000BD1880679D5930677D5A16B002900F0F8
:10361000AB802046BDE870400847D80702D412F4BA
:10362000907F6AD0C80707D5D60505D50120286246
:10363000E56C45F00105E564880708D5DD0706D58A
:10364000266802203062E06C40F00400E064480725
:1036500008D5DD0706D5266804203062E06C40F00E
:103660000200E06408070AD5950601D4D80706D5FC
:10367000256808232B62E06C40F00800E064E06CF1
:10368000002871D0880605D5910603D5A16B09B134
:1036900020468847E06C21688A68510601D40007FB
:1036A00025D5204600F061F8206881684A0619D5C2
:1036B000816821F040018160206C20B1002181638C
:1036C000206CFFF720FB606C60B10FF22D1181635D
:1036D000606CFFF718FB002846D0606C816BBDE87A
:1036E000704008472046BDE8704000F0C4BE204648
:1036F00000F0C1FE0020E06470BD080607D5130687
:1037000005D5E16B81B32046BDE870400847480607
:103710002AD5510628D5286820F040002860206866
:1037200081684908490081600020E06394F84910ED
:1037300012290FD12168082008622068018B41F00E
:1037400008010183012084F849002046BDE870404B
:1037500000F092BE608E38B9012184F849102046ED
:10376000BDE8704000F089BE70BD01680A6822F4AF
:10377000F0720A6001688A68520852008A6001216A
:1037800080F8491070470000816A0068026893065B
:103790000CD40020488591F84920122A0DD10868E0
:1037A000826822F08002826008689FE091F84900F8
:1037B000122804BF084600F05FBE7047806A00F020
:1037C0005DBE0000806A00214186418501680B686A
:1037D00023F4F0730B6001688A68520852008A6013
:1037E000012180F84910C26C42F01002C26480F8D6
:1037F000491000F040BE0000806A002141864185EA
:1038000000F039BE70B50446334923681E68A068CD
:103810000E402169064360690E43064346F40046A4
:103820001E6000255E68216AA06926F47C560E435E
:10383000E1690643E0680E4300220643274946F447
:1038400000668B425E600CD12548036803F00303D9
:10385000032B2DD8DFE803F0021C1725FEF7E8FE46
:1038600018E02048834223D11D490B6813F00C0354
:1038700006D0042B0CD0082B05D00C2B11D017E050
:10388000FEF7CEFE06E06068174901EB50010CE040
:10389000FEF77EFE61684A0802EB4002B2FBF1F2DD
:1038A00007E06068410801F58031B1FBF0F200E00B
:1038B00001254FF6F071A2F11000884206D21140A6
:1038C000C2F3420001432068C16000E001250020EE
:1038D000A063E063284670BDF369FFEF0038014044
:1038E00088100240004400400048E801016841F0AF
:1038F000400101607047000038B5040001D101208B
:1039000032BD04F14005687820B9002129702046B5
:1039100000F0CDFC24206870206801684908490047
:1039200001606068216820F070600861206881682B
:1039300021F400418160E06821680128A0680CBF83
:1039400040F4004040F404408860E068022803D15D
:1039500020684FF4006141602068416841F00071C7
:1039600041F4004141602068C16821F40041C16018
:1039700060692169A2690143206841EA0221C160AE
:10398000206AE1692268014311602068016841F002
:103990000101016000206860202169702063A87027
:1039A00032BD2DE9F843054605F140078846787891
:1039B00020281446994672D1397801296FD0012008
:1039C0003870FEF7BDFE06460096192301224FF41B
:1039D0000041284600F0AEF8002868D12120787018
:1039E0001021B970002078606C62A5F82A90686395
:1039F000089C698DDFF81001B1F5807F05D3FF22A7
:103A00002A8500904FF0807305E06A8D2A8500902A
:103A10004FF00073D2B24146284600F03CF908E06E
:103A2000FF232B8543681A401143DFF8E020114340
:103A30004160688D002833D032462146284600F088
:103A4000A7F8002833D1686A2A6801789162686A09
:103A5000411C6962688D411E6985288D411E29853A
:103A6000688D0028E5D089B20029E2D128688169F3
:103A70000A061DD414F1010FF8D0FEF761FE801B79
:103A8000844201D3002CF1D1786840F020007860A6
:103A9000202179700020B870387008E023E01CE025
:103AA00021463246284600F09AF80028F6D017E062
:103AB0006B8DDFF85C20B3F5807FC8F30901AFD2CE
:103AC0006B8D2B85DBB2D0F804C002EA0C021143E7
:103AD00041EA034141F00071AAE70220BDE8F28308
:103AE0000120BDE8F28329682020C8612968DFF839
:103AF00024004A6802404A60202179700020B87092
:103B00003870BDE8F2830000002000800000FF0153
:103B1000009C00FC00E800FE006881698A0744BF41
:103B2000002181628169CA0703D4816941F00101E2
:103B3000816170472DE9F041069F05460E4690468B
:103B40001C46286881693140B1420CBF0120002029
:103B5000404517D114F1010FF3D0FEF7F1FDC01B62
:103B6000844201D3002CECD105F1400020224168B1
:103B700041F02001416042700021817001700120FC
:103B8000BDE8F08101E0104308600020BDE8F0814D
:103B900070B505460C4616462868816988071CD40E
:103BA00032462146284600F03EF8A0B914F1010F34
:103BB000F2D0FEF7C5FD801B844201D3002CEBD16F
:103BC00005F140002022416841F02001416042702F
:103BD000002181700170012070BD002070BD70B5A2
:103BE00005460C46164628688169880619D432466F
:103BF0002146284600F017F888B9FEF7A1FD801B82
:103C0000844201D3002CEED105F14000202241680E
:103C100041F020014160427000218170017001205B
:103C200070BD002070BD70B505460C4628688169DE
:103C3000C80616461AD5286881698A0618D414F170
:103C4000010FF8D0FEF77CFD801B844201D3002CCD
:103C5000F1D105F14000416841F02001416020228E
:103C60004270002181700170012070BD002070BD84
:103C70001021C16120202A68D0612846FFF74CFF3F
:103C800029680E484A68024005F140004A604168D0
:103C900041F00401E2E770B40068039C4568084EF7
:103CA00046EA5456B543C1F30901294341EA0241AA
:103CB00019432143416070BC7047000000E800FEDA
:103CC000FF63FF0338B50446FEF73AFD14F1010F18
:103CD000054602D0044988680419FEF731FD401BEF
:103CE000A042FAD331BD00BFF8150020032010B563
:103CF000FEF74EFE0020FEF701FD0024002814BF51
:103D0000012400F0B5FA204610BD000030B400F1E7
:103D100040025378202B15D11478012C12D00123A6
:103D200013702424547003681D686D086D001D60B5
:103D300003681C6824F480541C6003681D682943D0
:103D400019601DE019E030B400F140025378202BD7
:103D500013D11478012C10D0012313702424547033
:103D600003681D686D086D001D6003681C6824F4FD
:103D7000706444EA01241C6002E030BC02207047F9
:103D80000068016841F001010160202050700021AD
:103D90001170002030BC7047094981B00A6842F0B8
:103DA00001020A60096801F00101009100990549CA
:103DB0000A681043FFE7086001B070470000000088
:103DC000601002400400014070B400F13C031A7816
:103DD000012A08BF02201CD001221A7002245C7044
:103DE0000D4A04686568A668944203D14A6825F4C0
:103DF0007005154325F070058A6809680D436560F4
:103E000026F0800600681643866001215970002064
:103E1000187070BC70470000002C01402E4B1A6DCA
:103E200003F158001B680221184738B541F2883465
:103E3000294D02E0696820468847AA6C03210120C9
:103E400090470128F6D131BD10B5234CE16C04F147
:103E5000680204F1880000F013FB04F160012046C1
:103E600000F07AFC1D481E4A01881068BDE8104029
:103E700000F042BC80B500F02CFC0421194800F091
:103E8000C9FC10B1BDE801401CE001BD00F019BC47
:103E90007047114BD8641A65596510B5114C04F17F
:103EA0000801204600F080FC0121204600F0AAFC19
:103EB0000321204600F0A6FC2046BDE81040042166
:103EC00000F0A0BC10B5074C0521204600F072FCA4
:103ED000204600F08DFCFBE7081500202838014043
:103EE000100000489C150020002200F0B5BC000026
:103EF0000248016841F48071016070470070004021
:103F00002DE9FC47054600242868DFF848630105D1
:103F1000A1461CD5E86B58B1B0F5000F03D0B0F541
:103F2000400F0AD011E0326842F48032326005E07E
:103F30000021281D00F009F904463CB9F16FE86B37
:103F400021F440010143F16701E00124A146286802
:103F500081032BD5F06CC1004FF000080AD4F06C3F
:103F600040F08050F0644FF00108F06C00F0805099
:103F700000900098DFF8E072386840F48070386094
:103F8000FEF7DEFB82463868C10500F1AE80FEF721
:103F9000D7FBA0EB0A000328F5D30324A146B8F110
:103FA000000F03D0F06C20F08050F0642878C10737
:103FB00005D5F26F286A920840EA8202F2672978F2
:103FC000880705D5F16F686A21F00C010143F1679C
:103FD0002978880605D5F16FA86A21F4406101436C
:103FE000F1672968880505D5F16F686B21F44021D8
:103FF0000143F1672968480505D5F16FA86B21F4E5
:1040000040110143F1672978480605D5F16FE86A48
:1040100021F440510143F1672968C80505D5F16FC6
:10402000286B21F440310143F1672968880420D5C9
:10403000F16F286C21F040610143F167286CB0F109
:10404000006F0CD1306840F48010306011E0FEF752
:1040500077FB001B504567D34FF003099FE7B0F192
:10406000806F06D10121281D00F06FF8010018BFF4
:1040700081462868410318D5F26F686C22F04062CF
:104080000243F267686CB0F1006F04D1306840F40D
:104090008010306009E0B0F1806F06D10121281D49
:1040A00000F053F8010018BF81462868410410D57C
:1040B000F26FA86C22F040520243F267A96CB1F192
:1040C000805F06D10221281D00F03FF8010018BFD3
:1040D00081462868010405D5F26FE86C22F0804221
:1040E0000243F2674846BDE8F687002C7FF456AFDE
:1040F000DFF86871386810F440701CBF296D884281
:104100000BD03868396841F48031396020F4407050
:104110003A6822F480323A603860C00707D5FEF76B
:104120000FFB044641F2893A386881078FD53A6817
:10413000286D22F4407202433A6030E7DFF8200134
:10414000016841F00401016070472DE9F041074624
:10415000434E38680C46F168002511F0030F0DD06E
:10416000F16801F00301814237D1B0B3F06879689A
:10417000C0F30210401C884213D02EE0012804D066
:104180002BD3032823D01ED327E03268910724D5F0
:10419000F268796822F073021043491E40EA011068
:1041A000F060306820F080603060FEF7C9FA804629
:1041B000306801013AD5FEF7C3FAA0EB08000328E6
:1041C000F6D3032542E031684A05E1D405E03168C1
:1041D0008A03DDD431684A03DAD4012536E0012CA4
:1041E000326909D13B691F4802405B0842EA01215C
:1041F0005B1E41EA435108E07B691B4802405B08B3
:1042000042EA01215B1E41EA43613161306840F0BE
:1042100080603060FEF794FA04463068010111D4E2
:10422000FEF78EFA001B0328F7D3CAE7B968002C03
:10423000D5D132690D48FB68024042EA012141EACA
:10424000C361E2E73169B869014331612846BDE8DD
:10425000F08100000C1002400070004090100240FD
:1042600000100240FF809FFFFF80FFF9FF80FF07E3
:1042700080B57748816841F001018160816801F073
:10428000010100910099026842F0805202600068CA
:1042900000F08050009000980520FEF779FBBDE803
:1042A0000840012200216FF00400FEF77EBB38B504
:1042B00086B001A90022002300241CC10CC10068A3
:1042C000644DA84222D1644C206840F00100206077
:1042D0001222216801F0010100914FF4C0610098A1
:1042E0000191029201210391032204230492059378
:1042F00001A94FF09040FEF729FAE06840F4001061
:10430000E060E06800F400100090009807B030BD55
:1043100038B586B0044601A80021002200230EC053
:1043200006C02568B5F1804F39D14B484B4DC16867
:1043300041F00101C160C16801F0010100910099E3
:10434000026842F0020202600222006800F00200ED
:104350000090082100980292039301910322012307
:104360000492059301A93E48FEF7F0F90421696023
:1043700080213C482860296120200022E8614FF418
:104380008051AA60EA606A61AA6129622846FEF744
:10439000FFFB08B1FEF7CAFEA562AC62256307B059
:1043A00030BD70B586B0044601A80021002200236C
:1043B0000EC006C025682C4EB54246D126482B4D6E
:1043C000416941F480414161416901F480410091BA
:1043D0000099026842F0020202600222006800F0C6
:1043E00002000090E02100980292039301910322C1
:1043F00007230492059301A91948FEF7A7F94FF482
:104400008030FFF7C9FC4FF40030FFF7C5FC1848B7
:1044100028600221696000201022E8608021686124
:10442000A861E8612862AA6029612846FEF7B0FB0E
:1044300008B1FEF77BFE2564AC6200220021252036
:10444000FEF7B3FA2520FEF7D9FA06B070BD0000DA
:1044500058100240005400404C100240D427002065
:104460000004004880000240003801401C28002061
:104470006C040240704770477047704770470000F7
:1044800038B5044661608AB3A26000F042F80120AA
:10449000FFF718FC164D2978FF2927D06A782046A7
:1044A00000F028F8A978FF2920D0EA78204600F00B
:1044B00021F82979FF2919D06A79204600F01AF8E5
:1044C000A979FF2912D0EA79204600F013F8297A59
:1044D000FF290BD06A7A204600F00CF8A97AFF2950
:1044E00004D0EA7A2046BDE8384003E031BD000040
:1044F000EC150020E0B58DF8041064238DF805203C
:10450000009302230178406801AAFEF725FB03B05F
:1045100000BD10B50446A06888B1012100F0BEF9C5
:10452000A0680121083000F0B9F9A068002110301E
:1045300000F0B4F9A068BDE81040022100E010BD11
:10454000183000F0B0B900002DE9FE4F904C9149B1
:10455000606AB1F800B0A0610091E1690191C8788A
:104560000028FAD1D4F820A00198C4F814A000279C
:10457000C5780098B0F802808748A669D4F8009002
:10458000D0E9CA01FDF724FAC244CA4509DA9AF80B
:1045900000708742F8DBAAEB0A07378006F10206B3
:1045A000F2E7ABF1010B1FFA8BF545B14AF6AA20F1
:1045B0003060311DA1610846E1688842D2D300987D
:1045C000A0F804B003B0BDE8F08F00002DE9F0477B
:1045D000DFF8C4C1DCF80070BCF8B06241F2784585
:1045E00000235CF80550DCF850C183B0002417FAB2
:1045F00082F29E46984699469A4631F8023B502BE5
:104600000DDAB34202DC09F1010901E00AF1010A05
:104610001CF8034004F101040CF80340EDE709EB3A
:104620000A0EDEFA58F407F8014B9742C846A94231
:1046300000DAE2DB029100930193694691E83800C9
:1046400080E8380003B0BDE8F087534841F27C4170
:10465000014400220B681A71D0F800C0D0F8502134
:10466000C1F810C000F52F70CA604861704738B5B6
:10467000494841F2844300F2A224C51886B0228A38
:10468000296803A8FFF7A2FF228805996846FFF76B
:104690009DFFE86803990160049A42600099816077
:1046A0000199C16007B030BD10B53C4C206C80470B
:1046B00021688847FFF748FF60688047BDE81040E1
:1046C000D5E737490A68107800281CBF086A0047F8
:1046D000704733480268012102E031480268002136
:1046E0001170C06A00472C4A41F2084041F2F4437D
:1046F0001044D25850211047F8B506460F46FFF730
:10470000A4FF254C41F25840251830462E606F60BA
:10471000A96A2E6F00235022B047A86AE96AA860F0
:1047200090F82E07E86041F6F0300A5A6A61296174
:10473000502000F0F1F8E863112101701420EA6BB9
:10474000507004F5A850016888472046BDE8F8403D
:104750003222502100F004B938B50C4601460E4D06
:1047600041F2B4404C222844FCF7FEFD41F27C4368
:10477000EC5031BD10B50B4C206840F65C6100F088
:1047800011F9E0680021C0E9001110BD000000002F
:1047900060140020A202002000000020C0140020AD
:1047A0007C140020841400204160417802E04178AC
:1047B0003BE0000070B504460D466178A94210D078
:1047C00009A000F0F2F8094E4FEA050156F8212041
:1047D0001DA106F1240000F0F3F806F1240000F01A
:1047E000E4F8657070BD00000900000004160020A8
:1047F00080B5FFF7DCFF4068010002D0BDE8024051
:10480000004701BD10B50446FFF7D4FF2046BDE8C0
:104810001040EDE710B50C46FFF7C9FF0078A04245
:1048200001D1012010BD002010BD30B4034600248A
:1048300008225868204405788D4202D00834521E60
:10484000F7D130BC70470000456E746572696E67C1
:104850002025730A0000000000B500BF1300964633
:104860009446103928BFA0E80C50FAD85FEA417C82
:1048700028BF0CC048BF40F8042BC90728BF20F848
:10488000022B48BF00F8012B00BD00000170426000
:1048900010F108001DA10622FCF756BDCAB281889E
:1048A0000068FEF76EB9CAB281880068FEF75AB98F
:1048B0007CB500BF17A21368009305468DF802105F
:1048C0008DF803500324012D08D10421684600F01F
:1048D00010F808B9022606E0012600E003264FF48E
:1048E0007A70FEF752F9641E18BF012EEBD13046E4
:1048F00076BD0A4601460020FEF721B90146002098
:10490000FEF720B9000000000000000000000000D9
:10491000000000000101000070B5C51DED08AFF3F7
:104920000080ED00072D98BF08250C4E346814B1A7
:104930002068A84208D200F063F800283060F4D163
:10494000AFF30080002070BD6119451B14BF0D60DE
:1049500000213160AFF30080204670BDE4280020C4
:10496000F8B504460D46164600F062F8204600F001
:104970008FF804F5287731467A8A204600F040F90E
:104980003A8A294604F5A87000F03AF9798804F5C6
:10499000547000F0C5F8398804F5E160BDE8F440D2
:1049A00000F0BEB8002200F089B910B50446FCF74B
:1049B0006BFC81B22046BDE81040FFF79ABF0000B3
:1049C0000CB430B583B00A4606A90291044600250E
:1049D0000194009502AB01A9084878441E30FBF70A
:1049E000D5FB019A157000284EBF04460198041BA0
:1049F000204603B030BC5DF80CFB00BF43C9FFFF8D
:104A00000749086808B1002070470648C008C00080
:104A100008600549C908C900091A0160704700BF4C
:104A2000E8280020F72C0020F02E002000000000D5
:104A300070B50D460446164641F25841FFF754FA48
:104A400004F52870058046806D0876080582468248
:104A5000058146818581C681DFF85422DFF8543212
:104A6000C0E91A2341F208412144AB257F260D708D
:104A70004E7004F5A15100220A6042F21071427694
:104A8000C165DFF83432C4E9CA23067670BD000080
:104A900010B588B0044682B011A168462822FCF700
:104AA00063FC0CBC04F5306000F038F9DFF800025C
:104AB000DFF8001214A2C4E9C20108B004F539609D
:104AC000BDE8104092EC062B012200219FED651BF2
:104AD0009FED660B00F07CB90000000000000000B4
:104AE000000000000000E03FFCA9F1D24D62603FF1
:104AF000FCA9F1D24D62503F000000000000000010
:104B00000000000000000000FCA9F1D24D62503FFF
:104B10009A9999999999A93F2D431CEBE2361A3F2E
:104B2000F8B504460D46202104F56470FFF7DCF962
:104B30002DA62A4696EC062B00219FED5B1B9FEDD0
:104B4000470B204600F044F904F520770020387028
:104B50002A4696EC062B00219FED531B9FED3F0B41
:104B600004F1A00000F034F9012078702A4696EC98
:104B7000062B00219FED4C1B9FED380B04F5A07018
:104B800000F026F90220B8702A4696EC062B002188
:104B90009FED451B9FED310B04F5F07000F018F907
:104BA0000320F870202104F52270FFF79DF904F529
:104BB000427500202870202104F52A70FFF794F92F
:104BC00001206870202104F53270FFF78DF9022072
:104BD000A870202104F53A70FFF786F90320E870E9
:104BE000F1BD0000000000009A9999999999A93F98
:104BF000FCA9F1D24D62503F9A9999999999A93F90
:104C000070B504460D4620681646FFF7CBFE606877
:104C10002946FFF7C7FE00202072002116A06581FB
:104C20006172A6812A4690EC062B9FED0E1B9FED2C
:104C30000B0B04F1100000F0CBF800BF14A02A46C3
:104C400090EC062B04F1B000BDE8704000219FED10
:104C5000051B9FED020B00F0BBB800000000000038
:104C600000000000000000000000144079E9263137
:104C700008AC7C3F00000000FCA9F1D24D62503F1F
:104C8000FCA9F1D24D62503F7B14AE47E17A843FDC
:104C9000FCA9F1D24D62503FFCA9F1D24D62503FC8
:104CA0007B14AE47E17A843F000000000000F03F33
:104CB00079E9263108AC7C3F00E05F40401810F0F5
:104CC000030308D0C91A1FD3DB0748BF00F8012D22
:104CD00028BF20F8022D130030B4144615461039B1
:104CE00028BF20E93C00FAD8490728BF20E90C007A
:104CF00048BF40F8042D890028BF20F8022D48BF86
:104D000000F8012D30BC7047C91818BF00F8012DFC
:104D1000CB0728BF00F8012D704700000CB410B578
:104D20002DED068B04469021FFF7DEF8DDE9082320
:104D30000020002100F098F894ED048B9DED0A9B73
:104D400026D153EC192B00F08FF821D1DDE90C238B
:104D500000F08AF81CD11A49CDE91001DDE90E23D3
:104D60001649FCF75DFC41EC1A0B0022144BFCF7D2
:104D7000D1FE154A134BFCF753FC41EC190B53ECD5
:104D8000182B11481149FCF74BFC41EC100B03E0C8
:104D90009DED08AB9DED0C0B84ED040B84ED029BA7
:104DA00084ED00ABFDF7EFFEFCF7ECFFC4E9160164
:104DB000BDEC068B10BC5DF80CFB00000000E03F72
:104DC0000000F03F4D62603FFCA9F1D24D62503FC0
:104DD000F8B5044604F180072DED028B84ED181B15
:104DE000B0EE408AF0EE608A0D46164687ED002B45
:104DF00087ED023B87ED044BFDF7C5FEFCF7C2FFD4
:104E0000C4E91C0194ED1C0B84ED1A0BBD83FE83D9
:104E10009FED130B84ED000B84ED020B84ED040B6E
:104E200084ED060B84ED080B84ED0A0B84ED0C0B6E
:104E300084ED0E0B84ED108B84ED120B84ED140BBE
:104E400084ED160B0020B87684ED1E0BFDF79BFE5B
:104E5000FCF798FFC4E91C01BDEC028BF1BD00001A
:104E6000000000000000000090420CD141EA030C59
:104E700050EA4C0C07D0994205D14FF4001C1CEBB2
:104E8000410F38BF894270470E48016841F47001F4
:104E9000016000220C49086840F0010008608A6047
:104EA0004FF480520B68094803400B60CA60002031
:104EB0000B68074A23F480230B6088614FF0006180
:104EC0001160704788ED00E000100240FFFFF6EA35
:104ED00008ED00E0000000000000000001020304F3
:104EE00006070809A0860100400D0300801A06008D
:104EF00000350C0040420F0080841E0000093D0078
:104F000000127A000024F40000366E010048E80127
:104F1000006CDC02494E495449414C495A494E47BC
:104F200000000000434F4E4E454354494E475F54E6
:104F30004F5F484F53540000434F4E464947555228
:104F4000494E4700524541445900000041435449ED
:104F50005645000049444C45000000005245434F6F
:104F60004E4649475552494E470000004552524F60
:104F7000525F535441544500554E4B4E4F574E00CF
:104F80007047FEE7FEE7FEE7FEE7704770477047B1
:104F900000F016B80120FDF7A2BC0220FDF79FBC6F
:104FA0000448FDF7D5BE0448FEF722BB0348FDF7D1
:104FB000CFBE0000D4270020542600201C2800204B
:104FC00002490A68886882180A607047F81500204C
:104FD00010B5074979441831064C7C44163404E076
:104FE0000A68081D114488470146A142F8D110BD46
:104FF0002C000000480000004EF68851CEF200015F
:10500000086840F470000860BFF34F8FBFF36F8FE4
:105010004FF00070E1EE100A70470000F3C1FFFF8F
:1050200040110000AC17002000000000DBC0FFFFB3
:1050300046010000CC0200000000002000F00DF846
:10504000002801D0FFF7C4FFAFF300800020AFF3CA
:105050000080FDF7DFFE00F002F80120704700F04D
:1050600001B8000007463846FCF754FFFBE7000094
:105070000148804701480047894E000881500008D8
:10508000AFF30080FFF7B8FFFFF7D8FF0000000084
:105090000102030400002E004300FFF7FEBFFFF7EC
:1050A000FEBFFFF7FEBFFFF7FEBFFFF7FEBFFFF734
:1050B000FEBFFFF7FEBFFFF7FEBFFFF7FEBFFFF724
:1050C000FEBFFFF7FEBFFFF7FEBFFFF7FEBFFFF714
:1050D000FEBFFFF7FEBFFFF7FEBFFFF7FEBFFFF704
:1050E000FEBFFFF7FEBFFFF7FEBFFFF7FEBFFFF7F4
:1050F000FEBFFFF7FEBFFFF7FEBFFFF7FEBFFFF7E4
:10510000FEBFFFF7FEBFFFF7FEBFFFF7FEBFFFF7D3
:10511000FEBFFFF7FEBFFFF7FEBFFFF7FEBFFFF7C3
:10512000FEBFFFF7FEBFFFF7FEBFFFF7FEBFFFF7B3
:10513000FEBFFFF7FEBFFFF7FEBFFFF7FEBFFFF7A3
:10514000FEBFFFF7FEBFFFF7FEBFFFF7FEBFFFF793
:10515000FEBFFFF7FEBFFFF7FEBFFFF7FEBFFFF783
:10516000FEBFFFF7FEBFFFF7FEBFFFF7FEBFFFF773
:10517000FEBFFFF7FEBFF007FFE426002034270044
:10518000200001F12601F404FF6428002098285033
:10519000F12901F004FF50003200020001F1FF018B
:1051A000F1FF01F1FF01F1FF01F1FF01F1FF01F159
:1051B000FF01F1FF01F1FF01F1FF01F1FF01F1FF3B
:1051C00001F1FF01F1FF01F1FF01F1C9011E847C32
:1051D00014FF01AC1730131003F9460008A904129C
:1051E000C304100359470008E70812D30412DB0474
:1051F000FD3B0F1243754750100B8D4800088B2B59
:105200000008752A0008B70412C90412DB04121939
:1052100014122304122F04123F04124504124904ED
:1052200012590412A734129D0412870C12F30812AB
:10523000FD04F310B148A03001480080225001481D
:10524000001008413290044800010000603D430115
:10525000010D1E01011310071D3E0008020300008E
:105260002B081003030400004908130405C01108AB
:10527000130506C01108120808F309913E80300991
:10528000C2B05C6A570058325928FF23217F21633E
:105290001003144F00082404123804124404124C62
:1052A00004125404125C04126C04F73D784F74F13C
:1052B000A401F00507093D00945000080452FF01C5
:1052C000F200961410010000980C2568FF192C17A5
:0C52D000181647D1127443BF123C210194
:04000005080050811E
:00000001FF
