:020000040800F2
:10000000482A0020993700089536000897360008DE
:10001000993600089B3600089D3600080000000055
:100020000000000000000000000000009F360008F3
:10003000A136000800000000A3360008A53600081D
:10004000BD370008C1370008C5370008C9370008A8
:10005000CD370008D1370008A9360008AF360008B0
:10006000D5370008D9370008DD370008E137000828
:10007000E5370008E9370008ED370008F1370008D8
:10008000F5370008B5360008F9370008FD370008D5
:100090000138000805380008093800080D38000844
:1000A0001138000815380008193800081D380008F4
:1000B000213800080000000000000000253800087A
:1000C0002938000800000000000000002D3800085A
:1000D00000000000BB3600083138000800000000B6
:1000E0003538000839380008000000000000000022
:1000F0000000000000000000000000000000000000
:100100000000000000000000000000003D38000872
:1001100000000000000000004138000845380008D9
:10012000493800084D380008513800085538000893
:100130005938000800000000000000000000000026
:100140005D38000861380008653800086938000823
:10015000C13600086D38000871380008753800088D
:10016000793800087D380008813800080000000058
:1001700085380008893800080000000000000000F1
:100180008D38000891380008953800082DE9FC47A3
:10019000050000F0A481DFF88877DFF89447B8689D
:1001A00000F00C09F86800F003082878C10640F157
:1001B000AA81B9F1000F05D0B9F10C0F08BFB8F151
:1001C000010F57D13868810703D5A869002800F0CE
:1001D0008681396808074EBF396861680909286A4D
:1001E00001F0F001814216D200F060FB002840F0DF
:1001F0007681386840F0080038603968286A21F054
:10020000F001014339607968E86921F47F4141EAEE
:100210000021796016E0386840F0080038603968DD
:10022000286A21F0F001014339607968E86921F416
:100230007F4141EA00217960286A00F037FB0028FD
:1002400040F04D8100F0D6FABA68DFF8E816C2F344
:100250000312895CDFF8CC2601F01F01C840106052
:10026000DFF8C406006800F07BFB010000F04B8162
:10027000BDE8F687A869C8B1396841F00101396065
:1002800000F090FB06463868810700F12B8100F0F2
:1002900089FB801B0328F6D30320BDE8F68700F016
:1002A00081FB801B0328C0F06981F5E738684008AE
:1002B0004000386000F076FB06463868810740F160
:1002C000228100F06FFB801B0328F6D3E4E7686807
:1002D000B0F5803F04D1386840F48030386011E0D8
:1002E000B0F5A02F386806D140F480203860396816
:1002F00041F4803105E020F480303860396821F421
:1003000080213960686860B100F04CFB06463868AF
:10031000810300F10B8100F045FB801B6528F6D3BB
:10032000BAE700F03FFB06463868810340F1FE80E3
:1003300000F038FB801B6528F6D3ADE7E86880B194
:10034000396841F48071396000F02CFB064638684A
:10035000410500F1FE8000F025FB801B0328F6D349
:100360009AE7386820F48070386000F01BFB06467E
:100370003868410540F1F48000F014FB801B03282D
:10038000F6D389E740084000606000F00BFB0646AA
:100390006068810740F1F68000F004FB801B0328B1
:1003A000F6D379E70528206806D140F004002060E4
:1003B000216841F0010105E040084000206021680B
:1003C00021F004012160A86878B100F0EBFA8246C0
:1003D00041F289382068810700F1088100F0E2FAD3
:1003E000A0EB0A004045F5D356E700F0DBFA824661
:1003F00041F289382068810740F1F88000F0D2FA94
:10040000A0EB0A004045F5D346E700F0CBFA801B8D
:100410000328C0F0FE803FE740084000A06000F0E5
:10042000C1FA0646A068810740F1F78000F0BAFAE9
:10043000801B0328F6D32FE700F0B4FA801B0328B3
:10044000C0F0FB8028E700F0ADFA801B0328C0F065
:100450001E8121E73968080103D4F96889088900F9
:10046000F960F968DFF8D0040140F96000F09AFA09
:1004700006463868810140F10E8100F093FA801B36
:100480000328F6D308E7012829D0F868EA6A00F0C3
:100490000301914201BF00F070012A6B521EB1EBC3
:1004A000021F1CD16A6B00F4FE41B1EB022F02BFA8
:1004B00000F07841AA6BB1EBC26F10D1EA6B520821
:1004C00000F4C001521EB1EB425F08D1296C49080B
:1004D00000F0C060491EB0EB416F00F0DC800120ED
:1004E000BDE8F687386840F0080038603968286A47
:1004F00021F0F001014339607968E86921F47F4116
:1005000041EA002179602878C1070FD5B9F1080FB9
:1005100006D0B9F10C0F08BFB8F1030F7FF4D7AEC6
:100520003868810302D568680028D8D02978880700
:1005300016D5B9F1040F06D0B9F10C0F08BFB8F108
:10054000020F7FF4FBAE3868410502D5E868002849
:10055000C5D07868296920F0F85040EA01607860D9
:10056000287801070ED56869002860683FF40AAF53
:1005700040F00100606000F015FA064660688107EF
:100580007FF58DAE2878410735D5B86D0026C100BE
:1005900009D4B86D40F08050B8650126B86D00F000
:1005A000805000900098DFF89483D8F80000C105CF
:1005B00013D4D8F8000040F48070C8F8000000F0B0
:1005C000F1F98246D8F80000C10506D400F0EAF936
:1005D000A0EB0A000328F5D35EE6A86801287FF4A3
:1005E000E1AE206840F001002060ECE61EB1B86D7D
:1005F00020F08050B865287881060ED5686A0028FA
:10060000A0683FF409AF40F00100A06000F0CAF913
:100610000646A06881077FF5F8AEA86AD8B3B9F19D
:100620000C0F3FF430AF0228386820F0807038603B
:100630007FF410AF00F0B6F90646386881013FF547
:10064000FBAEFA68DFF8F812E86A0A40296B024349
:10065000491E686B42EA0112E96B490842EA00222E
:10066000286C491E400842EA4152401E42EA40625C
:10067000A86B42EAC062FA60396841F08071396063
:10068000F86840F08070F86000F08CF90646386831
:1006900081017FF5D8AE0020BDE8F6872DE9F8434B
:1006A0000400884600F07F80DFF89862306800F030
:1006B0000700404509D23168C90848EAC1013160E4
:1006C000306800F0070040456DD12078DFF85052C7
:1006D000C10750D56068032802D129688A0108E063
:1006E000022802D129688A0303E00028296802D180
:1006F0008A0702D457E04A0555D5A968890840EA17
:100700008100A86041F2893900F04CF90746A868D9
:10071000616800F00C00B0EB810F2CD000F042F9C2
:10072000C01B4845F3D30320BDE8F283207841077E
:1007300005D5AA68E06822F4E0620243AA60217845
:10074000080706D5A968206921F4605141EAC00173
:10075000A96000F04FF8AA687649C2F30312895CD9
:10076000704A01F01F01C8401060BDE8F2436E48B6
:10077000006800F0F5B82078810705D5AA68A06860
:1007800022F0F0020243AA60316801F007018845B7
:10079000CCD23068C00848EAC0003060316801F04F
:1007A00007014145C2D00120BDE8F28370B5664E15
:1007B00086B0706C40F0010070641546706C00F0FB
:1007C0000100009002220C460098029204924FF41D
:1007D0008071019100220392059201A94FF090408F
:1007E00000F0E6F8316821F0FE410C432C43346000
:1007F00006B070BD10B44A4A9068D4680023002146
:1008000010F00C0004F0030403D00C2812D1012CCA
:100810001AD113681C0704D4444B1C68C4F3032387
:1008200002E01368C3F30313484C54F8233048B96B
:10083000194624E0042808BF454920D008281ED1C5
:1008400044491CE00C281AD1D06800F003000228AB
:1008500003D0032808BF3F4B00E03D4BD168D06870
:10086000D268C0F306204343C1F30210C2F34161D2
:10087000401C491CB3FBF0F04900B0FBF1F110BC87
:10088000084670472748304A006813683249C3F366
:10089000022206E023482C4A006813682E49C3F35D
:1008A000C222895C01F01F01C84070477CB52B4E05
:1008B000054630680024C10002D500F057F90EE06B
:1008C000306840F080503060316801F08051009114
:1008D000009800F04BF9316821F080513160B0F59B
:1008E000007F04D1802D0CD9A12D09D304E0802DE7
:1008F00088BF032405D801D1022402E0702D00D165
:10090000012410480168C90844EAC1010160006877
:1009100000F00700A04201D0012076BD002076BD86
:1009200000100240141600200C1600209410024003
:100930009010024054360008FFFFEEFE00700040A9
:100940008C809D010020024008100240643600089F
:100950000024F40000127A00B43700085810024056
:1009600070B50E4E0446B0680025A0B14FF47A7100
:100970000B4AB1FBF0F11068B0FBF1F000F08AF91E
:1009800048B9102C07D2002221464FF0FF3000F06A
:100990003EF9746000E00125284670BD081600206D
:1009A0001416002001480068704700BF0816002098
:1009B0002DE9F84F0024674A674BDFF8A081DFF884
:1009C000A0914FF00F0A07468E4637E0654EB742BA
:1009D00014BF07260226AE4046EA0C0648F82160FE
:1009E000C143156801EA050CDEF80450EE0348BF68
:1009F00040EA0C0CC2F800C0556801EA050CDEF8AC
:100A00000450AE0348BF40EA0C0CC2F804C095681D
:100A100001EA050CDEF80450EE0248BF40EA0C0C77
:100A2000C2F808C0D56801EA050CDEF804108D0292
:100A300048BF40EA0C0CC2F80CC0641CDEF8001081
:100A400031FA04F076D0012000FA04FC1CEA01001F
:100A5000F3D0DEF80410022918BF122910D1E108E2
:100A600007EB8101A5000E6A05F01C050AFA05FBDB
:100A700026EA0B06DEF810B00BFA05F535430D62D9
:100A8000610003253E689EF804B08D40ED430BF0F5
:100A9000030B2E400BFA01FB4BEA06063E60DEF824
:100AA0000460012E18BF022E03D0112E18BF122E83
:100AB00013D1BE68DEF80CB02E400BFA01FB4BEAF6
:100AC0000606BE607E6826EA0C0CDEF80460C6F3FB
:100AD0000016A64046EA0C067E60FE683540DEF849
:100AE000086006FA01F12943F960DEF80410C90034
:100AF000A3D5D9F8001041F00101C9F80010D9F8C8
:100B0000005005F001050095A5000099A10858F8CE
:100B1000216005F00C050AFA05FC26EA0C0CB7F179
:100B2000904F08BF00263FF456AF9F427FF44EAF70
:100B3000012650E7BDE8F18F0AB1816170478162FB
:100B40007047094A136803421CBF106000F0C4B824
:100B50007047000000040140000400480800014004
:100B6000601002400008004814040140DFF87800DB
:100B7000006800F4C060704730B4DFF86C10B0F566
:100B8000007F086800F4C0601BD1B0F5007F21D061
:100B90000868DFF85820DFF8585020F4C06040F4AF
:100BA00000700860322013684343A3FB0554E00C37
:100BB000401C4A69530510D5002818BF401EF8D1C3
:100BC0000BE0B0F5806F05D0086820F4C06040F4F9
:100BD00080600860002030BC704748694105F9D545
:100BE00030BC032070470000007000401416002045
:100BF00006BD3786304B19684FF6FF0200021140E0
:100C000000F4E06008432D4908431860704730B491
:100C1000294B1C68C4F30223C3F10704052C28BF29
:100C200004241D1D072D34BF0023DB1E012505FAFA
:100C300004F4641E2140994005FA03F35B1E1A4038
:100C400011430901020003D41D48815430BC704790
:100C50001C4B02F00F021A4402F8041C30BC70470F
:100C6000010007D4012200F01F01174B8A40400900
:100C700043F82020704701000BD4012200F01F012F
:100C8000124B8A40400943F82020BFF34F8FBFF337
:100C90006F8F7047401EB0F1807F01D301207047F5
:100CA0000B490C4A48600023F02010708B6007202D
:100CB00008600020704700000CED00E00000FA051D
:100CC00000E400E018ED00E000E100E080E100E079
:100CD00010E000E023ED00E02E4A517A91B10128A6
:100CE00002D0022808D070472B48016801F00101AA
:100CF00081F001019172704727480168490801F0AD
:100D00000101D172704780B50620FFF7A9FFBDE849
:100D100002400720FFF7A4BF80B50620FFF7ABFF16
:100D2000BDE802400720FFF7A6BF38B51C461346B2
:100D30000A4600250146A86A00F0FBF808B100F059
:100D400073FB2968CA6842F48062CA602968CA686D
:100D500042F00402CA6022462868BDE8384007E035
:100D600000220421106800F016BD00200122006856
:100D7000042100F010BD28210A681368D86070476C
:100D8000002000F071BD0120704702490020487327
:100D90007047000030260020100400481CB5049C59
:100DA000009400F07CFF13BD78B585B06B4600243D
:100DB0000025002670C330C3009101926946FFF7F9
:100DC000F7FD06B070BDFFF7B7BEFFF7EBBD01F052
:100DD000F7B8F0B40246106895681318506803EB32
:100DE0005004C0071DD54D441BE013F8017B05F8E6
:100DF000017B491EF9D1A0B1B60813F8011B06F01A
:100E00000306032E08BF13F8016B01EB06214942CC
:100E1000801C294405D011F8016B05F8016B401EB8
:100E2000F9D1A3420ED013F8016B16F0030104BFF1
:100E300013F8011BC91C30090F28DAD113F8010B74
:100E40000F30D6E7F0BC02F10C007047F0B400B9E7
:100E50006CE004682D4DAC4200F124030AD22C4909
:100E60002C4F2D4DDD610A19A2FB07763209920045
:100E70001A6209E02949274E0A19A2FB06652A09C8
:100E8000920027491A62D96102225A702568816846
:100E9000C2686FF30E150D430169154342690D4396
:100EA00081691543C2690D43016A15430D432560ED
:100EB0008268B2F5804F21D0DA69174C0F21A24227
:100EC00009D1184A156893F8204004F01C04A14089
:100ED00025EA010108E0144A146893F8205005F04F
:100EE0001C05A94024EA01011160116893F8204013
:100EF000406804F01C04A040014311600020986188
:100F0000012159701870F0BC7047000008040240BD
:100F1000F8FFFDBFCDCCCCCC00000240F8FBFDBFFC
:100F200000040240A8000240A8040240F0BC0120D6
:100F30007047F0B400F1240500242E78012E08BF7C
:100F400002203CD001262E706F78012F34D102266A
:100F50006E70AC61066837687F087F0037600126D5
:100F600095F8207007F01C07BE40EF697E600668A8
:100F700073608368102B04D10668B2600268D16088
:100F800003E0036899600168CA600268E96821B1FA
:100F9000136843F00E03136008E0116821F00401A8
:100FA000116001680A6842F00A020A60006801687C
:100FB00041F00101016001E02C7002242046F0BCE8
:100FC000704738B500F1240100244A78022A03D082
:100FD00004208861012417E00268136823F00E03DF
:100FE0001360026815686D086D001560012291F8A4
:100FF0002030CD6903F01C039A406A6001224A70D8
:101000000C70496901B18847204632BDF0B400F147
:1010100024010423CA6914680268156891F82060E5
:1010200006F01C0603FA06F73C4214D06F0712D5EF
:101030001468A50603D4146824F00404146091F81D
:101040002020CC6902F01C0293406360C96800292B
:101050003AD0F0BC0847022303FA06F73C4217D007
:10106000AF0715D51468A50605D4146824F00A0442
:10107000146001224A7091F82020CC6902F01C0211
:101080009340636000220A708968E9B1F0BC0847A8
:10109000082303FA06F6344216D02B0714D5146839
:1010A00024F00E041460012291F82030CC6903F082
:1010B0001C039A40626001228A614A7000220A7011
:1010C000096909B1F0BC0847F0BC7047000030B4B2
:1010D000002513E050F8042BD30744BFA9F1010306
:1010E0009A18091F042942F8045BFAD213468C07A8
:1010F00044BF15809B1CC90748BF1D7050F8041BD6
:101100000029E7D130BC7047F8B58CB000F06CFF17
:1011100000F0B8F800F002F9BA48BB4C016841F0A1
:1011200001010160026802F0010200920099026868
:1011300042F0020202600022006800F0020000900B
:10114000002100981120FFF762FD1120FFF788FDB4
:10115000002200214420FFF75AFD4420FFF780FDC4
:10116000AA48AB49206061600120C022E0600021F4
:10117000A26021616161A161E1612162204600F00C
:1011800039FD00B1FEE70021204600F03DFF00B12F
:10119000FEE70021204600F054FF00B1FEE79D4825
:1011A000E0644FF46121216500206065A065E06581
:1011B00008216066A066E066216604F14C0000F03C
:1011C000FBFA00B1FEE707A80021002200230EC0B1
:1011D0008E4606C0684604AD80E80E400026002713
:1011E0008C4685E8C010002004F19C056860E8602A
:1011F000286120218020A8614FF08046A9602E60E0
:10120000284600F013F900B1FEE7284600F027F960
:1012100000B1FEE74FF480310791602208920997F0
:101220000B9707A9284600F0B7F900B1FEE704972D
:10123000069704A9284600F045FF00B1FEE7012209
:10124000019203920097029704226946284600F013
:1012500016F900B1FEE7012201210620FFF7D7FCB5
:101260000620FFF7FDFC012201210720FFF7CFFC3C
:101270000720FFF7F5FC04F14C022946204600F058
:1012800086FFFEE7F0B5ABB01AA8442100F0AAFF34
:101290006C46002500260027E0C460C405A8542140
:1012A00000F0A0FF00F0A2FF5B48016821F01801E8
:1012B000016014221A920121B0221C9120912292E5
:1012C000219524951AA8FEF761FF00B1FEE70F20D3
:1012D0000090019502950395049502216846FFF759
:1012E000DDF900B1FEE7412005904FF480521092E5
:1012F0000D9505A800F082FF00B1FEE74FF0005207
:101300004FF08071FFF752FA4FF40070FFF734FC92
:1013100000B1FEE701F090F82BB0F0BD10B586B03B
:1013200068460021002200230EC006C03B48046826
:1013300044F0040404600168394C01F00401059193
:101340000599026842F001020260036803F001039C
:1013500005930599026842F00202026000220068CB
:1013600000F0020005904FF41841059B4FF09040AB
:10137000FFF7E2FBFF2100910022019202926946F1
:101380004FF09040FFF714FB032026490090019195
:101390000122029269462046FFF70AFB4FF4807053
:1013A0000221009001910022029203920492694668
:1013B0004FF09040FFF7FCFA4FF4C051009101222A
:1013C000002102910391019269464FF09040FFF78E
:1013D000EFFA0122019202924FF4004100910022A3
:1013E000039269464FF09040FFF7E2FA1020002187
:1013F00000900191029120466946FFF7D9FA06B0A4
:1014000010BD000048100240742400200054004029
:101410001A09102000380140901002404C10024080
:101420000004004800003110FEE7000038B5040059
:1014300001D1012032BD04F13C05687820B90021BA
:101440002970204601F0E2F8FFE702206870211DB4
:10145000206800F0C9F801206870002032BD38B55E
:10146000040001D1012032BD04F13C05687820B9A7
:1014700000212970204601F07BF9FFF7E6BFF8B59F
:10148000064606F13C040D462078012801D10220D1
:10149000F2BD012020700221617082B9EB686A6898
:1014A0002968306800F02EF93068816921F00C015C
:1014B000816131688A69A86802438A6166E0042A0A
:1014C00011D1EB686A682968306800F049F9306822
:1014D000816921F44061816130688169AA6841EACB
:1014E0000221816152E0082AE9686A682B6827D1E5
:1014F0003768386A20F480703862090107F11C00EF
:1015000001F0F001D0F800C0D7F820E04FEA9C0CC1
:1015100042EA8C0222F0F002114301601B022EF419
:10152000206003F4206303433B623068C16921F00B
:101530000C01C1613168CA69A8680243CA6125E02B
:1015400030681C300903476827F48057476001F46E
:1015500070410768D0F804C027F4407747EA0227B3
:1015600027F47047394301601B032CF4204103F436
:1015700020430B4343603068C16921F44061C1617D
:101580003068C169AA6841EA0221C1610120607026
:10159000002121700020F2BD38B5054605F13C045C
:1015A0002078012801D1022032BD012020700222C2
:1015B0006270284600F04BF800B104E02868C1686A
:1015C00021F0400104E0012060700021217032BD53
:1015D000C1602868C16821F48041C1600120607049
:1015E00000212170002032BD30B4DFF8684103686B
:1015F000A04218BFB0F1804F01BF23F070034A68CA
:101600001343A04209D0B0F1804F1FBFDFF848213B
:101610009042DFF84851A84203D1CA6823F44073CE
:1016200013434A6923F0800313430360A0428B688D
:10163000C3620A6882621FBF474B9842474A904282
:1016400001D1096901630122426130BC704730B4A5
:1016500004683F4AA5684B68086825F070051D437B
:1016600015400543A5604A68402A11D0502A22D06F
:10167000602A32D0702A42D108698A68C968A36892
:1016800023F47F4319430A4342EA0022A26036E072
:101690000868052808BF012032D0206A226A520853
:1016A00052002262A269096922F0F00242EA0112A4
:1016B000A261206223E008698968226A236A5B08C4
:1016C0005B00236222F00A02A36923F0F00343EADD
:1016D0000013A3611143216211E008698968226A3D
:1016E00022F010022262A269236A22F4704242EAC6
:1016F000003223F0A003A26143EA01132362002019
:1017000030BC704770B4046A124E6408640004620E
:10171000B0428469056A1EBFB0F1804F0E4EB042E0
:1017200003D1A40842EA840201E044F001021B0153
:1017300022F0F00203F0F0031A4325F00A0501F04D
:101740000A0182612943016270BC704700000000F9
:10175000F8FFFEFF002C0140004001400044014022
:1017600030B4046A24F0100404621B038469056A1F
:1017700024F4407444EA022424F4704403F47043D3
:101780000901234325F0A00501F0A001836129434D
:10179000016230BC704701F01F01036A4FF0010C79
:1017A0000CFA01FC23EA0C03036202FA01F1036A5A
:1017B000194301627047000070B5040014D004F1B1
:1017C0004805697821B900202870204600F067FF9D
:1017D00002216970206802685208520002602046A7
:1017E00000F08EF9012801D1012070BD2068416808
:1017F00021F4804141602068816821F02A018160E4
:101800002068016841F00101016000206860FFF775
:10181000C9F80646206801680A0718D52068C1691A
:10182000880214D4FFF7BEF8801B40F2E9318842E9
:10183000F4D306E0FFF7B6F8801B40F2E9318842A6
:1018400009D30120687000212970032070BD206831
:1018500001684A0703D52068C1694802EAD5012119
:1018600069700020287070BD70B5044604F1480509
:1018700013466878012837D109B1180001D1012039
:1018800070BD287801282FD001222A70616223853B
:1018900063850020686012226A70206C88B10FF2A4
:1018A000E512C2620FF21120226C1063266C0FF257
:1018B00011207063206800F12802206CFFF739FBCB
:1018C00050B921684020086200222A70206881688F
:1018D00041F08001816005E01020686000212970DE
:1018E00001226A70104670BD022070BD70B50446BA
:1018F0002568E9692A68AB6811F00F000BD18806EA
:1019000079D5930677D5A16B002900F0AB802046EE
:10191000BDE870400847D80702D412F4907F6AD01F
:10192000C80707D5D60505D501202862E56C45F026
:101930000105E564880708D5DD0706D5266802207D
:101940003062E06C40F00400E064480708D5DD0731
:1019500006D5266804203062E06C40F00200E064A6
:1019600008070AD5950601D4D80706D525680823A7
:101970002B62E06C40F00800E064E06C002871D05D
:10198000880605D5910603D5A16B09B12046884785
:10199000E06C21688A68510601D4000725D52046ED
:1019A00000F061F8206881684A0619D5816821F045
:1019B00040018160206C20B100218163206CFFF721
:1019C00000FB606C60B10FF22D118163606CFFF75A
:1019D000F8FA002846D0606C816BBDE8704008477B
:1019E0002046BDE8704000F0C4BE204600F0C1FEB5
:1019F0000020E06470BD080607D5130605D5E16B2D
:101A000081B32046BDE87040084748062AD55106F4
:101A100028D5286820F0400028602068816849089F
:101A2000490081600020E06394F8491012290FD129
:101A30002168082008622068018B41F008010183B9
:101A4000012084F849002046BDE8704000F092BEB5
:101A5000608E38B9012184F849102046BDE87040F5
:101A600000F089BE70BD01680A6822F4F0720A6055
:101A700001688A68520852008A60012180F8491082
:101A800070470000816A0068026893060CD4002049
:101A9000488591F84920122A0DD10868826822F001
:101AA0008002826008689FE091F84900122804BF14
:101AB000084600F05FBE7047806A00F05DBE00001F
:101AC000806A00214186418501680B6823F4F07328
:101AD0000B6001688A68520852008A60012180F810
:101AE0004910C26C42F01002C26480F8491000F044
:101AF00040BE0000806A00214186418500F039BE69
:101B000070B50446334923681E68A0680E402169F9
:101B1000064360690E43064346F400461E600025F6
:101B20005E68216AA06926F47C560E43E16906438B
:101B3000E0680E4300220643274946F400668B42C4
:101B40005E600CD12548036803F00303032B2DD8F6
:101B5000DFE803F0021C1725FEF79CFE18E0204882
:101B6000834223D11D490B6813F00C0306D0042BCC
:101B70000CD0082B05D00C2B11D017E0FEF782FEFD
:101B800006E06068174901EB50010CE0FEF732FEF9
:101B900061684A0802EB4002B2FBF1F207E06068BC
:101BA000410801F58031B1FBF0F200E001254FF66C
:101BB000F071A2F11000884206D21140C2F3420037
:101BC00001432068C16000E001250020A063E063BC
:101BD000284670BDF369FFEF0038014088100240CD
:101BE000004400400048E801016841F04001016004
:101BF0007047000038B5040001D1012032BD04F166
:101C00004005687820B900212970204600F0CDFCFD
:101C100024206870206801684908490001606068F4
:101C2000216820F0706008612068816821F400411B
:101C30008160E06821680128A0680CBF40F4004082
:101C400040F404408860E068022803D120684FF423
:101C5000006141602068416841F0007141F4004139
:101C600041602068C16821F40041C1606069216958
:101C7000A2690143206841EA0221C160206AE1694A
:101C80002268014311602068016841F00101016090
:101C900000206860202169702063A87032BD2DE9A2
:101CA000F843054605F14007884678782028144611
:101CB000994672D1397801296FD001203870FEF72A
:101CC00071FE06460096192301224FF40041284672
:101CD00000F0AEF8002868D1212078701021B9708A
:101CE000002078606C62A5F82A906863089C698D72
:101CF000DFF81001B1F5807F05D3FF222A8500901F
:101D00004FF0807305E06A8D2A8500904FF00073D4
:101D1000D2B24146284600F03CF908E0FF232B856B
:101D200043681A401143DFF8E02011434160688D99
:101D3000002833D032462146284600F0A7F8002874
:101D400033D1686A2A6801789162686A411C6962C5
:101D5000688D411E6985288D411E2985688D002862
:101D6000E5D089B20029E2D1286881690A061DD42C
:101D700014F1010FF8D0FEF715FE801B844201D349
:101D8000002CF1D1786840F0200078602021797033
:101D90000020B870387008E023E01CE0214632468D
:101DA000284600F09AF80028F6D017E06B8DDFF88F
:101DB0005C20B3F5807FC8F30901AFD26B8D2B8512
:101DC000DBB2D0F804C002EA0C02114341EA03413D
:101DD00041F00071AAE70220BDE8F2830120BDE8CE
:101DE000F28329682020C8612968DFF824004A6846
:101DF00002404A60202179700020B8703870BDE838
:101E0000F2830000002000800000FF01009C00FC25
:101E100000E800FE006881698A0744BF00218162F2
:101E20008169CA0703D4816941F00101816170476A
:101E30002DE9F041069F05460E4690461C4628684F
:101E400081693140B1420CBF01200020404517D1CB
:101E500014F1010FF3D0FEF7A5FDC01B844201D39E
:101E6000002CECD105F140002022416841F0200116
:101E7000416042700021817001700120BDE8F08155
:101E800001E0104308600020BDE8F08170B5054610
:101E90000C4616462868816988071CD432462146BC
:101EA000284600F03EF8A0B914F1010FF2D0FEF779
:101EB00079FD801B844201D3002CEBD105F1400059
:101EC0002022416841F02001416042700021817070
:101ED0000170012070BD002070BD70B505460C4634
:101EE000164628688169880619D432462146284654
:101EF00000F017F888B9FEF755FD801B844201D326
:101F0000002CEED105F140002022416841F0200173
:101F100041604270002181700170012070BD00207D
:101F200070BD70B505460C4628688169C80616461E
:101F30001AD5286881698A0618D414F1010FF8D0DF
:101F4000FEF730FD801B844201D3002CF1D105F156
:101F50004000416841F02001416020224270002190
:101F600081700170012070BD002070BD1021C16121
:101F700020202A68D0612846FFF74CFF29680E48C8
:101F80004A68024005F140004A60416841F004019E
:101F9000E2E770B40068039C4568084E46EA545670
:101FA000B543C1F30901294341EA024119432143E1
:101FB000416070BC7047000000E800FEFF63FF0353
:101FC00038B50446FEF7EEFC14F1010F054602D0C9
:101FD000044988680419FEF7E5FC401BA042FAD3C7
:101FE00031BD00BF08160020032010B5FEF702FE29
:101FF0000020FEF7B5FC0024002814BF012400F0E7
:10200000B5FA204610BD000030B400F1400253780C
:10201000202B15D11478012C12D001231370242405
:10202000547003681D686D086D001D6003681C68AE
:1020300024F480541C6003681D68294319601DE066
:1020400019E030B400F140025378202B13D11478FA
:10205000012C10D0012313702424547003681D68D0
:102060006D086D001D6003681C6824F4706444EA08
:1020700001241C6002E030BC022070470068016847
:1020800041F00101016020205070002111700020FA
:1020900030BC7047094981B00A6842F001020A6009
:1020A000096801F001010091009905490A6810438F
:1020B000FFE7086001B070470000000060100240B8
:1020C0000400014070B400F13C031A78012A08BFF3
:1020D00002201CD001221A7002245C700D4A046890
:1020E0006568A668944203D14A6825F470051543D3
:1020F00025F070058A6809680D43656026F0800642
:10210000006816438660012159700020187070BC69
:1021100070470000002C01402E4B1A6D03F158004F
:102120001B680221184738B541F28834294D02E076
:10213000696820468847AA6C03210120904701283E
:10214000F6D131BD10B5234CE16C04F1680204F105
:10215000880000F013FB04F16001204600F08DFCC4
:102160001D481E4A01881068BDE8104000F055BCAB
:1021700080B500F03FFC0421194800F0BCFC10B110
:10218000BDE801401CE001BD00F02CBC7047114BC4
:10219000D8641A65596510B5114C04F10801204640
:1021A00000F090FC0121204600F09DFC0321204618
:1021B00000F099FC2046BDE81040042100F093BCDB
:1021C00010B5074C0521204600F081FC204600F0A8
:1021D00080FCFBE71815002028380140100000485B
:1021E000AC150020002200F09FBC000002480168EE
:1021F00041F4807101607047007000402DE9FC4798
:10220000054600242868DFF848630105A1461CD56F
:10221000E86B58B1B0F5000F03D0B0F5400F0AD00D
:1022200011E0326842F48032326005E00021281D5E
:1022300000F009F904463CB9F16FE86B21F4400164
:102240000143F16701E00124A146286881032BD5F1
:10225000F06CC1004FF000080AD4F06C40F08050E0
:10226000F0644FF00108F06C00F08050009000988E
:10227000DFF8E072386840F480703860FEF792FB57
:1022800082463868C10500F1AE80FEF78BFBA0EBFB
:102290000A000328F5D30324A146B8F1000F03D0A8
:1022A000F06C20F08050F0642878C10705D5F26FFB
:1022B000286A920840EA8202F2672978880705D5E1
:1022C000F16F686A21F00C010143F16729788806F3
:1022D00005D5F16FA86A21F440610143F1672968CF
:1022E000880505D5F16F686B21F440210143F16742
:1022F0002968480505D5F16FA86B21F44011014309
:10230000F1672978480605D5F16FE86A21F4405154
:102310000143F1672968C80505D5F16F286B21F4E1
:1023200040310143F1672968880420D5F16F286C9A
:1023300021F040610143F167286CB0F1006F0CD1CE
:10234000306840F48010306011E0FEF72BFB001B7A
:10235000504567D34FF003099FE7B0F1806F06D176
:102360000121281D00F06FF8010018BF8146286880
:10237000410318D5F26F686C22F040620243F267A5
:10238000686CB0F1006F04D1306840F480103060A8
:1023900009E0B0F1806F06D10121281D00F053F84B
:1023A000010018BF81462868410410D5F26FA86C5F
:1023B00022F040520243F267A96CB1F1805F06D16E
:1023C0000221281D00F03FF8010018BF814628684F
:1023D000010405D5F26FE86C22F080420243F267F7
:1023E0004846BDE8F687002C7FF456AFDFF86871E9
:1023F000386810F440701CBF296D88420BD03868D3
:10240000396841F48031396020F440703A6822F430
:1024100080323A603860C00707D5FEF7C3FA044639
:1024200041F2893A386881078FD53A68286D22F4DD
:10243000407202433A6030E7DFF82001016841F062
:102440000401016070472DE9F0410746434E3868AA
:102450000C46F168002511F0030F0DD0F16801F072
:102460000301814237D1B0B3F0687968C0F302103C
:10247000401C884213D02EE0012804D02BD303281F
:1024800023D01ED327E03268910724D5F2687968FB
:1024900022F073021043491E40EA0110F0603068D8
:1024A00020F080603060FEF77DFA804630680101E0
:1024B0003AD5FEF777FAA0EB08000328F6D30325F8
:1024C00042E031684A05E1D405E031688A03DDD491
:1024D00031684A03DAD4012536E0012C326909D18A
:1024E0003B691F4802405B0842EA01215B1E41EA4A
:1024F000435108E07B691B4802405B0842EA012126
:102500005B1E41EA43613161306840F080603060B9
:10251000FEF748FA04463068010111D4FEF742FA8A
:10252000001B0328F7D3CAE7B968002CD5D132695C
:102530000D48FB68024042EA012141EAC361E2E73B
:102540003169B869014331612846BDE8F081000076
:102550000C10024000700040901002400010024039
:10256000FF809FFFFF80FFF9FF80FF0780B577485E
:10257000816841F001018160816801F001010091F1
:102580000099026842F080520260006800F08050BA
:10259000009000980520FEF72DFBBDE808400122C1
:1025A00000216FF00400FEF732BB38B586B001A9F8
:1025B0000022002300241CC10CC10068644DA84205
:1025C00022D1644C206840F0010020601222216872
:1025D00001F0010100914FF4C06100980191029255
:1025E00001210391032204230492059301A94FF0D2
:1025F0009040FEF7DDF9E06840F40010E060E0682C
:1026000000F400100090009807B030BD38B586B0D7
:10261000044601A80021002200230EC006C0256840
:10262000B5F1804F39D14B484B4DC16841F00101A4
:10263000C160C16801F0010100910099026842F097
:10264000020202600222006800F0020000900821ED
:1026500000980292039301910322012304920593AF
:1026600001A93E48FEF7A4F90421696080213C4895
:102670002860296120200022E8614FF44051AA60BF
:10268000EA606A61AA6129622846FEF7DFFB08B1A9
:10269000FEF7CAFEA562AC62256307B030BD70B517
:1026A00086B0044601A80021002200230EC006C007
:1026B00025682C4EB54246D126482B4D416941F440
:1026C00080414161416901F48041009100990268B3
:1026D00042F0020202600222006800F00200009054
:1026E000E0210098029203930191032207230492B0
:1026F000059301A91948FEF75BF94FF48030FFF705
:10270000C9FC4FF40030FFF7C5FC184828600221CF
:10271000696000201022E86080216861A861E8619A
:102720002862AA6029612846FEF790FB08B1FEF7EF
:102730007BFE2564AC62002200212520FEF767FAAB
:102740002520FEF78DFA06B070BD0000581002403B
:10275000005400404C100240A02500200004004816
:102760008000024000380140E82500206C0402404F
:1027700070477047704770477047000038B504468F
:1027800061608AB3A26000F042F80120FFF718FCF4
:10279000164D2978FF2927D06A78204600F028F8BE
:1027A000A978FF2920D0EA78204600F021F829797D
:1027B000FF2919D06A79204600F01AF8A979FF2973
:1027C00012D0EA79204600F013F8297AFF290BD0BD
:1027D0006A7A204600F00CF8A97AFF2904D0EA7A38
:1027E0002046BDE8384003E031BD0000FC15002064
:1027F000E0B58DF8041064238DF8052000930223C2
:102800000178406801AAFEF7C9FA03B000BD10B50F
:102810000446A06888B1012100F0A8F9A068012150
:10282000083000F0A3F9A0680021103000F09EF9F4
:10283000A068BDE81040022100E010BD183000F093
:102840009AB900002DE9FE4F9948994DD0F8209093
:102850000090C0F814900099486A886195484188B2
:10286000ADF800100446E9690191C8780028FAD152
:10287000019890F803B0AE69B4F80480D5F800A0D0
:10288000D4E9220100F0B0F90027C144D14509DAAA
:1028900099F800708742F8DBA9EB0907378006F149
:1028A0000206F2E7BDF80070781EADF80000BDF832
:1028B000000040B14AF6AA213160301DA8610146EE
:1028C000E8688142D4D3BDF80000E08003B0BDE8E1
:1028D000F08F2DE9F04F84B004460D4618460D994F
:1028E000DFF8D0810026ADF800600027B6462B4601
:1028F0004AF6AA29009201E02CF812A0009A93420D
:1029000011D233F8022B4A451DD1D8F8B0C0BA19FC
:10291000A2EB0E0E1FFA80FA2CF81AE0401C964625
:1029200082B29142EAD25D1B6D10ADF80E00ADF897
:102930000C500196029701A890E82C0084E82C0026
:1029400004B0BDE8F08FD8F808C2B8F810B03CF871
:1029500012A05A450AF1010AACBF7F1C761CCBE7D6
:10296000544841F28C41014400220B681A71D0F89E
:10297000B020D0F808320A611C30CB604861704743
:10298000F0B54C4C678A41F28840251887B0EE6854
:102990002A6800970023314601A8FFF79AFF608854
:1029A000BDF80E302A680090BDF80C00311804A85C
:1029B000FFF78FFFA86901990160029A42600499AC
:1029C00081600599C16007B0F0BD10B53A4C206C2C
:1029D000804721688847FFF735FF60688047BDE87A
:1029E0001040CDE735490A68107800281CBF086AF6
:1029F0000047704731480268012102E02F48026811
:102A000000211170C06A00472A4A41F2184041F281
:102A100004531044D25850211047F8B506460F46CB
:102A2000FFF79EFF234C41F26840251830462E6088
:102A30006F60A96A2E6F00235022B047A86AE96A26
:102A4000A86090F82E07E86041F6F0300A5A6A61F3
:102A50002961502000F0E6F8E8631121017014208C
:102A6000EA6B507041F21050215888472046BDE86B
:102A7000F8403222502100F0F9B838B50C46014632
:102A80000C4D41F2C4404C22284400F021F941F29F
:102A90008C43EC5031BD10B5094C206840F65C61A8
:102AA00000F05AF9E0680021C0E9001110BD0000F3
:102AB0007014002000000020D01400208C1400208E
:102AC000941400204160417801E041781EE041709B
:102AD000704780B5FFF7F9FF4068010002D0BDE8FC
:102AE0000240004701BD10B50446FFF7F0FF204645
:102AF000BDE81040EDE710B50C46FFF7E6FF0078A3
:102B0000A04201D1012010BD002010BD30B4034609
:102B1000002408225868204405788D4202D00834E9
:102B2000521EF7D130BC704700B500BF1300964667
:102B30009446103928BFA0E80C50FAD85FEA417CCF
:102B400028BF0CC048BF40F8042BC90728BF20F895
:102B5000022B48BF00F8012B00BD0000017042604D
:102B600010F108001DA1062200F0A2B8CAB28188A7
:102B70000068FEF728B9CAB281880068FEF714B968
:102B80007CB500BF17A21368009305468DF80210AC
:102B90008DF803500324012D08D10421684600F06C
:102BA00010F808B9022606E0012600E003264FF4DB
:102BB0007A70FEF70CF9641E18BF012EEBD1304677
:102BC00076BD0A4601460020FEF7DAB8014600202D
:102BD000FEF7D9B80000000000000000000000006F
:102BE0000000000001010000C1F30A5340F2FE3270
:102BF0009B1A14DDD3F120034FEAE17208DDC9020C
:102C000041EA505141F00040D84080185040704790
:102C100003F2E13010B1D24382F00040704700204F
:102C20007047000070B5C51DED08AFF30080ED00E2
:102C3000072D98BF08250C4E346814B12068A842AF
:102C400008D200F08DF800283060F4D1AFF3008096
:102C5000002070BD6119451B14BF0D60002131605B
:102C6000AFF30080204670BD4026002070B50446BA
:102C70000D46164600F08CF8204600F0B7F8628A40
:102C8000314604F1B00000F067F9228A294604F5C4
:102C9000027000F061F9618804F5587000F0ECF8FA
:102CA000218804F5E360BDE8704000F0E5B800005D
:102CB00062B38B0708D0521E11F8013B00F8013BAC
:102CC00000F024808B07F6D1830740F0208000BFFE
:102CD000103A07D330B4B1E83810103AA0E83810F1
:102CE000F9D230BC530724BFB1E80810A0E808109F
:102CF00044BF51F8043B40F8043BD20724BF31F8ED
:102D0000022B20F8022B44BF0B7803707047121F70
:102D100017D35B0009D151F8043B20F8023B1B0C90
:102D2000121F20F8023BF6D20BE051F8043B00F8EA
:102D3000013B1B0A20F8023B1B0C121F00F8013B51
:102D4000F3D238BF121D521E24BF11F8013B00F808
:102D5000013BF8D870470000002200F06BB900007A
:102D60000749086808B1002070470648C008C0003D
:102D700008600549C908C900091A0160704700BF09
:102D8000442600204F2A0020482C0020000000008C
:102D900070B50D460446164641F26841FFF722FA27
:102DA000258066806D087608258266822581668189
:102DB000A581E681DFF87002DFF87012C4E91A011C
:102DC00041F21842A018AB237F250370457041F2F1
:102DD00030400021215042F210706176E065DFF84A
:102DE0005032C4E92213257670BD000010B588B0BA
:102DF000044682B010A168462822FFF769FF0CBC88
:102E000004F5316000F046F9DFF81C02DFF81C120F
:102E100013A2C4E91A0108B004F53A60BDE81040F5
:102E200092EC062B012200219FED6D1B9FED6E0B96
:102E300000F08AB900000000000000000000E03F40
:102E4000FCA9F1D24D62603FFCA9F1D24D62503F26
:102E50000000000000000000000000000000000072
:102E6000FCA9F1D24D62503F9A9999999999A93F3D
:102E70002D431CEBE2361A3FF8B504460D462021DF
:102E800004F56470FFF7AEF92DA62A4696EC062BE2
:102E900000219FED631B9FED500B204600F054F97D
:102EA00004F52077002038702A4696EC062B002186
:102EB0009FED5B1B9FED480B04F1A00000F044F96F
:102EC000012078702A4696EC062B00219FED541BBA
:102ED0009FED410B04F5A07000F036F90220B870A8
:102EE0002A4696EC062B00219FED4D1B9FED3A0BD9
:102EF00004F5F07000F028F90320F870202104F5A3
:102F00002270FFF76FF904F5427500202870202128
:102F100004F52A70FFF766F901206870202104F596
:102F20003270FFF75FF90220A870202104F53A7093
:102F3000FFF758F90320E870F1BD00000000000021
:102F40009A9999999999A93FFCA9F1D24D62503F5C
:102F50009A9999999999A93F70B504460D461646D4
:102F60006800FFF75FFE20606800FFF75BFE6060AF
:102F70006800FFF757FEA06069002068FFF7ECFECD
:102F800060686900FFF7E8FEA0686900FFF7E4FEEB
:102F90000020A081002100BF15A02582E18166826A
:102FA0002A4690EC062B9FED0E1B9FED0B0B04F1B8
:102FB000180000F0C9F800BF13A02A4690EC062BB9
:102FC00004F1B800BDE8704000219FED051B9FEDA6
:102FD000020B00F0B9B80000000000000000000083
:102FE000000000000000144079E9263108AC7C3F65
:102FF000FCA9F1D24D62503FFCA9F1D24D62503F85
:103000007B14AE47E17A843FFCA9F1D24D62503F78
:10301000FCA9F1D24D62503F7B14AE47E17A843F68
:10302000000000000000F03F79E9263108AC7C3F49
:1030300000E05F40401810F0030308D0C91A1FD306
:10304000DB0748BF00F8012D28BF20F8022D130030
:1030500030B414461546103928BF20E93C00FAD890
:10306000490728BF20E90C0048BF40F8042D89001B
:1030700028BF20F8022D48BF00F8012D30BC704752
:10308000C91818BF00F8012DCB0728BF00F8012D83
:10309000704700000CB410B52DED068B044690214E
:1030A000FFF7A0F8DDE908230020002100F098F8E0
:1030B00094ED048B9DED0A9B26D153EC192B00F067
:1030C0008FF821D1DDE90C2300F08AF81CD11A49D0
:1030D000CDE91001DDE90E23164900F091F841EC2D
:1030E0001A0B0022144B00F05DF9154A134B00F047
:1030F00087F841EC190B53EC182B1148114900F0DB
:103100007FF841EC100B03E09DED08AB9DED0C0B3F
:1031100084ED040B84ED029B84ED00ABFDF755FEBE
:1031200000F064FAC4E91601BDEC068B10BC5DF832
:103130000CFB00000000E03F0000F03F4D62603FEC
:10314000FCA9F1D24D62503FF8B5044604F1800766
:103150002DED028B84ED181BB0EE408AF0EE608AF4
:103160000D46164687ED002B87ED023B87ED044B9D
:10317000FDF72BFE00F03AFAC4E91C0194ED1C0B9C
:1031800084ED1A0BBD83FE839FED130B84ED000BC2
:1031900084ED020B84ED040B84ED060B84ED080B2B
:1031A00084ED0A0B84ED0C0B84ED0E0B84ED108B7B
:1031B00084ED120B84ED140B84ED160B0020B87611
:1031C00084ED1E0BFDF701FE00F010FAC4E91C01AE
:1031D000BDEC028BF1BD000000000000000000000B
:1031E00090420CD141EA030C50EA4C0C07D09942B2
:1031F00005D14FF4001C1CEB410F38BF89427047CA
:10320000B0B581EA030C0CF0004C40F2FF7515EAF2
:1032100011541DBF15EA1357AC42AF4239E0E4190F
:1032200023EA455343F48013C90241F0004141EAC7
:10323000505EC7021100A7FB020200284FF00000F9
:10324000EEFB01204FF00001E3FB072118BF42F025
:103250000102401800214941E3FB0E01A4F58064FE
:103260000F0302D252004041494154F101046CDD88
:10327000470872F1004250F1000051EB0451A1F5F2
:1032800080115CBF41EA0C01B0BD4CEA0551002041
:10329000B0BD05EA1357AC4214BFAF4241E050EA5B
:1032A000410E1CBF52EA430E02E061460020B0BD51
:1032B00024423C441BD15FEA070EF6D0090302BF4B
:1032C00001460020AEF1140EB1FA81F7AEEB07040F
:1032D00001FA07FE0C37C7F1200100FA07F7C840D2
:1032E0004EEA000E23EA455343F48013A2E733F07D
:1032F0000043B3FA83F704BFB2FA82FE77440B3F70
:10330000E41BB7F1200E2FBF02FA0EF3BB40C7F14A
:10331000200E22FA0EFE38BF43EA0E03BA40641CA8
:1033200082E750EA410E14BF52EA430E6FF00001EB
:103330004FF4001717EB430F8ABF194617EB410FE5
:10334000B5E74CEA05510020B0BDD4F10104B4F159
:1033500020070FDAC4F12007520828BF42F001020B
:1033600010FA07F501FA07F7E1BF2A43E0403843B6
:10337000E1400FE0352C98DCC7F1200452EA40020E
:1033800020FA07F218BF42F0010231FA07F0A1401B
:103390000A43002172F1004250F1000051EB0C0190
:1033A000B0BD0000F0B540F2FF7581EA030C0CF0EF
:1033B000004C15EA11541DBF15EA1357AC42AF4239
:1033C000E5E0BC41C1F31301C3F31303801A994133
:1033D00043F4801304D2641E4000494180185941CF
:1033E000C90241EA5051B1FBF3F603FB1611A2FBEF
:1033F0000675D7EBC020A94102D2761E801859412C
:10340000C90241EA5051B1FBF3FE03FB1E11A2FBBE
:103410000E75D7EBC020A94103D2AEF1010E801882
:103420005941890241EA9051760546EA8E2EB1FB58
:10343000F3F603FB1611A2FB0675D7EB8020A9411A
:1034400002D2761E80185941C90241EA50514EEA13
:10345000060EB1FBF3F603FB1611A2FB0675D7EBC4
:10346000C020A94102D2761E80185941C90241EA02
:103470005051B1FBF3F703FB1711A2FB0735D3EB58
:10348000C020A94167F100070CBF004247F00107C7
:1034900066F3D5274FEA1E31B80814F5806412DDB3
:1034A000BD0775F1004250EB0E5051EB045111F580
:1034B000801F5CBF41EA0C01F0BD4CF07F6141F020
:1034C000E0410020F0BDBD076D0840EA0E5041F418
:1034D0008011D4F10104B4F120060ADAC4F1200607
:1034E0000200E04001FA06F3E1401843B240154300
:1034F0000EE0342C13DCC6F1200445EA40056D08CB
:1035000020FA06F2154321FA06F0A1400D430021EE
:1035100075F1004250F1000051EB0C01F0BD0020AC
:103520005FEA0C01F0BDCFB992185B41B3FA83F7A3
:1035300004BFB2FA82F6BF190B3FB7F120062FBFC6
:1035400002FA06F3BB40C7F1200622FA06F638BF9E
:103550003343BA401CB1E419641E33E77F4231F0B3
:103560000041B1FA81F404BFB0FA80F6A4190B3C13
:10357000B4F120062FBF00FA06F1A140C4F12006E5
:1035800020FA06F638BF3143A0403C1B1AE7AC4294
:103590001ABF05EA1357AF4212E050EA41061CBFBA
:1035A00052EA4306BFE750EA4107304661461CBF76
:1035B00041EA0551F0BD52EA430C08BFC143F0BDDA
:1035C00000204FF4001616EB410F98BF16EB430F87
:1035D00008BF16EB410F24BFC14305E016EB430FB4
:1035E0000CBF61464CEA0551F0BD0000014648B1F0
:1035F000B0FA80F18840C91CC1F58461090501EB6E
:10360000D0214005704700000E48016841F4700168
:10361000016000220C49086840F0010008608A60DF
:103620004FF480520B68094803400B60CA600020C9
:103630000B68074A23F480230B6088614FF0006118
:103640001160704788ED00E000100240FFFFF6EACD
:1036500008ED00E00000000000000000010203048B
:1036600006070809A0860100400D0300801A060025
:1036700000350C0040420F0080841E0000093D0010
:1036800000127A000024F40000366E010048E801C0
:10369000006CDC027047FEE7FEE7FEE7FEE77047DE
:1036A0007047704700F016B80120FDF74ABA0220B3
:1036B000FDF747BA0448FDF7A9BC0448FEF716B960
:1036C0000348FDF7A3BC0000A0250020C024002073
:1036D000E825002002490A68886882180A60704755
:1036E0000816002010B5074979441831064C7C446F
:1036F000163404E00A68081D114488470146A142B7
:10370000F8D110BD2C000000480000004EF6885192
:10371000CEF20001086840F470000860BFF34F8FDC
:10372000BFF36F8F4FF00070E1EE100A704700009A
:103730009FD9FFFF30100000181600200000000085
:1037400093D6FFFF540100001E020000000000207D
:1037500000F00DF8002801D0FFF7C4FFAFF30080A0
:103760000020AFF30080FDF7CFFC00F002F801204D
:10377000704700F001B800000746384600F002F834
:10378000FBE7000080B5AFF30080024A110018206B
:10379000ABBEFBE726000200014880470148004716
:1037A00009360008A9370008AFF30080FFF7AEFF25
:1037B000FFF7CEFF0000000001020304FFF7FEBF89
:1037C000FFF7FEBFFFF7FEBFFFF7FEBFFFF7FEBF2D
:1037D000FFF7FEBFFFF7FEBFFFF7FEBFFFF7FEBF1D
:1037E000FFF7FEBFFFF7FEBFFFF7FEBFFFF7FEBF0D
:1037F000FFF7FEBFFFF7FEBFFFF7FEBFFFF7FEBFFD
:10380000FFF7FEBFFFF7FEBFFFF7FEBFFFF7FEBFEC
:10381000FFF7FEBFFFF7FEBFFFF7FEBFFFF7FEBFDC
:10382000FFF7FEBFFFF7FEBFFFF7FEBFFFF7FEBFCC
:10383000FFF7FEBFFFF7FEBFFFF7FEBFFFF7FEBFBC
:10384000FFF7FEBFFFF7FEBFFFF7FEBFFFF7FEBFAC
:10385000FFF7FEBFFFF7FEBFFFF7FEBFFFF7FEBF9C
:10386000FFF7FEBFFFF7FEBFFFF7FEBFFFF7FEBF8C
:10387000FFF7FEBFFFF7FEBFFFF7FEBFFFF7FEBF7C
:10388000FFF7FEBFFFF7FEBFFFF7FEBFFFF7FEBF6C
:10389000FFF7FEBFFFF7FEBFF004FF50003200024B
:1038A0000001F1FF01F1FF01F1FF01F1FF01F1FF63
:1038B00001F1FF01F1FF01F1FF01F1FF01F1FF0152
:1038C000F1FF01F1FF01F1FF01F1FF01F1FF01F152
:1038D000FF01F1FF01F1FF01F14901EC0650250064
:1038E0002018160020931410071B2A0008CB29006B
:1038F00008E504127B0C12090412F50C12FD04FDFC
:103900003BBF1443972A50100B5D2B0008CF0D00CE
:1039100008D90C00080708121904122B04126104BC
:10392000126B04127704128104128704128B042292
:103930009D141134126D0412CB0C12C30812CD0465
:10394000F310812BA0300148008022500148001064
:1039500008413290044800010000603D4301010D20
:103960001E01B115100719210008020300002708E5
:10397000100303040000450810030405000071084B
:103980001003050600008908120808F3098D21803C
:103990003009C2B05C6A570058325928FF23217F92
:0739A00031630001093D0045
:04000005080037A90F
:00000001FF
