:020000040800F2
:10000000F88F0020CD830008C9820008CB82000849
:10001000CD820008CF820008D182000800000000D5
:10002000000000000000000000000000D382000873
:10003000D582000800000000D7820008D98200089D
:10004000F7830008FB830008FF830008038400088F
:10005000078400080B840008DD820008E3820008A2
:100060000F84000813840008178400081B8400080C
:100070001F84000823840008278400082B840008BC
:100080002F840008E98200083384000837840008C0
:100090003B8400083F84000843840008478400082C
:1000A0004B8400084F8400085384000857840008DC
:1000B0005B84000800000000000000005F8400086E
:1000C000638400080000000000000000678400084E
:1000D00000000000EF8200086B84000800000000B0
:1000E0006F84000873840008000000000000000016
:1000F0000000000000000000000000000000000000
:1001000000000000000000000000000077840008EC
:1001100000000000000000007B8400087F840008CD
:1001200083840008878400088B8400088F8400087B
:1001300093840008000000000000000000000000A0
:10014000978400089B8400089F840008A38400080B
:10015000A7840008AB840008AF840008B3840008BB
:10016000B7840008BB840008BF84000800000000BA
:10017000C3840008C78400080000000000000000DD
:10018000CB840008CF840008D3840008000000005E
:1001900080ED020B704770B516462DED048BD6E945
:1001A000002304460D46B0EE408AF0EE608AB0EEC1
:1001B000419AF0EE619A0020DFF8B41D01F01AFCBC
:1001C000C6E90001D4E9002351EC180B01F012FC40
:1001D000C4E9000153EC182B51EC190B01F004FD9C
:1001E000D5E9002301F006FCC5E90001BDEC048B54
:1001F00070BD2DE9704306462DED048B70880C46CA
:10020000154601F0DFFD80468946204601F0DAFD03
:1002100002460B464046494601F0F0FD0022DFF859
:100220003C3D01F0E7FB41EC180B284601F0CAFD0C
:10023000044630880D4601F0C5FD02460B462046B7
:10024000294601F0DBFD41EC190B53EC182B51EC66
:10025000180B01F0C9FC04460D4653EC192B51EC68
:10026000190B01F0C1FC22462B4601F0C3FB002212
:10027000DFF8143E01F0B8FCC6E90401BDEC048BC4
:10028000BDE870832DE9F04E2DED048B86B0144649
:1002900000269FEDBA8B0A008DED028B8DED008B51
:1002A0008DED048B26D08B469946074638788145DC
:1002B0001CDA01F087FD41EC190BB0B201F082FDB0
:1002C0000DF1100A02AD41EC110B52466946284669
:1002D000B0EE490AF0EE690AFFF75DFF51EC190B29
:1002E00053EC182B01F086FB41EC180B761C7F1C9D
:1002F0005E45DBDBDDE90001DDE9022301F07EFD87
:1003000001F0A4FE208051EC180B01F0BDFE06B0F8
:10031000BDEC048BBDE8F08E7047000070B50D4653
:10032000044616464FF4A35101F0C2FE04F52870AE
:10033000DFF8583D46800580760846826D08418A80
:10034000058241810581AB25028A418A8281C18172
:1003500041F21041DFF8382DC0E91A2321447F26ED
:100360000D704E7041F228410022625042769FED9E
:10037000850BDFF8201DDFF8203DC165C4E9CA23E5
:100380000676DFF8180D00F1A402226000F537713F
:10039000616004F5A871086000F50E70486041F2D4
:1003A00030216018FFF7F4FE04F59250BDE870406C
:1003B000032101F02FBF000010B588B0044682B0C1
:1003C0000FA16846282202F04BFA0CBC04F6F82074
:1003D00002F08AFADFF8B80CDFF8B01C12A2C4E908
:1003E000C20108B004F68830BDE8104092EC062B3C
:1003F000012200219FED631B9FED640B02F080BB87
:10040000000000000000E03FFCA9F1D24D62603F17
:10041000FCA9F1D24D62503F000000000000000036
:100420000000000000000000FCA9F1D24D62503F26
:100430009A9999999999A93F9A9999999999B93FAE
:10044000F8B504460D46202104F5647001F030FE35
:100450002DA62A4696EC062B00219FEDDA1B9FED78
:10046000470B204602F04CFB04F520770020387043
:100470002A4696EC062B00219FEDD21B9FED3F0BE9
:1004800004F1A00002F03CFB012078702A4696ECB3
:10049000062B00219FEDCB1B9FED380B04F5A070C0
:1004A00002F02EFB0220B8702A4696EC062B0021A3
:1004B0009FEDC41B9FED310B04F5F07002F020FBA3
:1004C0000320F870202104F5227001F0F1FD04F5FD
:1004D000427500202870202104F52A7001F0E8FD03
:1004E00001206870202104F5327001F0E1FD022046
:1004F000A870202104F53A7001F0DAFD0320E870BD
:10050000F1BD0000000000009A9999999999A93FBE
:10051000FCA9F1D24D62503F9A9999999999A93FB6
:1005200070B504460D462068164602F03FFD60682F
:10053000294602F03BFD00202072002116A06581B3
:100540006172A6812A4690EC062B9FED0E1B9FED53
:100550000B0B04F1100002F0D3FA00BF14A02A46DE
:1005600090EC062B04F1B000BDE8704000219FED37
:10057000051B9FED020B02F0C3BA00000000000053
:1005800000000000000000000000144079E926315E
:1005900008AC7C3F00000000FCA9F1D24D62503F46
:1005A000FCA9F1D24D62503F7B14AE47E17A843F03
:1005B000FCA9F1D24D62503FFCA9F1D24D62503FEF
:1005C0007B14AE47E17A843F70B50E46054614466B
:1005D000782101F06DFD72892A8070896880002081
:1005E000B189A980E88004F564752021284601F0CE
:1005F0005FFD2021284601F05BFD04F542750020D7
:10060000C5E90200A8632871202104F5227001F0D9
:100610004FFD00202870202104F52A7001F048FDCC
:1006200001206870202104F5327001F041FD0220A4
:10063000A870202104F53A7001F03AFD0320E8701B
:10064000002104F520700122017002230321427071
:100650008370C17070BDF8B504460D460120164682
:10066000208102214EE0084637E00020A062A11C54
:10067000208931F810106389A182A01C324630F81D
:100680001370E7822946204600F042F8204600F029
:100690009DF8F0B132462946204600F0A5F83146D3
:1006A000204600F091F932462946204600F0A6F98E
:1006B000608C08B9606BA06394F8440028B1608C2A
:1006C000401C608480B20228E4DD3146204600F000
:1006D000EFF9A16A20888842C5D2218906EB410240
:1006E000A2F8300305F10802208906EB8001A06B17
:1006F000C1F838032089A16A1154218960894A1EF2
:100700002281411E618160890028AED1F1BD0000C7
:10071000F8B504462DED028B20890D4600EB8001D3
:100720004E01A91905F1100791ED181B02EB4001CC
:10073000B0EE418AB1F83003F0EE618A01F042FB7D
:1007400041EC100BB0EE481AF0EE681AB81902F03E
:10075000A3FB51EC100B01F079FC20839FED988BEB
:10076000208B40006083208900EB800105EB411560
:1007700051EC180BD5E9042302F01CFC53EC182BA8
:1007800001F032FA0022DFF8E83701F033F90022F5
:10079000DFF8043E01F028FA01F058FC81B2032989
:1007A000B8BF032003DB1529ACBF142000B2A0841E
:1007B000B4F9240002F070FCC5E91A01BDEC028B0B
:1007C000F1BD0000000000000000F03FB0F924106F
:1007D000012907DB038B9942B4BF591A0021818399
:1007E000012070470020704770B504460D4694F80C
:1007F0004400164610B90021216360630021A08ADD
:100800006082E183218414E094F8440010B920460A
:1008100000F014F832462946204600F027F8608A96
:10082000401E608280B229680A5CE2836968085CC5
:100830002084E08A618A8842E6D370BD10B4C18BFF
:10084000028C8A420ED2036B5B180363891A028BF7
:10085000C1838BB29A423EBF428B8CB2944203D288
:10086000511A00E00021C18310BC70472DE9F0410E
:1008700005462DED048BEF8BA88BB8420C469046B5
:1008800028D2AA6ABA4238BFAF623F1A688AEF8399
:1008900001F098FA41EC110BB0EE418AF0EE618A5A
:1008A000B8B201F08FFA05F1480405F1580805F1D6
:1008B000500641EC100B224641463046B0EE481A35
:1008C000F0EE681AFFF767FCE889401C0021E88118
:1008D000A98171E0A889401CA88180B20B286BDB3C
:1008E000EE89002E68D095ED128B53EC182B00206A
:1008F000002102F0E3FB5FD095ED149B51EC190B46
:1009000001F07CFA01F0C0FB0746686BEF62381813
:10091000032F686345D353EC192B0020002102F00C
:10092000CDFB95ED168B09D153EC182B02F0C6FBCD
:1009300018BF4FF4806002F0AFFB03E051EC180BDE
:1009400001F05CFA01F082FB2368298A84B208EB8B
:100950004112195DA2F888122A8A08EB4213A3F803
:100960008A72298A08EB4112A2F88C020022288A96
:1009700008EB4011A1F88E62288A08EB4011A1F81B
:100980009022288A08EB401101F52670C0E9002268
:100990000272288A08EB000181F80803288A401CAB
:1009A00028829FEDA00B002085ED160B85ED140B22
:1009B00085ED120BE881A881BDEC048BBDE8F081C8
:1009C0000000000000002440F8B50646378901EB1E
:1009D0008701D1F8380301F0F5F90446706B0D4634
:1009E00001F0F0F902460B462046294601F006FACE
:1009F000C6E91801002086F84400F1BD2DE9F8434E
:100A00000E46416B002951D000250446904600E077
:100A10006D1C218AE8B2884248D208EB000999F897
:100A200008030428F4DA08EB4010A26A616B00F5B1
:100A30002277D2B289B23846FFF7DBFBD4E918013E
:100A4000D7E9042302F04AFBE2D2012084F84400F3
:100A5000042189F808133068B988405C218B420072
:100A60008842628306DA09B2081AA18B48BF404265
:100A700001EB6000A11C6289A08331F81210F88894
:100A8000BA88A2EB5005A942BABFA2EB5002E2829B
:100A9000E182A11C228931F81210BA8802EB5003BE
:100AA0008B42BABF02EB5000A082A182BDE8F18365
:100AB0002DE9F84F2DED048B82B08846002500907B
:100AC00008F5427731E0785D08EB401101F52271BD
:100AD0006C1C088940BBA0B291ED048B4845B0EE78
:100AE000489AF0EE689A2E46A24615D208EB000B03
:100AF0009BF8080308EB401053EC192BD0E9A60132
:100B000002F0ECFA38BF56460AF1010A1FFA8AF0E1
:100B100048450BF1010BEBD37E5508EB4513B6B2FC
:100B20000122BD55A3F89022A5B20098B0F810900C
:100B30004D45C8DB042D07DA08F54270284400F85B
:100B4000015B6D1C042DFADB02B063E22DE9F0417C
:100B500006462DED048B378A8846384601F032F977
:100B600041EC180B53EC182B0020002102F0A6FAE0
:100B700008BF9FED2E8B306B86ED1C8B01F022F9A8
:100B8000D6E91C2301F030F841EC180B96ED1A9BC6
:100B900053EC192B0020002102F090FA07D153ECFE
:100BA000182B02F08BFA0ED19FED1E8B0DE051EC4D
:100BB000180B01F023F90122DFF8283A02F0A6FA17
:100BC00041EC180B01D89FED1B8B08F544750020F4
:100BD00085ED008B88F80C730021346B2C6395ED48
:100BE000008B53EC182B02F069FA06D1002C14BFCD
:100BF0009FED120B9FED0B0B08E0204601F0E2F891
:100C000053EC182B01F0FAF841EC100B08F52470A6
:100C100085ED060B00210180018408F53470018008
:100C20000184C9E600000000000000000000000090
:100C30000000F03F00000000000014400000000031
:100C4000000090402DE9F84F2DED0E8B86B08346C5
:100C500000F0E4F99FEDC49B421EB0EE49AAF0EE0D
:100C600069AA00260025002704929FEDBDEB0590A0
:100C700030E005998E42B8BF854229DA0BF5207025
:100C80000BF52373825D0BEB050002EB820190F8FC
:100C9000082352010BEB4114985A01F093F841ECF0
:100CA000180BB0EE480AF0EE680A204602F03BF856
:100CB000D4E9100153EC182B02F07CF921F000412B
:100CC00053EC1A2B00F096FE7F1C41EC1A0BBFB2BE
:100CD000761CB6B20498864280F201815EE0A0885C
:100CE00001F070F841EC100B029802F01CF8B9F812
:100CF000040001F067F841EC100B039802F013F8C0
:100D000084F8188089F818A051EC1C0B53EC1D2BAB
:100D100037E051EC1D0B02F0F9F906D8B0EE4EDACF
:100D2000F0EE6EDA039802F0F1F853EC182B51EC68
:100D30001B0B00F059FFCDE9000153EC1C2B51ECCB
:100D40001D0B00F051FFDDE9002302F0C7F9C6D208
:100D5000B9F8040001F036F841EC100B029801F0EC
:100D6000E2FFA08801F02EF841EC100B039801F08F
:100D7000DAFF89F8188084F818A051EC180B53ECAE
:100D80001B2B00F037FE53EC1A2B00F033FE761CC1
:100D9000AD1C41EC1A0BBF1CB6B2ADB29BF80C03F4
:100DA000411E8D42BFF665AF0BEB050000F54270AA
:100DB0000BF522710278407801EB421401EB4019E7
:100DC0000BF52071881990F8008090F801A0A08898
:100DD00000F0F8FF41EC1D0B08EB88010BEB411113
:100DE000029153EC1D2BD1E9100102F0E3F821F040
:100DF000004141EC180BB9F8040000F0E3FF41ECAE
:100E00001C0B0AEB8A0149010BF1400200915018BA
:100E100053EC1C2BD0E9000102F0CCF821F000418A
:100E200041EC1B0B029853EC1C2BD0E9100102F093
:100E3000C1F821F0004141EC1C0B00990BF140007E
:100E4000014453EC1D2BD1E9000102F0B3F821F06D
:100E5000004141EC1D0B51EC180B0122DFF88837E3
:100E600002F054F998BF9FED3E8B06D951EC1C0B54
:100E700002F04CF904D89FED3ACB029802F046F804
:100E80000098DFF8643758440390012251EC1B0BA3
:100E900002F03CF93FF63DAF9FED31BB42E70BF569
:100EA00042710BF523704A5D52019FED2F1B805A52
:100EB000B0EE418AF0EE618A00F084FF41EC100B45
:100EC0000BF52070B0EE481A415D01EB8102F0EEA7
:100ED000681A0BEB421001F0DFFF6D1CADB29BF8FE
:100EE0000C038542B8BF042DD9DB042E14DA0BF5B0
:100EF0002070815D01EB81020BEB421002F006F8DD
:100F0000761CB6B2F1E78BEDEC9B06B05846BDEC13
:100F10000E8BBDE8F24F2DE0B8B20028F5D000F0FE
:100F200051FF02460B4651EC1A0B00F067FF0022FE
:100F3000DFF8B43602F0D2F8E5D200F05FFF0246E7
:100F40000B4600200A4902F035F8DFF8A026DFF84A
:100F5000D83600F049FECBE9EC01D6E70000E0BF4F
:100F60000000000000407F40000000000000000082
:100F70000000F03F2DE9F84F814609F520782DED6E
:100F8000048B0025464609F19807307800EB800174
:100F900009EB411494F89820012A2DD0204601F045
:100FA000ABFF94ED1E8B6C1CA0B20428B0EE489AE7
:100FB000F0EE689AAA4617DA08EB000B9BF800E0FF
:100FC00009F178030EEB8E0203EB421251EC190B80
:100FD000D2E9002302F082F838BFA246641CA0B216
:100FE00004280BF1010BE9DB1FFA8AF086F800A058
:100FF00008F80050012139706D1CA037761C042DB3
:10100000C3DB002089F8980089F8380189F8D801F5
:1010100089F87802BDEC048BBDE8F18F2DE9F04131
:101020002DED028B002500F520760424804616F86D
:10103000011B01EB810208EB4217002387F899306E
:10104000384601F059FFB0EE408AF0EE608A38462B
:1010500001F03CFF98B951EC180BDFF89425DFF84C
:10106000CC3502F03BF80AD397ED140B384601F06B
:10107000B7FD6D1C0120641E87F89900D7D1BDEC27
:10108000028BA8B2BDE8F0810000E03F08AC7C3FD5
:1010900079E92631A086010000E05F40047E00204F
:1010A00010B504462DED0A8BD4E9C4239FEDC99BEE
:1010B00051EC190B00F09EFC41EC1A0BB0EE4A1AF1
:1010C000F0EE6A1A9FEDC50B02F03BF89FEDC51BD1
:1010D000B0EE418AF0EE618A51EC190B53EC102B03
:1010E00001F068FF41EC100BB0EE481AF0EE681A00
:1010F00002F027F853EC102B51EC190B01F05AFFBA
:1011000004F5647441EC1C0B84ED00CBB0EE4A1A7C
:10111000F0EE6A1A9FEDB50B02F013F851EC190BC3
:1011200053EC102B01F046FF41EC100BB0EE481AC7
:10113000F0EE681A02F005F853EC102B51EC190B85
:1011400001F038FF41EC1B0B53EC1C2B01F032FF7C
:10115000C4E90201B0EE4A1AF0EE6A1A9FEDC10B23
:1011600001F0EFFF51EC190B53EC102B01F022FFB3
:1011700041EC100BB0EE481AF0EE681A01F0E1FFF6
:1011800053EC102B51EC190B01F014FF41EC1C0B2C
:1011900053EC1B2B01F00EFFC4E90401B0EE4A1A18
:1011A000F0EE6A1A9FED8B0B01F0CBFF51EC190B9F
:1011B00053EC102B01F0FEFE41EC100BB0EE481A80
:1011C000F0EE681A01F0BDFF53EC102B51EC190B37
:1011D00001F0F0FE53EC1C2B01F0ECFEC4E906011B
:1011E000BDEC0A8B10BD2DE9F0410C4604F5DA6820
:1011F0000546D8E9000116461F4600F027FF288063
:1012000004F54674D4E9000100F020FF6880D8E9B5
:10121000020100F01BFFA880D4E9020100F016FFD4
:101220002E816F81E880BDE8F08170B504460D46DF
:1012300020892188A2888142894190428041C00F43
:1012400090EAD17F0AD060896188E2888142894131
:1012500090428041C00F90EAD17F25D1284600F00E
:10126000E9F905F53770416802686588E6889142BA
:101270008268C068894182428041C00F00EBD17111
:101280004B1E2373A0882188884292415BB2002BB9
:10129000CCBF01230023B542AD4183EAD27292EA6A
:1012A000D57F1CBF2080A18070BD00002DE9F047D4
:1012B0002DED028B0646042400F5ED6A9FEDB78BF9
:1012C0000546D5E9EC23D6E9E40100F08DFC06F5EE
:1012D000E96780468946DAE90023D7E9000100F092
:1012E00083FC42464B4600F085FB53EC182B00F084
:1012F0007BFCC7E90A010836641EE2D1D5E9EC237C
:10130000DAE9000100F076FB53EC182B00F06CFCDE
:10131000CAE90A01BDEC028BBDE8F08730B403884E
:10132000828801F52874D21812042588520C95423F
:1013300038BF2A4602814588C28855192D04628823
:101340006D0CAA4238BF15464581238142886281CF
:101350008388A381C288E2810389238242896282D1
:101360000389A1F85C3142898A810389A1F83C3A5A
:101370004089A1F8840630BC7047000010B52DEDFF
:10138000028B044600F036F8204600F06FF8204645
:1013900000F0DAF804F54C74D4E90023D4E9020132
:1013A00000F028FBD4E9042300F024FB0022914B39
:1013B00001F094FE41EC180B38BF9FED8F8B06D3E4
:1013C0000122884B01F0A2FE98BF9FED068B84EDB1
:1013D000068B43E0000000000000F03F9A999999C5
:1013E0009999C93F00000000000014409A9999990A
:1013F0009999D93F10B504462DED028BD4F8EC0233
:1014000050289FED7F0B27D95021B1FBF0F0C0F1A0
:10141000010000F0D7FC00224FF0404301F05EFED7
:1014200041EC180B38BF9FED788B07D301224FF0AA
:10143000804301F06BFE98BF9FED758B53EC182B2A
:1014400051EC180B00F0D0FB53EC182B00F0CCFB48
:1014500081F0004141EC100B84EDCC0BBDEC028B14
:1014600010BD0000CDCCCCCCCCCCE43F2DE9F0417C
:10147000044604F6C8302DED048B04F5407590ED5C
:10148000000B04F5CF6604F5236785ED020B96ED9E
:10149000008B97ED009B51EC190B53EC182B01F0CE
:1014A0001DFE04F52F6824BFB0EE498AF0EE698A6C
:1014B00004F5925088ED008B90F90010032932D882
:1014C000DFE801F02E262E02308900F07BFC41EC93
:1014D000100B04F1100001F05BFB708900F072FC4E
:1014E00041EC100B04F1B00001F052FB388900F020
:1014F00069FC41EC100B04F5B07001F049FB7889F0
:1015000000F060FC41EC100B04F5007001F040FBB2
:101510009FED3B1B95ED000B04F6883001F0BCFC01
:10152000204600F03FF804F6C83095ED020B90ED30
:10153000001B04F6F82001F027FA98ED120B85ED58
:101540000E0BFFF739BA000038B5044604F6383000
:1015500004F6C8352DED048B90ED008B95ED009BC6
:1015600053EC192B0020002101F0A8FD09D153EC08
:10157000182B01F0A3FD14BF9FED270B9FED200B4F
:1015800005E051EC180B00F039FC41EC100B84ED38
:10159000D00BBDEC048B31BD0000344000000000D6
:1015A0000000E03F38B500F52E6500F53C74D5E944
:1015B00000011B4A1B4B01F0A9FD06D8D5E9022307
:1015C000D5E9040100F010FB02E0206800F0FAFB0E
:1015D0000022174B00F012FC41EC100B84ED060BBF
:1015E00031BD00000000144000407F409A99999955
:1015F0007B14AE47000014C000000000000014C0BF
:10160000000000000000000000000000000000C01A
:1016100000000000000000400000000000009040BA
:101620007C14AE47E17A843F9999D93FE17A943F9F
:101630000040AF40F8B596B004466846582100F027
:1016400037FD04F52875AA8AADF800202B8A991A6F
:1016500048BF4942ADF802102988CE1AADF804609F
:10166000EE8AADF806606F8AB81B48BF4042ADF8FD
:1016700008006888C01B9342ADF80A0008D20E9893
:101680008A1A40F00100ADF80030ADF804200E9049
:10169000B74208D20E98891B40F00200ADF80670E0
:1016A000ADF80A100E90159802286CD800211491FC
:1016B0001498411C149115994A1C15920DF10602BB
:1016C0003DF8100032F81110484303AA129942F86D
:1016D00021001298401C129014980228E8D9E2E7E1
:1016E0000C9DB5FBF0F0139E0F9D04EB8607D7F819
:1016F000CC6206FB00500F901498401C1490149D6F
:10170000109E1398B54231D20E9E4E43164406EBFE
:101710008000284403AF057C57F825600C9600250F
:1017200015E00E9FDDF84CC04F43174407EB8C0EBD
:10173000DDF850C0F44403AE9CF820E007EB8E07C0
:1017400017F805C056F82C6030180D906D1C1595D3
:10175000119E159D0D98B542E3D30028C0D10C9879
:10176000002818BF1846BEE717B0F0BD04EB800193
:1017700001F52F710F9B0A689A422CBFD21A0022E2
:101780000A62401C139013980428EDD2DDF838301B
:1017900064A234214B4313441D18404295F8306035
:1017A00010961844002590F83330119314950D9538
:1017B0004FF48063A3E700002DE9F84388B00746A3
:1017C00007F5E961019107F56472029207F5FD6181
:1017D000039107F58662049207F6C821059107F583
:1017E0002D62069207F6D821CDF81C1041F2284050
:1017F0004BA2116800913D1801F0E4FC00F0E2FA00
:1018000041F21842BA180024C2E900016E460DF1F7
:10181000040941F2114100207A5C641CD30713D5FE
:10182000327800280CBF02F00F0212090023012AAF
:1018300009DBA846D9F800C01CF803E008F801EB62
:101840005B1C9342F6DB551990F0010018BF761C23
:10185000E2B2082A09F10409DEDB41F2104003215B
:101860003818FEF759FD09B0BDE8F0832DE9F84FAF
:10187000002600F5207700F24E3800F54375044647
:101880008B4613E0BAF80200B1F83013081881B2A1
:10189000C929A8BFC82028F8020C88F800B088F829
:1018A0000190761CB6B208F104087F1C28788642A5
:1018B000B8BF102E19DA38780428F2DA00EB80016C
:1018C00004EB411097F8889090ED100B04EB491051
:1018D00000F5227A51EC100B00F0B8FB298D80B294
:1018E000884234BFA11C2146CCE784F88C63BDE854
:1018F000F18F10B5044694F85C0628B194F8B8123C
:1019000004F55470FFF7B2FF94F8140A30B194F85C
:10191000B81204F5E160BDE81040A7E710BD000073
:1019200088888808000103040205000006070000FB
:101930000800000000000000010200000306000093
:101940000405070800010203010300000203000070
:10195000030000000402020100030000010204056C
:10196000060000000708000000010000020000005F
:10197000030406070508000000020000000102033E
:101980000200000002030000020401020001000046
:101990000200000003040607050800000003000021
:1019A0000102040506000000070800000001000015
:1019B0000100000000010203010300000201040213
:1019C00000000000010200000306000004050708F3
:1019D00000010304020500000607000008000000E3
:1019E00000000000000100000002000000010203EE
:1019F0000102020470B44FF0004591EA030F41F177
:101A0000E1826B40841A71EB030604D26E40001B26
:101A1000B141121973414FF4001C1CEB410F34BF4C
:101A20007CEB430683E00C0DA4EB1356362E00F33B
:101A30007C80012E45EAC32341DC43EA525312BFA6
:101A4000D20292025B08240545EAC12141EA5051C5
:101A5000D2EBC020994125D407D1B0FA80F610FA14
:101A600006F162D00020203608E0B1FA81F6B140DC
:101A7000C6F1200220FA02F21143B0404FEAF4749A
:101A8000B4EB465434F001064FEA74040AD8D6F594
:101A90000016760D04F00044F04061FA06F2504062
:101AA000F1404840C00A40EA415021F0004128BFBF
:101AB0005FEA500550F1000044EBD12135E0DB0A2C
:101AC00045EAC121C90AB6F120050EDD42EA02420B
:101AD000120CC5F1200603FA06F6EB4042EA0605B1
:101AE0006D42984161F100010DE062FA06F5F240A5
:101AF000554063FA06FC82EA0C02F3405A406D42FC
:101B0000904161EB030111F4801F05D1641E620551
:101B100002D06D004041494121F48011430875F124
:101B2000004350F1000041EB045170BC70471CEBC6
:101B3000410F15D223F0004352EA43060BD04FEA7F
:101B40004C0CBCEB410F04D80C0D661E342EB7DDD7
:101B5000EBE7801A994150EA410608BF0021E4E70B
:101B600008BF1CEB430F28BF6FF00001DDE7F0B4A6
:101B70000246106895681318506803EB5004C007BC
:101B80001DD54D441BE013F8017B05F8017B491E70
:101B9000F9D1A0B1B60813F8011B06F00306032E15
:101BA00008BF13F8016B01EB06214942801C294450
:101BB00005D011F8016B05F8016B401EF9D1A34265
:101BC0000ED013F8016B16F0030104BF13F8011BCC
:101BD000C91C30090F28DAD113F8010B0F30D6E7F2
:101BE000F0BC02F10C007047B0B581EA030C0CF0B8
:101BF000004C40F2FF7515EA11541DBF15EA13574A
:101C0000AC42AF4239E0E41923EA455343F4801370
:101C1000C90241F0004141EA505EC7021100A7FB32
:101C2000020200284FF00000EEFB01204FF00001FF
:101C3000E3FB072118BF42F001024018002149418F
:101C4000E3FB0E01A4F580640F0302D25200404171
:101C5000494154F101046CDD470872F1004250F132
:101C6000000051EB0451A1F580115CBF41EA0C0169
:101C7000B0BD4CEA05510020B0BD05EA1357AC4297
:101C800014BFAF4241E050EA410E1CBF52EA430E7E
:101C900002E061460020B0BD24423C441BD15FEA13
:101CA000070EF6D0090302BF01460020AEF1140E64
:101CB000B1FA81F7AEEB070401FA07FE0C37C7F162
:101CC000200100FA07F7C8404EEA000E23EA455308
:101CD00043F48013A2E733F00043B3FA83F704BF61
:101CE000B2FA82FE77440B3FE41BB7F1200E2FBF00
:101CF00002FA0EF3BB40C7F1200E22FA0EFE38BFE7
:101D000043EA0E03BA40641C82E750EA410E14BF56
:101D100052EA430E6FF000014FF4001717EB430F28
:101D20008ABF194617EB410FB5E74CEA0551002071
:101D3000B0BDD4F10104B4F120070FDAC4F12007DB
:101D4000520828BF42F0010210FA07F501FA07F71E
:101D5000E1BF2A43E0403843E1400FE0352C98DCF6
:101D6000C7F1200452EA400220FA07F218BF42F0FD
:101D7000010231FA07F0A1400A43002172F100424A
:101D800050F1000051EB0C01B0BD30B4002513E060
:101D900050F8042BD30744BFA9F101039A18091F77
:101DA000042942F8045BFAD213468C0744BF15801D
:101DB0009B1CC90748BF1D7050F8041B0029E7D1C0
:101DC00030BC7047014648B1B0FA80F18840C91C68
:101DD000C1F58461090501EBD02140057047B1F5DB
:101DE000807F02D34FF0FF307047017001207047B1
:101DF0000078401E8041C043C00F7047F0B540F2EC
:101E0000FF7581EA030C0CF0004C15EA11541DBF5C
:101E100015EA1357AC42AF42E5E0BC41C1F31301F0
:101E2000C3F31303801A994143F4801304D2641E50
:101E30004000494180185941C90241EA5051B1FB63
:101E4000F3F603FB1611A2FB0675D7EBC020A941E0
:101E500002D2761E80185941C90241EA5051B1FBA5
:101E6000F3FE03FB1E11A2FB0E75D7EBC020A941A8
:101E700003D2AEF1010E80185941890241EA905116
:101E8000760546EA8E2EB1FBF3F603FB1611A2FB94
:101E90000675D7EB8020A94102D2761E80185941E1
:101EA000C90241EA50514EEA060EB1FBF3F603FBBC
:101EB0001611A2FB0675D7EBC020A94102D2761EEF
:101EC00080185941C90241EA5051B1FBF3F703FBB5
:101ED0001711A2FB0735D3EBC020A94167F100071A
:101EE0000CBF004247F0010766F3D5274FEA1E31C9
:101EF000B80814F5806412DDBD0775F1004250EB9F
:101F00000E5051EB045111F5801F5CBF41EA0C01EA
:101F1000F0BD4CF07F6141F0E0410020F0BDBD0715
:101F20006D0840EA0E5041F48011D4F10104B4F17F
:101F300020060ADAC4F120060200E04001FA06F3A6
:101F4000E1401843B24015430EE0342C13DCC6F1D7
:101F5000200445EA40056D0820FA06F2154321FAEF
:101F600006F0A1400D43002175F1004250F1000040
:101F700051EB0C01F0BD00205FEA0C01F0BDCFB9C0
:101F800092185B41B3FA83F704BFB2FA82F6BF1925
:101F90000B3FB7F120062FBF02FA06F3BB40C7F193
:101FA000200622FA06F638BF3343BA401CB1E419C2
:101FB000641E33E77F4231F00041B1FA81F404BF7F
:101FC000B0FA80F6A4190B3CB4F120062FBF00FA3A
:101FD00006F1A140C4F1200620FA06F638BF3143CD
:101FE000A0403C1B1AE7AC421ABF05EA1357AF42A8
:101FF00012E050EA41061CBF52EA4306BFE750EA2E
:102000004107304661461CBF41EA0551F0BD52EA26
:10201000430C08BFC143F0BD00204FF4001616EB7F
:10202000410F98BF16EB430F08BF16EB410F24BFBB
:10203000C14305E016EB430F0CBF61464CEA055166
:10204000F0BD0268531C036011707047C1F30A535E
:1020500040F2FE329B1A14DDD3F120034FEAE17205
:1020600008DDC90241EA505141F00040D8408018D3
:102070005040704703F2E13010B1D24382F000408B
:102080007047002070470000400D491840EA812049
:102090000CD2490DA1F58061491C40F0004005DBE0
:1020A000D1F11F0154BFC840C017704700207047CE
:1020B000002201F089B8000001709FED6D0B002136
:1020C0004170817080ED020B80ED040B70470000C1
:1020D000F8B5044664A001F091F8DFF8FC550FF262
:1020E0001C6105F12C0001F0CFF805F12C0001F086
:1020F00085F85EA001F082F8042000219FED5C0BC2
:1021000028706970A97085ED020B85ED040B84F8C9
:1021100080006978287881421CD29FED821B0021C3
:1021200058B16A7804EB4213CEB2491C03EBC607E0
:10213000CAB2824287ED000BF3D3A970697804EB31
:10214000411303EBC102491C82ED001B6970C9B247
:102150008142E4D3F1BD00002DE9F84305462DEDA1
:10216000028B95F88000DFF87065307000273478B6
:1021700000209FED3F0B002C707086ED020B86ED6A
:10218000040B88463DD005EB4819F8B209EBC000B6
:102190000022002390ED008B86ED028B51EC180B92
:1021A00000F0B4FF07D8D6E9040153EC182BFFF771
:1021B00021FCC6E904017F1CF8B2A042E5D396EDEC
:1021C000048B53EC182B0020002100F077FF18D06F
:1021D000DFF81C15FFF712FEC6E904010027FDB267
:1021E00009EBC50009EBC505D0E90023D6E90401D8
:1021F000FFF7FAFCC5E900017F1CF8B2A042EED35C
:1022000006E005EBC8000022DFF8E434C0E9002353
:10221000B77083E010B504464FF0FF302170607056
:10222000A07000200FF2E853E070012293EC062B1F
:1022300000219FED9C1B9FED0E0B04F1A80000F008
:102240005FFC0FF2E451012291EC062B00219FED7F
:10225000971B9FED070B04F1080000F051FC04F5FB
:10226000A470BDE8104033E7090000000D0A00002B
:1022700000000000000000002DE9F8430446DFF8EC
:1022800058542DED028B0420287000226A70AA7029
:102290009FEDC00B85ED020B85ED040B204600F091
:1022A00045F804F5A47921784846FFF755FF95F8DD
:1022B0000080687894F9006040451AD294F90000D3
:1022C0006F78000604EBD04101EBC703D5E90201AA
:1022D00093ED528B85ED048B53EC182B00F0FEFE32
:1022E0003CBF85ED028B7EB27F1C6F70FFB247450D
:1022F000E4D3A670204600F0DDF894F900104846BB
:1023000000F04CF900F05EFFFFF75CFDC4E944010A
:1023100000F058FFFFF756FDC4E91C01BDEC028B2D
:10232000BDE8F183000000000000F03F2DE9F84F08
:102330002DED068B814686B099F90050884693A012
:1023400000F05CFF98ED060BE34C0FF2D4318DEDFD
:10235000040B04F12C0098ED041B8DED021B9FED86
:10236000898B98ED020B8DED000BD8E9002300F06E
:102370008BFF04F12C0000F041FF85A000F03EFF30
:1023800082A000F03BFF99ED120B04F11800691CCC
:102390008DED000BC9B250F821200FF2BC3104F1D1
:1023A0002C0000F071FF04F12C0000F027FF78A052
:1023B00000F024FF002060709FEDC89B029573A081
:1023C00000F01CFF60780FF2B43108EBC00204F19A
:1023D000180392ED000B8DED000B401CC0B253F8BA
:1023E000202004F12C0000F04FFF04F12C0000F03D
:1023F00005FF67A000F002FFD9E9122351EC190B89
:10240000FFF7F8FA02460B4651EC180BFFF7ECFB0E
:1024100041EC1A0B0298657809EB401707EBC507EA
:1024200051EC1A0BD7E95223FFF7DEFB82468B46AD
:1024300051EC190B53EC1A2B00F0BCFD08EBC50650
:1024400002460B46D6E90001FFF7CEFB52465B463B
:10245000FFF7D0FAA34AA74B00F040FE41EC1A0B5D
:1024600038BF87ED52AB6D1C6570EDB2042DA6DB55
:1024700000F0A8FEFFF7A6FCD9E91C2300F09AFDA6
:1024800041EC110B99F9000008EBC00109F10800BB
:1024900091ED000B06B0BDEC068BBDE8F24F00F0ED
:1024A000FBBC000000000000000024400000000011
:1024B00000000840F8B5044694F9021011F1010F2C
:1024C0005FD032A5284600F099FEA178824E06F131
:1024D0001800491CC9B250F821302178491CC9B2F2
:1024E00050F82120ACA106F12C0000F0CDFE06F141
:1024F0002C0000F083FE26A7384600F07FFE94F9FA
:10250000020094F90010884216D0284600F076FEAA
:10251000A17806F1180011F10101C9B250F821208B
:10252000A6A106F12C0000F0AFFE06F12C0000F091
:1025300065FE384600F062FE2078A1786070217058
:102540004FF0FF30A0709FED130B04F1080000F076
:102550001FFB00F037FE94F90050FFF733FCD4E97D
:10256000442300F027FD41EC110B04EB451606EB6C
:10257000C50090ED520B04F1A800BDE8F24000F058
:102580008BBCF1BD000000000000E03F090000002E
:102590000D0A000000000000000000002DE9F04FCF
:1025A000834683B08A464C4C9BF880108DA720460A
:1025B000FFF782FD4CA5284600F020FE86A104F11D
:1025C0002C0000F061FE04F12C0000F017FE47A67D
:1025D000304600F013FE0020607012E0034604F164
:1025E0001801401CC0B251F82020394604F12C00DB
:1025F00000F04AFE04F12C0000F000FE6078401C60
:102600006070607821788842E8D33BA7394604F1AE
:102610002C0000F039FE04F12C0000F0EFFD00204A
:1026200060700FF2DC180FF2C8192BE020225FFA5D
:102630008AF3617898420BEB401008BF7C2200EBD4
:10264000C1030292414693ED000B8DED000B04F1A6
:102650002C0000F019FE04F12C0000F0CFFDA07852
:10266000401CA0702178A0788842DFD3394604F15D
:102670002C0000F009FE04F12C0000F0BFFD607892
:10268000401C607060782178884218D2284600F09B
:10269000B5FD6078034604F11801401CC0B251F842
:1026A0002020494604F12C0000F0EEFD04F12C003E
:1026B00000F0A4FD304600F0A1FD0020D1E739462E
:1026C00004F12C0000F0E0FD04F12C0003B0BDE8A3
:1026D000F04F00F093BD000000000020000000005B
:1026E0000000F03FCECCCCCC090000000D0A000069
:1026F0000000F03FCCCCEC3F0A0000003C46534DBC
:102700003E20496E697469616C697A696E6720530D
:1027100074617465204D616368696E652E0A0000FE
:102720003C46534D3E2050726F626162696C696530
:102730007320617265205B305D252E3266205B312F
:102740005D252E3266205B325D252E3266205B339E
:102750005D252E32662E0A003C46534D3E205374B2
:1027600061746520257320686173207374616269E8
:102770006C69747920252E34660A00003C46534D5E
:102780003E205570646174696E67202573206279FC
:1027900020252E32662E0A003C46534D3E205570B1
:1027A000646174696E672073746174652066726F0A
:1027B0006D20257320746F2025730A003C46534D0D
:1027C0003E207E7E7E2053746174652069732025CF
:1027D00073207E7E7E0A00003C46534D3E20090950
:1027E0000920200025732D5B25645D092020000051
:1027F0003C46534D3E202025732D5B25645D000033
:102800000925635B252E35665D2563000000000009
:102810007B14AE47E17AA43F9A9999999999B93F67
:102820009A9999999999D93F7B14AE47E17AA43F37
:102830009A9999999999B93F9A9999999999D93F5A
:1028400062B38B0708D0521E11F8013B00F8013B20
:1028500000F024808B07F6D1830740F0208000BF72
:10286000103A07D330B4B1E83810103AA0E8381065
:10287000F9D230BC530724BFB1E80810A0E8081013
:1028800044BF51F8043B40F8043BD20724BF31F861
:10289000022B20F8022B44BF0B7803707047121FE5
:1028A00017D35B0009D151F8043B20F8023B1B0C05
:1028B000121F20F8023BF6D20BE051F8043B00F85F
:1028C000013B1B0A20F8023B1B0C121F00F8013BC6
:1028D000F3D238BF121D521E24BF11F8013B00F87D
:1028E000013BF8D8704700000CB410B52DED068BF5
:1028F00004469021FFF7DCFBDDE9082300200021DE
:1029000000F0DCFB94ED048B9DED0A9B26D153EC8B
:10291000192B00F0D3FB21D1DDE90C2300F0CEFB15
:102920001CD16D49CDE91001DDE90E236949FFF79E
:102930005BF941EC1A0B0022674BFFF75FFA684A1C
:10294000664BFFF751F941EC190B53EC182B644817
:102950006949FFF749F941EC100B03E09DED08AB25
:102960009DED0C0B84ED040B84ED029B84ED00AB1C
:1029700000F028FCFFF726FAC4E91601BDEC068B2F
:1029800010BC5DF80CFB000038B504462DED068B3D
:1029900051EC100B53EC112B00F00CFB41EC100B25
:1029A00084ED1A0BD4E9000153EC102BFFF71CF94E
:1029B000C4E90A0100F006FCFFF704FAD4E9162383
:1029C00000F0F8FA41EC180B94ED1AAB84ED148B7F
:1029D00053EC1A2BFFF708F9D4E91E23FFF70AF886
:1029E00041EC100B84ED1E0BD4E90223FFF7FCF839
:1029F00041EC190B84ED0C9BD4E9180153EC1A2B14
:102A000000F0D8FA41EC100B84ED1C0BD4E9042340
:102A1000FFF7EAF841EC1A0B53EC182B00200021C9
:102A200000F04CFB09D153EC1A2B00F047FB14BF0C
:102A30009FED2C0B9FED2D0B05E051EC1A0BFFF7D2
:102A4000DDF941EC100B84ED0E0BD4E90A2351ECB7
:102A5000190BFEF7CFFFD4E90E23FEF7CBFFD4E925
:102A60001223FEF7C7FF04F1800541EC180B95ED2A
:102A7000029B51EC190B0022002300F047FB18D2F7
:102A800095ED00AB51EC180B53EC1A2B00F026FB24
:102A900004D2B0EE4A8AF0EE6A8A0AE051EC190BD1
:102AA00053EC182B00F01AFB3CBFB0EE498AF0EE55
:102AB000698A94ED1A0B84ED108B84ED180BD4E920
:102AC0001E230C480D49FFF78FF8C4E91E01BDEC29
:102AD000068B31BD0000E03F0000F03F4D62603FDB
:102AE000FCA9F1D2000000000000904000000000AE
:102AF00000000000CDCCCCCC4D62503FCCCCEC3FA4
:102B0000F8B5044604F180072DED028B84ED181B07
:102B1000B0EE408AF0EE608A0D46164687ED002B37
:102B200087ED023B87ED044B00F04CFBFFF74AF9C1
:102B3000C4E91C0194ED1C0B84ED1A0BBD83FE83CC
:102B40009FEDD30B84ED000B84ED020B84ED040BA1
:102B500084ED060B84ED080B84ED0A0B84ED0C0B61
:102B600084ED0E0B84ED108B84ED120B84ED140BB1
:102B700084ED160B0020B87684ED1E0B00F022FBCE
:102B8000FFF720F9C4E91C01BDEC028BF1BD000088
:102B900010B504469FEDBE1B002084ED001B84F899
:102BA0009A0084ED021B84ED041B84ED061B84ED6A
:102BB000081B84ED0A1B84ED0C1B84ED0E1B84EDB9
:102BC000100B84ED121B84ED141B84ED161B84ED99
:102BD0001E1B00F0F7FAFFF7F5F8C4E91C0110BD61
:102BE00038B52DED0A8B0446B0EE408AF0EE608ACF
:102BF00000F0E8FAFFF7E6F8D4E91A2300F0DAF972
:102C000041EC190BD4E9180153EC192B00F066FACA
:102C100006D200F0D7FAFFF7D5F8C4E91A017FE031
:102C2000D4E91001D4E9122300F0C4F9C4E9140175
:102C300094ED10AB84ED12ABD4E90E2351EC180BDC
:102C400000F0B8F941EC100B84ED0C0B53EC192B90
:102C5000FEF7CAFF53EC1A2BFEF7CCFE41EC1A0B21
:102C600004F1800584ED10ABA88BFFF7ABF841ECC5
:102C7000180B51EC1A0B53EC182B00F02FFA09D358
:102C8000E88BFFF79FF853EC1A2B00F027FA41EC82
:102C9000180B03D2B0EE48AAF0EE68AA94ED0A8BA6
:102CA00084ED10AB53EC192B51EC180BFEF79CFF85
:102CB00094ED06CB94ED08BB41EC1A0B53EC1C2BA6
:102CC00000F078F953EC1B2B00F074F9D5E90023E0
:102CD000FEF790FE53EC192BFEF786FFD4E9042390
:102CE000FEF788FEC4E9040153EC1A2B51EC1C0BCF
:102CF00000F060F9C4E9060153EC1A2B51EC1B0BF0
:102D000000F058F9C4E90801D5E9022351EC190B88
:102D1000FEF76AFF53EC182BFEF76CFEC4E90A01BC
:102D2000BDEC0A8B31BD38B5044604F190052DED9C
:102D3000068BD5E9000194ED049BB0EE408AF0EEDD
:102D4000608A53EC192BFEF755FE02460B46002015
:102D50009349FFF753F841EC1A0B53EC192BFEF78C
:102D600043FF41EC190B84ED009BD4E9082351EC9F
:102D70001A0BFEF739FFC4E9020194ED10AB51ECD8
:102D8000180B53EC1A2B00F015F941EC180B53EC0F
:102D9000192BFEF729FF53EC1A2BFEF72BFEC4E983
:102DA0001001D4E9022351EC180BFEF71DFFD4E902
:102DB0000E23FEF71FFEC4E90E0194ED048B94ED83
:102DC000009B53EC192B51EC180BFEF70DFF02463C
:102DD0000B4651EC180B00F0EDF841EC180B94ED9C
:102DE00006AB84ED048B53EC192B51EC1A0BFEF758
:102DF000FBFE02460B4651EC1A0B00F0DBF841ECEF
:102E0000190B94ED02AB84ED069B53EC1A2B51EC9D
:102E1000180BFEF7E9FE02460B46D4E9080100F064
:102E2000C9F8C4E9080153EC1A2B51EC190BFEF751
:102E3000DBFE02460B46D4E90A0100F0BBF8C4E908
:102E40000A0100F0BFF9FEF7BDFFC4E91A01A88925
:102E5000FEF7B8FF41EC180B94ED109B51EC190BE9
:102E600053EC182B00F03AF90DD3E889FEF7AAFFCE
:102E700053EC192B00F032F941EC180B24BFB0EEE3
:102E8000498AF0EE698A84ED108BBDEC068B31BD6A
:102E9000000000000000000010B52DED028BB0EE28
:102EA000408AF0EE608A0446B0EE410AF0EE610A14
:102EB000FFF796FEB0EE480AF0EE680A2046FFF7EC
:102EC00032FF94ED100BBDEC028B10BD10B5044623
:102ED00000F078F9FEF776FFD4E91A2300F06AF8DB
:102EE00002460B46D4E9180100F0F8F801D201209F
:102EF00010BD002010BD000090F89A1090ED000B5E
:102F000009B19FED280B80ED1E0B704710B50446EC
:102F10004FF06630D4E900231E49FEF765FE41EC10
:102F2000100B84ED000B94F89A0018B10020C4E94E
:102F30001E0008E051EC100B174A184B84ED1E0BD5
:102F400000F0CCF824D29FED170B002084ED000B8D
:102F500084F89A0084ED020B84ED040B84ED060BDB
:102F600084ED080B84ED0A0B84ED0C0B84ED0E0B45
:102F700084ED100B84ED120B84ED140B84ED160B15
:102F800084ED1E0B00F01EF9FEF71CFFC4E91C01C6
:102F900010BD00006666E63FFCA9F1D24D62503FCD
:102FA0000000F03F0000000000000000002200F0E0
:102FB0008BB9000070B44FF0004591EA030F7EF525
:102FC00021AD6B40841A71EB030603D2001BB141A3
:102FD000121973414FF4001C1CEB410F34BF7CEB02
:102FE000430442E00C0DA4EB1356352E4FDC45EAAA
:102FF000C323DB0A45EAC121C912B6F120050DDD64
:1030000063FA05F6EB4086EA0305124218BF45F065
:103010000105C01851F100010CD213E062FA06F567
:10302000F2405540F3415A40B340F3405A408018B3
:10303000594107D349085FEA30005FEA350528BFE8
:1030400045F0010501F58011420875F1004250F18B
:10305000000041EB04514E0016F5001F70BC38BF54
:1030600070470020090D090570471CEB410F10D275
:1030700052EA43060BD0BCEB410F05D80C0DAB4315
:10308000661E342EB6DD02E0AB438018594170BC99
:10309000704770BC70470000C11768B14840401AC3
:1030A000B0FA80F29040D21CC907C2F5846241EAAE
:1030B000025202EBD02140057047000090420CD133
:1030C00041EA030C50EA4C0C07D0994205D14FF469
:1030D000001C1CEB410F38BF894270474FF4001CA5
:1030E0001CEB410F94BF1CEB430F09E041EA030CBA
:1030F00050EA4C0C52EA0C0C03D2994208BF9042A1
:10310000704714BF8B428242704700004FF4001C8E
:103110001CEB410F94BF1CEB430F09E041EA030C89
:1031200050EA4C0C52EA0C0C03D28B4208BF82428C
:10313000704714BF994290427047000041EC100B59
:1031400001BD80B553EC112B51EC100B00F064FC69
:10315000F4E7000010B5184C617AB1B1012802D033
:10316000022813D010BD1548016801F0010181F05B
:103170000101A172E07A08B1A07A30B11049C868A3
:1031800018B189688A6A1368D86010BD0B48016855
:10319000490801F00101E172E07A00281FBF207C9C
:1031A000002860690028E5D08047E3E704484068CC
:1031B000642300F081BE0000BC8B00201004004896
:1031C000D48B002001F090B900B500BF13009646E3
:1031D0009446103928BFA0E80C50FAD85FEA417C29
:1031E00028BF0CC048BF40F8042BC90728BF20F8EF
:1031F000022B48BF00F8012B00BD000010B50446AB
:1032000001F078F981B22046BDE8104001F08EB996
:103210002DE9F0410D4604466E1EF01106EB1066D6
:103220003612761C0027002E28D4DFF85880761E30
:1032300000204146E219AF421ADA1378401C7F1C85
:10324000AF420B7014DA5378401C7F1CAF424B70B6
:103250000EDA9378401C7F1CAF428B7008DAD3786B
:10326000CB70401C7F1C121D091DB0F5807FE2DB76
:1032700081B2404601F05AF9002ED8D5BDE8F08160
:10328000000000002C8900200CB430B583B00A4641
:1032900006A90291044600250194009502AB01A9FC
:1032A000084878441E3001F049F9019A1570002849
:1032B0004EBF04460198041B204603B030BC5DF8A5
:1032C0000CFB00BF7FEDFFFF401810F0030308D098
:1032D000C91A1FD3DB0748BF00F8012D28BF20F80B
:1032E000022D130030B414461546103928BF20E9CA
:1032F0003C00FAD8490728BF20E90C0048BF40F835
:10330000042D890028BF20F8022D48BF00F8012DA8
:1033100030BC7047C91818BF00F8012DCB0728BF73
:1033200000F8012D704700002DE9F84C2DED0A8BB7
:1033300082B041EC190B149C43EC182B0CB100200B
:10334000206051EC180B21F000474FF0000A20F0EC
:103350000006574508BF564514D053EC192B0020E2
:10336000DFF82016FFF7AAFE0CD0DFF81416FFF7DF
:10337000A5FE0FD151EC180B48004015401C09D197
:10338000090307D102B00020BDEC0A8BDFF8F41569
:10339000BDE8F48C51EC190B48004015401C0ED0D0
:1033A00051EC190B21F00041514508BF504506D0A2
:1033B00051EC180B48004015401C40F0F58051ECD2
:1033C000190B48004015401C05D1090318BF51ECEA
:1033D000190B40F0D08251EC180B48004015401CEE
:1033E00005D1090318BF51EC180B40F0C48251EC11
:1033F000180B480001244015401C61D051EC180BFB
:103400004B0043EAD0734200534508BF524504D1F4
:10341000B0EE48AAF0EE68AA19E040F23345A5EBF9
:103420005352352A04DB00F0000001F000410CE0AB
:10343000202A03DD203AD140914000E001D1002054
:1034400003E0002AC4BFD040904041EC1A0B53EC7B
:10345000182B51EC1A0BFFF731FE18BF00244B005C
:1034600043EAD0734200534508BF524504D1B0EE41
:103470004A0AF0EE6A0A19E040F23445A5EB5352CD
:10348000352A04DB00F0000001F000410CE0202AA6
:1034900003DD203AD140914000E001D1002003E05B
:1034A000002AC4BFD040904041EC100B44B153EC13
:1034B0001A2B51EC100BFFF701FE0CBF0024012466
:1034C00051EC190B48004015401C0ED109030CD1DA
:1034D00051EC190BC80F25D153EC182BDA0F0CBF88
:1034E0009FED8D0B9FED8E0B43E251EC180B4800C6
:1034F0004015401C28D1090326D153EC192B23F089
:103500000041B1F5801F22F000002ED2514508BFC6
:103510005045CDF800A02DD06A4651EC190B01F0B2
:10352000CBFF27E051EC180BC80F06D1002C0CBFC5
:103530009FED790B9FED7C0B1BE2002C0CBF9FEDE8
:10354000780B9FED7B0B14E2002C1ABF51EC190B8A
:10355000C80F002053EC182BDA0F1ED100280CBF27
:103560009FED6F0B9FED720B03E2DFF81C4404EB41
:103570001150009051EC180BC80F009806D100288C
:10358000CCBF9FED650B9FED660BF2E10028CCBF31
:103590009FED630B9FED600BEBE100280CBF9FEDEF
:1035A0005E0B9FED610BE4E151EC180B4B0043EA1D
:1035B000D07342000027BB4208BF524504D1B0EE91
:1035C00048AAF0EE68AA19E040F23345A5EB535241
:1035D000352A04DB00F0000001F000410CE0202A55
:1035E00003DD203AD140914000E001D1002003E00A
:1035F000002AC4BFD040904041EC1A0B51EC190B8B
:10360000C80F11D053EC182B51EC1A0BFFF756FDD5
:103610000AD0AFF3008002B04FF0FF30BDEC0A8B50
:103620006FF00041BDE8F48C53EC192B23F00041FE
:10363000B1F5801F22F000000BD2B94208BF5045FF
:10364000CDF800A011D06A4651EC190B01F034FFFF
:1036500009E0CD4E06EB11500090DFF89813CB48EF
:1036600003401046194341EC190B51EC190BC80FDC
:1036700008BF002638D021F0004053EC192B034638
:1036800043EC192B51EC1A0B4B0043EAD073420068
:103690000026BB4208BFB24204D1B0EE4A0AF0EEA7
:1036A0006A0A19E040F23445A5EB5352352A04DB8F
:1036B00000F0000001F000410CE0202A03DD203A78
:1036C000D140914000E001D1002003E0002AC4BFB6
:1036D000D040904041EC100B53EC1A2B51EC100BE6
:1036E000FFF7ECFC18BF01260098012824D151EC0B
:1036F000190BA74AA74BFFF7F1FC1DD253EC192B6E
:1037000000204FF08041FEF76FFA00259FEDBEBB11
:1037100041EC190B2EE000BF000000000000F07F1C
:103720000000000000000000000000000000F0FFAA
:10373000000000000000008053EC192B0020964987
:10374000FEF752FA9FED95AB53EC1A2BFEF752F9A8
:10375000FEF77CFCA0F120052846FFF79DFC002227
:10376000904BFEF741FA53EC1A2BFEF743F941EC6C
:103770001B0B6D0151EC190B53EC1B2BFFF71AFCC3
:1037800041EC1A0B53EC192B51EC1B0BFEF732F9E1
:1037900002460B4651EC1A0BFEF730FB41EC190BBD
:1037A00053EC192BFEF720FA41EC1C0B53EC1C2BAD
:1037B0007D487E49FEF718FA7D4A7E4BFEF71AF9DE
:1037C00053EC1C2BFEF710FA7B4A7C4BFEF712F9E8
:1037D00053EC1C2BFEF708FA794A7A4BFEF70AF9EC
:1037E00053EC1C2BFEF700FA774A784BFEF702F9F0
:1037F00053EC1C2BFEF7F8F9754A764BFEF7FAF8F6
:1038000053EC1C2BFEF7F0F9734A744BFEF7F2F8F9
:1038100053EC1C2BFEF7E8F953EC1A2BFFF7CAFB0D
:1038200082468B460020574953EC1B2BFFF7C2FB07
:1038300000224FF08043FEF7D7F952465B46FEF771
:10384000D9F853EC192BFEF7CFF953EC1A2BFEF7EE
:10385000D1F841EC190B009875A72F44FFF71CFC19
:10386000D7E90023FEF7C6F841EC1A0B53EC192BED
:103870005B485C49FEF7B8F953EC1A2BFEF7BAF82F
:1038800053EC182BFEF7B0F90022574BFFF726FC3C
:1038900041EC1B0B6AD30122544BFFF737FC5BD979
:1038A000C80F53EC1B2B1ABF002051495149FEF79A
:1038B000A1F8FEF7CBFB054653EC192B51EC180B86
:1038C000FEF792F982468B46D7E90201D7E9042335
:1038D000FEF790F853EC182BFEF786F99FED46BBE8
:1038E00053EC1B2BFEF780F952465B46FEF782F83D
:1038F000CDE9000153EC1A2B51EC180BFEF774F9CB
:1039000007468B462846FFF7C7FB02460B4638465C
:103910005946FFF74FFB53EC1B2BFEF765F9DDE92A
:103920000023FEF767F80CB1256000250095002202
:10393000144B002401F0F8FD21F0004320F00002B8
:10394000A34208BFA24241EC100B0FD04800401523
:10395000401C03D1090301D19FED290B4EB151EC5D
:10396000100B81F0004141EC100B02E09FED280BA1
:10397000F4E751EC100B02B0BDEC0A8BBDE8F48CFF
:103980000000F0BF0000F03F02FCFFFFFFFF0F80D0
:10399000CD3B7F669EA0E63F000050400000000047
:1039A0000000E03F0000903FF7DE29BFD8F8C23F9B
:1039B000F4B3FECC1A99C33F62CB68D96F46C73FB8
:1039C000C6C912DAC471CC3F4AE98A942449D23F6D
:1039D000F75F97999999D93FBC5555555555E53F8E
:1039E000FE822B654715F73F0000E0C00000E04075
:1039F0000000E0BF0000E03FEF39FAFE422EE63F54
:103A0000000000000000F07F000000000000F03F18
:103A1000000000000000000080B541EC100B002009
:103A2000009051EC100BFFF77FFC04BD000000007C
:103A3000000000000000F0BF000000000000008057
:103A400000000000000000800000000000000000F6
:103A5000000000C05294EEBF00000048204E51BE4E
:103A6000000000F86467BCBC00000000000000001B
:103A7000000000208133EDBF00000080B3DB14BEE6
:103A8000000000506706A3BC00000000000000001A
:103A9000000000D0E9DCEBBF00000008C39259BE73
:103AA00000000080B0D3B8BC00000000000000009F
:103AB00000000070F98FEABF000000C0A51028BE0A
:103AC000000000E8BFC0B0BC000000000000000023
:103AD00000000070284CE9BF00000060134B42BE9C
:103AE000000000C03D20B8BC000000000000000045
:103AF00000000050FA10E8BF000000C05FF62BBEC7
:103B0000000000905C71A7BC0000000000000000F5
:103B100000000020FCDDE6BF000000C0F8F154BE4C
:103B200000000018E9F6B9BC000000000000000029
:103B3000000000D0C3B2E5BF00000070E43254BE04
:103B400000000050DB06B4BC0000000000000000D4
:103B500000000010EF8EE4BF00000020F36252BEB0
:103B6000000000C02A879ABC00000000000000008E
:103B7000000000B02272E3BF000000F0E8E056BE93
:103B800000000028352DBDBC000000000000000032
:103B9000000000000A5CE2BF000000B0FA8E41BEE7
:103BA00000000040AE6FBDBC00000000000000003F
:103BB00000000000564CE1BF000000F015CD5FBED4
:103BC00000000000141C90BC000000000000000079
:103BD00000000040BD42E0BF00000030F93457BE95
:103BE000000000E06C1E93BC00000000000000001C
:103BF000000000E0F57DDEBF000000B08A535EBE2D
:103C000000000080DA77AABC00000000000000007D
:103C1000000000C09D81DCBF00000000FFA226BEA6
:103C20000000006057E2B0BC00000000000000008F
:103C300000000060F98FDABF000000580A8151BE11
:103C4000000000F05F60B8BC000000000000000051
:103C50000000000098A8D8BF000000607A7F45BE31
:103C6000000000D05433A3BC00000000000000009E
:103C7000000000600FCBD6BF000000D091CB40BE4B
:103C8000000000406D1BA0BC000000000000000010
:103C9000000000A0FBF6D4BF00000098C5CE52BEC5
:103CA000000000003A397EBC000000000000000067
:103CB000000000E0FE2BD3BF0000004073872BBE46
:103CC00000000000926879BC0000000000000000C5
:103CD00000000040C069D1BF00000058F16353BE2E
:103CE00000000080438D7CBC00000000000000004C
:103CF00000000080D85FCFBF000000181F8354BEB3
:103D0000000000B03F42A2BC000000000000000024
:103D10000000008067FCCBBF00000060FAFF53BECC
:103D200000000050E00DB8BC0000000000000000E2
:103D30000000000098A8C8BF000000607A7F35BE70
:103D4000000000C0543393BC0000000000000000DD
:103D500000000000DC63C5BF00000058D6FF54BE61
:103D600000000000396490BC00000000000000006A
:103D7000000000C0AD2DC2BF00000080A45915BED8
:103D8000000000E0484BABBC000000000000000059
:103D9000000000801A0BBEBF00000050BF3C5ABE9E
:103DA000000000A0B364B6BC0000000000000000EA
:103DB0000000008004D6B7BF00000040BBCF36BE75
:103DC0000000008076CEA8BC0000000000000000CB
:103DD0000000008032BBB1BF000000402A0043BE9B
:103DE00000000028C60CBDBC000000000000000060
:103DF000000000009473A7BF000000182B3B59BEC1
:103E0000000000C0E55DA5BC00000000000000004F
:103E100000000000EE4397BF000000A0E6C340BED4
:103E200000000020958DB5BC0000000000000000DF
:103E30000000000000000080000000000000008082
:103E400000000000000000800000000000000000F2
:103E500038B5040014D004F17005696821B9002058
:103E60002870204601F0FBFD24216960206802686B
:103E7000520852000260204600F03EF9012801D1AC
:103E8000012032BD606A10B1204600F073FA20684C
:103E9000416821F4904141602068816821F02A0145
:103EA000FFE781602068016841F001010160204660
:103EB000BDE8324000F0C1BA2DE9F047054605F1F2
:103EC00070078A46786820281446984661D1BAF16E
:103ED000000F14BF002C01205CD03878012858D086
:103EE000012139700020F86021227A6005F1500626
:103EF00000F0FAFA348081467480A868B0F5805FDB
:103F000004BF286900281ABF504600245446824640
:103F10000CE0BAF1000F12BF1AF8011B34F8021BB3
:103F2000C1F3080101857088411E7180708880B1DD
:103F30002868C1690A06ECD418F1010FF8D000F026
:103F4000D3FAA0EB0900804513D3B8F1000FEFD1ED
:103F50000FE02968C86941061ED418F1010FF8D096
:103F600000F0C2FAA0EB0900804502D3B8F1000FBF
:103F7000EFD12868016821F4D07101602868816858
:103F800049084900816020207860B86000203870BE
:103F900007E00220BDE8F08720207860002139701A
:103FA00002E00320BDE8F0870020BDE8F08770B58F
:103FB00004462568E9692A68AB6811F00F000BD147
:103FC000880671D596066FD5216E002900F0938082
:103FD0002046BDE870400847D80702D412F4907F0D
:103FE00062D0C80707D5D60505D501202862E56F40
:103FF00045F00105E567880708D5DD0706D5266881
:1040000002203062E06F40F00400E067480708D506
:10401000DD0706D5266804203062E06F40F002001C
:10402000E06708070AD5950601D4D80706D52568A4
:1040300008232B62E06F40F00800E067E06F002883
:1040400059D0880605D5910603D5216E09B12046C1
:104050008847E06F21688A68510601D400071DD5A2
:10406000204600F028FA206881684A0611D5816848
:1040700021F040018160E06E58B10FF25D41816333
:10408000E06E01F0ECFDB0B3E06E816BBDE8704016
:1040900008472046BDE8704001F067BE204601F0A9
:1040A00064FE0020E06770BDC80209D55B0207D539
:1040B0004FF4801028622046BDE8704001F056BEE3
:1040C000080607D5130605D5616EA1B12046BDE8E7
:1040D0007040084748060ED551060CD5286820F0D8
:1040E0004000286020216167002060662046BDE80E
:1040F000704001F03CBE70BDF8B50446944822689B
:104100001368A168034020690B4361690343E069B8
:104110000B430343136000265168E06821F44051CB
:10412000014351600025A3698A498A421CBF206A65
:1041300003439768884827F430673B438242936083
:1041400022D1864B1F6807F00307032F2AD8DFE828
:1041500007F00259575B0127E069B0F5004F40F0C6
:10416000B980082F00F2A880DFE807F0058790A645
:1041700095A6A6A69E0002F077F961684A0802EBB0
:104180004002B2FBF1F695E07548824225D1734BAF
:104190001F6817F00C0731D0042F33D0082F2FD011
:1041A0000C2F31D010278A42D6D1380006D0022FEA
:1041B0002CD0042F2CD0082F2DD0C3E002F054F9BE
:1041C000002800F0C080626802EB42018842C0F023
:1041D000B9801303834221D2B4E08A42E2D15F481E
:1041E000036813F4406309D0B3F5806F0AD0B3F5C8
:1041F000006F05D0B3F5406F06D0D3E70027D2E7B4
:104200000227D0E70427CEE70827CCE75548DAE7AE
:1042100002F0E2F8D4E74FF40040D4E737B1022FC0
:104220000DD0042F11D0082F1CD021E002F01CF972
:104230006268010E560816EB002079410DE04A49EC
:1042400011EB520045EB050107E002F0C5F862688A
:10425000010E560816EB00206941002302F072F9A6
:10426000064606E0530803F50003B3FBF2F600E050
:104270000125A6F540703D495FE002F0FDF8616858
:104280004A0802EB4002B2FBF1F613E060683849DD
:1042900001EB50010CE002F09FF861684A0802EB64
:1042A0004002B2FBF1F605E06068410801F580319B
:1042B000B1FBF0F6B6B200E001254FF6F071A6F1C1
:1042C000100088423ED23140C6F3420001432068CC
:1042D000C16038E0082F2BD8DFE807F0050D152A5C
:1042E0001A2A2A2A220002F0BFF8616800EB510066
:1042F000B0FBF1F61AE002F0BFF8616800EB510084
:10430000B0FBF1F612E06068164901EB50010BE0DA
:1043100002F062F8616800EB5100B0FBF1F605E0D5
:104320006068410801F50041B1FBF0F6B6B200E06B
:104330000125A6F110004FF6F071884202D22268E2
:10434000D66000E001250020206660662846F2BDA8
:10435000F369FFEF00800040003801408810024000
:10436000004400400024F400000024F400FD0F008D
:104370000048E80190F82410CA0706D5026853687F
:10438000816A23F400330B43536090F824108A07AA
:1043900006D502685368C16A23F480330B43536027
:1043A00090F824104A0706D502685368016B23F47D
:1043B00080230B43536090F824100A0706D5026847
:1043C0005368416B23F400430B43536090F824106F
:1043D000CA0606D502689368816B23F480530B43A9
:1043E000936090F824108A0606D502689368C16B22
:1043F00023F400530B43936090F824104A0610D521
:1044000002685368016C23F480130B435360036C00
:10441000B3F5801F05D15368416C23F4C0030B43EF
:10442000536090F824100A0606D501684A68806C2B
:1044300022F4002202434A60704770B5054605F138
:1044400070040020E06000F04FF80646286801681C
:104450000A0721D52868C16988021DD400F044F8F4
:10446000801BB0F1007FF5D305E000F03DF8801B24
:10447000B0F1007F14D32868016821F4D071016085
:104480002868816849084900816020206060A06038
:1044900000202070032070BD286801684A0703D5FA
:1044A0002868C1694802E0D520216160A160002030
:1044B0000021217070BD01680A6822F490720A60C0
:1044C00001688A68520852008A60202181670022B0
:1044D0000266704700000000806A00F1520100226D
:1044E0000A810A8001F041BC01480068704700BFA2
:1044F0005016002000F10103810704D010F8011BC1
:10450000820781B1FAD10268A2F10131914311F021
:10451000803104BF50F8042FF6E709BAB1FA81F1EF
:1045200000EBD100401CC01A704700000A4601464B
:1045300001484068FEF73ABEBC8B00202DE9F04FE1
:104540000FF2A41CA1B0DCE90089CDE900892A9D05
:10455000DFF8109C049100248DF843500D944FF027
:10456000FF38824616461F460FE0B3462C461BF81E
:10457000011B0498D0470028049000F0A2800D98F9
:10458000401C641E0D90F2D176193078252808D190
:10459000002100220791089209910A920B910C9236
:1045A0000DE06A464146304602F016F9050001D199
:1045B0000D98A1E0D9D50125E6E741F0010116F8F3
:1045C000010F2028F9D023280CD02B2804D02D2827
:1045D00005D0302809D076E041F00201EFE741F044
:1045E0000401ECE741F00801E9E741F01001E6E7DA
:1045F0000F9209E00F98484505DA00EB800402EBC2
:104600004402303A0F92761C3278A2F130000A2828
:10461000F0D330782E2818BFCDF8388022D116F884
:10462000010F2A2807D138683860761C50F8042B0F
:1046300038600E9216E02D280CBF761C0020002258
:104640000E920AE040B90E9A4A4505DA02EB82045E
:1046500003EB4403303B0E93761C3378A3F1300216
:104660000A2AEFD3ADF8401021A0317802F0BEF84D
:1046700008B116F8010B8DF842009DF84200682839
:1046800004D1307868280AD1622105E06C2804BF83
:1046900030786C2803D171218DF84210761C12A855
:1046A00006903A4616F8013B02A9504600F064F81D
:1046B00038B912AA02A9504600F0CAF900287FF5BD
:1046C00064AF404618E02A2892D13A683A6052F81E
:1046D000040B3A6000280F9003D540420F9041F040
:1046E0000401761C95E700000000000000000000B7
:1046F000686A6C747A4C000021B0BDE8F08F6228C3
:1047000020D0682811D06A2803D06C2827D07128BF
:1047100025D10868C01D20F007000860D0E90023FB
:1047200008300860194610467047002A0A680A6077
:10473000106803D0121D0A6000B217E0121D0A6053
:1047400080B217E0002A0A680A60106803D0121DC0
:104750000A6040B20AE0121D0A60C0B20AE0002AF4
:104760000A680A60106803D0121D0A60C1177047FA
:10477000121D0A60002170477CB50D4611461C468B
:104780002E69B4F1250200F051811C3A00F08680B8
:10479000121F022A40F282800E3A00F00B81521F53
:1047A0005AD0093A7AD0921E16D0521E35D0521ED7
:1047B000022A73D9121F30D0521F00F09A80521E65
:1047C0004AD0521E00F0E480D21E00F00181921EF9
:1047D00042D0D21E40D02FE195F83A406C2C09D03F
:1047E0006869421C6A610A680A6052F8043B0A6000
:1047F00033542BE10A680A6052F8043B0A600093C4
:10480000002201924FF0FF332B636A46294600F0E5
:104810009AF9002840F11A8105E195F83A00012241
:10482000FFF76DFFC5E900010023994204DA6869CA
:10483000411C69612D220DE0288F810704D568692C
:10484000411C69612B2205E0C00722D56869411C23
:104850006961202232541CE095F83A000022FFF7EB
:104860004EFFC5E9000195F83800010711D5D5E9DB
:1048700000230020834208BF82420AD044F0200077
:10488000782806D1686930213154401C421C6A6185
:104890003454214668693044E86087E00868C01DE8
:1048A00020F007000860D0E9002308300860C5E95F
:1048B0000023D5E90001C80F04D06869411C696173
:1048C0002D220DE0288F810704D56869411C69619C
:1048D0002B2205E0C00704D56869411C69612022CC
:1048E000325468693044E8602146284600F03AFABC
:1048F000ACE005F13A02507820B14FF0FF340FF6EA
:10490000343074E01078622808D0682824D06A28EF
:1049100012D06C282ED071280ED02BE00A680A60C5
:1049200052F8040B0A6020B94FF0FF340FF61C3028
:104930005DE0E96A017089E00A680A6052F8040BD8
:104940000A6020B94FF0FF340FF600304FE0EA6AFA
:10495000D317C0E9002379E00A680A6052F8040B13
:104960000A6020B94FF0FF340FF6E0203FE0E96A1B
:1049700001806BE00A680A6052F8040B0A6020B9F3
:104980004FF0FF340FF6C42031E0E96A01605DE0CA
:104990000A680A6052F8040B0A60002120F0000245
:1049A00021F0FF33C5E90023EE607821284600F0AE
:1049B0002DF94BE06C2285F83A200B680B6053F818
:1049C000042B0B6052BB4FF0FF340FF6B4200EE007
:1049D00095F83A206C2AF0D00868086050F8044B2B
:1049E0000860EC603CB94FF0FF340FF6782001F01E
:1049F00009FF201A76BD2E6B002E04D52046FFF746
:104A000079FD044608E032460021204601F01AFFF5
:104A1000002814BF041B3446AC6117E0294600F09F
:104A200092F8002812D54FF0FF3076BD6869411C1E
:104A300069612522325409E06969481C68612522B0
:104A40007254210002D0431C6B613454002076BDA7
:104A50002DE9F0410E4605469046726B7069316A49
:104A6000B46A121AB069521A716A121AF069521AAB
:104A7000121A96F83800141B41070DD4002C0BDDD8
:104A80002746B0682021A8470028B06057D0F06AB8
:104A9000401C7F1EF062F4D17369424631462846BD
:104AA00000F0B0FC00284AD1376A002F0ADDB06858
:104AB0003021A8470028B06041D0F06A401C7F1E1A
:104AC000F062F4D1B369F2683146284600F09AFCEE
:104AD000A8BB776A002F09DDB0683021A847B06015
:104AE00068B3F06A401C7F1EF062F5D1F068B169CE
:104AF000F36942183146284600F084FCF8B9B76AD9
:104B0000002F09DDB0683021A847B060B8B1F06A65
:104B1000401C7F1EF062F5D196F8380041070BD596
:104B2000002C09DDB0682021A847B06038B1F06AD8
:104B3000401C641EF062F5D10020BDE8F0814FF00A
:104B4000FF30BDE8F0812DE9F8470D46A3B02F6B8B
:104B5000002F0646904648BF6FF000470FF63C1402
:104B600001F09CFED4E90023696B4018CDE90123D4
:104B7000812828BF4FF0FF3042D20024002F33DDC0
:104B8000D8F8001001AA684601F028FE8146B9F164
:104B9000000F38D4D8F8000010B9B9F1010932D4A7
:104BA0004F4521DB6869484481280AD300216963A5
:104BB00003AA29463046FFF74BFF040014D4002017
:104BC000686103ABD5F814A04A46694603EB0A00B6
:104BD000FDF736FECA44C5F814A058F8040B0028A7
:104BE00018BFA7EB0907C9D14CB903AA294630461B
:104BF000FFF72EFF044614B9002068616863204661
:104C000024B0BDE8F0874FF0FF34F8E72DE9FC470A
:104C100007468C463E69BCF16F0F08BF082405D0DB
:104C20004CF02000782814BF0A2410243C25D7E932
:104C30000023BCF1640F18BFBCF1690F9046994680
:104C400006D100218B4203DAD8F1000869EB49094B
:104C50004FF0000AD14508BFD0451FD1386BE8B9E5
:104C6000082C4BD197F83800010747D530203B2559
:104C700086F83B0042E000280ED597F8380000F097
:104C80001400102808D17B6B7969386A5B1A1B1AEB
:104C90009A1A002AC8BF3A62BDE8F3878DF800C0AF
:104CA000404649462246E31701F04CFC3032D0B270
:104CB0006D1E3A28019504DB9DF80000A0F151011A
:104CC0008A187255404649462246E31701F03AFCDD
:104CD00089468046D14508BFD04503D0F868711990
:104CE0008842DDD3082C09D197F83800010705D593
:104CF000705D302802D06D1E30207055C5F13C0229
:104D0000BA617119F960386B8242B4DA821A3A6278
:104D10004FF6EF70398F01403987BDE8F3872DE9F1
:104D2000D04306460F4614464FF00008DFF838948B
:104D300012E0E00707D542464B4630463946FCF7BD
:104D400053FF06460F464046494642464B46FCF74F
:104D50004BFF641080468946002CEAD13046394624
:104D6000BDE8D0832DE9F34F054641F020048DB016
:104D7000D5E90089612C02AE09D0286B002848BF14
:104D8000062003D408BF672C01D101202863D5E990
:104D9000002358004015401C0ED119030CD00320ED
:104DA000A8619DF8381061391A2902D20FF2F46116
:104DB00011E00FF2F4610EE059004915491C0FD1C2
:104DC00018030DD10320A8619DF8381061391A2904
:104DD00014D30FF2DC61E8680322FDF731FDD3E163
:104DE000194621F00043B3F5801F10460DD200276D
:104DF000BB4208BFBA42019703D111E00FF2AC6188
:104E0000E9E701AA00F058FB0AE0DFF8607307EB5E
:104E10001352DFF85C3301921940DFF8583319431D
:104E2000C5E90001612C0ED1E86830210170821CB7
:104E3000EA609DF8381061290CBF78215821417033
:104E40006869801C6861D5E900AB2BF00043002045
:104E50002AF00002834204BF8242002300F05B81FB
:104E6000612C40F0AA80286B002847BF21210091C7
:104E7000401C0090009F7F1C4046494600220023B2
:104E8000FEF72CF9D94601998DF8082038BF89F032
:104E90000049091F002FD04601910DF1090040F390
:104EA0004981B349DFF8D0B20C91064640464946E5
:104EB00000220023FEF72AF980F03B814800400DD4
:104EC00000F11C0211D0002A0FDD40F2FF70824277
:104ED00005DB09F0004040EA0B01002013E00C98CC
:104EE000014041EA025140460DE029F00043002014
:104EF00028F00002834208BF82420FBF40461C22B6
:104F0000404601F0D1FC80468946FDF79FF8FF1F1F
:104F1000002F044609DDFEF7BFF802460B46404667
:104F20004946FEF747F880468946F01D072104E010
:104F300004F00F0200F8012D2411002C01DD491EA0
:104F4000F6D5491E5CBF002200F8012DF9D5ECE032
:104F50000020194602AA0A4400E05B1E12F801492B
:104F6000491E8442F9D00F2804D10DF10900425C9A
:104F7000521C4254002904D50198001D02AE5B1C4E
:104F80000190591E12D49DF838007218A0F13A070A
:104F9000147804F130085FFA88F43A2CA8BFB844BA
:104FA000491E02F80189F3D58DF83800286B0028D6
:104FB00040F1B080591E2963ACE0404649460022CA
:104FC0000023FEF78BF8019938BF89F0004947F2BA
:104FD00097504143694A91FBF2F20192D2F10702E4
:104FE00004DD40464946FFF79AFE0AE0524200209F
:104FF0006349FFF794FE02460B4640464946FCF7DC
:10500000FDFE8046662C286BDFF878B106BF019F55
:105010000A3706273F18142FC8BF142730208DF8F1
:10502000080089460DF1090000E03046002F34DD0C
:10503000064640464946FDF727F801460A4606F16E
:10504000080304200A26B2FBF6F606EB860EA2EB56
:105050004E02303203F8012C0A22B6FBF2F202EBC8
:10506000820EA6EB4E063036401E03F8026DE9D1E3
:10507000083F002F03F10806D7DD0846FCF7A2FE23
:1050800002460B4640464946FDF794FF00225B4628
:10509000FCF7AAFD80468946CBE70DF10901401ACD
:1050A0000DF1090604E00199491E401E0191761C8C
:1050B00031783029F7D0662C02D10199491C03E0E0
:1050C000652C0CBF012100212B6BCB189842B8BF77
:1050D000431E002B1ED4834204DAF05C3528A8BF9F
:1050E000392000DA30201946721E02EB010800E078
:1050F0005B1E18F80199491E8145F9D0392802D163
:10510000705C401C7054002904D50198401C164660
:105110005B1C0190019800B200901BB29DF8381002
:105120003246284600F034F82EE0C61D002F3FF727
:10513000BDAE30460DF10901401A00990346884280
:10514000C8BF0B46002B0DF109063FF52FAF834278
:10515000BFF6FEAE0DF10900C15C07297FF7F8AE7E
:105160000F20F6E6CBCCCC0C0000244002FCFFFF65
:10517000FFFF0F800000E03F0000F07FA0860100ED
:105180000000F03F84D797410FB0BDE8F08F0000DA
:105190002DE9F84783B006468A461746984601F03F
:1051A0001FFBB8F1000F406A356B90F8009002DCED
:1051B0004FF00108BFA74AF02000BDF93040662833
:1051C00008BF641C15D0672840F0848014F1040FD8
:1051D000C0F28680AC4280F2838096F83800641C6E
:1051E000010702D4A845B8BF454620B22D1A48BFD2
:1051F00000250FFA84FAF068B169BAF1000F25DCD6
:105200004A1C30234354002D03DC96F83800010774
:1052100003D5F06800F80290521C15EB0A0FB8BFD6
:105220006C4220B2441941424445B8BFA046B26125
:1052300071620FFA88F5F561F068B3692A4639465C
:105240001844FDF7FDFA641BB462C4E022B2904535
:10525000084417DA42463946FDF7F2FAB06940448D
:10526000B061AAEB0801002D716203DC96F83810DA
:105270000A0705D5F16801F80090F069401CF0615B
:10528000B562A8E03946FDF7DBFAB069002D50445D
:10529000A8EB040803DC96F838100A0703D5F16878
:1052A00001F80090401CB0610FFA88F08542F36865
:1052B000B069B8BFA8460FFA88F207EB0A01184494
:1052C000FDF7BEFAB1690FFA88F00144B161281AFE
:1052D000706280E0BAF1610F14D14FF0700A16E0ED
:1052E000A84504DA96F838100A0758BF45466D1EDF
:1052F00048BF0025BAF1670F14BF4FF0450A4FF0C1
:10530000650A04E0BAF1410F08BF4FF0500AB169D5
:10531000F368481CB061002D17F8012B5A5403DCC8
:1053200096F838100A071BD5F168431CB36101F8E1
:105330000090002D14DDA8F101080FFA88F039461D
:105340008542F768B8BFA8460FFA88F2F818FDF74B
:1053500077FAB0690FFA88F108446D1AB061756286
:10536000F068B1690844002C80F800A003D42B2217
:105370004270811C03E02D2141706442811C002099
:105380006A460AE023460A2493FBF4F404EB8405FE
:10539000A3EB450302F8013B401C24B2002CF1DCD6
:1053A000012806DC4AF02002652A04BF302201F8F9
:1053B000012B48B9302001F8010B07E0401E1DF811
:1053C0000030303301F8013B0028F7DCF268B069A7
:1053D0001044091AF16196F8380000F01400102802
:1053E0000DD17269B169706A8A18F1698218B06A60
:1053F0008A188218706B8242BCBF821A326204B073
:10540000BDE8F087F8B505460E4617461C46002055
:1054100074B117F8011BB068A847B06030B1F06AEA
:10542000401CF0620020641EF3D1F2BD4FF0FF304B
:10543000F2BD00007072696E74665F733A20256E6B
:1054400020646973616C6C6F776564007072696E5B
:1054500074663A2062616420256E20617267756D02
:10546000656E74007072696E74665F733A20626173
:105470006420257320617267756D656E740000008D
:105480007072696E74665F733A2062616420256C85
:105490007320617267756D656E7400000000000016
:1054A000000000006E616E004E414E00696E6600A5
:1054B000494E46003000000010B5144600F002F8D6
:1054C000226010BDC1F30A5343B14A0012F5001F18
:1054D00028D2A3F2FE32A1EB0251704750EA410CF0
:1054E00020D001F0004C31EA0C01B1FA81F204BF86
:1054F000B0FA80F3D2180B3AB2F120032CBF00FAB5
:1055000003F1914041EA0C013EBFC2F1200C20FAA8
:105510000CF319439040524240F2FD33D21A01EB92
:105520000351704700227047F8B52DED0A8B41EC0E
:105530001A0B48004015109D401C43EC182B25D039
:1055400051EC1A0B21F000410022914208BF904219
:105550001CD051EC180B48004015401C16D051ECE3
:10556000180B21F00041914208BF90420ED051EC3F
:105570001A0BDFF86033FDF7B1FD80F0AA8055EC1F
:10558000184B9FED840B05F00042B3E051EC1A0B71
:1055900048004015401C02D1090340F0958151ECB0
:1055A000180B48004015401C01D109035AD151EC99
:1055B000180B21F00043002620F00002B34208BF80
:1055C000B24208D151EC1A0B48004015401C49D199
:1055D000090347D10DE048004015401C12D10903D2
:1055E00010D151EC1A0B48004015401C3AD1090368
:1055F00038D1AFF30080BDEC0A8B4FF0FF306FF075
:105600000041F4BD51EC1A0B21F00041B14208BF3A
:10561000B0422AD151EC180B4800400D05EB0002B6
:1056200036D151EC180B21F00041B14208BFB04215
:1056300006D02A4651EC180B01F036F941EC180B54
:1056400051EC180B21F0004320F00002B34208BFD8
:10565000B24205D048004015401C03D1090301D1D6
:10566000AFF3008051EC180B30E151EC1A0B4800FD
:105670004015401C26D1090324D153EC1A2B51ECC0
:10568000180BBDEC0A8B01B0BDE8F040FCF7ACBADA
:10569000002AC6DD40F2FF70824209DB9FEDA10BBC
:1056A00053EC102B01F000410B4343EC182BC7E7E0
:1056B0006FF31E5141EA025155EC184B0D4645EC73
:1056C000184BBDE755EC184B9FED320B05F000422F
:1056D00010E00122804BFDF719FD11D89FED910BD1
:1056E00051EC100B55EC184BAFF3008005F0004067
:1056F00040EA010251EC100BBDEC0A8B1146F4BDDF
:1057000053EC1A2B75487649FCF76EFA41EC100BF6
:1057100053EC102B9FED739B03F0004251EC190BDF
:105720000C46144353EC192B51EC100B2346FCF799
:1057300061F9FCF78BFC0446FDF7AEFC41EC1B0B5A
:1057400053EC1B2B4FF078406849FCF74DFA0246AA
:105750000B4651EC1A0BFDF72DFC06460F4653EC99
:105760001B2B63486349FCF73FFA02460B46304661
:105770003946FDF71FFC41EC1A0B21F000410022D5
:105780005D4BFDF7ABFC09D2B0EE48AAF0EE68AA7B
:1057900056E000BF000000000000000053EC1A2B90
:1057A00051EC1A0BFCF720FA41EC1B0B53EC1B2BB2
:1057B00052485349FCF718FA524A534BFCF71AF96E
:1057C00053EC1B2BFCF710FA41EC1C0B53EC1B2B7E
:1057D0004E484F49FCF708FA4E4A4F4BFCF70AF97E
:1057E00053EC1B2BFCF700FA53EC192BFCF702F9D6
:1057F00053EC1A2BFCF7F8F941EC190B53EC1C2B6A
:10580000FCF7F8F89FED45AB53EC1A2BFCF7F2F8D8
:1058100006460F4651EC1C0B53EC192BFDF7CAFB47
:1058200053EC1A2BFCF7E6F802460B463046394695
:10583000FCF7E4FA53EC182BFCF7D6F941EC1A0B01
:1058400051EC1A0B2A194800400D02EB000319D045
:10585000002B17DD40F2FF70834209DB9FED310B17
:1058600053EC102B01F000410B4343EC1A2B18E0D2
:105870006FF31E5141EA035155EC1A4B0D4645ECAE
:105880001A4B0EE051EC1A0B21F000410026B142F8
:1058900008BFB04205D051EC1A0B01F005F841ECFD
:1058A0001A0B51EC1A0B21F00043002420F00002E7
:1058B000A34208BFA24205D048004015401C03D1B6
:1058C000090301D1AFF3008051EC1A0BBDEC0A8B38
:1058D000F4BD000000C89CC000C89C40FE822B653F
:1058E0004715F73F000000000000E03F422EE63F72
:1058F000F2E4D5BCE7E84B3E0000903C112E578106
:10590000A03F503F5843128C8F71BC3F4BE8A541DC
:10591000B752013F0BBDF3DAE8708C3F0000000086
:105920000000F03F000000000000F07F80B56748F5
:10593000816841F001018160816801F001010091FD
:105940000099026842F080520260006800F08050C6
:1059500000900098052001F045F8BDE808400122BC
:1059600000216FF0040001F04AB838B586B001A9F3
:105970000022002300241CC10CC10068544DA84221
:1059800022D1544C206840F001002060122221688E
:1059900001F0010100914FF4C06100980191029261
:1059A00001210391032204230492059301A94FF0DE
:1059B000904001F077F8E06840F40010E060E068A3
:1059C00000F400100090009807B030BD38B586B0E4
:1059D000044601A80021002200230EC006C025684D
:1059E000B5F1804F39D13B483B4DC16841F00101D1
:1059F000C160C16801F0010100910099026842F0A4
:105A0000020202600222006800F0020000900821F9
:105A100000980292039301910322012304920593BB
:105A200001A92E4801F03EF80421696080212C482C
:105A30002860296120200022E8614FF44051AA60CB
:105A4000EA606A61AA612962284600F04DF808B14F
:105A500001F09EFAA562AC62256307B030BD38B58F
:105A600086B001A90022002300241CC10CC10068DB
:105A70001C4DA84227D11748416941F4804141613A
:105A8000416901F4804100910099026842F00202EC
:105A90000260E021006800F00200009002220098FD
:105AA0000E4801910292072103220591039304926B
:105AB00001A900F0F7FF4FF4803001F0B1FA4FF484
:105AC000003001F0ADFA07B030BD000058100240C0
:105AD000005400404C100240748B00200004004829
